:020000040000FA
:040000001FD00ED02F
:0400080004EF04F00D
:040018000CEF04F0F5
:10002000A66E05A01200550EA76EAA0EA76EA68298
:100030000000A6B2FED712000A26D8B00B2A120082
:10004000A66AA968AA68A680A83C00EF04F0066A20
:100050001C0E056E0F019394000E006F080E016FC9
:10006000E81E056F000E026F070E036FFF0E186F7C
:10007000EB0E196FFF0E1A6FF80E1B6F030E706EEA
:100080009E0E716E030E726E200E736E6F6A939EDB
:10009000939C818E818C0400609E60AEFED70FEE33
:1000A00066F065500F0B096EF46EF5E064B02BD06E
:1000B00010EE01F0EECFE6FFF42EFCD70650EBE099
:1000C000010AD8A407D0A968AA68A86A040EA8DF04
:1000D000819CFF000650020A05E10B6A0A6A0C9037
:1000E0000C6AD9D70650030A0AE107500A2606E12E
:1000F00008500B2203E10CB001D073D076D006502B
:10010000040AC9E176D00350F86EF00BF36E02508A
:10011000F76EAA6E0150F66EA96E05A605D00950BD
:100120000126E86A02220322300EF36001D008D0D3
:10013000F350300A01E12AD0F350F00AACE132D09A
:1001400005A405D0F6503F0B02E1940E69DF05B21D
:10015000A2D7F650070B9FE1080EF46EEE50F56E35
:100160006BDF0D00F42EFAD7080EF46E0A00ED5086
:10017000F42EFCD7840E54DF080EF46E0900F550FF
:10018000EE18D8A40C80F42EF9D785D7EF50F56E71
:1001900053DF0C00C40E44DF0900F550EE18F42EB6
:1001A000F5D779D7EF50A86E47DF040E39DFA66A7E
:1001B000A680A850EE18D8A40C80A94AAA2AF42E2A
:1001C000F1D769D740B7FED7800E416F080E426F56
:1001D000000E436F040E446F448164A04491408735
:1001E0005AD7010E466F456FEDD7466B010E456F2E
:0C01F000E9D7020E466F010E456FE4D700
:0401FC00D9CFE6FF72
:10020000E1CFD9FF020EE126DE6ADD6ADE6ADD6A31
:10021000DECF38F0DDCF39F0D890395004E6020E49
:10022000385C000E39582BE2DECFE9FFDDCFEAFF64
:10023000090EEA02F3CFEAFF090EE902F3CFE9FF64
:10024000F450EA26000EE926010EEA22EF50080BD0
:1002500011E0DECFE6FFDDCFE6FF00EC14F0E55263
:10026000E552E66EDECFE6FFDDCFE6FF12D8E552BF
:10027000E552E552DF2A010E01E3DB2AC9D7020E5F
:10028000E15C02E2E16AE552E16EE552E7CFD9FFB7
:100290001200D9CFE6FFE1CFD9FFFD0EDBCFE9FF9A
:1002A000FE0EDBCFEAFF070EEA02F3CFEAFF070EEE
:1002B000E902F3CFE9FFF450EA26900EE926010E99
:1002C000EA22EF5001E0A8D0FD0EDBCFE9FFFE0EE1
:1002D000DBCFEAFF070EEA02F3CFEAFF070EE902DF
:1002E000F3CFE9FFF450EA26900EE926010EEA2248
:1002F000EE52EF9EEF46FD0EDBCFE9FFFE0EDBCFA9
:10030000EAFF070EEA02F3CFEAFF070EE902F3CF96
:10031000E9FFF450EA26900EE926010EEA22EE5299
:10032000FC0EDB50EF12FD0EDBCFE9FFFE0EDBCF44
:10033000EAFF070EEA02F3CFEAFF070EE902F3CF66
:10034000E9FFF450EA26900EE926010EEA22EE5269
:10035000EF50030B03085FE1FD0EDBCFE9FFFE0E5C
:10036000DBCFEAFF070EEA02F3CFEAFF070EE9024E
:10037000F3CFE9FFF450EA26900EE926010EEA22B7
:10038000010EEF6EFD0EDBCFE9FFFE0EDBCFEAFFC5
:10039000070EEA02F3CFEAFF070EE902F3CFE9FF07
:1003A000F450EA26900EE926010EEA22030EE92611
:1003B000000EEA22EE6AED6AFD0EDBCFE9FFFE0ECB
:1003C000DBCFEAFF070EEA02F3CFEAFF070EE902EE
:1003D000F3CFE9FFF450EA26900EE926010EEA2257
:1003E000EE52EF6AFD0EDBCFE9FFFE0EDBCFEAFF38
:1003F000070EEA02F3CFEAFF070EE902F3CFE9FFA7
:10040000F450EA26900EE926010EEA22020EE926B1
:10041000000EEA22EF6A32D1FD0EDBCFE9FFFE0EBD
:10042000DBCFEAFF070EEA02F3CFEAFF070EE9028D
:10043000F3CFE9FFF450EA26900EE926010EEA22F6
:10044000020EE926000EEA22EF2AFD0EDBCFE9FFBD
:10045000FE0EDBCFEAFF070EEA02F3CFEAFF070E3C
:10046000E902F3CFE9FFF450EA26900EE926010EE7
:10047000EA22EE52EF50E824E66EFD0EDBCFE9FFF4
:10048000FE0EDBCFEAFF070EEA02F3CFEAFF070E0C
:10049000E902F3CFE9FFF450EA26900EE926010EB7
:1004A000EA22EE52E552E750EF6EFD0EDBCFE9FF98
:1004B000FE0EDBCFEAFF070EEA02F3CFEAFF070EDC
:1004C000E902F3CFE9FFF450EA26900EE926010E87
:1004D000EA22EE52FC0EDB50EF12FD0EDBCFE9FFFD
:1004E000FE0EDBCFEAFF070EEA02F3CFEAFF070EAC
:1004F000E902F3CFE9FFF450EA26900EE926010E57
:10050000EA22020EE926000EEA22EF50010B70E10A
:10051000FD0EDBCFE9FFFE0EDBCFEAFF070EEA029E
:10052000F3CFEAFF070EE902F3CFE9FFF450EA2622
:10053000900EE926010EEA22030EE926000EEA22B9
:10054000010ED890EE36ED36E806FBE1FD0EDBCF6E
:10055000E9FFFE0EDBCFEAFF070EEA02F3CFEAFF68
:10056000070EE902F3CFE9FFF450EA26900EE926E0
:10057000010EEA22EE52EF50030B010802E1010ED8
:1005800001D0000E386E396A38BE3968FD0EDBCFF7
:10059000E9FFFE0EDBCFEAFF070EEA02F3CFEAFF28
:1005A000070EE902F3CFE9FFF450EA26900EE926A0
:1005B000010EEA22030EE926000EEA223850EE125E
:1005C0003950ED12FD0EDBCFE9FFFE0EDBCFEAFF67
:1005D000070EEA02F3CFEAFF070EE902F3CFE9FFC5
:1005E000F450EA26900EE926010EEA22EE52EF6A56
:1005F000FD0EDBCFE9FFFE0EDBCFEAFF070EEA02BE
:10060000F3CFEAFF070EE902F3CFE9FFF450EA2641
:10061000900EE926010EEA22020EE926000EEA22D9
:10062000EF5020082BE1FD0EDBCFE9FFFE0EDBCF04
:10063000EAFF070EEA02F3CFEAFF070EE902F3CF63
:10064000E9FFF450EA26900EE926010EEA22EF6A4D
:10065000FD0EDBCFE9FFFE0EDBCFEAFF070EEA025D
:10066000F3CFEAFF070EE902F3CFE9FFF450EA26E1
:10067000900EE926010EEA22EE52EF6AE552E7CF2C
:04068000D9FF12008C
:0C0684002DC037F02CC036F02C50310295
:10069000F4CF2BF0F3CF2AF02D503202F4CF2DF00F
:1006A000F3CF2CF03102F3502B26F4502C22E86AC1
:1006B0002D2236503202F3502B26F4502C22E86AB9
:1006C0002D2232AE68EF03F036502C5E37502D5A93
:0E06D00037AE000C31502C5E32502D5A000C0B
:0206DE0046656F
:1006E00002110011010000000000000000000000E5
:0E06F0000000000000000000000000000000FC
:0206FE00000EEC
:10070000F36E00EE00F0030E01D81200EA6002D092
:0E071000EE6AFCD7F350E9601200EE6AFCD7E7
:08080000000020EF04F01200DB
:0808080007ED04F012000600E8
:06081000BAEF0BF012002C
:020816001200CE
:060818003CEF0CF01200A1
:01081E0000D9
:06082A0001001E080000A1
:08083000CA01000001000000F4
:1008400012EE00F0800E006EA50EE66E002EFDD7B3
:1008500012EE00F022EE00F0F86A259C0BEC04F09A
:1008600034EC04F0FBD71200D9CFE6FFE1CFD9FF7B
:10087000020EE126DF6ADE52010EDD6E27EC0DF07E
:10088000076A0A6A0B6A010EE66E6DEC0CF0E5521F
:10089000096E73D8F3EC19F0B9D801EC0DF0F8EC4F
:1008A0001AF001EC0DF0020EE66E6DEC0CF0E55264
:1008B000036E046A03C004F0036A030EE66E6DEC77
:1008C0000CF0E552386E396A38500326395004224C
:1008D0000350041003E1EE0E036E0468670E056E0C
:1008E000120E066E010EDB50E8B0818AE8A0819AF4
:1008F000010EDB7058EC05F0000905E1818C140E47
:100900000B6E29EC06F0E66A9AEC16F0E5523FEC25
:1009100015F085EC16F0000905E0DF5003E1010E4B
:10092000DF6E20D085EC16F000091CE1DF501AE0E4
:10093000DF6A075003E0076A819E14D0818E500E53
:10094000136E0450146E03C038F004C039F0000177
:10095000396A3850156E030EE66EAEEC05F0E552BE
:10096000010E076EBFD7020EE15C02E2E16AE552BA
:10097000E16EE552E7CFD9FF1200D9CFE6FFE1CF14
:10098000D9FF020EE126DE6ADD6AF26AA66AA56A6E
:10099000A26A9F6A210EA36EA06A9D6AF06AF16A3C
:1009A000F26AA46AA16A9E6AD08E410ED56ED66A9A
:1009B000D76AF28AD58EF18458EC05F0000906E179
:1009C000C8C1E9FFC9C1EAFFEF6AF6D7060E0C6E8F
:1009D000D00E1B6E070E1C6E1D6AC80E1E6E1F6A9F
:1009E000206A140E216E226A236AD08EF28CF28E57
:1009F000E66A38EC0DF0E552020EE15C02E2E16AD3
:100A0000E552E16EE552E7CFD9FF1200EE0E036E1C
:100A100004680D6ABE0E0E6E400E0F6E0F017E0E44
:100A2000416F400E426F010E456F020E466FF28E0F
:100A3000F28C1BEF05F0800E6F6E6EAEFED7B00E1F
:100A4000776E0D01F86B606A030E706E9E0E716E0C
:100A5000030E726E200E736E010ED46FD56BD86BC1
:100A60000F01186B080E196F1A6B1B6B1C6B080EAD
:100A70001D6F1E6B1F6B800E016F0D01E06BE16B34
:100A8000E26BE36BE46BE56BE66BE76BF06BF16BD2
:100A9000F26BF36BFA6BFC6B606A0F01506B0E012B
:100AA000206B306B406B506B606B706B6F6A120029
:100AB000070E6F14010A15E0010A0DE0020E6F5CCB
:100AC000070B100DF3500101C86FC96B200EC8272A
:100AD0000E0EC9230CD00101600EC86F0F0EC96F36
:100AE00006D00101500EC86F0F0EC96F00D0C8C1EB
:100AF000E9FFC9C1EAFFEF50800B03E0000E03D00D
:100B000002D0010E00D01200D9CFE6FFE1CFD9FF0D
:100B1000FE0EDB50136E030EE66E05D8E552E5526D
:100B2000E7CFD9FF1200D9CFE6FFE1CFD9FF04C04C
:100B300038F0396A3850146E0350156EFE0EDBCF54
:100B4000E6FF0CD8E552E552E7CFD9FF1200030EBD
:100B5000136E010EE66E02D8E5521200D9CFE6FF01
:100B6000E1CFD9FFFE0EDB50126E0F0E0E16B00E47
:100B70000E120A0E086E15D8E552E7CFD9FF120003
:100B8000D9CFE6FFE1CFD9FF300E136EFE0EDB505A
:100B9000146E020EE66EE2DFE552E552E7CFD9FFB2
:100BA0001200D9CFE6FFE1CFD9FF040EE126818CF8
:100BB000140E0B6E020E006E016A0F013051080B0D
:100BC00005E0015003E1005001E0F7D7DF6AD9509A
:100BD000010FE96EDACFEAFF300EEE6E0F0EED6E0A
:100BE000030EDB6A0E0EF36E030EDBCFF4FFF35041
:100BF000F45C18E2DF50DF2AEA6A0D0FE96E000E9E
:100C0000EA22EF50E66E010EDBCFE9FFDB2A020E8F
:100C1000DBCFEAFF01E3DB2AE552E750EF6E030E7C
:100C2000DB2AE0D7020E006E016A0F013051080B7B
:100C300005E0015003E1005001E0F7D73087040ED2
:100C4000E15C02E2E16AE552E16EE552E7CFD9FFED
:100C50001200D9CFE6FFE1CFD9FF160EE126C8C1B9
:100C6000E9FFC9C1EAFF060EEB50570A01E1F7D3CD
:100C7000850A01E13BD3860A01E12DD3070A01E190
:100C80001FD3C50A01E1B8D2E70A01E1E3D1600A46
:100C900001E1B2D11F0A01E18FD15B0A01E186D1E6
:100CA0005D0A01E17ED1540A01E168D14C0A01E1FB
:100CB0002CD1520A01E1EFD0310A01E1D5D0E20A8C
:100CC00001E184D0080A01E181D0090A2FE0080A75
:100CD0002DE0020A02E022EF0BF0C8C1E9FFC9C112
:100CE000EAFF090EEB503A6E3B6A3AC03BF03A6AB3
:100CF000C8C1E9FFC9C1EAFF0A0EEB5000013A245E
:100D0000386E000E3B20396E38C0DEFF39C0DDFF83
:100D1000DF50051803E1DE52DD50061805E1010E33
:100D2000E66E9AEC16F0E55223EF0BF0C8C1E9FF2E
:100D3000C9C1EAFF070EEB503A6E3B6A3AC03BF07E
:100D40003A6AC8C1E9FFC9C1EAFF080EEB500001C9
:100D50003A24386E000E3B20396E020E38C0DBFF9D
:100D6000030E39C0DBFFC8C1E9FFC9C1EAFF090EA4
:100D7000EB503A6E3B6A3AC03BF03A6AC8C1E9FFB1
:100D8000C9C1EAFF0A0EEB5000013A24386E000E8A
:100D90003B20396E040E38C0DBFF050E39C0DBFF87
:100DA000010EE66E040EDBCFE6FF050EDBCFE6FF9D
:100DB000020EDBCFE6FF030EDBCFE6FFB0EC1CF04C
:100DC000386E050EE15E385023EF0BF0C8C1E9FF25
:100DD000C9C1EAFF070EEB503A6E3B6A3AC03BF0DE
:100DE0003A6AC8C1E9FFC9C1EAFF080EEB50000129
:100DF0003A24386E000E3B20396E060E38C0DBFFF9
:100E0000070E39C0DBFFC8C1E9FFC9C1EAFF090EFF
:100E1000EB503A6E3B6A3AC03BF03A6AC8C1E9FF10
:100E2000C9C1EAFF0A0EEB5000013A24386E000EE9
:100E30003B20396E080E38C0DBFF090E39C0DBFFDE
:100E4000E66A080EDBCFE6FF090EDBCFE6FF060EF3
:100E5000DBCFE6FF070EDBCFE6FFB0EC1CF0386E11
:100E6000050EE15E3850EFD395EC0BF0F3CF38F080
:100E7000F4CF39F0010E381801E139500BE1C8C147
:100E8000E9FFC9C1EAFF090EEB50E66EE66AF1DB45
:100E9000E552E552D8D3075037E0C8C1E9FFC9C1D0
:100EA000EAFF070EEB50E76E0A0EE7CFDBFFC8C183
:100EB000E9FFC9C1EAFF080EEB50E76E0B0EE7CF62
:100EC000DBFF0A0EDB50386E396A38C039F0386AF9
:100ED0000B0EDB5000013824036E000E3920046E27
:100EE0000A0EDBCFE6FF020EE66E7DEC0CF0E5525B
:100EF000E5520B0EDBCFE6FF030EE66E7DEC0CF049
:100F0000E552E552076A819E9ED3EF0E136EDE0E08
:100F1000F66E060EF76E0800F550146EDF0EF66ED4
:100F2000060EF76E0800F550156EE00EF66E060E12
:100F3000F76E0800F550166EE10EF66E060EF76EAF
:100F40000800F550176EE20EF66E060EF76E0800FA
:100F5000F550186EE30EF66E060EF76E0800F550AB
:100F6000196EE40EF66E060EF76E0800F5501A6E56
:100F7000080EE66EAEEC05F0E55265D3D6DBF3CF96
:100F800038F0F4CF39F0010E381801E1395008E19A
:100F9000E668FF0EE66E7DEC0CF0E552E552FF00D0
:100FA00052D309A002D037EC1AF04DD3010EE66EF1
:100FB00038EC0DF0E55247D3500E136E03C038F0F5
:100FC00004C039F0080E0F0B05E0D89039323832E2
:100FD000E806FBE13850146E03C038F004C039F065
:100FE0000001396A3850156E030EE66EAEEC05F05E
:100FF000E55201EC0DF027D39D0E136E03C038F0BF
:1010000004C039F0080E0F0B05E0D89039323832A1
:10101000E806FBE13850146E03C038F004C039F024
:101020000001396A3850156EDE0EF66E060EF76E48
:101030000800F550166EE00EF66E060EF76E08000C
:10104000F550176E050EE66EAEEC05F0E55201ECBC
:101050000DF0F9D26ADBF3CF38F0F4CF39F0385025
:10106000391001E1C8D0C8C1E9FFC9C1EAFF090EC2
:10107000EB50E76E0C0EE7CFDBFF0C0EDB0425E137
:10108000970E136E03C038F004C039F0080E0F0B32
:1010900005E0D89039323832E806FBE13850146E5A
:1010A00003C038F004C039F00001396A3850156EB9
:1010B0000C0EDB50166E0950176E050EE66EAEEC88
:1010C00005F0E55201EC0DF096D0120EF36E0C0E09
:1010D000DBCFF4FFF350F45C31E2970E136E03C0E4
:1010E00038F004C039F0080E0F0B05E0D890393203
:1010F0003832E806FBE13850146E03C038F004C003
:1011000039F00001396A3850156E0C0EDB50166E3E
:101110000C0EDB50FE0F090DF3CFE9FFF4CFEAFF11
:10112000000EE926010EEA22EF50176E050EE66E5C
:10113000AEEC05F0E55201EC0DF05DD00C0EDB508D
:1011400012082BE1970E136E03C038F004C039F07B
:10115000080E0F0B05E0D89039323832E806FBE173
:101160003850146E03C038F004C039F00001396AF9
:101170003850156E0C0EDB50166E000EE66EE66AE9
:10118000BDEC1BF0E552E552176E050EE66EAEECB7
:1011900005F0E55201EC0DF02ED00C0EDB501308DB
:1011A0002AE1970E136E03C038F004C039F0080E20
:1011B0000F0B05E0D89039323832E806FBE13850A1
:1011C000146E03C038F004C039F00001396A385099
:1011D000156E0C0EDB50166E010EE66EE66ABDEC67
:1011E0001BF0E552E552176E050EE66EAEEC05F00B
:1011F000E55201EC0DF027D298DAF3CF38F0F4CFB6
:1012000039F0385039105BE0C8C1E9FFC9C1EAFFC5
:10121000090EEB50E76E0D0EE7CFDBFF0D0EDB0482
:1012200010E1C8C1E9FFC9C1EAFF0A0EEB50096E1F
:101230000950E66E010EE66E7DEC0CF0E552E552CB
:101240003ED0120EF36E0D0EDBCFF4FFF350F45CC4
:1012500036E2C8C1E9FFC9C1EAFF0A0EEB50E66EEB
:101260000D0EDB50FE0F090DF3CFE9FFF4CFEAFFBF
:10127000000EE926010EEA22E552E750EF6E0D0E50
:10128000DB50FE0F090DF3CFE9FFF4CFEAFF000EAC
:10129000E926010EEA22EF50E66E0D0EDB50FE0F3E
:1012A000060FE66E7DEC0CF0E552E5520D0EDB50BC
:1012B000FE0FE66EE66AD2EC10F0E552E552C3D1BD
:1012C00034DAF3CF38F0F4CF39F03850391002E087
:1012D000010E0A6EB8D129DAF3CF38F0F4CF39F025
:1012E0003850391002E00A6A819EADD10A5001E1FE
:1012F000B5D0C8C1E9FFC9C1EAFF070EEB503A6E8D
:101300003B6A3AC03BF03A6AC8C1E9FFC9C1EAFF8B
:10131000080EEB5000013A24386E000E3B20396E67
:101320000E0E38C0DBFF0F0E39C0DBFFC8C1E9FF6E
:10133000C9C1EAFF090EEB503A6E3B6A3AC03BF076
:101340003A6AC8C1E9FFC9C1EAFF0A0EEB500001C1
:101350003A24386E000E3B20396E100E38C0DBFF89
:10136000110E39C0DBFFC8C1E9FFC9C1EAFF0B0E8E
:10137000EB50E76E120EE7CFDBFFC8C1E9FFC9C132
:10138000EAFF0C0EEB50E76E130EE7CFDBFF100EFB
:10139000F36E120EDBCFF4FFF350F45C4AE2120E50
:1013A000DB50090DF3CFE9FFF4CFEAFF000EE92689
:1013B000010EEA22070EE926000EEA220E0EDBCF0E
:1013C000EEFF0F0EDBCFEDFF120EDB50090DF3CF5A
:1013D000E9FFF4CFEAFF000EE926010EEA22020E31
:1013E000E926000EEA22100EDBCFEEFF110EDBCF56
:1013F000EDFF0E0EDBCFE6FF0F0EDBCFE6FF120E8A
:10140000DB50E824160FE66EDBEC0CF0E552E552FB
:10141000E552100EDBCFE6FF110EDBCFE6FF120E1A
:10142000DB50E824360FE66EDBEC0CF0E552E552BB
:10143000E552120EDB50100811E1100EDBCF05F063
:10144000110EDBCF06F005C0E6FF06C0E6FF040E76
:10145000E66EDBEC0CF0E552E552E552F4D065D9CE
:10146000F3CF38F0F4CF39F03850391001E1E9D03A
:10147000140EDB6A150EDB6A140EDB6A150EDB6ACE
:10148000140EDBCF38F0150EDBCF39F0D890395081
:1014900004E6100E385C000E395801E3A4D0F20EB9
:1014A000136E03C038F004C039F0080E0F0B05E0CE
:1014B000D89039323832E806FBE13850146E03C058
:1014C00038F004C039F00001396A3850156E140E36
:1014D000DBCFE9FF150EDBCFEAFF090EEA02F3CFFF
:1014E000EAFF090EE902F3CFE9FFF450EA26000E05
:1014F000E926010EEA22070EE926000EEA22EECFC7
:1015000038F0EFCF39F03950166E140EDBCFE9FF0B
:10151000150EDBCFEAFF090EEA02F3CFEAFF090E50
:10152000E902F3CFE9FFF450EA26000EE926010EA6
:10153000EA22070EE926000EEA22EECF38F0EFCFBE
:1015400039F00001396A3850176E140EDBCFE9FF0D
:10155000150EDBCFEAFF090EEA02F3CFEAFF090E10
:10156000E902F3CFE9FFF450EA26000EE926010E66
:10157000EA22020EE926000EEA22EECF38F0EFCF83
:1015800039F03950186E140EDBCFE9FF150EDBCFA2
:10159000EAFF090EEA02F3CFEAFF090EE902F3CFF0
:1015A000E9FFF450EA26000EE926010EEA22020EB7
:1015B000E926000EEA22EECF38F0EFCF39F0000135
:1015C000396A3850196E140EDB501A6E080EE66E2A
:1015D000AEEC05F0E55201EC0DF0140EDB2A150E11
:1015E00001E3DB2A4DD7F20E136E03C038F004C0BE
:1015F00039F0080E0F0B05E0D89039323832E80682
:10160000FBE13850146E03C038F004C039F000011B
:10161000396A3850156E166A176A0650186E05C07A
:1016200038F006C039F00001396A3850196E140ECE
:10163000DB501A6E080EE66EAEEC05F0E55201ECDA
:101640000DF001D000D00000C8C1E9FFC9C1EAFF18
:10165000EF6A025004E0026AA380A7EC05F0160EC0
:10166000E15C02E2E16AE552E16EE552E7CFD9FFC3
:101670001200D9CFE6FFE1CFD9FFFD0EDBCF38F066
:10168000FE0EDBCF39F0080E385C000E395831E21F
:101690009B0E136E03C038F004C039F0080E0F0B18
:1016A00005E0D89039323832E806FBE13850146E44
:1016B00003C038F004C039F00001396A3850156EA3
:1016C000FD0EDB50166EFD0EDBCFF6FFFE0EDBCF00
:1016D000F7FFF606000EF75ADE0EF626060EF72284
:1016E0000800F550176E050EE66E93EC05F0E55216
:1016F00006D0090EE66EE66A06D8E552E552E552D6
:10170000E7CFD9FF1200D9CFE6FFE1CFD9FF6F0EA7
:10171000136EFD0EDB50166E040EE66E93EC05F0B4
:10172000E552E552E7CFD9FF1200C8C1E9FFC9C1B0
:10173000EAFF070EEB503A6E3AC03BF03A6AC8C176
:10174000E9FFC9C1EAFF080EEB5000013A24386EE8
:10175000000E3B20396E0350381802E1045039184E
:1017600005E1010EF36EF46A04D003D0F36AF46A63
:1017700000D01200DACFE4FFE2CFDAFFE9CFE4FFD6
:10178000EACFE4FFF6CFE4FFF7CFE4FFF5CFE4FFC5
:10179000F3CFE4FFF4CFE4FFFACFE4FF00EE24F050
:1017A000140EE80403E3EECFE4FFFBD700EE38F0BD
:1017B000060EE80403E3EECFE4FFFBD7E652F29413
:1017C0000C50D66EFEEC00F0010E215E000E225A87
:1017D000000E235A21502210231006E1140E216E10
:1017E000226A236AC5EC14F0010E1E5E000E1F5A19
:1017F000000E205A1E501F10201006E1C80E1E6E4B
:101800001F6A206ACDEC14F0010E1B5E000E1C5AFC
:10181000000E1D5A1B501C101D100AE1D00E1B6E2D
:10182000070E1C6E1D6AB1EC1BF0005001E00006B3
:10183000E55200EE3DF0060EE80403E3E5CFEDFFD0
:10184000FBD700EE37F0140EE80403E3E5CFEDFF1D
:10185000FBD7E5CFFAFFE5CFF4FFE5CFF3FFE5CF08
:10186000F5FFE5CFF7FFE5CFF6FFE5CFEAFFE5CFE0
:10187000E9FFE5CFDAFF1100D8CFE4FFE0CFE4FFC6
:10188000E46EDACFE4FFE2CFDAFFE652A4A005D09F
:101890000F014087010E026EA390A4AA14D00F017D
:1018A00030AB0CD0085004E1010E016E309706D029
:1018B000080604E130973F0E0E16308730A903D09A
:1018C000010E016E3097A46AE552E5CFDAFFE550CC
:1018D000E5CFE0FFE5CFD8FF1000D9CFE6FFE1CF9D
:1018E000D9FFFE0EDB50A96EA69EA69CA680A8502E
:1018F00000D0E552E7CFD9FF1200D9CFE6FFE1CF04
:10190000D9FFF29EA69EA69CA684FE0EDB50A96E71
:10191000FD0EDB50A86E550EA76EAA0EA76EA6820E
:10192000A1A8FED7A198F28EE552E7CFD9FF120009
:10193000D9CFE6FFE1CFD9FF030EE126FE0EDB5043
:10194000DF6EDF50DF2AE66EC8DFE552E66ED95063
:10195000010FE96EDACFEAFFE552E750EE6EED6A6D
:10196000DFCFE6FFBADFE5523A6E3AC03BF03A6AA3
:10197000010EDB503A10386E020EDB503B10396E10
:10198000010E38C0DBFF020E39C0DBFF010EDBCFDA
:1019900038F0020EDBCF39F038C0F3FF39C0F4FF66
:1019A000030EE15C03E200D0E16AE552E16EE5522C
:1019B000E7CFD9FF1200D9CFE6FFE1CFD9FFE6523A
:1019C000FE0EDB50DF6EFC0EDBCFE6FFDF50DF2AC2
:1019D000E66E93DFE552E552FC0EDBCF38F0FD0EEC
:1019E000DBCF39F039C038F0396A3850E66EDFCFD6
:1019F000E6FF83DFE552E552E552E552E7CFD9FF36
:101A00001200D9CFE6FFE1CFD9FF020EE126DF6A4F
:101A10000A0EDF5C12E2010EDB6A010EDB50386E4B
:101A2000396A393404E23850F508000E395403E3BA
:101A3000010EDB2AF2D7DF2AEBD7020EE15C02E2CD
:101A4000E16AE552E16EE552E7CFD9FF1200D9CF46
:101A5000E6FFE1CFD9FFE652DF6A640EDF5C03E206
:101A6000D0DFDF2AFAD7E552E552E7CFD9FF1200DF
:101A7000D9CFE6FFE1CFD9FF020EE126DE6ADD6AAB
:101A8000C26A0F0EC16E939C939E939A9284819C1E
:101A9000819E819ADE6ADD6ADECF38F0DDCF39F0D3
:101AA000D890395004E6080E385C000E395801E32E
:101AB0001AD1DECFE9FFDDCFEAFF090EEA02F3CF4C
:101AC000EAFF090EE902F3CFE9FFF450EA26000E1F
:101AD000E926010EEA22EF6ADECFE9FFDDCFEAFF59
:101AE000090EEA02F3CFEAFF090EE902F3CFE9FF9C
:101AF000F450EA26000EE926010EEA22EE52EF6AC1
:101B0000DECFE9FFDDCFEAFF090EEA02F3CFEAFFFD
:101B1000090EE902F3CFE9FFF450EA26000EE926A8
:101B2000010EEA22040EE926000EEA22EF6ADECF59
:101B3000E9FFDDCFEAFF090EEA02F3CFEAFF090E63
:101B4000E902F3CFE9FFF450EA26000EE926010E80
:101B5000EA22050EE926000EEA22EE6AED6ADECFE1
:101B6000E9FFDDCFEAFF090EEA02F3CFEAFF090E33
:101B7000E902F3CFE9FFF450EA26000EE926010E50
:101B8000EA22070EE926000EEA22EE6AED6ADECFAF
:101B900038F0DDCF39F0010E3826000E3922DECFC5
:101BA000E9FFDDCFEAFF090EEA02F3CFEAFF090EF3
:101BB000E902F3CFE9FFF450EA26000EE926010E10
:101BC000EA22020EE926000EEA2238C0EEFF39C0F2
:101BD000EDFFFE0EDB5005E185EC16F0000901E19A
:101BE0007DD0DECFE9FFDDCFEAFF090EEA02F3CFB9
:101BF000EAFF090EE902F3CFE9FFF450EA26000EEE
:101C0000E926010EEA22EF50E66EDECF38F0DDCF96
:101C100039F0060E3824E66E7DEC0CF0E552E55204
:101C2000DECFE9FFDDCFEAFF090EEA02F3CFEAFFDC
:101C3000090EE902F3CFE9FFF450EA26000EE92687
:101C4000010EEA22070EE926000EEA22EECFE6FF99
:101C5000EFCFE6FF020E2C6E2D6ADECF31F0DDCF26
:101C600032F042EC03F02AC038F02BC039F0160EE7
:101C70003824E66EDBEC0CF0E552E552E552DECF9F
:101C8000E9FFDDCFEAFF090EEA02F3CFEAFF090E12
:101C9000E902F3CFE9FFF450EA26000EE926010E2F
:101CA000EA22020EE926000EEA22EECFE6FFEFCF8F
:101CB000E6FF020E2C6E2D6ADECF31F0DDCF32F062
:101CC00042EC03F02AC038F02BC039F0360E38242D
:101CD000E66EDBEC0CF0E552E552E552DF2A010E30
:101CE00001E3DB2AD9D6080EDE6EDD6ADECF38F0DE
:101CF000DDCF39F0D890395004E6100E385C000E74
:101D0000395801E31BD1DECFE9FFDDCFEAFF090E31
:101D1000EA02F3CFEAFF090EE902F3CFE9FFF4503C
:101D2000EA26000EE926010EEA22030EEF6EDECF50
:101D3000E9FFDDCFEAFF090EEA02F3CFEAFF090E61
:101D4000E902F3CFE9FFF450EA26000EE926010E7E
:101D5000EA22EE52EF6ADECFE9FFDDCFEAFF090E9D
:101D6000EA02F3CFEAFF090EE902F3CFE9FFF450EC
:101D7000EA26000EE926010EEA22040EE926000EEC
:101D8000EA22EF6ADECFE9FFDDCFEAFF090EEA02C1
:101D9000F3CFEAFF090EE902F3CFE9FFF450EA2698
:101DA000000EE926010EEA22050EE926000EEA22BF
:101DB000EE6AED6ADECFE9FFDDCFEAFF090EEA0247
:101DC000F3CFEAFF090EE902F3CFE9FFF450EA2668
:101DD000000EE926010EEA22070EE926000EEA228D
:101DE000EE6AED6ADECF38F0DDCF39F0010E38262D
:101DF000000E3922DECFE9FFDDCFEAFF090EEA024D
:101E0000F3CFEAFF090EE902F3CFE9FFF450EA2627
:101E1000000EE926010EEA22020EE926000EEA2251
:101E200038C0EEFF39C0EDFFFE0EDB5005E185EC5A
:101E300016F0000901E17DD0DECFE9FFDDCFEAFF3A
:101E4000090EEA02F3CFEAFF090EE902F3CFE9FF38
:101E5000F450EA26000EE926010EEA22EF50E66E63
:101E6000DECF38F0DDCF39F0060E3824E66E7DEC9B
:101E70000CF0E552E552DECFE9FFDDCFEAFF090EB7
:101E8000EA02F3CFEAFF090EE902F3CFE9FFF450CB
:101E9000EA26000EE926010EEA22070EE926000EC8
:101EA000EA22EECFE6FFEFCFE6FF020E2C6E2D6AA0
:101EB000DECF31F0DDCF32F042EC03F02AC038F053
:101EC0002BC039F0160E3824E66EDBEC0CF0E55230
:101ED000E552E552DECFE9FFDDCFEAFF090EEA0267
:101EE000F3CFEAFF090EE902F3CFE9FFF450EA2647
:101EF000000EE926010EEA22020EE926000EEA2271
:101F0000EECFE6FFEFCFE6FF020E2C6E2D6ADECF9E
:101F100031F0DDCF32F042EC03F02AC038F02BC0B4
:101F200039F0360E3824E66EDBEC0CF0E552E55263
:101F3000E552DF2A010E01E3DB2AD8D6FE0EDB5084
:101F400004E185EC16F000090EE0E66A760EE66E16
:101F50007DEC0CF0E552E552E66A770EE66E7DEC1C
:101F60000CF0E552E552DE6ADD6ADECF38F0DDCFF7
:101F700039F0D890395004E6100E385C000E39580C
:101F800001E3ECD0DECF38F0DDCF39F0060E382497
:101F9000E66E6DEC0CF0E552E66EDECFE9FFDDCFCC
:101FA000EAFF090EEA02F3CFEAFF090EE902F3CFD6
:101FB000E9FFF450EA26000EE926010EEA22E55276
:101FC000E750EF6EDECFE9FFDDCFEAFF090EEA0250
:101FD000F3CFEAFF090EE902F3CFE9FFF450EA2656
:101FE000000EE926010EEA22EF50010B21E1DECFBF
:101FF00038F0DDCF39F0760E3824E66E6DEC0CF05B
:10200000E552E66EDECFE9FFDDCFEAFF090EEA0218
:10201000F3CFEAFF090EE902F3CFE9FFF450EA2615
:10202000000EE926010EEA22EE52E552E750EF6E6D
:10203000DECFE9FFDDCFEAFF090EEA02F3CFEAFFC8
:10204000090EE902F3CFE9FFF450EA26000EE92673
:10205000010EEA22040EE926000EEA22EF6ADECF24
:10206000E9FFDDCFEAFF090EEA02F3CFEAFF090E2E
:10207000E902F3CFE9FFF450EA26000EE926010E4B
:10208000EA22050EE926000EEA22EE6AED6A020E49
:102090002C6E2D6ADECF31F0DDCF32F042EC03F052
:1020A0002AC03AF02BC03BF0160E3A24E66E98ECAC
:1020B0000CF0E552F3CF38F0F4CF39F0DECFE9FF82
:1020C000DDCFEAFF090EEA02F3CFEAFF090EE902CB
:1020D000F3CFE9FFF450EA26000EE926010EEA22CA
:1020E000070EE926000EEA2238C0EEFF39C0EDFFE8
:1020F000020E2C6E2D6ADECF31F0DDCF32F042ECD5
:1021000003F02AC03AF02BC03BF0360E3A24E66EBC
:1021100098EC0CF0E552F3CF38F0F4CF39F0DECF85
:10212000E9FFDDCFEAFF090EEA02F3CFEAFF090E6D
:10213000E902F3CFE9FFF450EA26000EE926010E8A
:10214000EA22020EE926000EEA2238C0EEFF39C06C
:10215000EDFFDF2A010E01E3DB2A07D7DE6ADD6A25
:10216000DECF38F0DDCF39F0D890395004E6100ECC
:10217000385C000E39580CE2DECFE6FFDDCFE6FF1B
:1021800011D8E552E552DF2A010E01E3DB2AE8D738
:10219000020EE15C02E2E16AE552E16EE552E7CF50
:1021A000D9FF1200D9CFE6FFE1CFD9FFFD0EDBCF7B
:1021B0002CF0FE0EDBCF2DF00F0E2C1801E12D5070
:1021C00001E127D20E0E2C1801E12D5001E102D2BF
:1021D0000D0E2C1801E12D5001E1DDD10C0E2C1853
:1021E00001E12D5001E1B8D10B0E2C1801E12D5069
:1021F00001E193D10A0E2C1801E12D5001E16ED1BD
:10220000090E2C1801E12D5001E149D1080E2C18BE
:1022100001E12D5001E124D1070E2C1801E12D50D0
:1022200001E1FFD0060E2C1801E12D5001E1DAD0BA
:10223000050E2C1801E12D5001E1B5D0040E2C182B
:1022400001E12D5001E190D0030E2C1801E12D5039
:102250006CE0020E2C1801E12D5048E0010E2C1804
:1022600001E12D5024E02C5001E12D5001E0F0D18E
:10227000FD0EDBCFE9FFFE0EDBCFEAFF090EEA021F
:10228000F3CFEAFF090EE902F3CFE9FFF450EA26A3
:10229000000EE926010EEA22EF50010B02E0010ECA
:1022A00001D0000EE8B09280E8A09290D1D1FD0E4E
:1022B000DBCFE9FFFE0EDBCFEAFF090EEA02F3CF28
:1022C000EAFF090EE902F3CFE9FFF450EA26000E17
:1022D000E926010EEA22EF50010B02E0010E01D0C7
:1022E000000EE8B09282E8A09292B2D1FD0EDBCF50
:1022F000E9FFFE0EDBCFEAFF090EEA02F3CFEAFFA9
:10230000090EE902F3CFE9FFF450EA26000EE926B0
:10231000010EEA22EF50010B02E0010E01D0000E87
:10232000E8B09286E8A0929693D1FD0EDBCFE9FF4C
:10233000FE0EDBCFEAFF090EEA02F3CFEAFF090E39
:10234000E902F3CFE9FFF450EA26000EE926010E78
:10235000EA22EF50010B02E0010E01D0000EE8B0BE
:102360009288E8A0929874D1FD0EDBCFE9FFFE0EB3
:10237000DBCFEAFF090EEA02F3CFEAFF090EE9021A
:10238000F3CFE9FFF450EA26000EE926010EEA2217
:10239000EF50010B02E0010E01D0000EE8B0928A6E
:1023A000E8A0929A55D1FD0EDBCFE9FFFE0EDBCF00
:1023B000EAFF090EEA02F3CFEAFF090EE902F3CFC2
:1023C000E9FFF450EA26000EE926010EEA22EF505A
:1023D000010B02E0010E01D0000EE8B09380E8A0EE
:1023E000939036D1FD0EDBCFE9FFFE0EDBCFEAFF87
:1023F000090EEA02F3CFEAFF090EE902F3CFE9FF83
:10240000F450EA26000EE926010EEA22EF50010BF5
:1024100002E0010E01D0000EE8B09388E8A0939886
:1024200017D1FD0EDBCFE9FFFE0EDBCFEAFF090E71
:10243000EA02F3CFEAFF090EE902F3CFE9FFF45015
:10244000EA26000EE926010EEA22EF50010B02E017
:10245000010E01D0000EE8B09382E8A09392F8D06C
:10246000FD0EDBCFE9FFFE0EDBCFEAFF090EEA022D
:10247000F3CFEAFF090EE902F3CFE9FFF450EA26B1
:10248000000EE926010EEA22EF50010B02E0010ED8
:1024900001D0000EE8B09480E8A09490D9D0FD0E51
:1024A000DBCFE9FFFE0EDBCFEAFF090EEA02F3CF36
:1024B000EAFF090EE902F3CFE9FFF450EA26000E25
:1024C000E926010EEA22EF50010B02E0010E01D0D5
:1024D000000EE8B09482E8A09492BAD0FD0EDBCF53
:1024E000E9FFFE0EDBCFEAFF090EEA02F3CFEAFFB7
:1024F000090EE902F3CFE9FFF450EA26000EE926BF
:10250000010EEA22EF50010B02E0010E01D0000E95
:10251000E8B09484E8A094949BD0FD0EDBCFE9FF53
:10252000FE0EDBCFEAFF090EEA02F3CFEAFF090E47
:10253000E902F3CFE9FFF450EA26000EE926010E86
:10254000EA22EF50010B02E0010E01D0000EE8B0CC
:102550009486E8A094967CD0FD0EDBCFE9FFFE0EBA
:10256000DBCFEAFF090EEA02F3CFEAFF090EE90228
:10257000F3CFE9FFF450EA26000EE926010EEA2225
:10258000EF50010B02E0010E01D0000EE8B0948E76
:10259000E8A0949E5DD0FD0EDBCFE9FFFE0EDBCF01
:1025A000EAFF090EEA02F3CFEAFF090EE902F3CFD0
:1025B000E9FFF450EA26000EE926010EEA22EF5068
:1025C000010B02E0010E01D0000EE8B0948CE8A0EF
:1025D000949C3ED0FD0EDBCFE9FFFE0EDBCFEAFF81
:1025E000090EEA02F3CFEAFF090EE902F3CFE9FF91
:1025F000F450EA26000EE926010EEA22EF50010B04
:1026000002E0010E01D0000EE8B0948AE8A0949A8E
:102610001FD0FD0EDBCFE9FFFE0EDBCFEAFF090E78
:10262000EA02F3CFEAFF090EE902F3CFE9FFF45023
:10263000EA26000EE926010EEA22EF50010B02E025
:10264000010E01D0000EE8B09488E8A0949800D064
:10265000E552E7CFD9FF1200D9CFE6FFE1CFD9FF8E
:10266000FD0EDBCF2CF0FE0EDBCF2DF00F0E2C1865
:1026700001E12D5001E1B9D00E0E2C1801E12D50D1
:1026800001E1ACD00D0E2C1801E12D5001E19FD0DD
:102690000C0E2C1801E12D5001E192D00B0E2C18DC
:1026A00001E12D5001E185D00A0E2C1801E12D50D9
:1026B00001E178D0090E2C1801E12D506CE0080ED4
:1026C0002C1801E12D5060E0070E2C1801E12D506F
:1026D00054E0060E2C1801E12D5048E0050E2C1890
:1026E00001E12D503CE0040E2C1801E12D5030E0AA
:1026F000030E2C1801E12D5024E0020E2C1801E1EC
:102700002D5018E0010E2C1801E12D500CE02C503A
:1027100001E12D5001E070D0FC0EDB50E8B080806C
:10272000E8A0809069D0FC0EDB50E8B08082E8A081
:10273000809262D0FC0EDB50E8B08086E8A08096E4
:102740005BD0FC0EDB50E8B08088E8A0809854D0C5
:10275000FC0EDB50E8B0808AE8A0809A4DD0FC0ED9
:10276000DB50E8B08180E8A0819046D0FC0EDB50C1
:10277000E8B08188E8A081983FD0FC0EDB50E8B03B
:102780008182E8A0819238D0FC0EDB50E8B08280D4
:10279000E8A0829031D0FC0EDB50E8B08282E8A045
:1027A00082922AD0FC0EDB50E8B08284E8A08294AA
:1027B00023D0FC0EDB50E8B08286E8A082961CD0C5
:1027C000FC0EDB50E8B0828EE8A0829E15D0FC0E95
:1027D000DB50E8B0828CE8A0829C0ED0FC0EDB506F
:1027E000E8B0828AE8A0829A07D0FC0EDB50E8B0FD
:1027F0008288E8A0829800D0E552E7CFD9FF120086
:10280000D9CFE6FFE1CFD9FFE652DF6AFD0EDBCF7D
:102810002CF0FE0EDBCF2DF00F0E2C1801E12D5009
:1028200001E1A2D00E0E2C1801E12D5001E196D04D
:102830000D0E2C1801E12D5001E18AD00C0E2C1840
:1028400001E12D5001E17ED00B0E2C1801E12D503D
:1028500073E00A0E2C1801E12D5068E0090E2C18C7
:1028600001E12D505DE0080E2C1801E12D5054E0DF
:10287000070E2C1801E12D5049E0060E2C1801E13D
:102880002D503EE0050E2C1801E12D5035E0040ED0
:102890002C1801E12D502AE0030E2C1801E12D50D7
:1028A0001FE0020E2C1801E12D5014E0010E2C182F
:1028B00001E12D5009E02C5001E12D5001E05AD0EA
:1028C0008050010BDF6E56D08050020B01E0010EEC
:1028D000DF6E50D08050080B01E0010EDF6E4AD051
:1028E0008050100B01E0010EDF6E44D08050200BB1
:1028F00001E0010EDF6E3ED08150010BDF6E3AD059
:102900008150100B01E0010EDF6E34D08150020BBC
:1029100001E0010EDF6E2ED08250010BDF6E2AD057
:102920008250020B01E0010EDF6E24D08250040BB6
:1029300001E0010EDF6E1ED08250080B01E0010E97
:10294000DF6E18D08250800B01E0010EDF6E12D0D6
:102950008250400B01E0010EDF6E0CD08250200B44
:1029600001E0010EDF6E06D08250100B01E0010E77
:10297000DF6E00D0DF5002E0000E01D0010E00D06B
:10298000E552E552E7CFD9FF12000B50000804E2F0
:102990000B060B5001E1819C1200D9CFE6FFE1CF7D
:1029A000D9FF020EE126DE6ADD6ADE6ADD6ADECF6D
:1029B00038F0DDCF39F0D890395004E6100E385C8D
:1029C000000E395852E2DECFE9FFDDCFEAFF090EF3
:1029D000EA02F3CFEAFF090EE902F3CFE9FFF45070
:1029E000EA26000EE926010EEA22040EE926000E70
:1029F000EA22EF5035E0DECFE9FFDDCFEAFF090E36
:102A0000EA02F3CFEAFF090EE902F3CFE9FFF4503F
:102A1000EA26000EE926010EEA22050EE926000E3E
:102A2000EA22000ED880EE54000EED5419E2DECFFB
:102A3000E9FFDDCFEAFF090EEA02F3CFEAFF090E54
:102A4000E902F3CFE9FFF450EA26000EE926010E71
:102A5000EA22050EE926000EEA22EE06000EEF5AE3
:102A6000DF2A010E01E3DB2AA2D7020EE15C02E2BB
:102A7000E16AE552E16EE552E7CFD9FF1200D9CF06
:102A8000E6FFE1CFD9FF020EE126DE6ADD6ADE6AEB
:102A9000DD6ADECF38F0DDCF39F0D890395004E66A
:102AA000100E385C000E395801E325D1DECFE9FF66
:102AB000DDCFEAFF090EEA02F3CFEAFF090EE902D1
:102AC000F3CFE9FFF450EA26000EE926010EEA22D0
:102AD000040EE926000EEA22EF5001E107D1DECF15
:102AE000E9FFDDCFEAFF090EEA02F3CFEAFF090EA4
:102AF000E902F3CFE9FFF450EA26000EE926010EC1
:102B0000EA22050EE926000EEA22EE50ED1001E061
:102B1000EDD0DECFE9FFDDCFEAFF090EEA02F3CF09
:102B2000EAFF090EE902F3CFE9FFF450EA26000EAE
:102B3000E926010EEA22040EE926000EEA22EF6AD7
:102B4000DECFE9FFDDCFEAFF090EEA02F3CFEAFFAD
:102B5000090EE902F3CFE9FFF450EA26000EE92658
:102B6000010EEA22EF50010B01E1B6D0DECFE9FF02
:102B7000DDCFEAFF090EEA02F3CFEAFF090EE90210
:102B8000F3CFE9FFF450EA26000EE926010EEA220F
:102B9000EF50040B02E0980E01D0990E136E03C0A3
:102BA00038F004C039F0080E0F0B05E0D890393228
:102BB0003832E806FBE13850146E03C038F004C028
:102BC00039F00001396A3850156EDECFE9FFDDCFEC
:102BD000EAFF090EEA02F3CFEAFF090EE902F3CF9A
:102BE000E9FFF450EA26000EE926010EEA22020E61
:102BF000E926000EEA22EECF38F0EFCF39F0080ECA
:102C00000F0B05E0D89039323832E806FBE1385036
:102C1000166EDECFE9FFDDCFEAFF090EEA02F3CF41
:102C2000EAFF090EE902F3CFE9FFF450EA26000EAD
:102C3000E926010EEA22020EE926000EEA22EECF74
:102C400038F0EFCF39F00001396A3850176E050EB1
:102C5000E66EAEEC05F0E55201EC0DF0DECFE9FFDB
:102C6000DDCFEAFF090EEA02F3CFEAFF090EE9021F
:102C7000F3CFE9FFF450EA26000EE926010EEA221E
:102C8000EF50040B02E0010E01D0000EE66EDECF25
:102C9000E9FFDDCFEAFF090EEA02F3CFEAFF090EF2
:102CA000E902F3CFE9FFF450EA26000EE926010E0F
:102CB000EA22020EE926000EEA22EECFE6FFEFCF6F
:102CC000E6FF03C0E6FF04C0E6FFB0EC1CF0386E80
:102CD000050EE15E385009D0E66ADECFE6FFDDCFB3
:102CE000E6FFBADCE552E552E552819EDF2A010E8D
:102CF00001E3DB2ACED6020EE15C02E2E16AE55294
:102D0000E16EE552E7CFD9FF1200D9CFE6FFE1CF60
:102D1000D9FFE6528050040B01E0010EDF6EDF5058
:102D200002E0000E01D0010E00D0E552E552E7CFDF
:102D3000D9FF1200D9CFE6FFE1CFD9FF030EE1267C
:102D4000DE6ADD6ADE6ADD6ADECF38F0DDCF39F0BB
:102D5000D890395004E6100E385C000E395801E363
:102D6000A9D1DECFE9FFDDCFEAFF090EEA02F3CFFA
:102D7000EAFF090EE902F3CFE9FFF450EA26000E5C
:102D8000E926010EEA22EF50010B010801E08DD186
:102D9000DECFE6FFDDCFE6FF33DDE552E552E76E3D
:102DA000020EE7CFDBFFFE0EDB501AE1DECFE9FFBC
:102DB000DDCFEAFF090EEA02F3CFEAFF090EE902CE
:102DC000F3CFE9FFF450EA26000EE926010EEA22CD
:102DD000EE52EF50F36E020EDB50F35C01E165D171
:102DE000DECFE9FFDDCFEAFF090EEA02F3CFEAFF0B
:102DF000090EE902F3CFE9FFF450EA26000EE926B6
:102E0000010EEA22EE52020EDBCFEFFFFE0EDB5088
:102E10004AE1DECFE9FFDDCFEAFF090EEA02F3CF98
:102E2000EAFF090EE902F3CFE9FFF450EA26000EAB
:102E3000E926010EEA22EF50020B35E0020EDB50CC
:102E400032E1DECFE9FFDDCFEAFF090EEA02F3CF80
:102E5000EAFF090EE902F3CFE9FFF450EA26000E7B
:102E6000E926010EEA22050EE926000EEA22280EC6
:102E7000EE6EED6ADECFE9FFDDCFEAFF090EEA0272
:102E8000F3CFEAFF090EE902F3CFE9FFF450EA2697
:102E9000000EE926010EEA22040EE926000EEA22BF
:102EA000010EEF6E02D1FE0EDB5047E1DECFE9FFEF
:102EB000DDCFEAFF090EEA02F3CFEAFF090EE902CD
:102EC000F3CFE9FFF450EA26000EE926010EEA22CC
:102ED000EF50020B32E0DECFE9FFDDCFEAFF090E53
:102EE000EA02F3CFEAFF090EE902F3CFE9FFF4505B
:102EF000EA26000EE926010EEA22040EE926000E5B
:102F0000EA22EF501AE0DECFE9FFDDCFEAFF090E3B
:102F1000EA02F3CFEAFF090EE902F3CFE9FFF4502A
:102F2000EA26000EE926010EEA22050EE926000E29
:102F3000EA22280EEE6EED6AB8D0DECFE9FFDDCFD3
:102F4000EAFF090EEA02F3CFEAFF090EE902F3CF26
:102F5000E9FFF450EA26000EE926010EEA22EF50BE
:102F6000040B04080AE1020EDB5002E0000E01D05F
:102F7000010EE76E020EE7CFDBFFFE0EDB5008E02E
:102F8000020EDB5002E0930E01D0940E136E07D0B8
:102F9000020EDB5002E0980E01D0990E136E03C0B2
:102FA00038F004C039F0080E0F0B05E0D890393224
:102FB0003832E806FBE13850146E03C038F004C024
:102FC00039F00001396A3850156EDECFE9FFDDCFE8
:102FD000EAFF090EEA02F3CFEAFF090EE902F3CF96
:102FE000E9FFF450EA26000EE926010EEA22020E5D
:102FF000E926000EEA22EECF38F0EFCF39F0080EC6
:103000000F0B05E0D89039323832E806FBE1385032
:10301000166EDECFE9FFDDCFEAFF090EEA02F3CF3D
:10302000EAFF090EE902F3CFE9FFF450EA26000EA9
:10303000E926010EEA22020EE926000EEA22EECF70
:1030400038F0EFCF39F00001396A3850176E050EAD
:10305000E66EAEEC05F0E55201EC0DF0020EDBCFB2
:10306000E6FFDECFE9FFDDCFEAFF090EEA02F3CF8C
:10307000EAFF090EE902F3CFE9FFF450EA26000E59
:10308000E926010EEA22020EE926000EEA22EECF20
:10309000E6FFEFCFE6FF03C0E6FF04C0E6FFB0ECBB
:1030A0001CF0386E050EE15E3850DF2A010E01E398
:1030B000DB2A4AD6DE6ADD6ADECF38F0DDCF39F0B2
:1030C000D890395004E6020E385C000E395801E3FE
:1030D00080D1DECFE9FFDDCFEAFF090EEA02F3CFB0
:1030E000EAFF090EE902F3CFE9FFF450EA26000EE9
:1030F000E926010EEA22EF50080B01E165D1DECF8F
:10310000E9FFDDCFEAFF070EEA02F3CFEAFF070E81
:10311000E902F3CFE9FFF450EA26900EE926010E0A
:10312000EA22030EE926000EEA22000ED880EE54B1
:10313000000EED5401E348D1DECFE9FFDDCFEAFF19
:10314000070EEA02F3CFEAFF070EE902F3CFE9FF29
:10315000F450EA26900EE926010EEA22030EE92633
:10316000000EEA22EECF38F0EFCF39F0DECFE9FFE4
:10317000DDCFEAFF070EEA02F3CFEAFF070EE9020E
:10318000F3CFE9FFF450EA26900EE926010EEA2279
:10319000050EE926000EEA22EECF3AF0EFCF3BF023
:1031A0003A50381802E13B50391801E10DD1DECF19
:1031B000E9FFDDCFEAFF070EEA02F3CFEAFF070ED1
:1031C000E902F3CFE9FFF450EA26900EE926010E5A
:1031D000EA22030EE926000EEA22EECF38F0EFCF06
:1031E00039F0DECFE9FFDDCFEAFF070EEA02F3CFC9
:1031F000EAFF070EE902F3CFE9FFF450EA26900E4A
:10320000E926010EEA22050EE926000EEA2238C060
:10321000EEFF39C0EDFFF00E136E03C038F004C0AE
:1032200039F0080E0F0B05E0D89039323832E80635
:10323000FBE13850146E03C038F004C039F00001CF
:10324000396A3850156EDECFE9FFDDCFEAFF090E8F
:10325000EA02F3CFEAFF090EE902F3CFE9FFF450E7
:10326000EA26000EE926010EEA22020EE926000EE9
:10327000EA22EECF38F0EFCF39F0080E0F0B05E061
:10328000D89039323832E806FBE13850166EDECF7E
:10329000E9FFDDCFEAFF090EEA02F3CFEAFF090EEC
:1032A000E902F3CFE9FFF450EA26000EE926010E09
:1032B000EA22020EE926000EEA22EECF38F0EFCF26
:1032C00039F00001396A3850176EDECFE9FFDDCFE3
:1032D000EAFF070EEA02F3CFEAFF070EE902F3CF97
:1032E000E9FFF450EA26900EE926010EEA22030EC9
:1032F000E926000EEA22EECF38F0EFCF39F0FF0ECC
:1033000038163F0E3916080E0F0B05E0D8903932EB
:103310003832E806FBE13850186EDECFE9FFDDCF2A
:10332000EAFF070EEA02F3CFEAFF070EE902F3CF46
:10333000E9FFF450EA26900EE926010EEA22030E78
:10334000E926000EEA22EECF38F0EFCF39F0FF0E7B
:1033500038163F0E39160001396A3850196EDECF23
:10336000E9FFDDCFEAFF070EEA02F3CFEAFF070E1F
:10337000E902F3CFE9FFF450EA26900EE926010EA8
:10338000EA22030EE926000EEA22EECF3BF0EFCF51
:103390003CF03D6A3B6A3C6A0C0E3D160E0E1F0B5C
:1033A0003BC038F03CC039F03DC03AF006E0D89060
:1033B0003A3239323832E806FAE138501A6E080EDD
:1033C000E66EAEEC05F0E552DF2A010E01E3DB2AE2
:1033D00073D6030EE15C02E2E16AE552E16EE5526A
:1033E000E7CFD9FF1200D9CFE6FFE1CFD9FF020E18
:1033F000E126DE6ADD6ADE6ADD6ADECF38F0DDCF27
:1034000039F0D890395004E6100E385C000E395867
:1034100024E2DECFE9FFDDCFEAFF090EEA02F3CFB7
:10342000EAFF090EE902F3CFE9FFF450EA26000EA5
:10343000E926010EEA22EF50010B0AE1E66ADECF2F
:10344000E6FFDDCFE6FF2CEC13F0E552E552E55246
:10345000DF2A010E01E3DB2AD0D7020EE15C02E293
:10346000E16AE552E16EE552E7CFD9FF1200D9CF0C
:10347000E6FFE1CFD9FF060EE126DE6ADD6A020E25
:10348000DB6A030EDB6ADE6ADD6ADECF38F0DDCF91
:1034900039F0D890395004E6080E385C000E3958DF
:1034A0003EE2DECFE9FFDDCFEAFF090EEA02F3CF0D
:1034B000EAFF090EE902F3CFE9FFF450EA26000E15
:1034C000E926010EEA22EF50010B24E1DECFE6FFF0
:1034D000DDCFE6FF00EC14F0E552E552000902E012
:1034E000000E01D0010EE76E040EE7CFDBFF040EE5
:1034F000DB50DF5206E0DFCFF3FFE846FE0BF306BA
:10350000FCE1386E020EDBCFE7FF3850E726020EF3
:10351000E7CFDBFFDF2A010E01E3DB2AB6D7020E7D
:10352000DBCFE6FF760EE66E7DEC0CF0E552E55261
:10353000080EDE6EDD6ADECF38F0DDCF39F0D890D0
:10354000395004E6100E385C000E39583EE2DECFEA
:10355000E9FFDDCFEAFF090EEA02F3CFEAFF090E29
:10356000E902F3CFE9FFF450EA26000EE926010E46
:10357000EA22EF50010B24E1DECFE6FFDDCFE6FFCC
:1035800000EC14F0E552E552000902E0000E01D013
:10359000010EE76E050EE7CFDBFF050EDB50DF52B5
:1035A00006E0DFCFF3FFE846FE0BF306FCE1386EE2
:1035B000030EDBCFE7FF3850E726030EE7CFDBFF34
:1035C000DF2A010E01E3DB2AB6D7030EDBCFE6FFCD
:1035D000770EE66E7DEC0CF0E552E552060EE15CEE
:1035E00002E2E16AE552E16EE552E7CFD9FF12004F
:1035F000D9CFE6FFE1CFD9FF060EE126DE6ADD6A0C
:10360000760EE66E6DEC0CF0E552E76E020EE7CF3B
:10361000DBFF770EE66E6DEC0CF0E552E76E030E05
:10362000E7CFDBFFDE6ADD6ADECF38F0DDCF39F0D1
:10363000D890395004E6080E385C000E395835E24F
:10364000DECFE9FFDDCFEAFF090EEA02F3CFEAFFA2
:10365000090EE902F3CFE9FFF450EA26000EE9264D
:10366000010EEA22EF50010B1BE1020EDB50DF528C
:1036700006E0DFCFF3FFE8327F0BF306FCE1010B3E
:10368000E76E040EE7CFDBFF040EDBCFE6FFDECFF5
:10369000E6FFDDCFE6FF2CEC13F0E552E552E552F4
:1036A000DF2A010E01E3DB2ABFD7080EDE6EDD6ADA
:1036B000DECF38F0DDCF39F0D890395004E6100E67
:1036C000385C000E395835E2DECFE9FFDDCFEAFF86
:1036D000090EEA02F3CFEAFF090EE902F3CFE9FF90
:1036E000F450EA26000EE926010EEA22EF50010B03
:1036F0001BE1030EDB50DF5206E0DFCFF3FFE832C1
:103700007F0BF306FCE1010BE76E050EE7CFDBFF55
:10371000050EDBCFE6FFDECFE6FFDDCFE6FF2CECCC
:1037200013F0E552E552E552DF2A010E01E3DB2AF0
:10373000BFD7E66A760EE66E7DEC0CF0E552E552F8
:10374000E66A770EE66E7DEC0CF0E552E552060E69
:10375000E15C02E2E16AE552E16EE552E7CFD9FFB2
:103760001200075002E10A5007E00101CA51E8B017
:10377000818EE8A0819ECA711200D9CFE6FFE1CF09
:10378000D9FF060EE126DE6ADD6A020EDB6A030E51
:10379000DB6AD950FD0FE96EFF0EDA20EA6EEE50BB
:1037A000ED105EE1DE6ADD6ADECF38F0DDCF39F0A4
:1037B000D890395004E6080E385C000E39584DE2B6
:1037C000040EDB6ADECFE9FFDDCFEAFF090EEA0275
:1037D000F3CFEAFF090EE902F3CFE9FFF450EA263E
:1037E000000EE926010EEA22EF50010B12E1DECFB6
:1037F000E6FFDDCFE6FF00EC14F0E552E5520009EC
:1038000002E0000E01D0010EE76E040EE7CFDBFFF1
:103810000CD0DECFE6FFDDCFE6FF00EC14F0E55282
:10382000E552E76E040EE7CFDBFF040EDB50DF52FC
:1038300006E0DFCFF3FFE846FE0BF306FCE1386E4F
:10384000020EDBCFE7FF3850E726020EE7CFDBFFA3
:10385000DF2A010E01E3DB2AA7D7020EDB5074D06A
:10386000D950FD0FE96EFF0EDA20EA6E010EEE1858
:1038700001E1ED5067E1080EDE6EDD6ADECF38F063
:10388000DDCF39F0D890395004E6100E385C000EC8
:10389000395855E2050EDB6ADECFE9FFDDCFEAFFDE
:1038A000090EEA02F3CFEAFF090EE902F3CFE9FFBE
:1038B000F450EA26000EE926010EEA22EF50010B31
:1038C00012E1DECFE6FFDDCFE6FF00EC14F0E552BB
:1038D000E552000902E0000E01D0010EE76E050E70
:1038E000E7CFDBFF0CD0DECFE6FFDDCFE6FF00EC5D
:1038F00014F0E552E552E76E050EE7CFDBFFDECFB1
:1039000039F0DDCF3AF0080E395E000E3A5A050E56
:10391000DB5039C0E7FFE75204E0E846FE0BE7065C
:10392000FCE1386E030EDBCFE7FF3850E726030ECD
:10393000E7CFDBFFDF2A010E01E3DB2A9FD7030E6F
:10394000DB5002D0000E00D0386E060EE15C02E2C1
:10395000E16AE552E16E3850E552E7CFD9FF120037
:10396000D9CFE6FFE1CFD9FF040EE126DE6ADD6A9A
:10397000DE6ADD6ADECF38F0DDCF39F0D89039501D
:1039800004E6100E385C000E395801E350D1DECF4A
:10399000E9FFDDCFEAFF090EEA02F3CFEAFF090EE5
:1039A000E902F3CFE9FFF450EA26000EE926010E02
:1039B000EA22EF50010B01E035D1DECFE9FFDDCF88
:1039C000EAFF090EEA02F3CFEAFF090EE902F3CF9C
:1039D000E9FFF450EA26000EE926010EEA22020E63
:1039E000E926000EEA22EECF38F0EFCF39F0FB0ED9
:1039F000DB50381803E1FC0EDB50391801E012D11E
:103A0000020EDB6A09A206D0010EF36E020EF3CF9E
:103A1000DBFF27D0DECFE9FFDDCFEAFF090EEA02A8
:103A2000F3CFEAFF090EE902F3CFE9FFF450EA26EB
:103A3000000EE926010EEA22070EE926000EEA2210
:103A4000EECF38F0EFCF39F0FD0EDB50381803E140
:103A5000FE0EDB50391805E1010EF36E020EF3CFB6
:103A6000DBFF020EDB502CE0DECFE9FFDDCFEAFF0B
:103A7000090EEA02F3CFEAFF090EE902F3CFE9FFEC
:103A8000F450EA26000EE926010EEA22EF50040B5C
:103A900004080AE1FA0EDB5002E0000E01D0010E2C
:103AA000E76EFA0EE7CFDBFFFA0EDBCFE6FFDECFE5
:103AB000E6FFDDCFE6FF2CEC13F0E552E552E552D0
:103AC000FA0EDB5001E1AED0020EDB5001E1AAD0CC
:103AD000DECFE9FFDDCFEAFF090EEA02F3CFEAFF0E
:103AE000090EE902F3CFE9FFF450EA26000EE926B9
:103AF000010EEA22EF50020B01E194D00C0E0914E2
:103B0000E76E030EE7CFDBFFDECFE9FFDDCFEAFF95
:103B1000090EEA02F3CFEAFF090EE902F3CFE9FF4B
:103B2000F450EA26000EE926010EEA22040EE926E8
:103B3000000EEA22010EEF6E030EDB501AE1DECF1B
:103B4000E9FFDDCFEAFF090EEA02F3CFEAFF090E33
:103B5000E902F3CFE9FFF450EA26000EE926010E50
:103B6000EA22050EE926000EEA22050EEE6EED6A47
:103B700059D0030EDB5004081AE1DECFE9FFDDCF98
:103B8000EAFF090EEA02F3CFEAFF090EE902F3CFDA
:103B9000E9FFF450EA26000EE926010EEA22050E9E
:103BA000E926000EEA220A0EEE6EED6A3BD0030E05
:103BB000DB5008081AE1DECFE9FFDDCFEAFF090E8E
:103BC000EA02F3CFEAFF090EE902F3CFE9FFF4506E
:103BD000EA26000EE926010EEA22050EE926000E6D
:103BE000EA22140EEE6EED6A1DD0030EDB500C08B7
:103BF00019E1DECFE9FFDDCFEAFF090EEA02F3CFDC
:103C0000EAFF090EE902F3CFE9FFF450EA26000EBD
:103C1000E926010EEA22050EE926000EEA22280E08
:103C2000EE6EED6ADF2A010E01E3DB2AA3D6040E55
:103C3000E15C02E2E16AE552E16EE552E7CFD9FFCD
:023C4000120070
:020000040030CA
:0100010006F8
:0100020016E7
:0100030010EC
:0100050000FA
:010006008079
:010008000FE8
:01000900C036
:01000A000FE6
:01000B00E014
:01000C000FE4
:01000D0040B2
:0200000400F00A
:040000007F0000007D
:0100FF000000
:00000001FF
