:020000040000FA
:040000001FD00ED02F
:0400080004EF04F00D
:040018000CEF04F0F5
:10002000A66E05A01200550EA76EAA0EA76EA68298
:100030000000A6B2FED712000A26D8B00B2A120082
:10004000A66AA968AA68A680A83C00EF04F0066A20
:100050001C0E056E0F019394000E006F080E016FC9
:10006000E81E056F000E026F070E036FFF0E186F7C
:10007000EB0E196FFF0E1A6FF80E1B6F030E706EEA
:100080009E0E716E030E726E200E736E6F6A939EDB
:10009000939C818E818C0400609E60AEFED70FEE33
:1000A00066F065500F0B096EF46EF5E064B02BD06E
:1000B00010EE01F0EECFE6FFF42EFCD70650EBE099
:1000C000010AD8A407D0A968AA68A86A040EA8DF04
:1000D000819CFF000650020A05E10B6A0A6A0C9037
:1000E0000C6AD9D70650030A0AE107500A2606E12E
:1000F00008500B2203E10CB001D073D076D006502B
:10010000040AC9E176D00350F86EF00BF36E02508A
:10011000F76EAA6E0150F66EA96E05A605D00950BD
:100120000126E86A02220322300EF36001D008D0D3
:10013000F350300A01E12AD0F350F00AACE132D09A
:1001400005A405D0F6503F0B02E1940E69DF05B21D
:10015000A2D7F650070B9FE1080EF46EEE50F56E35
:100160006BDF0D00F42EFAD7080EF46E0A00ED5086
:10017000F42EFCD7840E54DF080EF46E0900F550FF
:10018000EE18D8A40C80F42EF9D785D7EF50F56E71
:1001900053DF0C00C40E44DF0900F550EE18F42EB6
:1001A000F5D779D7EF50A86E47DF040E39DFA66A7E
:1001B000A680A850EE18D8A40C80A94AAA2AF42E2A
:1001C000F1D769D740B7FED7800E416F080E426F56
:1001D000000E436F040E446F448164A04491408735
:1001E0005AD7010E466F456FEDD7466B010E456F2E
:0C01F000E9D7020E466F010E456FE4D700
:0401FC0002001F08D6
:100200000000FD010000010000001E080000FC01CC
:06021000000001000000E7
:08080000000020EF04F01200DB
:0808080007ED04F012000600E8
:06081000A5EF0EF012003E
:020816001200CE
:0608180016EF0FF01200C4
:01081E0000D9
:01081F0000D8
:1008400012EE00F0800E006EA50EE66E002EFDD7B3
:1008500012EE00F022EE00F0F86A279C0BEC04F098
:1008600034EC04F0FBD71200D9CFE6FFE1CFD9FF7B
:10087000030EE126DF6ADE52010EDD6EFBEC0FF0A7
:10088000086A0B6A0C6A0D6A0E6A0F6A106A010E1A
:10089000E66E41EC0FF0E5520A6ED0D82FEC1AF05C
:1008A000020EE66E41EC0FF0E552036E046A03C0DF
:1008B00004F0036A030EE66E41EC0FF0E5523A6E67
:1008C0003B6A3A5003263B5004220350041005E0D3
:1008D0000001031C01E1041C02E10368046A780EB4
:1008E000E66E41EC0FF0E552076E075003E0FF0E95
:1008F000075C02E10350076EE7D8D5EC0FF028EC57
:100900001BF0D5EC0FF0040EE66E41EC0FF0E55253
:10091000056E066A05C006F0056A050EE66E41EC36
:100920000FF0E5523A6E3B6A3A5005263B500622DC
:100930000550061005E00001051C01E1061C04E15C
:10094000670E056E120E066E020EDB6A818A010EBC
:10095000DB70FCEC05F000090AE1818C140E0C6ED2
:100960008BEC08F0E76E020EE7CFDBFFF2D7819A3F
:100970000E50E66EE66A66EC17F0E552E5520D5051
:10098000E66E0E50E66E99EC18F0E552E55200095D
:1009900006E00E2A100E0E5C02E30E6A0D6A010ECE
:1009A000DB500FE01050E66EE66A02EC0EF0E55206
:1009B000E552000906E0102A100E105C02E3106AEE
:1009C0000F6AE8EC07F084EC18F0000905E0DF504E
:1009D00003E1010EDF6E27D084EC18F0000923E15B
:1009E000DF5021E0DF6A085003E0086A819E1BD0D7
:1009F000818E0101520EF16F04C0F3F103C03AF091
:100A000004C03BF000013B6A3AC0F4F10101020E60
:100A1000F26FF00EE66E010EE66E28EC06F0E5527F
:100A2000E552010E086E90D7030EE15C02E2E16A26
:100A3000E552E16EE552E7CFD9FF1200D9CFE6FFCC
:100A4000E1CFD9FF020EE126DE6ADD6AF26AA66A0C
:100A5000A56AA26A9F6AA36AA386A06A9D6AF06AD1
:100A6000F16AF26AA46AA16A9E6AD08E410ED56EBE
:100A7000D66AD76AF28AD58EF184FCEC05F00009BB
:100A800006E1FAC1E9FFFBC1EAFFEF6AF6D7060EFD
:100A9000116ED00E206E070E216EC80E226E236AD4
:100AA000140E246E256AD08EF28CF28EE66A0CEC5F
:100AB00010F0E552020EE15C02E2E16AE552E16EFD
:100AC000E552E7CFD9FF1200126A780E0714E8400A
:100AD000E840E8401F0BB009136E070E0714200D05
:100AE000F350146E780E0714E840E840E8401F0BFE
:100AF00070090F01416F070E0714200DF3CF42FF5D
:100B0000010E456F020E466FF28EF28C88EF05F0F3
:100B1000D9CFE6FFE1CFD9FF020EE126DE6ADD6A1A
:100B2000800E6F6E6EAEFED7B00E776E0D01F86B55
:100B3000606A030E706E9E0E716E030E726E200E52
:100B4000736E010ED46FD56BD86B0F01186B080E46
:100B5000196F1A6B1B6B1C6B080E1D6F1E6B1F6BC6
:100B6000800E016F0D01E06BE16BE26BE36BE46BF8
:100B7000E56BE66BE76BF06BF16BF26BF36BFA6BAB
:100B8000FC6B606A0F01506B0E01206B306B406B89
:100B9000506B606B706B6F6ADE6ADD6ADECF3AF0B5
:100BA000DDCF3BF0D8903B5004E6180E3A5C000EC7
:100BB0003B5818E2DECFE9FFDDCFEAFF0A0EEA027A
:100BC000F3CFEAFF0A0EE902F3CFE9FFF450EA2679
:100BD000000EE926010EEA22EF6ADF2A010E01E388
:100BE000DB2ADCD7020EE15C02E2E16AE552E16E4B
:100BF000E552E7CFD9FF1200070E6F14010A15E086
:100C0000010A0DE0020E6F5C070B100DF35001019D
:100C1000FA6FFB6B200EFA270E0EFB230CD001019E
:100C2000600EFA6F0F0EFB6F06D00101500EFA6FC7
:100C30000F0EFB6F00D0FAC1E9FFFBC1EAFFEF50D6
:100C4000800B03E0000E03D002D0010E00D0120092
:100C5000D9CFE6FFE1CFD9FF040EE126DE6ADD6AD7
:100C6000020EDB6A030EDB6ADE6ADD6ADECF3AF073
:100C7000DDCF3BF0D8903B5004E6180E3A5C000EF6
:100C80003B5801E3CCD0DECFE9FFDDCFEAFF0A0E0F
:100C9000EA02F3CFEAFF0A0EE902F3CFE9FFF450CC
:100CA000EA26000EE926010EEA22EF5001E0B2D05A
:100CB000FD0EDBCFE9FFFE0EDBCFEAFFEE52EF5079
:100CC000E66EDECFE9FFDDCFEAFF0A0EEA02F3CFE0
:100CD000EAFF0A0EE902F3CFE9FFF450EA26000E1C
:100CE000E926010EEA22EE52E552E750EF6EFD0EC4
:100CF000DBCFE9FFFE0EDBCFEAFF020EE926000E96
:100D0000EA22EF50E66EDECFE9FFDDCFEAFF0A0E02
:100D1000EA02F3CFEAFF0A0EE902F3CFE9FFF4504B
:100D2000EA26000EE926010EEA22020EE926000E4E
:100D3000EA22E552E750EF6E020EDB6A030EDB6A31
:100D4000020EDBCF3AF0030EDBCF3BF0D8903B50E6
:100D500004E6070E3A5C000E3B5843E2FD0EDBCF83
:100D6000E9FFFE0EDBCFEAFF030EE926000EEA22C2
:100D7000E9CF3CF0EACF3DF0020EDB503C24E96EB7
:100D8000030EDB503D20EA6EEF50E66EDECFE9FF4A
:100D9000DDCFEAFF0A0EEA02F3CFEAFF0A0EE9020C
:100DA000F3CFE9FFF450EA26000EE926010EEA220D
:100DB000030EE926000EEA22E9CF3AF0EACF3BF033
:100DC000020EDB503A24E96E030EDB503B20EA6E44
:100DD000E552E750EF6E020EDB2A030E01E3DB2A39
:100DE000AFD7DECFE9FFDDCFEAFF0A0EEA02F3CF8D
:100DF000EAFF0A0EE902F3CFE9FFF450EA26000EFB
:100E0000E926010EEA22010EEF6E0B5001E1819EF0
:100E1000010E0AD0DF2A010E01E3DB2A27D70B508F
:100E200001E1818E000E00D03A6E040EE15C02E218
:100E3000E16AE552E16E3A50E552E7CFD9FF120080
:100E4000D9CFE6FFE1CFD9FF040EE126FD0EDBCFBF
:100E5000E9FFFE0EDBCFEAFF020EE926000EEA22D2
:100E6000EF28176E0F0E1316B00E1312FD0EDBCF08
:100E7000E9FFFE0EDBCFEAFFEE52EF50186EFD0EDB
:100E8000DBCFE9FFFE0EDBCFEAFF030EE926000E03
:100E9000EA22EF50196EFD0EDBCFE9FFFE0EDBCF2D
:100EA000EAFF030EE926000EEA22010EE926000EF3
:100EB000EA22EF501A6EFD0EDBCFE9FFFE0EDBCF0C
:100EC000EAFF030EE926000EEA22020EE926000ED2
:100ED000EA22EF501B6EFD0EDBCFE9FFFE0EDBCFEB
:100EE000EAFF030EE926000EEA22030EE926000EB1
:100EF000EA22EF501C6EFD0EDBCFE9FFFE0EDBCFCA
:100F0000EAFF030EE926000EEA22040EE926000E8F
:100F1000EA22EF501D6EFD0EDBCFE9FFFE0EDBCFA8
:100F2000EAFF030EE926000EEA22050EE926000E6E
:100F3000EA22EF501E6EFD0EDBCFE9FFFE0EDBCF87
:100F4000EAFF030EE926000EEA22060EE926000E4D
:100F5000EA22EF501F6E0A0E096E818C140E0C6E81
:100F6000DF6AD950010FE96EDACFEAFF300EEE6E7C
:100F70000F0EED6E030EDB6A0E0EF36E030EDBCF6B
:100F8000F4FFF350F45C18E2DF50DF2AEA6A120F34
:100F9000E96E000EEA22EF50E66E010EDBCFE9FFAC
:100FA000DB2A020EDBCFEAFF01E3DB2AE552E75042
:100FB000EF6E030EDB2AE0D70F013087040EE15CF1
:100FC00002E2E16AE552E16EE552E7CFD9FF120095
:100FD000D9CFE6FFE1CFD9FF020EE1260F0130B7EE
:100FE00090D0DE6ADD6ADECF3AF0DDCF3BF0D890FC
:100FF0003B5004E6180E3A5C000E3B582DE2DECF63
:10100000E9FFDDCFEAFF0A0EEA02F3CFEAFF0A0E9C
:10101000E902F3CFE9FFF450EA26000EE926010EBB
:10102000EA22EF50020813E1DECFE9FFDDCFEAFF4D
:101030000A0EEA02F3CFEAFF0A0EE902F3CFE9FF54
:10104000F450EA26000EE926010EEA22EF6ADF2AB2
:10105000010E01E3DB2AC7D7DE6ADD6ADECF3AF094
:10106000DDCF3BF0D8903B5004E6180E3A5C000E02
:101070003B5847E2DECFE9FFDDCFEAFF0A0EEA0286
:10108000F3CFEAFF0A0EE902F3CFE9FFF450EA26B4
:10109000000EE926010EEA22EF042EE1DECFE9FF81
:1010A000DDCFEAFF0A0EEA02F3CFEAFF0A0EE902F9
:1010B000F3CFE9FFF450EA26000EE926010EEA22FA
:1010C000020EEF6EDECF3AF0DDCF3BF00A0E3B02B0
:1010D000F3CF3BF00A0E3A02F3CF3AF0F4503B263E
:1010E000000E3A26010E3B223AC0E6FF3BC0E6FF67
:1010F000A7DEE552E55205D0DF2A010E01E3DB2A27
:10110000ADD7020EE15C02E2E16AE552E16EE55222
:10111000E7CFD9FF1200D9CFE6FFE1CFD9FF150EF7
:10112000E126DF6AFAC1E9FFFBC1EAFF060EEB50D8
:10113000570A02E135EF0DF0850A01E1CFD3860AA7
:1011400001E1C1D3070A01E1B3D3C50A01E11CD310
:10115000E70A01E1EFD1C70A01E1E9D1BF0A01E1E4
:10116000E3D1040A01E1A7D1580A01E194D15D0A53
:1011700001E18CD1540A01E176D14C0A01E12FD171
:10118000520A01E1F2D0310A01E1D8D0E20A01E1CC
:1011900087D0080A01E184D0090A32E0080A30E069
:1011A000020A02E07AEF0DF0FAC1E9FFFBC1EAFFA3
:1011B000090EEB503C6E3D6A3CC03DF03C6AFAC102
:1011C000E9FFFBC1EAFF0A0EEB5000013C243A6E36
:1011D000000E3D203B6E010E3AC0DBFF020E3BC00D
:1011E000DBFF010EDB50051803E1020EDB50061891
:1011F00005E10D5003E10E6A010E0D6E7BEF0DF05F
:10120000FAC1E9FFFBC1EAFF070EEB503C6E3D6AF5
:101210003CC03DF03C6AFAC1E9FFFBC1EAFF080EA1
:10122000EB5000013C243A6E000E3D203B6E030E55
:101230003AC0DBFF040E3BC0DBFFFAC1E9FFFBC194
:10124000EAFF090EEB503C6E3D6A3CC03DF03C6A43
:10125000FAC1E9FFFBC1EAFF0A0EEB5000013C2492
:101260003A6E000E3D203B6E050E3AC0DBFF060EC7
:101270003BC0DBFF010EE66E050EDBCFE6FF060E80
:10128000DBCFE6FF030EDBCFE6FF040EDBCFE6FF8E
:10129000D0EC1CF03A6E050EE15E3A507BEF0DF09B
:1012A000FAC1E9FFFBC1EAFF070EEB503C6E3D6A55
:1012B0003CC03DF03C6AFAC1E9FFFBC1EAFF080E01
:1012C000EB5000013C243A6E000E3D203B6E070EB1
:1012D0003AC0DBFF080E3BC0DBFFFAC1E9FFFBC1F0
:1012E000EAFF090EEB503C6E3D6A3CC03DF03C6AA3
:1012F000FAC1E9FFFBC1EAFF0A0EEB5000013C24F2
:101300003A6E000E3D203B6E090E3AC0DBFF0A0E1E
:101310003BC0DBFFE66A090EDBCFE6FF0A0EDBCF40
:10132000E6FF070EDBCFE6FF080EDBCFE6FFD0ECD3
:101330001CF03A6E050EE15E3A50DDD3DDEC0DF0A7
:10134000F3CF3AF0F4CF3BF0010E3A1801E13B50F5
:101350000BE1FAC1E9FFFBC1EAFF090EEB50E66EB3
:10136000E66AE0DBE552E552C6D3085037E0FAC141
:10137000E9FFFBC1EAFF070EEB50E76E0B0EE7CF6C
:10138000DBFFFAC1E9FFFBC1EAFF080EEB50E76E95
:101390000C0EE7CFDBFF0B0EDB503A6E3B6A3AC018
:1013A0003BF03A6A0C0EDB5000013A24036E000E4B
:1013B0003B20046E0B0EDBCFE6FF020EE66E51EC17
:1013C0000FF0E552E5520C0EDBCFE6FF030EE66EA2
:1013D00051EC0FF0E552E552086A819E8CD308501B
:1013E00041E00101EF0EF16F840EF66E3C0EF76ED8
:1013F0000800F5CFF3F1850EF66E3C0EF76E08008F
:10140000F5CFF4F1860EF66E3C0EF76E0800F5CFC0
:10141000F5F1870EF66E3C0EF76E0800F5CFF6F18B
:10142000880EF66E3C0EF76E0800F5CFF7F1890EC8
:10143000F66E3C0EF76E0800F5CFF8F18A0EF66EE8
:101440003C0EF76E0800F5CFF9F10101070EF26FBF
:10145000F00EE66E010EE66E28EC06F0E552E5525F
:10146000010EDF6E48D3A9DBF3CF3AF0F4CF3BF0A7
:10147000010E3A1801E13B5008E1E668FF0EE66E06
:1014800051EC0FF0E552E552FF0035D30AA002D02F
:101490006FEC1AF030D391DBF3CF3AF0F4CF3BF09E
:1014A0003A503B1007E00B5005E0010EE66E0CECE5
:1014B00010F0E55220D30101B60EF16F03C03AF0EF
:1014C00004C03BF0080E0F0B05E0D8903B323A32D7
:1014D000E806FBE13A500101F36F03C03AF004C0A3
:1014E0003BF000013B6A3A500101F46F840EF66E46
:1014F0003C0EF76E0800F5CFF5F1860EF66E3C0E49
:10150000F76E0800F5CFF6F10AC0F7F10101050EFC
:10151000F26FF00EE66E010EE66E28EC06F0E55274
:10152000E552010EDF6EE7D20101FD6BE4D201014D
:10153000FD2BE1D242DBF3CF3AF0F4CF3BF03A504F
:101540003B1001E120D1FAC1E9FFFBC1EAFF090E1E
:10155000EB50E76E0D0EE7CFDBFF0D0EDB042EE147
:101560000101970EF16F03C03AF004C03BF0080E82
:101570000F0B05E0D8903B323A32E806FBE13A50D7
:101580000101F36F03C03AF004C03BF000013B6A75
:101590003A500101F46F0D0EDBCFF5F10AC0F6F100
:1015A0000101040EF26FF00EE66E010EE66E28ECFD
:1015B00006F0E552E552010EDF6EE5D0120EF36E35
:1015C0000D0EDBCFF4FFF350F45C3AE20101970E0D
:1015D000F16F03C03AF004C03BF0080E0F0B05E0BA
:1015E000D8903B323A32E806FBE13A500101F36F02
:1015F00003C03AF004C03BF000013B6A3A500101DD
:10160000F46F0D0EDBCFF5F10D0EDB50FE0F080D64
:10161000F3CFE9FFF4CFEAFF600EE926000EEA22DD
:10162000EFCFF6F10101040EF26FF00EE66E010E3F
:10163000E66E28EC06F0E552E552010EDF6EA3D00F
:101640000D0EDB50120835E10101970EF16F03C05A
:101650003AF004C03BF0080E0F0B05E0D8903B3287
:101660003A32E806FBE13A500101F36F03C03AF069
:1016700004C03BF000013B6A3A500101F46F0D0ECB
:10168000DBCFF5F1000EE66EE66AE5EC1BF0E55205
:10169000E5520101F66F0101040EF26FF00EE66EE5
:1016A000010EE66E28EC06F0E552E552010EDF6E03
:1016B0006AD00D0EDB50130835E10101970EF16F72
:1016C00003C03AF004C03BF0080E0F0B05E0D890C1
:1016D0003B323A32E806FBE13A500101F36F03C0B6
:1016E0003AF004C03BF000013B6A3A500101F46F4C
:1016F0000D0EDBCFF5F1010EE66EE66AE5EC1BF0B0
:10170000E552E5520101F66F0101040EF26FF00E91
:10171000E66E010EE66E28EC06F0E552E552010E8B
:10172000DF6E31D00D0EDB5014082DE10101970E54
:10173000F16F03C03AF004C03BF0080E0F0B05E058
:10174000D8903B323A32E806FBE13A500101F36FA0
:1017500003C03AF004C03BF000013B6A3A5001017B
:10176000F46F0D0EDBCFF5F107C0F6F10101040EA9
:10177000F26FF00EE66E010EE66E28EC06F0E55212
:10178000E552010EDF6EB7D118DAF3CF3AF0F4CF9D
:101790003BF03A503B1001E18AD0FAC1E9FFFBC1AE
:1017A000EAFF090EEB50E76E0E0EE7CFDBFF0E0EE1
:1017B000DB0410E1FAC1E9FFFBC1EAFF0A0EEB50BE
:1017C0000A6E0A50E66E010EE66E51EC0FF0E5521D
:1017D000E5526DD0120EF36E0E0EDBCFF4FFF35018
:1017E000F45C37E2FAC1E9FFFBC1EAFF0A0EEB50F5
:1017F000E66E0E0EDB50FE0F080DF3CFE9FFF4CFBF
:10180000EAFF600EE926000EEA22E552E750EF6E8D
:101810000E0EDB50FE0F080DF3CFE9FFF4CFEAFF09
:10182000600EE926000EEA22EF50E66E0E0EDB5047
:10183000FE0F060FE66E51EC0FF0E552E5520E0E6C
:10184000DB50FE0FE66EE66A4AEC13F0E552E55215
:101850002ED00E0EDB5014082AE1FAC1E9FFFBC1BD
:10186000EAFF0A0EEB50076E0750E66E780EE66E42
:1018700051EC0FF0E552E552780E0714E840E840CD
:10188000E8401F0BB009136E070E0714200DF3502C
:10189000146E780E0714E840E840E8401F0B70090A
:1018A0000F01416F070E0714200DF3CF42FF23D124
:1018B00084D9F3CF3AF0F4CF3BF03A503B1002E03A
:1018C000010E0B6E18D179D9F3CF3AF0F4CF3BF07B
:1018D0003A503B1002E00B6A819E0DD10B5001E1A2
:1018E000C3D0FAC1E9FFFBC1EAFF070EEB503C6E23
:1018F0003D6A3CC03DF03C6AFAC1E9FFFBC1EAFF2A
:10190000080EEB5000013C243A6E000E3D203B6E69
:101910000F0E3AC0DBFF100E3BC0DBFFFAC1E9FF40
:10192000FBC1EAFF090EEB503C6E3D6A3CC03DF046
:101930003C6AFAC1E9FFFBC1EAFF0A0EEB50000165
:101940003C243A6E000E3D203B6E110E3AC0DBFF88
:10195000120E3BC0DBFFFAC1E9FFFBC1EAFF0B0E31
:10196000EB50E76E130EE7CFDBFFFAC1E9FFFBC1D7
:10197000EAFF0C0EEB50E76E140EE7CFDBFF100E04
:10198000F36E130EDBCFF4FFF350F45C4AE2130E58
:10199000DB50080DF3CFE9FFF4CFEAFF600EE92634
:1019A000000EEA22060EE926000EEA220F0EDBCF19
:1019B000EEFF100EDBCFEDFF130EDB50080DF3CF63
:1019C000E9FFF4CFEAFF600EE926000EEA22020EDC
:1019D000E926000EEA22110EDBCFEEFF120EDBCF5E
:1019E000EDFF0F0EDBCFE6FF100EDBCFE6FF130E91
:1019F000DB50E824160FE66EAFEC0FF0E552E5522F
:101A0000E552110EDBCFE6FF120EDBCFE6FF130E21
:101A1000DB50E824360FE66EAFEC0FF0E552E552EE
:101A2000E552130EDB5010081FE1110EDBCF05F05D
:101A3000120EDBCF06F0120EDBCFE6FF040EE66ED1
:101A400051EC0FF0E552E552110EDBCF3AF0120ED9
:101A5000DBCF3BF000013B6A3A50E66E050EE66EC6
:101A600051EC0FF0E552E55246D0A7D8F3CF3AF04B
:101A7000F4CF3BF03A503B103CE0010E0F6E106A81
:101A80000101F20EF16F03C03AF004C03BF0080E02
:101A90000F0B05E0D8903B323A32E806FBE13A50B2
:101AA0000101F36F03C03AF004C03BF000013B6A50
:101AB0003A500101F46F0101F56B0101F66B06C0AC
:101AC000F7F105C03AF006C03BF000013B6A3AC0AE
:101AD000F8F10101100EF96F0101070EF26FF00E1F
:101AE000E66E010EE66E28EC06F0E552E552010EB8
:101AF000DF6E01D000D0FAC1E9FFFBC1EAFFEF6A57
:101B0000025002E0026AA380DF5000D03A6E150E48
:101B1000E15C02E2E16AE552E16E3A50E552E7CF5C
:101B2000D9FF1200D9CFE6FFE1CFD9FFFD0EDBCF01
:101B30003AF0FE0EDBCF3BF0080E3A5C000E3B584D
:101B400038E201019B0EF16F03C03AF004C03BF094
:101B5000080E0F0B05E0D8903B323A32E806FBE165
:101B60003A500101F36F03C03AF004C03BF00001AA
:101B70003B6A3A500101F46FFD0EDBCFF5F1FD0E2B
:101B8000DBCFF6FFFE0EDBCFF7FFF606000EF75AAF
:101B9000840EF6263C0EF7220800F5CFF6F1040E6F
:101BA000F26FF00EE66E010EE66E28EC06F0E552DE
:101BB000E552E552E7CFD9FF1200FAC1E9FFFBC1B8
:101BC000EAFF070EEB503C6E3CC03DF03C6AFAC1A8
:101BD000E9FFFBC1EAFF080EEB5000013C243A6E1E
:101BE000000E3D203B6E03503A1802E104503B18B2
:101BF00005E1010EF36EF46A04D003D0F36AF46ACF
:101C000000D01200D9CFE6FFE1CFD9FF0F5001E19C
:101C100096D00101F20EF16F03C03AF004C03BF020
:101C2000080E0F0B05E0D8903B323A32E806FBE194
:101C30003A500101F36F03C03AF004C03BF00001D9
:101C40003B6A3A500101F46FFD0EDBCFE9FFFE0E57
:101C5000DBCFEAFF030ED890E936EA36E806FBE16F
:101C6000600EE926000EEA22060EE926000EEA22A0
:101C7000EECF3AF0EFCF3BF03BC0F5F1FD0EDBCFFE
:101C8000E9FFFE0EDBCFEAFF030ED890E936EA3615
:101C9000E806FBE1600EE926000EEA22060EE926C0
:101CA000000EEA22EECF3AF0EFCF3BF000013B6AA4
:101CB0003AC0F6F1FD0EDBCFE9FFFE0EDBCFEAFF07
:101CC000030ED890E936EA36E806FBE1600EE92615
:101CD000000EEA22020EE926000EEA22EECF3AF0CA
:101CE000EFCF3BF03BC0F7F1FD0EDBCFE9FFFE0E7F
:101CF000DBCFEAFF030ED890E936EA36E806FBE1CF
:101D0000600EE926000EEA22020EE926000EEA2203
:101D1000EECF3AF0EFCF3BF000013B6A3AC0F8F16A
:101D2000FD0EDBCFF9F10101070EF26FF00EE66E4A
:101D3000010EE66E28EC06F0E552E55202D0010EE7
:101D400000D0E552E7CFD9FF1200DACFE4FFE2CFAF
:101D5000DAFFE9CFE4FFEACFE4FFF6CFE4FFF7CF05
:101D6000E4FFF5CFE4FFF3CFE4FFF4CFE4FFFACFD5
:101D7000E4FF00EE26F0140EE80403E3EECFE4FFE8
:101D8000FBD700EE3AF0040EE80403E3EECFE4FFE5
:101D9000FBD7E652F2941150D66E2406000E255A57
:101DA0002450251005E1140E246E256AFDEC16F072
:101DB0002206000E235A2250231008E1C80E226E7C
:101DC000236A05EC17F0005001E000062006000E23
:101DD000215A2050211006E1D00E206E070E216EF0
:101DE000D9EC1BF0E55200EE3DF0040EE80403E3ED
:101DF000E5CFEDFFFBD700EE39F0140EE80403E366
:101E0000E5CFEDFFFBD7E5CFFAFFE5CFF4FFE5CF58
:101E1000F3FFE5CFF5FFE5CFF7FFE5CFF6FFE5CF21
:101E2000EAFFE5CFE9FFE5CFDAFF1100D8CFE4FF05
:101E3000E0CFE4FFE46EDACFE4FFE2CFDAFFE65270
:101E4000818EA4AA14D00F0130AB0CD0095004E14C
:101E5000010E016E309706D0090604E130973F0E5F
:101E60001316308730A903D0010E016E3097A46A93
:101E7000E552E5CFDAFFE550E5CFE0FFE5CFD8FF4B
:101E80001000D9CFE6FFE1CFD9FFFE0EDB50A96EDF
:101E9000A69EA69CA680A85000D0E552E7CFD9FF09
:101EA0001200D9CFE6FFE1CFD9FFF29EA69EA69CF5
:101EB000A684FE0EDB50A96EFD0EDB50A86E550EFB
:101EC000A76EAA0EA76EA682A1A8FED7A198F28E31
:101ED000E552E7CFD9FF1200D9CFE6FFE1CFD9FF16
:101EE000030EE126FE0EDB50DF6EDF50DF2AE66ECA
:101EF000C8DFE552E66ED950010FE96EDACFEAFF8E
:101F0000E552E750EE6EED6ADFCFE6FFBADFE5524D
:101F10003C6E3CC03DF03C6A010EDB503C103A6E1A
:101F2000020EDB503D103B6E010E3AC0DBFF020E8D
:101F30003BC0DBFF010EDBCF3AF0020EDBCF3BF004
:101F40003AC0F3FF3BC0F4FF030EE15C03E200D0B4
:101F5000E16AE552E16EE552E7CFD9FF1200D9CF31
:101F6000E6FFE1CFD9FFE652FE0EDB50DF6EFC0E3E
:101F7000DBCFE6FFDF50DF2AE66E93DFE552E55266
:101F8000FC0EDBCF3AF0FD0EDBCF3BF03BC03AF06E
:101F90003B6A3A50E66EDFCFE6FF83DFE552E5525B
:101FA000E552E552E7CFD9FF1200D9CFE6FFE1CFE6
:101FB000D9FF020EE126DF6A0A0EDF5C12E2010E93
:101FC000DB6A010EDB503A6E3B6A3B3404E23A5066
:101FD000F508000E3B5403E3010EDB2AF2D7DF2A9B
:101FE000EBD7020EE15C02E2E16AE552E16EE552F6
:101FF000E7CFD9FF1200D9CFE6FFE1CFD9FFE652F4
:10200000DF6A640EDF5C03E2D0DFDF2AFAD7E55235
:08201000E552E7CFD9FF1200F1
:08201800D9CFE6FFE1CFD9FFAB
:10202000030EE126DE6ADD6A790EE66E41EC0FF002
:10203000E552E76E020EE7CFDBFFC26A0F0EC16EFC
:10204000939C939E939A9284819C819E819A020E86
:10205000DB50FF080CE1E66A790EE66E51EC0FF0FA
:10206000E552E552010EF36EFE0EF3CFDBFFDE6AA2
:10207000DD6ADECF3AF0DDCF3BF0D8903B5004E68E
:10208000080E3A5C000E3B5801E3F0D0DECFE9FFCA
:10209000DDCFEAFF030ED890E936EA36E806FBE129
:1020A000600EE926000EEA22EF6ADECFE9FFDDCFFF
:1020B000EAFF030ED890E936EA36E806FBE1600E47
:1020C000E926000EEA22EE52EF6ADECFE9FFDDCF0D
:1020D000EAFF030ED890E936EA36E806FBE1600E27
:1020E000E926000EEA22040EE926000EEA22EF6A33
:1020F000DECFE9FFDDCFEAFF030ED890E936EA36FE
:10210000E806FBE1600EE926000EEA22050EE9264C
:10211000000EEA22EF6ADECFE9FFDDCFEAFF030E11
:10212000D890E936EA36E806FBE1600EE926000EB3
:10213000EA22060EE926000EEA22EE6AED6ADECFFA
:102140003AF0DDCF3BF0010E3A26000E3B22DECF07
:10215000E9FFDDCFEAFF030ED890E936EA36E8065C
:10216000FBE1600EE926000EEA22020EE926000ECF
:10217000EA223AC0EEFF3BC0EDFFFE0EDB5071E0FD
:10218000DECFE9FFDDCFEAFF030ED890E936EA366D
:10219000E806FBE1600EE926000EEA22EF50E66E4B
:1021A000DECF3AF0DDCF3BF0060E3A24E66E51EC7E
:1021B0000FF0E552E552DECFE9FFDDCFEAFF030E77
:1021C000D890E936EA36E806FBE1600EE926000E13
:1021D000EA22060EE926000EEA22EECFE6FFEFCF56
:1021E000E6FF020E2E6E2F6ADECF33F0DDCF34F025
:1021F00015EC1EF02CC03AF02DC03BF0160E3A2420
:10220000E66EAFEC0FF0E552E552E552DECFE9FFA6
:10221000DDCFEAFF030ED890E936EA36E806FBE1A7
:10222000600EE926000EEA22020EE926000EEA22DE
:10223000EECFE6FFEFCFE6FF020E2E6E2F6ADECF67
:1022400033F0DDCF34F015EC1EF02CC03AF02DC089
:102250003BF0360E3A24E66EAFEC0FF0E552E55255
:10226000E552DF2A010E01E3DB2A03D7080EDE6EFA
:10227000DD6ADECF3AF0DDCF3BF0D8903B5004E68C
:10228000100E3A5C000E3B5801E3F1D0DECFE9FFBF
:10229000DDCFEAFF030ED890E936EA36E806FBE127
:1022A000600EE926000EEA22030EEF6EDECFE9FF94
:1022B000DDCFEAFF030ED890E936EA36E806FBE107
:1022C000600EE926000EEA22EE52EF6ADECFE9FF49
:1022D000DDCFEAFF030ED890E936EA36E806FBE1E7
:1022E000600EE926000EEA22040EE926000EEA221C
:1022F000EF6ADECFE9FFDDCFEAFF030ED890E936C3
:10230000EA36E806FBE1600EE926000EEA22050E39
:10231000E926000EEA22EF6ADECFE9FFDDCFEAFF11
:10232000030ED890E936EA36E806FBE1600EE926AE
:10233000000EEA22060EE926000EEA22EE6AED6A97
:10234000DECF3AF0DDCF3BF0010E3A26000E3B2205
:10235000DECFE9FFDDCFEAFF030ED890E936EA369B
:10236000E806FBE1600EE926000EEA22020EE926ED
:10237000000EEA223AC0EEFF3BC0EDFFFE0EDB503E
:1023800071E0DECFE9FFDDCFEAFF030ED890E9363A
:10239000EA36E806FBE1600EE926000EEA22EF507D
:1023A000E66EDECF3AF0DDCF3BF0060E3A24E66E65
:1023B00051EC0FF0E552E552DECFE9FFDDCFEAFF49
:1023C000030ED890E936EA36E806FBE1600EE9260E
:1023D000000EEA22060EE926000EEA22EECFE6FF04
:1023E000EFCFE6FF020E2E6E2F6ADECF33F0DDCF89
:1023F00034F015EC1EF02CC03AF02DC03BF0160E58
:102400003A24E66EAFEC0FF0E552E552E552DECF2E
:10241000E9FFDDCFEAFF030ED890E936EA36E80699
:10242000FBE1600EE926000EEA22020EE926000E0C
:10243000EA22EECFE6FFEFCFE6FF020E2E6E2F6A06
:10244000DECF33F0DDCF34F015EC1EF02CC03AF0C7
:102450002DC03BF0360E3A24E66EAFEC0FF0E5529D
:10246000E552E552DF2A010E01E3DB2A02D7FE0E18
:10247000DB500EE0E66A760EE66E51EC0FF0E552A8
:10248000E552E66A770EE66E51EC0FF0E552E55242
:10249000DE6ADD6ADECF3AF0DDCF3BF0D8903B500C
:1024A00004E6100E3A5C000E3B5801E3CFD0DECFBD
:1024B0003AF0DDCF3BF0060E3A24E66E41EC0FF029
:1024C000E552E66EDECFE9FFDDCFEAFF030ED890DE
:1024D000E936EA36E806FBE1600EE926000EEA225C
:1024E000E552E750EF6EDECFE9FFDDCFEAFF030EE6
:1024F000D890E936EA36E806FBE1600EE926000EE0
:10250000EA22EF50010B1DE1DECF3AF0DDCF3BF0C8
:10251000760E3A24E66E41EC0FF0E552E66EDECF21
:10252000E9FFDDCFEAFF030ED890E936EA36E80688
:10253000FBE1600EE926000EEA22EE52E552E7507A
:10254000EF6EDECFE9FFDDCFEAFF030ED890E9366C
:10255000EA36E806FBE1600EE926000EEA22040EE8
:10256000E926000EEA22EF6ADECFE9FFDDCFEAFFBF
:10257000030ED890E936EA36E806FBE1600EE9265C
:10258000000EEA22050EE926000EEA22EF6A020E8C
:102590002E6E2F6ADECF33F0DDCF34F015EC1EF057
:1025A0002CC03CF02DC03DF0160E3C24E66E6CECC9
:1025B0000FF0E552F3CF3AF0F4CF3BF0DECFE9FF76
:1025C000DDCFEAFF030ED890E936EA36E806FBE1F4
:1025D000600EE926000EEA22060EE926000EEA2227
:1025E0003AC0EEFF3BC0EDFF020E2E6E2F6ADECF2B
:1025F00033F0DDCF34F015EC1EF02CC03CF02DC0D4
:102600003DF0360E3C24E66E6CEC0FF0E552F3CF55
:102610003AF0F4CF3BF0DECFE9FFDDCFEAFF030E67
:10262000D890E936EA36E806FBE1600EE926000EAE
:10263000EA22020EE926000EEA223AC0EEFF3BC073
:10264000EDFFDF2A010E01E3DB2A24D7DE6ADD6A13
:10265000DECF3AF0DDCF3BF0D8903B5004E6100ED1
:102660003A5C000E3B580CE2DECFE6FFDDCFE6FF22
:1026700011D8E552E552DF2A010E01E3DB2AE8D743
:10268000030EE15C02E2E16AE552E16EE552E7CF5A
:10269000D9FF1200D9CFE6FFE1CFD9FFFD0EDBCF86
:1026A0002EF0FE0EDBCF2FF00F0E2E1801E12F5073
:1026B00001E1EBD10E0E2E1801E12F5001E1CAD13C
:1026C0000D0E2E1801E12F5001E1A9D10C0E2E188C
:1026D00001E12F5001E188D10B0E2E1801E12F509E
:1026E00001E167D10A0E2E1801E12F5001E146D118
:1026F000090E2E1801E12F5001E125D1080E2E18E8
:1027000001E12F5001E104D1070E2E1801E12F50F5
:1027100001E1E3D0060E2E1801E12F5001E1C2D0F5
:10272000050E2E1801E12F5001E1A1D0040E2E1844
:1027300001E12F5001E180D0030E2E1801E12F504E
:1027400060E0020E2E1801E12F5040E0010E2E181D
:1027500001E12F5020E02E5001E12F5001E0B0D1D7
:10276000FD0EDBCFE9FFFE0EDBCFEAFF030ED890B4
:10277000E936EA36E806FBE1600EE926000EEA22B9
:10278000EF50010B02E0010E01D0000EE8B0928084
:10279000E8A0929095D1FD0EDBCFE9FFFE0EDBCFD6
:1027A000EAFF030ED890E936EA36E806FBE1600E50
:1027B000E926000EEA22EF50010B02E0010E01D0E3
:1027C000000EE8B09282E8A092927AD1FD0EDBCFA3
:1027D000E9FFFE0EDBCFEAFF030ED890E936EA36BA
:1027E000E806FBE1600EE926000EEA22EF50010B3D
:1027F00002E0010E01D0000EE8B09286E8A09296A9
:102800005FD1FD0EDBCFE9FFFE0EDBCFEAFF030E4B
:10281000D890E936EA36E806FBE1600EE926000EBC
:10282000EA22EF50010B02E0010E01D0000EE8B0E9
:102830009288E8A0929844D1FD0EDBCFE9FFFE0E0E
:10284000DBCFEAFF030ED890E936EA36E806FBE173
:10285000600EE926000EEA22EF50010B02E0010EA5
:1028600001D0000EE8B0928AE8A0929A29D1FD0E1C
:10287000DBCFE9FFFE0EDBCFEAFF030ED890E9368F
:10288000EA36E806FBE1600EE926000EEA22EF5088
:10289000010B02E0010E01D0000EE8B09380E8A029
:1028A00093900ED1FD0EDBCFE9FFFE0EDBCFEAFFEA
:1028B000030ED890E936EA36E806FBE1600EE92619
:1028C000000EEA22EF50010B02E0010E01D0000ED3
:1028D000E8B09388E8A09398F3D0FD0EDBCFE9FF32
:1028E000FE0EDBCFEAFF030ED890E936EA36E806A3
:1028F000FBE1600EE926000EEA22EF50010B02E038
:10290000010E01D0000EE8B09382E8A09392D8D0D7
:10291000FD0EDBCFE9FFFE0EDBCFEAFF030ED89002
:10292000E936EA36E806FBE1600EE926000EEA2207
:10293000EF50010B02E0010E01D0000EE8B09480D0
:10294000E8A09490BDD0FD0EDBCFE9FFFE0EDBCFFB
:10295000EAFF030ED890E936EA36E806FBE1600E9E
:10296000E926000EEA22EF50010B02E0010E01D031
:10297000000EE8B09482E8A09492A2D0FD0EDBCFC6
:10298000E9FFFE0EDBCFEAFF030ED890E936EA3608
:10299000E806FBE1600EE926000EEA22EF50010B8B
:1029A00002E0010E01D0000EE8B09484E8A09494F7
:1029B00087D0FD0EDBCFE9FFFE0EDBCFEAFF030E73
:1029C000D890E936EA36E806FBE1600EE926000E0B
:1029D000EA22EF50010B02E0010E01D0000EE8B038
:1029E0009486E8A094966CD0FD0EDBCFE9FFFE0E36
:1029F000DBCFEAFF030ED890E936EA36E806FBE1C2
:102A0000600EE926000EEA22EF50010B02E0010EF3
:102A100001D0000EE8B0948EE8A0949E51D0FD0E37
:102A2000DBCFE9FFFE0EDBCFEAFF030ED890E936DD
:102A3000EA36E806FBE1600EE926000EEA22EF50D6
:102A4000010B02E0010E01D0000EE8B0948CE8A06A
:102A5000949C36D0FD0EDBCFE9FFFE0EDBCFEAFF04
:102A6000030ED890E936EA36E806FBE1600EE92667
:102A7000000EEA22EF50010B02E0010E01D0000E21
:102A8000E8B0948AE8A0949A1BD0FD0EDBCFE9FF52
:102A9000FE0EDBCFEAFF030ED890E936EA36E806F1
:102AA000FBE1600EE926000EEA22EF50010B02E086
:102AB000010E01D0000EE8B09488E8A0949800D0F0
:102AC000E552E7CFD9FF1200D9CFE6FFE1CFD9FF1A
:102AD000FD0EDBCF2EF0FE0EDBCF2FF00F0E2E18EB
:102AE00001E12F5001E1B9D00E0E2E1801E12F5057
:102AF00001E1ACD00D0E2E1801E12F5001E19FD065
:102B00000C0E2E1801E12F5001E192D00B0E2E1861
:102B100001E12F5001E185D00A0E2E1801E12F505E
:102B200001E178D0090E2E1801E12F506CE0080E5B
:102B30002E1801E12F5060E0070E2E1801E12F50F2
:102B400054E0060E2E1801E12F5048E0050E2E1815
:102B500001E12F503CE0040E2E1801E12F5030E02F
:102B6000030E2E1801E12F5024E0020E2E1801E171
:102B70002F5018E0010E2E1801E12F500CE02E50BE
:102B800001E12F5001E070D0FC0EDB50E8B08080F6
:102B9000E8A0809069D0FC0EDB50E8B08082E8A00D
:102BA000809262D0FC0EDB50E8B08086E8A0809670
:102BB0005BD0FC0EDB50E8B08088E8A0809854D051
:102BC000FC0EDB50E8B0808AE8A0809A4DD0FC0E65
:102BD000DB50E8B08180E8A0819046D0FC0EDB504D
:102BE000E8B08188E8A081983FD0FC0EDB50E8B0C7
:102BF0008182E8A0819238D0FC0EDB50E8B0828060
:102C0000E8A0829031D0FC0EDB50E8B08282E8A0D0
:102C100082922AD0FC0EDB50E8B08284E8A0829435
:102C200023D0FC0EDB50E8B08286E8A082961CD050
:102C3000FC0EDB50E8B0828EE8A0829E15D0FC0E20
:102C4000DB50E8B0828CE8A0829C0ED0FC0EDB50FA
:102C5000E8B0828AE8A0829A07D0FC0EDB50E8B088
:102C60008288E8A0829800D0E552E7CFD9FF120011
:102C7000D9CFE6FFE1CFD9FFE652DF6AFD0EDBCF09
:102C80002EF0FE0EDBCF2FF00F0E2E1801E12F508D
:102C900001E1A2D00E0E2E1801E12F5001E196D0D5
:102CA0000D0E2E1801E12F5001E18AD00C0E2E18C6
:102CB00001E12F5001E17ED00B0E2E1801E12F50C3
:102CC00073E00A0E2E1801E12F5068E0090E2E184D
:102CD00001E12F505DE0080E2E1801E12F5054E065
:102CE000070E2E1801E12F5049E0060E2E1801E1C3
:102CF0002F503EE0050E2E1801E12F5035E0040E56
:102D00002E1801E12F502AE0030E2E1801E12F505A
:102D10001FE0020E2E1801E12F5014E0010E2E18B4
:102D200001E12F5009E02E5001E12F5001E05AD06F
:102D30008050010BDF6E56D08050020B01E0010E77
:102D4000DF6E50D08050080B01E0010EDF6E4AD0DC
:102D50008050100B01E0010EDF6E44D08050200B3C
:102D600001E0010EDF6E3ED08150010BDF6E3AD0E4
:102D70008150100B01E0010EDF6E34D08150020B48
:102D800001E0010EDF6E2ED08250010BDF6E2AD0E3
:102D90008250020B01E0010EDF6E24D08250040B42
:102DA00001E0010EDF6E1ED08250080B01E0010E23
:102DB000DF6E18D08250800B01E0010EDF6E12D062
:102DC0008250400B01E0010EDF6E0CD08250200BD0
:102DD00001E0010EDF6E06D08250100B01E0010E03
:102DE000DF6E00D0DF5002E0000E01D0010E00D0F7
:102DF000E552E552E7CFD9FF12000C50000804E27B
:102E00000C060C5001E1819C1200D9CFE6FFE1CF06
:102E1000D9FF020EE126DE6ADD6ADE6ADD6ADECFF8
:102E20003AF0DDCF3BF0D8903B5004E6100E3A5C10
:102E3000000E3B5841E2DECFE9FFDDCFEAFF030E93
:102E4000D890E936EA36E806FBE1600EE926000E86
:102E5000EA22040EE926000EEA22EF5028E0DECF37
:102E6000E9FFDDCFEAFF030ED890E936EA36E8063F
:102E7000FBE1600EE926000EEA22050EE926000EAF
:102E8000EA22EF50000813E2DECFE9FFDDCFEAFFD0
:102E9000030ED890E936EA36E806FBE1600EE92633
:102EA000000EEA22050EE926000EEA22EF06DF2ACE
:102EB000010E01E3DB2AB3D7020EE15C02E2E16A14
:102EC000E552E16EE552E7CFD9FF1200D9CFE6FF18
:102ED000E1CFD9FFFD0EDBCFE9FFFE0EDBCFEAFF2E
:102EE000030ED890E936EA36E806FBE1600EE926E3
:102EF000000EEA22040EE926000EEA22EF5001E15C
:102F0000FFD0FD0EDBCFE9FFFE0EDBCFEAFF030EA5
:102F1000D890E936EA36E806FBE1600EE926000EB5
:102F2000EA22050EE926000EEA22EF5001E0E8D081
:102F3000FD0EDBCFE9FFFE0EDBCFEAFF030ED890DC
:102F4000E936EA36E806FBE1600EE926000EEA22E1
:102F5000040EE926000EEA22EF6AFD0EDBCFE9FF40
:102F6000FE0EDBCFEAFF030ED890E936EA36E8061C
:102F7000FBE1600EE926000EEA22EF50010B01E1B1
:102F8000B4D0FD0EDBCFE9FFFE0EDBCFEAFF030E70
:102F9000D890E936EA36E806FBE1600EE926000E35
:102FA000EA22EF50040B02E0980E01D0990E0101C5
:102FB000F16F03C03AF004C03BF0080E0F0B05E0C0
:102FC000D8903B323A32E806FBE13A500101F36F08
:102FD00003C03AF004C03BF000013B6A3A500101E3
:102FE000F46FFD0EDBCFE9FFFE0EDBCFEAFF030E31
:102FF000D890E936EA36E806FBE1600EE926000ED5
:10300000EA22020EE926000EEA22EECF3AF0EFCFD6
:103010003BF0080E0F0B05E0D8903B323A32E80641
:10302000FBE13A500101F56FFD0EDBCFE9FFFE0E2B
:10303000DBCFEAFF030ED890E936EA36E806FBE17B
:10304000600EE926000EEA22020EE926000EEA22B0
:10305000EECF3AF0EFCF3BF000013B6A3A5001016E
:10306000F66F040EF26FF00EE66E010EE66E28ECBF
:1030700006F0E552E552FD0EDBCFE9FFFE0EDBCF99
:10308000EAFF030ED890E936EA36E806FBE1600E67
:10309000E926000EEA22EF50040B02E0010E01D0F7
:1030A000000EE66EFD0EDBCFE9FFFE0EDBCFEAFF82
:1030B000030ED890E936EA36E806FBE1600EE92611
:1030C000000EEA22020EE926000EEA22EECFE6FF0B
:1030D000EFCFE6FF03C0E6FF04C0E6FFD0EC1CF034
:1030E0003A6E050EE15E3A500BD0E66AFD0EDBCF7C
:1030F000E6FFFE0EDBCFE6FFE7DCE552E552E552E8
:10310000E552E7CFD9FF1200D9CFE6FFE1CFD9FFD3
:10311000E6528050040B01E0010EDF6EDF5002E04A
:10312000000E01D0010E00D0E552E552E7CFD9FFE5
:103130001200D9CFE6FFE1CFD9FF020EE126010E42
:10314000DF6EFE0EDB50080DF3CFE9FFF4CFEAFF90
:10315000600EE926000EEA22EF50010B010801E0A3
:1031600070D1FE0EDBCFE6FFE66A82DDE552E55266
:10317000E76E010EE7CFDBFFFD0EDB5013E1FE0E25
:10318000DB50080DF3CFE9FFF4CFEAFF600EE9262C
:10319000000EEA22EE52EF50F36E010EDB50F35CAC
:1031A00001E14FD1FE0EDB50080DF3CFE9FFF4CF64
:1031B000EAFF600EE926000EEA22EE52010EDBCF96
:1031C000EFFFFD0EDB5034E1FE0EDB50080DF3CFB8
:1031D000E9FFF4CFEAFF600EE926000EEA22EF5085
:1031E000020B26E0010EDB5023E1FE0EDB50080D42
:1031F000F3CFE9FFF4CFEAFF600EE926000EEA22E2
:10320000050EE926000EEA22280EEF6EFE0EDB50B8
:10321000080DF3CFE9FFF4CFEAFF600EE926000EB8
:10322000EA22040EE926000EEA22010EEF6E09D111
:10323000FD0EDB5031E1FE0EDB50080DF3CFE9FF50
:10324000F4CFEAFF600EE926000EEA22EF50020BEF
:1032500023E0FE0EDB50080DF3CFE9FFF4CFEAFFC9
:10326000600EE926000EEA22040EE926000EEA228C
:10327000EF5012E0FE0EDB50080DF3CFE9FFF4CF64
:10328000EAFF600EE926000EEA22050EE926000E8E
:10329000EA22280EEF6ED5D0FE0EDB50080DF3CFDC
:1032A000E9FFF4CFEAFF600EE926000EEA22EF50B4
:1032B000040B04080AE1010EDB5002E0000E01D00D
:1032C000010EE76E010EE7CFDBFFFD0EDB5012E0D3
:1032D0000101F16B0AA808D0010EDB5002E0930E49
:1032E00001D0940EF16F05D0010EDB5002E0930E79
:1032F000F16F08D0010EDB5002E0980E01D0990E5C
:103300000101F16FF151000801E37CD003C03AF0F4
:1033100004C03BF0080E0F0B05E0D8903B323A3268
:10332000E806FBE13A500101F36F03C03AF004C034
:103330003BF000013B6A3A500101F46FFE0EDB5096
:10334000080DF3CFE9FFF4CFEAFF600EE926000E87
:10335000EA22020EE926000EEA22EECF3AF0EFCF83
:103360003BF0080E0F0B05E0D8903B323A32E806EE
:10337000FBE13A500101F56FFE0EDB50080DF3CF73
:10338000E9FFF4CFEAFF600EE926000EEA22020E02
:10339000E926000EEA22EECF3AF0EFCF3BF0000133
:1033A0003B6A3A500101F66F040EF26FF00EE66EC2
:1033B000010EE66E28EC06F0E552E552DF6EDF50B6
:1033C00021E1FE0EDB50080DF3CFE9FFF4CFEAFF59
:1033D000600EE926000EEA22EE52EF5002E0000EE7
:1033E00001D0010EE66EFE0EDB50080DF3CFE9FFB3
:1033F000F4CFEAFF600EE926000EEA22EE52E55213
:10340000E750EF6E010EDBCFE6FFFE0EDB50080D3E
:10341000F3CFE9FFF4CFEAFF600EE926000EEA22BF
:10342000020EE926000EEA22EECFE6FFEFCFE6FF1E
:1034300003C0E6FF04C0E6FFB3DA3A6E050EE15EB4
:103440003A50DF503A6E020EE15C03E200D0E16ACE
:10345000E552E16E3A50E552E7CFD9FF1200D9CFDD
:10346000E6FFE1CFD9FF020EE126DE6ADD6ADE6A01
:10347000DD6ADECF3AF0DDCF3BF0D8903B5004E67A
:10348000100E3A5C000E3B5820E2DECFE9FFDDCFA4
:10349000EAFF030ED890E936EA36E806FBE1600E53
:1034A000E926000EEA22EF50010B0AE1E66ADECFC0
:1034B000E6FFDDCFE6FF64EC15F0E552E552E5529C
:1034C000DF2A010E01E3DB2AD4D7020EE15C02E21F
:1034D000E16AE552E16EE552E7CFD9FF1200D9CF9C
:1034E000E6FFE1CFD9FF060EE126DE6ADD6A020EB5
:1034F000DB6A030EDB6ADE6ADD6ADECF3AF0DDCF1F
:103500003BF0D8903B5004E6080E3A5C000E3B5866
:103510003AE2DECFE9FFDDCFEAFF030ED890E936CD
:10352000EA36E806FBE1600EE926000EEA22EF50DB
:10353000010B24E1DECFE6FFDDCFE6FF38EC16F02D
:10354000E552E552000902E0000E01D0010EE76EDF
:10355000040EE7CFDBFF040EDB50DF5206E0DFCFC7
:10356000F3FFE846FE0BF306FCE13A6E020EDBCFFA
:10357000E7FF3A50E726020EE7CFDBFFDF2A010E16
:1035800001E3DB2ABAD7020EDBCFE6FF760EE66E4A
:1035900051EC0FF0E552E552080EDE6EDD6ADECF2B
:1035A0003AF0DDCF3BF0D8903B5004E6100E3A5C89
:1035B000000E3B583AE2DECFE9FFDDCFEAFF030E13
:1035C000D890E936EA36E806FBE1600EE926000EFF
:1035D000EA22EF50010B24E1DECFE6FFDDCFE6FF6C
:1035E00038EC16F0E552E552000902E0000E01D079
:1035F000010EE76E050EE7CFDBFF050EDB50DF5255
:1036000006E0DFCFF3FFE846FE0BF306FCE13A6E7F
:10361000030EDBCFE7FF3A50E726030EE7CFDBFFD1
:10362000DF2A010E01E3DB2ABAD7030EDBCFE6FF68
:10363000770EE66E51EC0FF0E552E552060EE15CB6
:1036400002E2E16AE552E16EE552E7CFD9FF1200EE
:10365000D9CFE6FFE1CFD9FF060EE126DE6ADD6AAB
:10366000760EE66E41EC0FF0E552E76E020EE7CF04
:10367000DBFF770EE66E41EC0FF0E552E76E030ECE
:10368000E7CFDBFFDE6ADD6ADECF3AF0DDCF3BF06D
:10369000D8903B5004E6080E3A5C000E3B5831E2ED
:1036A000DECFE9FFDDCFEAFF030ED890E936EA3638
:1036B000E806FBE1600EE926000EEA22EF50010B5E
:1036C0001BE1020EDB50DF5206E0DFCFF3FFE832F2
:1036D0007F0BF306FCE1010BE76E040EE7CFDBFF87
:1036E000040EDBCFE6FFDECFE6FFDDCFE6FF64ECC6
:1036F00015F0E552E552E552DF2A010E01E3DB2A1F
:10370000C3D7080EDE6EDD6ADECF3AF0DDCF3BF0C8
:10371000D8903B5004E6100E3A5C000E3B5831E264
:10372000DECFE9FFDDCFEAFF030ED890E936EA36B7
:10373000E806FBE1600EE926000EEA22EF50010BDD
:103740001BE1030EDB50DF5206E0DFCFF3FFE83270
:103750007F0BF306FCE1010BE76E050EE7CFDBFF05
:10376000050EDBCFE6FFDECFE6FFDDCFE6FF64EC44
:1037700015F0E552E552E552DF2A010E01E3DB2A9E
:10378000C3D7E66A760EE66E51EC0FF0E552E552CD
:10379000E66A770EE66E51EC0FF0E552E552060E42
:1037A000E15C02E2E16AE552E16EE552E7CFD9FF62
:1037B0001200085002E10B5007E00101FC51E8B093
:1037C000818EE8A0819EFC711200D9CFE6FFE1CF87
:1037D000D9FF060EE126DE6ADD6A020EDB6A030E01
:1037E000DB6AD950FD0FE96EFF0EDA20EA6EEE506B
:1037F000ED105AE1DE6ADD6ADECF3AF0DDCF3BF054
:10380000D8903B5004E6080E3A5C000E3B5849E263
:10381000040EDB6ADECFE9FFDDCFEAFF030ED890AE
:10382000E936EA36E806FBE1600EE926000EEA22F8
:10383000EF50010B12E1DECFE6FFDDCFE6FF38EC03
:1038400016F0E552E552000902E0000E01D0010E2B
:10385000E76E040EE7CFDBFF0CD0DECFE6FFDDCF57
:10386000E6FF38EC16F0E552E552E76E040EE7CFBE
:10387000DBFF040EDB50DF5206E0DFCFF3FFE8464C
:10388000FE0BF306FCE13A6E020EDBCFE7FF3A5087
:10389000E726020EE7CFDBFFDF2A010E01E3DB2A7A
:1038A000ABD7020EDB5070D0D950FD0FE96EFF0E82
:1038B000DA20EA6E010EEE1801E1ED5063E1080E28
:1038C000DE6EDD6ADECF3AF0DDCF3BF0D8903B50C4
:1038D00004E6100E3A5C000E3B5851E2050EDB6A1E
:1038E000DECFE9FFDDCFEAFF030ED890E936EA36F6
:1038F000E806FBE1600EE926000EEA22EF50010B1C
:1039000012E1DECFE6FFDDCFE6FF38EC16F0E55240
:10391000E552000902E0000E01D0010EE76E050E2F
:10392000E7CFDBFF0CD0DECFE6FFDDCFE6FF38ECE4
:1039300016F0E552E552E76E050EE7CFDBFFDECF6E
:103940003BF0DDCF3CF0080E3B5E000E3C5A050E0E
:10395000DB503BC0E7FFE75204E0E846FE0BE7061A
:10396000FCE13A6E030EDBCFE7FF3A50E726030E89
:10397000E7CFDBFFDF2A010E01E3DB2AA3D7030E2B
:10398000DB5002D0000E00D03A6E060EE15C02E27F
:10399000E16AE552E16E3A50E552E7CFD9FF1200F5
:1039A000D9CFE6FFE1CFD9FF040EE126DE6ADD6A5A
:1039B000DE6ADD6ADECF3AF0DDCF3BF0D8903B50D7
:1039C00004E6100E3A5C000E3B5801E324D1DECF32
:1039D000E9FFDDCFEAFF030ED890E936EA36E806C4
:1039E000FBE1600EE926000EEA22EF50010B01E038
:1039F0000DD1DECFE9FFDDCFEAFF030ED890E93627
:103A0000EA36E806FBE1600EE926000EEA22020E25
:103A1000E926000EEA22EECF3AF0EFCF3BF0FB0EA4
:103A2000DB503A1803E1FC0EDB503B1801E0EED00E
:103A3000020EDB6A0AA206D0010EF36E020EF3CF6D
:103A4000DBFF23D0DECFE9FFDDCFEAFF030ED89006
:103A5000E936EA36E806FBE1600EE926000EEA22C6
:103A6000060EE926000EEA22EECF3AF0EFCF3BF049
:103A7000FD0EDB503A1803E1FE0EDB503B1805E16A
:103A8000010EF36E020EF3CFDBFF020EDB5028E0D7
:103A9000DECFE9FFDDCFEAFF030ED890E936EA3644
:103AA000E806FBE1600EE926000EEA22EF50040B67
:103AB00004080AE1FA0EDB5002E0000E01D0010E0C
:103AC000E76EFA0EE7CFDBFFFA0EDBCFE6FFDECFC5
:103AD000E6FFDDCFE6FF64EC15F0E552E552E55276
:103AE000FA0EDB5001E192D0020EDB5001E18ED0E4
:103AF000DECFE9FFDDCFEAFF030ED890E936EA36E4
:103B0000E806FBE1600EE926000EEA22EF50020B08
:103B100001E17CD00C0E0A14E76E030EE7CFDBFF49
:103B2000DECFE9FFDDCFEAFF030ED890E936EA36B3
:103B3000E806FBE1600EE926000EEA22040EE92603
:103B4000000EEA22010EEF6E030EDB5015E1DECF10
:103B5000E9FFDDCFEAFF030ED890E936EA36E80642
:103B6000FBE1600EE926000EEA22050EE926000EB2
:103B7000EA22050EEF6E4AD0030EDB50040815E171
:103B8000DECFE9FFDDCFEAFF030ED890E936EA3653
:103B9000E806FBE1600EE926000EEA22050EE926A2
:103BA000000EEA220A0EEF6E31D0030EDB50080839
:103BB00015E1DECFE9FFDDCFEAFF030ED890E9364D
:103BC000EA36E806FBE1600EE926000EEA22050E61
:103BD000E926000EEA22140EEF6E18D0030EDB5019
:103BE0000C0814E1DECFE9FFDDCFEAFF030ED89029
:103BF000E936EA36E806FBE1600EE926000EEA2225
:103C0000050EE926000EEA22280EEF6EDF2A010ECD
:103C100001E3DB2ACFD6040EE15C02E2E16AE55261
:0A3C2000E16EE552E7CFD9FF120074
:063C2A002FC039F02EC08E
:103C300038F02E503302F4CF2DF0F3CF2CF02F506C
:103C40003402F4CF2FF0F3CF2EF03302F3502D26B1
:103C5000F4502E22E86A2F2238503402F3502D26D9
:103C6000F4502E22E86A2F2234AE3BEF1EF038507B
:103C70002E5E39502F5A39AE000C33502E5E345020
:043C80002F5A000CAB
:0C3C840046670211001101000000000062
:103C90000000000000000000000000000000000024
:043CA0000000000020
:0C3CA400000EF36E00EE00F0030E01D8DD
:103CB0001200EA6002D0EE6AFCD7F350E96012000D
:043CC000EE6AFCD7D5
:020000040030CA
:0100010006F8
:0100020016E7
:0100030010EC
:0100050000FA
:010006008079
:010008000FE8
:01000900C036
:01000A000FE6
:01000B00E014
:01000C000FE4
:01000D0040B2
:0200000400F00A
:040000007F0000007D
:0100FF000000
:00000001FF
