:020000040000FA
:040000001FD00ED02F
:0400080004EF04F00D
:040018000CEF04F0F5
:10002000A66E05A01200550EA76EAA0EA76EA68298
:100030000000A6B2FED712000A26D8B00B2A120082
:10004000A66AA968AA68A680A83C00EF04F0066A20
:100050001C0E056E0F019394000E006F080E016FC9
:10006000E81E056F000E026F070E036FFF0E186F7C
:10007000EB0E196FFF0E1A6FF80E1B6F030E706EEA
:100080009E0E716E030E726E200E736E6F6A939EDB
:10009000939C818E818C0400609E60AEFED70FEE33
:1000A00066F065500F0B096EF46EF5E064B02BD06E
:1000B00010EE01F0EECFE6FFF42EFCD70650EBE099
:1000C000010AD8A407D0A968AA68A86A040EA8DF04
:1000D000819CFF000650020A05E10B6A0A6A0C9037
:1000E0000C6AD9D70650030A0AE107500A2606E12E
:1000F00008500B2203E10CB001D073D076D006502B
:10010000040AC9E176D00350F86EF00BF36E02508A
:10011000F76EAA6E0150F66EA96E05A605D00950BD
:100120000126E86A02220322300EF36001D008D0D3
:10013000F350300A01E12AD0F350F00AACE132D09A
:1001400005A405D0F6503F0B02E1940E69DF05B21D
:10015000A2D7F650070B9FE1080EF46EEE50F56E35
:100160006BDF0D00F42EFAD7080EF46E0A00ED5086
:10017000F42EFCD7840E54DF080EF46E0900F550FF
:10018000EE18D8A40C80F42EF9D785D7EF50F56E71
:1001900053DF0C00C40E44DF0900F550EE18F42EB6
:1001A000F5D779D7EF50A86E47DF040E39DFA66A7E
:1001B000A680A850EE18D8A40C80A94AAA2AF42E2A
:1001C000F1D769D740B7FED7800E416F080E426F56
:1001D000000E436F040E446F448164A04491408735
:1001E0005AD7010E466F456FEDD7466B010E456F2E
:0C01F000E9D7020E466F010E456FE4D700
:0401FC0046010211A5
:1002000000110000000000000000000000000000DD
:0C021000000000000000000000000000E2
:04021C00000EF36E6F
:1002200000EE00F0030E01D81200EA6002D0EE6A80
:0C023000FCD7F350E9601200EE6AFCD726
:08080000000020EF04F01200DB
:0808080007ED04F012000600E8
:06081000AAEF0AF012003D
:020816001200CE
:060818000CEF0BF01200D2
:01081E0000D9
:06082A0001001E080000A1
:08083000F200000001000000CD
:1008400012EE00F0800E006EA50EE66E002EFDD7B3
:1008500012EE00F022EE00F0F86A269C0BEC04F099
:1008600034EC04F0FBD71200D9CFE6FFE1CFD9FF7B
:10087000E652DF6A076A010EE66E3DEC0BF0E552C8
:10088000096E5DD891D827EC17F0020EE66E3DECAC
:100890000BF0E552036E046A03C004F0036A030E12
:1008A000E66E3DEC0BF0E552276E286A27500326D2
:1008B000285004220350041003E1EE0E036E046876
:1008C000670E056E120E066E26EC05F0000902E1B9
:1008D000F6EC05F0E66AA0EC14F0E552BBEC13F080
:1008E0008BEC14F0000905E0DF5003E1010EDF6E30
:1008F00020D08BEC14F000091CE1DF501AE0DF6A15
:10090000075003E0076A819E14D0818E500E116E4D
:100910000450126E03C027F004C028F00001286ABA
:100920002750136E030EE66E7CEC05F0E552010EC7
:10093000076ECAD7E552E552E7CFD9FF1200D9CFEB
:10094000E6FFE1CFD9FF020EE126DE6ADD6AF26A38
:10095000A66AA56AA26A9F6A210EA36EA06A9D6A12
:10096000F06AF16AF26AA46AA16A9E6AD08E410EA8
:10097000D56ED66AD76AF28AD58EF184910E0A6E48
:10098000AC0E196E210E1A6E1B6AD08EF28CF28E8E
:1009900008EC0CF0020EE15C02E2E16AE552E16E65
:1009A000E552E7CFD9FF1200EE0E036E04680B6A22
:1009B000BE0E0C6E400E0D6E0F017E0E416F400E8E
:1009C000426F010E456F020E466FF28EF28CE9EF18
:1009D00004F0800E6F6E6EAEFED7B00E776E0D0116
:1009E000F86B606A030E706E9E0E716E030E726E6F
:1009F000200E736E010ED46FD56BD86B0F01186B80
:100A0000080E196F1A6B1B6B1C6B080E1D6F1E6B8B
:100A10001F6B800E016F0D01E06BE16BE26BE36B0E
:100A2000E46BE56BE66BE76BF06BF16BF26BF36B12
:100A3000FA6BFC6B606A0F01506B0E01206B306B20
:100A4000406B506B606B706B6F6A1200070E6F1417
:100A5000010A15E0010A0DE0020E6F5C070B100D94
:100A6000F3500001F06FF16B200EF0270E0EF12312
:100A70000CD00001600EF06F0F0EF16F06D0000178
:100A8000500EF06F0F0EF16F00D0F0C0E9FFF1C013
:100A9000EAFFEF50800B03E0000E03D002D0010EFE
:100AA00000D01200D9CFE6FFE1CFD9FFFE0EDB5018
:100AB000116E030EE66E05D8E552E552E7CFD9FF79
:100AC0001200D9CFE6FFE1CFD9FF04C027F0286A92
:100AD0002750126E0350136EFE0EDBCFE6FF0CD8CC
:100AE000E552E552E7CFD9FF1200030E116E010E59
:100AF000E66E02D8E5521200D9CFE6FFE1CFD9FF6A
:100B0000FE0EDB50106E0F0E0C16B00E0C120A0EFD
:100B1000086E15D8E552E7CFD9FF1200D9CFE6FF0E
:100B2000E1CFD9FF300E116EFE0EDB50126E020EB9
:100B3000E66EE2DFE552E552E7CFD9FF1200D9CFEA
:100B4000E6FFE1CFD9FF040EE126818C020E006E94
:100B5000016A0F013051080B05E0015003E100501C
:100B600001E0F7D7DF6AD950010FE96EDACFEAFF6B
:100B7000300EEE6E0F0EED6E030EDB6A0E0EF36E90
:100B8000030EDBCFF4FFF350F45C18E2DF50DF2AF2
:100B9000EA6A0B0FE96E000EEA22EF50E66E010ED4
:100BA000DBCFE9FFDB2A020EDBCFEAFF01E3DB2A22
:100BB000E552E750EF6E030EDB2AE0D7020E006E1F
:100BC000016A0F013051080B05E0015003E10050AC
:100BD00001E0F7D73087819C040EE15C02E2E16A14
:100BE000E552E16EE552E7CFD9FF1200D9CFE6FF1B
:100BF000E1CFD9FF140EE126F0C0E9FFF1C0EAFF12
:100C0000060EEB50570A01E130D3C10A01E1D2D2FE
:100C1000E70A01E15CD2790A01E154D2540A01E108
:100C20003ED24C0A01E102D2520A01E1C5D1310A99
:100C300001E1ACD1E20A01E1EFD0080A01E1ECD018
:100C4000090A2EE0080A2CE0020A02E028EF0AF066
:100C5000F0C0E9FFF1C0EAFF090EEB50296E2A6AE5
:100C600029C02AF0296AF0C0E9FFF1C0EAFF0A0EA4
:100C7000EB5000012924276E000E2A20286E27C081
:100C8000DEFF28C0DDFFDF50051803E1DE52DD5036
:100C9000061805E1010EE66EA0EC14F0E552D9D37A
:100CA000F0C0E9FFF1C0EAFF070EEB50296E2A6A97
:100CB00029C02AF0296AF0C0E9FFF1C0EAFF080E56
:100CC000EB5000012924276E000E2A20286E020E08
:100CD00027C0DBFF030E28C0DBFFF0C0E9FFF1C037
:100CE000EAFF090EEB50296E2A6A29C02AF0296A08
:100CF000F0C0E9FFF1C0EAFF0A0EEB500001292421
:100D0000276E000E2A20286E040E27C0DBFF050E7A
:100D100028C0DBFF060EDB6A070EDB6A060EDB6A05
:100D2000070EDB6A060EDBCF27F0070EDBCF28F0BD
:100D3000D890285004E6100E275C000E28586BE26D
:100D4000060EDBCFE9FF070EDBCFEAFF090EEA0252
:100D5000F3CFEAFF090EE902F3CFE9FFF450EA26E8
:100D6000600EE926000EEA22020EE926000EEA22B3
:100D7000EECF27F0EFCF28F0040EDB50271803E169
:100D8000050EDB50281841E109A20ED0010EE66ED7
:100D9000060EDBCFE6FF070EDBCFE6FFB0EC11F06F
:100DA000E552E552E55231D0060EDBCFE9FF070EE2
:100DB000DBCFEAFF090EEA02F3CFEAFF090EE902F0
:100DC000F3CFE9FFF450EA26600EE926000EEA228E
:100DD000070EE926000EEA22EECF27F0EFCF28F02B
:100DE000020EDB50271803E1030EDB5028180DE13B
:100DF000010EE66E060EDBCFE6FF070EDBCFE6FF49
:100E0000B0EC11F0E552E552E552060EDB2A070E72
:100E100001E3DB2A87D71DD3F0C0E9FFF1C0EAFF69
:100E2000070EEB50296E2A6A29C02AF0296AF0C001
:100E3000E9FFF1C0EAFF080EEB5000012924276EFC
:100E4000000E2A20286E080E27C0DBFF090E28C0DE
:100E5000DBFFF0C0E9FFF1C0EAFF090EEB50296E9D
:100E60002A6A29C02AF0296AF0C0E9FFF1C0EAFF26
:100E70000A0EEB5000012924276E000E2A20286E4E
:100E80000A0E27C0DBFF0B0E28C0DBFF0C0EDB6A4F
:100E90000D0EDB6A0C0EDB6A0D0EDB6A0C0EDBCF6F
:100EA00027F00D0EDBCF28F0D890285004E6100E66
:100EB000275C000E285869E20C0EDBCFE9FF0D0E0F
:100EC000DBCFEAFF090EEA02F3CFEAFF090EE902DF
:100ED000F3CFE9FFF450EA26600EE926000EEA227D
:100EE000020EE926000EEA22EECF27F0EFCF28F01F
:100EF0000A0EDB50271803E10B0EDB5028183FE1E8
:100F000009A20DD0E66A0C0EDBCFE6FF0D0EDBCF9B
:100F1000E6FFB0EC11F0E552E552E55230D00C0E90
:100F2000DBCFE9FF0D0EDBCFEAFF090EEA02F3CFBC
:100F3000EAFF090EE902F3CFE9FFF450EA26600E5A
:100F4000E926000EEA22070EE926000EEA22EECF7D
:100F500027F0EFCF28F0080EDB50271803E1090E29
:100F6000DB5028180CE1E66A0C0EDBCFE6FF0D0E15
:100F7000DBCFE6FFB0EC11F0E552E552E5520C0E86
:100F8000DB2A0D0E01E3DB2A89D763D2BEDAF3CF69
:100F900027F0F4CF28F0010E271801E128500BE1CB
:100FA000F0C0E9FFF1C0EAFF090EEB50E66EE66A19
:100FB00066DAE552E5524DD2075037E0F0C0E9FF5E
:100FC000F1C0EAFF070EEB50E76E0E0EE7CFDBFF36
:100FD000F0C0E9FFF1C0EAFF080EEB50E76E0F0E1C
:100FE000E7CFDBFF0E0EDB50276E286A27C028F004
:100FF000276A0F0EDB5000012724036E000E282005
:10100000046E0E0EDBCFE6FF020EE66E4DEC0BF02B
:10101000E552E5520F0EDBCFE6FF030EE66E4DEC18
:101020000BF0E552E552076A819E13D2EF0E116E66
:10103000FC0EF66E010EF76E0800F550126EFD0EF6
:10104000F66E010EF76E0800F550136EFE0EF66E8A
:10105000010EF76E0800F550146EFF0EF66E010ECD
:10106000F76E0800F550156E000EF66E020EF76E64
:101070000800F550166E010EF66E020EF76E0800AF
:10108000F550176E020EF66E020EF76E0800F55060
:10109000186E080EE66E7CEC05F0E552DAD135DA12
:1010A000F3CF27F0F4CF28F0010E271801E12850E4
:1010B00008E1E668FF0EE66E4DEC0BF0E552E552F6
:1010C000FF00C7D109A002D066EC16F0C2D11DDA2C
:1010D000F3CF27F0F4CF28F0275028106AE0F0C0B3
:1010E000E9FFF1C0EAFF090EEB50E76E100EE7CF03
:1010F000DBFF100EDB0425E1970E116E03C027F015
:1011000004C028F0080E0F0B05E0D89028322732D3
:10111000E806FBE12750126E03C027F004C028F058
:101120000001286A2750136E100EDB50146E095010
:10113000156E050EE66E7CEC05F0E552D1EC0BF079
:1011400038D0120EF36E100EDBCFF4FFF350F45CC8
:1011500030E2970E116E03C027F004C028F0080E8D
:101160000F0B05E0D89028322732E806FBE1275024
:10117000126E03C027F004C028F00001286A27502F
:10118000136E100EDB50146E100EDB50FE0F090DA7
:10119000F3CFE9FFF4CFEAFF600EE926000EEA2262
:1011A000EF50156E050EE66E7CEC05F0E552D1ECC5
:1011B0000BF04FD1AAD9F3CF27F0F4CF28F0275066
:1011C000281052E0F0C0E9FFF1C0EAFF090EEB5031
:1011D000E76E110EE7CFDBFF110EDB0410E1F0C06C
:1011E000E9FFF1C0EAFF0A0EEB50096E0950E66E06
:1011F000010EE66E4DEC0BF0E552E55235D0120EC5
:10120000F36E110EDBCFF4FFF350F45C2DE2F0C06F
:10121000E9FFF1C0EAFF0A0EEB50E66E110EDB505B
:10122000FE0F090DF3CFE9FFF4CFEAFF600EE926C8
:10123000000EEA22E552E750EF6E110EDB50FE0F72
:10124000090DF3CFE9FFF4CFEAFF600EE926000EA7
:10125000EA22EF50E66E110EDB50FE0F060FE66E2F
:101260004DEC0BF0E552E552F4D04FD9F3CF27F017
:10127000F4CF28F02750281001E1E9D0120EDB6AE4
:10128000130EDB6A120EDB6A130EDB6A120EDBCF63
:1012900027F0130EDBCF28F0D890285004E6100E6C
:1012A000275C000E285801E3A4D0F20E116E03C093
:1012B00027F004C028F0080E0F0B05E0D890283264
:1012C0002732E806FBE12750126E03C027F004C066
:1012D00028F00001286A2750136E120EDBCFE9FFB9
:1012E000130EDBCFEAFF090EEA02F3CFEAFF090E85
:1012F000E902F3CFE9FFF450EA26600EE926000E7A
:10130000EA22070EE926000EEA22EECF27F0EFCF01
:1013100028F02850146E120EDBCFE9FF130EDBCF3E
:10132000EAFF090EEA02F3CFEAFF090EE902F3CF62
:10133000E9FFF450EA26600EE926000EEA22070EC5
:10134000E926000EEA22EECF27F0EFCF28F00001C9
:10135000286A2750156E120EDBCFE9FF130EDBCF84
:10136000EAFF090EEA02F3CFEAFF090EE902F3CF22
:10137000E9FFF450EA26600EE926000EEA22020E8A
:10138000E926000EEA22EECF27F0EFCF28F0285012
:10139000166E120EDBCFE9FF130EDBCFEAFF090E4C
:1013A000EA02F3CFEAFF090EE902F3CFE9FFF450B6
:1013B000EA26600EE926000EEA22020EE926000E59
:1013C000EA22EECF27F0EFCF28F00001286A27505D
:1013D000176E120EDB50186E080EE66E7CEC05F0F0
:1013E000E552D1EC0BF0120EDB2A130E01E3DB2ADF
:1013F0004DD7F20E116E03C027F004C028F0080E7E
:101400000F0B05E0D89028322732E806FBE1275081
:10141000126E03C027F004C028F00001286A27508C
:10142000136E146A156A0650166E05C027F006C0C2
:1014300028F00001286A2750176E120EDB50186E34
:10144000080EE66E7CEC05F0E552D1EC0BF001D015
:1014500000D00000F0C0E9FFF1C0EAFFEF6A0250DF
:1014600004E0026AA38075EC05F0140EE15C02E270
:10147000E16AE552E16EE552E7CFD9FF1200D9CF1C
:10148000E6FFE1CFD9FFFD0EDBCF27F0FE0EDBCF6D
:1014900028F0080E275C000E28581BE29B0E116EE8
:1014A000FD0EDB50146EFD0EDBCFF6FFFE0EDBCF24
:1014B000F7FFF606000EF75AFC0EF626010EF7228D
:1014C0000800F550156E050EE66E61EC05F0E5526C
:1014D00006D0090EE66EE66A06D8E552E552E552F8
:1014E000E7CFD9FF1200D9CFE6FFE1CFD9FF6F0ECA
:1014F000116EFD0EDB50146E040EE66E61EC05F00D
:10150000E552E552E7CFD9FF1200F0C0E9FFF1C084
:10151000EAFF070EEB50296E29C02AF0296AF0C0B5
:10152000E9FFF1C0EAFF080EEB5000012924276E05
:10153000000E2A20286E0350271802E104502818B4
:1015400005E1010EF36EF46A04D003D0F36AF46A85
:1015500000D01200DACFE4FFE2CFDAFFE9CFE4FFF8
:10156000EACFE4FFF6CFE4FFF7CFE4FFF5CFE4FFE7
:10157000F3CFE4FFF4CFE4FFFACFE4FF00EE1CF07A
:101580000B0EE80403E3EECFE4FFFBD700EE27F0F9
:10159000040EE80403E3EECFE4FFFBD7E652F29437
:1015A0000A50D66E010E195E000E1A5A000E1B5A12
:1015B00019501A101B100CE1D60E196E100E1A6E6F
:1015C0001B6A49EC13F0D2EC17F0005001E0000662
:1015D000E55200EE2AF0040EE80403E3E5CFEDFF48
:1015E000FBD700EE26F00B0EE80403E3E5CFEDFF9A
:1015F000FBD7E5CFFAFFE5CFF4FFE5CFF3FFE5CF6B
:10160000F5FFE5CFF7FFE5CFF6FFE5CFEAFFE5CF42
:10161000E9FFE5CFDAFF1100D8CFE4FFE0CFE4FF28
:10162000E46EDACFE4FFE2CFDAFFE652A4A005D001
:101630000F014087010E026EA390A4AA14D00F01DF
:1016400030AB0CD0085004E1010E016E309706D08B
:10165000080604E130973F0E0C16308730A903D0FE
:10166000010E016E3097A46AE552E5CFDAFFE5502E
:10167000E5CFE0FFE5CFD8FF1000D9CFE6FFE1CFFF
:10168000D9FFFE0EDB50A96EA69EA69CA680A85090
:1016900000D0E552E7CFD9FF1200D9CFE6FFE1CF66
:1016A000D9FFF29EA69EA69CA684FE0EDB50A96ED4
:1016B000FD0EDB50A86E550EA76EAA0EA76EA68271
:1016C000A1A8FED7A198F28EE552E7CFD9FF12006C
:1016D000D9CFE6FFE1CFD9FF030EE126FE0EDB50A6
:1016E000DF6EDF50DF2AE66EC8DFE552E66ED950C6
:1016F000010FE96EDACFEAFFE552E750EE6EED6AD0
:10170000DFCFE6FFBADFE552296E29C02AF0296A49
:10171000010EDB502910276E020EDB502A10286EB6
:10172000010E27C0DBFF020E28C0DBFF010EDBCF5E
:1017300027F0020EDBCF28F027C0F3FF28C0F4FF0C
:10174000030EE15C03E200D0E16AE552E16EE5528E
:10175000E7CFD9FF1200D9CFE6FFE1CFD9FFE6529C
:10176000FE0EDB50DF6EFC0EDBCFE6FFDF50DF2A24
:10177000E66E93DFE552E552FC0EDBCF27F0FD0E5F
:10178000DBCF28F028C027F0286A2750E66EDFCF8D
:10179000E6FF83DFE552E552E552E552E7CFD9FF98
:1017A0001200D9CFE6FFE1CFD9FF020EE126DF6AB2
:1017B0000A0EDF5C12E2010EDB6A010EDB50276EBF
:1017C000286A283404E22750F508000E285403E361
:1017D000010EDB2AF2D7DF2AEBD7020EE15C02E230
:1017E000E16AE552E16EE552E7CFD9FF1200D9CFA9
:1017F000E6FFE1CFD9FFE652DF6A640EDF5C03E269
:10180000D0DFDF2AFAD7E552E552E7CFD9FF120041
:10181000D9CFE6FFE1CFD9FF020EE126DE6ADD6A0D
:10182000C26A0F0EC16E939C939E9284819C819E8E
:10183000DE6ADD6ADECF27F0DDCF28F0D8902850B1
:1018400004E6080E275C000E285801E3B8D0DECF6E
:10185000E9FFDDCFEAFF090EEA02F3CFEAFF090E46
:10186000E902F3CFE9FFF450EA26600EE926000E04
:10187000EA22EF6ADECFE9FFDDCFEAFF090EEA02D6
:10188000F3CFEAFF090EE902F3CFE9FFF450EA26AD
:10189000600EE926000EEA22EE52EF6ADECFE9FF83
:1018A000DDCFEAFF090EEA02F3CFEAFF090EE902F3
:1018B000F3CFE9FFF450EA26600EE926000EEA2293
:1018C000040EE926000EEA22EF6ADECFE9FFDDCF43
:1018D000EAFF090EEA02F3CFEAFF090EE902F3CFAD
:1018E000E9FFF450EA26600EE926000EEA22050E12
:1018F000E926000EEA22EE6AED6ADECFE9FFDDCFCF
:10190000EAFF090EEA02F3CFEAFF090EE902F3CF7C
:10191000E9FFF450EA26600EE926000EEA22070EDF
:10192000E926000EEA22EE6AED6ADECF27F0DDCF6F
:1019300028F0010E2726000E2822DECFE9FFDDCF9A
:10194000EAFF090EEA02F3CFEAFF090EE902F3CF3C
:10195000E9FFF450EA26600EE926000EEA22020EA4
:10196000E926000EEA2227C0EEFF28C0EDFF8BEC2F
:1019700014F000091FE0DECFE9FFDDCFEAFF090E1A
:10198000EA02F3CFEAFF090EE902F3CFE9FFF450D0
:10199000EA26600EE926000EEA22EF50E66EDECF60
:1019A00027F0DDCF28F0060E2724E66E4DEC0BF075
:1019B000E552E552DF2A010E01E3DB2A3BD7080E90
:1019C000DE6EDD6ADECF27F0DDCF28F0D89028501C
:1019D00004E6100E275C000E285801E3B9D0DECFD4
:1019E000E9FFDDCFEAFF090EEA02F3CFEAFF090EB5
:1019F000E902F3CFE9FFF450EA26600EE926000E73
:101A0000EA22030EEF6EDECFE9FFDDCFEAFF090E1B
:101A1000EA02F3CFEAFF090EE902F3CFE9FFF4503F
:101A2000EA26600EE926000EEA22EE52EF6ADECFC9
:101A3000E9FFDDCFEAFF090EEA02F3CFEAFF090E64
:101A4000E902F3CFE9FFF450EA26600EE926000E22
:101A5000EA22040EE926000EEA22EF6ADECFE9FF51
:101A6000DDCFEAFF090EEA02F3CFEAFF090EE90231
:101A7000F3CFE9FFF450EA26600EE926000EEA22D1
:101A8000050EE926000EEA22EE6AED6ADECFE9FFD6
:101A9000DDCFEAFF090EEA02F3CFEAFF090EE90201
:101AA000F3CFE9FFF450EA26600EE926000EEA22A1
:101AB000070EE926000EEA22EE6AED6ADECF27F075
:101AC000DDCF28F0010E2726000E2822DECFE9FF09
:101AD000DDCFEAFF090EEA02F3CFEAFF090EE902C1
:101AE000F3CFE9FFF450EA26600EE926000EEA2261
:101AF000020EE926000EEA2227C0EEFF28C0EDFF05
:101B00008BEC14F000091FE0DECFE9FFDDCFEAFF28
:101B1000090EEA02F3CFEAFF090EE902F3CFE9FF6B
:101B2000F450EA26600EE926000EEA22EF50E66E37
:101B3000DECF27F0DDCF28F0060E2724E66E4DEC31
:101B40000BF0E552E552DF2A010E01E3DB2A3AD71A
:101B5000DE6ADD6ADECF27F0DDCF28F0060E27240F
:101B6000E66E3DEC0BF0E552E66EDECFE9FFDDCF31
:101B7000EAFF090EEA02F3CFEAFF090EE902F3CF0A
:101B8000E9FFF450EA26600EE926000EEA22E5524B
:101B9000E750EF6EDECFE9FFDDCFEAFF090EEA0284
:101BA000F3CFEAFF090EE902F3CFE9FFF450EA268A
:101BB000600EE926000EEA22EF50010B02E0010E52
:101BC00001D0000EE8B09280E8A09290DF2A010ECA
:101BD00001E3DB2ADECF27F0DDCF28F0060E272435
:101BE000E66E3DEC0BF0E552E66EDECFE9FFDDCFB1
:101BF000EAFF090EEA02F3CFEAFF090EE902F3CF8A
:101C0000E9FFF450EA26600EE926000EEA22E552CA
:101C1000E750EF6EDECFE9FFDDCFEAFF090EEA0203
:101C2000F3CFEAFF090EE902F3CFE9FFF450EA2609
:101C3000600EE926000EEA22EF50010B02E0010ED1
:101C400001D0000EE8B09282E8A09292DF2A010E45
:101C500001E3DB2ADECF27F0DDCF28F0060E2724B4
:101C6000E66E3DEC0BF0E552E66EDECFE9FFDDCF30
:101C7000EAFF090EEA02F3CFEAFF090EE902F3CF09
:101C8000E9FFF450EA26600EE926000EEA22E5524A
:101C9000E750EF6EDECFE9FFDDCFEAFF090EEA0283
:101CA000F3CFEAFF090EE902F3CFE9FFF450EA2689
:101CB000600EE926000EEA22EF50010B02E0010E51
:101CC00001D0000EE8B09286E8A09296DF2A010EBD
:101CD00001E3DB2ADECF27F0DDCF28F0060E272434
:101CE000E66E3DEC0BF0E552E66EDECFE9FFDDCFB0
:101CF000EAFF090EEA02F3CFEAFF090EE902F3CF89
:101D0000E9FFF450EA26600EE926000EEA22E552C9
:101D1000E750EF6EDECFE9FFDDCFEAFF090EEA0202
:101D2000F3CFEAFF090EE902F3CFE9FFF450EA2608
:101D3000600EE926000EEA22EF50010B02E0010ED0
:101D400001D0000EE8B09288E8A09298DF2A010E38
:101D500001E3DB2ADECF27F0DDCF28F0060E2724B3
:101D6000E66E3DEC0BF0E552E66EDECFE9FFDDCF2F
:101D7000EAFF090EEA02F3CFEAFF090EE902F3CF08
:101D8000E9FFF450EA26600EE926000EEA22E55249
:101D9000E750EF6EDECFE9FFDDCFEAFF090EEA0282
:101DA000F3CFEAFF090EE902F3CFE9FFF450EA2688
:101DB000600EE926000EEA22EF50010B02E0010E50
:101DC00001D0000EE8B0928AE8A0929ADF2A010EB4
:101DD00001E3DB2ADECF27F0DDCF28F0060E272433
:101DE000E66E3DEC0BF0E552E66EDECFE9FFDDCFAF
:101DF000EAFF090EEA02F3CFEAFF090EE902F3CF88
:101E0000E9FFF450EA26600EE926000EEA22E552C8
:101E1000E750EF6EDECFE9FFDDCFEAFF090EEA0201
:101E2000F3CFEAFF090EE902F3CFE9FFF450EA2607
:101E3000600EE926000EEA22EF50010B02E0010ECF
:101E400001D0000EE8B09380E8A09390DF2A010E45
:101E500001E3DB2ADECF27F0DDCF28F0060E2724B2
:101E6000E66E3DEC0BF0E552E66EDECFE9FFDDCF2E
:101E7000EAFF090EEA02F3CFEAFF090EE902F3CF07
:101E8000E9FFF450EA26600EE926000EEA22E55248
:101E9000E750EF6EDECFE9FFDDCFEAFF090EEA0281
:101EA000F3CFEAFF090EE902F3CFE9FFF450EA2687
:101EB000600EE926000EEA22EF50010B02E0010E4F
:101EC00001D0000EE8B09388E8A09398DF2A010EB5
:101ED00001E3DB2ADECF27F0DDCF28F0060E272432
:101EE000E66E3DEC0BF0E552E66EDECFE9FFDDCFAE
:101EF000EAFF090EEA02F3CFEAFF090EE902F3CF87
:101F0000E9FFF450EA26600EE926000EEA22E552C7
:101F1000E750EF6EDECFE9FFDDCFEAFF090EEA0200
:101F2000F3CFEAFF090EE902F3CFE9FFF450EA2606
:101F3000600EE926000EEA22EF50010B02E0010ECE
:101F400001D0000EE8B09382E8A09392DF2A010E40
:101F500001E3DB2ADECF27F0DDCF28F0060E2724B1
:101F6000E66E3DEC0BF0E552E66EDECFE9FFDDCF2D
:101F7000EAFF090EEA02F3CFEAFF090EE902F3CF06
:101F8000E9FFF450EA26600EE926000EEA22E55247
:101F9000E750EF6EDECFE9FFDDCFEAFF090EEA0280
:101FA000F3CFEAFF090EE902F3CFE9FFF450EA2686
:101FB000600EE926000EEA22EF50010B02E0010E4E
:101FC00001D0000EE8B09480E8A09490DF2A010EC2
:101FD00001E3DB2ADECF27F0DDCF28F0060E272431
:101FE000E66E3DEC0BF0E552E66EDECFE9FFDDCFAD
:101FF000EAFF090EEA02F3CFEAFF090EE902F3CF86
:10200000E9FFF450EA26600EE926000EEA22E552C6
:10201000E750EF6EDECFE9FFDDCFEAFF090EEA02FF
:10202000F3CFEAFF090EE902F3CFE9FFF450EA2605
:10203000600EE926000EEA22EF50010B02E0010ECD
:1020400001D0000EE8B09482E8A09492DF2A010E3D
:1020500001E3DB2ADECF27F0DDCF28F0060E2724B0
:10206000E66E3DEC0BF0E552E66EDECFE9FFDDCF2C
:10207000EAFF090EEA02F3CFEAFF090EE902F3CF05
:10208000E9FFF450EA26600EE926000EEA22E55246
:10209000E750EF6EDECFE9FFDDCFEAFF090EEA027F
:1020A000F3CFEAFF090EE902F3CFE9FFF450EA2685
:1020B000600EE926000EEA22EF50010B02E0010E4D
:1020C00001D0000EE8B09484E8A09494DF2A010EB9
:1020D00001E3DB2ADECF27F0DDCF28F0060E272430
:1020E000E66E3DEC0BF0E552E66EDECFE9FFDDCFAC
:1020F000EAFF090EEA02F3CFEAFF090EE902F3CF85
:10210000E9FFF450EA26600EE926000EEA22E552C5
:10211000E750EF6EDECFE9FFDDCFEAFF090EEA02FE
:10212000F3CFEAFF090EE902F3CFE9FFF450EA2604
:10213000600EE926000EEA22EF50010B02E0010ECC
:1021400001D0000EE8B09486E8A09496DF2A010E34
:1021500001E3DB2ADECF27F0DDCF28F0060E2724AF
:10216000E66E3DEC0BF0E552E66EDECFE9FFDDCF2B
:10217000EAFF090EEA02F3CFEAFF090EE902F3CF04
:10218000E9FFF450EA26600EE926000EEA22E55245
:10219000E750EF6EDECFE9FFDDCFEAFF090EEA027E
:1021A000F3CFEAFF090EE902F3CFE9FFF450EA2684
:1021B000600EE926000EEA22EF50010B02E0010E4C
:1021C00001D0000EE8B0948EE8A0949EDF2A010EA4
:1021D00001E3DB2ADECF27F0DDCF28F0060E27242F
:1021E000E66E3DEC0BF0E552E66EDECFE9FFDDCFAB
:1021F000EAFF090EEA02F3CFEAFF090EE902F3CF84
:10220000E9FFF450EA26600EE926000EEA22E552C4
:10221000E750EF6EDECFE9FFDDCFEAFF090EEA02FD
:10222000F3CFEAFF090EE902F3CFE9FFF450EA2603
:10223000600EE926000EEA22EF50010B02E0010ECB
:1022400001D0000EE8B0948CE8A0949CDF2A010E27
:1022500001E3DB2ADECF27F0DDCF28F0060E2724AE
:10226000E66E3DEC0BF0E552E66EDECFE9FFDDCF2A
:10227000EAFF090EEA02F3CFEAFF090EE902F3CF03
:10228000E9FFF450EA26600EE926000EEA22E55244
:10229000E750EF6EDECFE9FFDDCFEAFF090EEA027D
:1022A000F3CFEAFF090EE902F3CFE9FFF450EA2683
:1022B000600EE926000EEA22EF50010B02E0010E4B
:1022C00001D0000EE8B0948AE8A0949ADF2A010EAB
:1022D00001E3DB2ADECF27F0DDCF28F0060E27242E
:1022E000E66E3DEC0BF0E552E66EDECFE9FFDDCFAA
:1022F000EAFF090EEA02F3CFEAFF090EE902F3CF83
:10230000E9FFF450EA26600EE926000EEA22E552C3
:10231000E750EF6EDECFE9FFDDCFEAFF090EEA02FC
:10232000F3CFEAFF090EE902F3CFE9FFF450EA2602
:10233000600EE926000EEA22EF50010B02E0010ECA
:1023400001D0000EE8B09488E8A09498020EE15CF9
:1023500002E2E16AE552E16EE552E7CFD9FF1200F1
:10236000D9CFE6FFE1CFD9FFFD0EDBCF22F0FE0E85
:10237000DBCF23F00F0E221801E1235001E1B9D089
:102380000E0E221801E1235001E1ACD00D0E2218EF
:1023900001E1235001E19FD00C0E221801E12350EE
:1023A00001E192D00B0E221801E1235001E185D00A
:1023B0000A0E221801E1235001E178D0090E2218FB
:1023C00001E123506CE0080E221801E1235060E087
:1023D000070E221801E1235054E0060E221801E1F5
:1023E000235048E0050E221801E123503CE0040E82
:1023F000221801E1235030E0030E221801E123509E
:1024000024E0020E221801E1235018E0010E2218E8
:1024100001E123500CE0225001E1235001E070D093
:10242000FC0EDB50E8B08080E8A0809069D0FC0E04
:10243000DB50E8B08082E8A0809262D0FC0EDB50D6
:10244000E8B08086E8A080965BD0FC0EDB50E8B058
:102450008088E8A0809854D0FC0EDB50E8B0808AD9
:10246000E8A0809A4DD0FC0EDB50E8B08180E8A057
:10247000819046D0FC0EDB50E8B08188E8A08198BE
:102480003FD0FC0EDB50E8B08182E8A0819238D0CA
:10249000FC0EDB50E8B08280E8A0829031D0FC0EC8
:1024A000DB50E8B08282E8A082922AD0FC0EDB509A
:1024B000E8B08284E8A0829423D0FC0EDB50E8B020
:1024C0008286E8A082961CD0FC0EDB50E8B0828E9B
:1024D000E8A0829E15D0FC0EDB50E8B0828CE8A00C
:1024E000829C0ED0FC0EDB50E8B0828AE8A0829A73
:1024F00007D0FC0EDB50E8B08288E8A0829800D0BC
:10250000E552E7CFD9FF1200D9CFE6FFE1CFD9FFDF
:10251000E652DF6AFD0EDBCF22F0FE0EDBCF23F0AA
:102520000F0E221801E1235001E1A2D00E0E221855
:1025300001E1235001E196D00D0E221801E1235054
:1025400001E18AD00C0E221801E1235001E17ED076
:102550000B0E221801E1235073E00A0E221801E14C
:10256000235068E0090E221801E123505DE0080EB7
:10257000221801E1235054E0070E221801E12350F4
:1025800049E0060E221801E123503EE0050E221814
:1025900001E1235035E0040E221801E123502AE026
:1025A000030E221801E123501FE0020E221801E160
:1025B000235014E0010E221801E1235009E02250BB
:1025C00001E1235001E05AD08050010BDF6E56D05C
:1025D0008050020B01E0010EDF6E50D08050080BDE
:1025E00001E0010EDF6E4AD08050100B01E0010EB9
:1025F000DF6E44D08050200B01E0010EDF6E3ED034
:102600008150010BDF6E3AD08150100B01E0010EBA
:10261000DF6E34D08150020B01E0010EDF6E2ED050
:102620008250010BDF6E2AD08250020B01E0010EB6
:10263000DF6E24D08250040B01E0010EDF6E1ED04D
:102640008250080B01E0010EDF6E18D08250800B23
:1026500001E0010EDF6E12D08250400B01E0010E4E
:10266000DF6E0CD08250200B01E0010EDF6E06D031
:102670008250100B01E0010EDF6E00D0DF5002E04F
:10268000000E01D0010E00D0E552E552E7CFD9FF90
:102690001200D9CFE6FFE1CFD9FF020EE126DE6AB4
:1026A000DD6ADE6ADD6ADECF27F0DDCF28F0D89064
:1026B000285004E6100E275C000E285852E2DECFA8
:1026C000E9FFDDCFEAFF090EEA02F3CFEAFF090EC8
:1026D000E902F3CFE9FFF450EA26600EE926000E86
:1026E000EA22040EE926000EEA22EF5035E0DECFA2
:1026F000E9FFDDCFEAFF090EEA02F3CFEAFF090E98
:10270000E902F3CFE9FFF450EA26600EE926000E55
:10271000EA22050EE926000EEA22000ED880EE54C9
:10272000000EED5419E2DECFE9FFDDCFEAFF090E1E
:10273000EA02F3CFEAFF090EE902F3CFE9FFF45012
:10274000EA26600EE926000EEA22050EE926000EB2
:10275000EA22EE06000EEF5ADF2A010E01E3DB2A21
:10276000A2D7020EE15C02E2E16AE552E16EE552B7
:10277000E7CFD9FF1200D9CFE6FFE1CFD9FF020E94
:10278000E126DE6ADD6ADE6ADD6ADECF27F0DDCFB4
:1027900028F0D890285004E6100E275C000E285828
:1027A00001E3AFD0DECFE9FFDDCFEAFF090EEA0299
:1027B000F3CFEAFF090EE902F3CFE9FFF450EA266E
:1027C000600EE926000EEA22040EE926000EEA2237
:1027D000EF5001E191D0DECFE9FFDDCFEAFF090E36
:1027E000EA02F3CFEAFF090EE902F3CFE9FFF45062
:1027F000EA26600EE926000EEA22050EE926000E02
:10280000EA22EE50ED1001E077D0DECFE9FFDDCF18
:10281000EAFF090EEA02F3CFEAFF090EE902F3CF5D
:10282000E9FFF450EA26600EE926000EEA22040EC3
:10283000E926000EEA22EF6A990E116E03C027F016
:1028400004C028F0080E0F0B05E0D890283227327C
:10285000E806FBE12750126E03C027F004C028F001
:102860000001286A2750136EDECFE9FFDDCFEAFFB3
:10287000090EEA02F3CFEAFF090EE902F3CFE9FFFE
:10288000F450EA26600EE926000EEA22020EE9263E
:10289000000EEA22EECF27F0EFCF28F0080E0F0B44
:1028A00005E0D89028322732E806FBE12750146E65
:1028B000DECFE9FFDDCFEAFF090EEA02F3CFEAFF40
:1028C000090EE902F3CFE9FFF450EA26600EE9268B
:1028D000000EEA22020EE926000EEA22EECF27F0D1
:1028E000EFCF28F00001286A2750156E050EE66E1E
:1028F0007CEC05F0E552819EDF2A010E01E3DB2A24
:1029000044D7020EE15C02E2E16AE552E16EE55273
:10291000E7CFD9FF1200D9CFE6FFE1CFD9FFE652CA
:102920008050040B01E0010EDF6EDF5002E0000E6C
:1029300001D0010E00D0E552E552E7CFD9FF1200D9
:10294000D9CFE6FFE1CFD9FF030EE126DE6ADD6ACB
:10295000DE6ADD6ADECF27F0DDCF28F0D890285080
:1029600004E6100E275C000E285801E361D1DECF8B
:10297000E9FFDDCFEAFF090EEA02F3CFEAFF090E15
:10298000E902F3CFE9FFF450EA26600EE926000ED3
:10299000EA22EF50010B01E146D1DECFE6FFDDCFA9
:1029A000E6FFB2DDE552E552E76E020EE7CFDBFF50
:1029B000FE0EDB501AE1DECFE9FFDDCFEAFF090EA4
:1029C000EA02F3CFEAFF090EE902F3CFE9FFF45080
:1029D000EA26600EE926000EEA22EE52EF50F36E70
:1029E000020EDB50F35C01E11ED1DECFE9FFDDCF4B
:1029F000EAFF090EEA02F3CFEAFF090EE902F3CF7C
:102A0000E9FFF450EA26600EE926000EEA22EE52B3
:102A1000020EDBCFEFFFFE0EDB504AE1DECFE9FF17
:102A2000DDCFEAFF090EEA02F3CFEAFF090EE90261
:102A3000F3CFE9FFF450EA26600EE926000EEA2201
:102A4000EF50020B35E0020EDB5032E1DECFE9FF42
:102A5000DDCFEAFF090EEA02F3CFEAFF090EE90231
:102A6000F3CFE9FFF450EA26600EE926000EEA22D1
:102A7000050EE926000EEA22040EEE6EED6ADECFA8
:102A8000E9FFDDCFEAFF090EEA02F3CFEAFF090E04
:102A9000E902F3CFE9FFF450EA26600EE926000EC2
:102AA000EA22040EE926000EEA22010EEF6EBBD0E8
:102AB000FE0EDB5047E1DECFE9FFDDCFEAFF090E76
:102AC000EA02F3CFEAFF090EE902F3CFE9FFF4507F
:102AD000EA26600EE926000EEA22EF50020B32E0F1
:102AE000DECFE9FFDDCFEAFF090EEA02F3CFEAFF0E
:102AF000090EE902F3CFE9FFF450EA26600EE92659
:102B0000000EEA22040EE926000EEA22EF501AE037
:102B1000DECFE9FFDDCFEAFF090EEA02F3CFEAFFDD
:102B2000090EE902F3CFE9FFF450EA26600EE92628
:102B3000000EEA22050EE926000EEA22020EEE6ED3
:102B4000ED6A71D0FE0EDB5008E0020EDB5002E0B1
:102B5000930E01D0940E116E07D0020EDB5002E0EE
:102B6000980E01D0990E116E03C027F004C028F012
:102B7000080E0F0B05E0D89028322732E806FBE15B
:102B80002750126E03C027F004C028F00001286A05
:102B90002750136EDECFE9FFDDCFEAFF090EEA0210
:102BA000F3CFEAFF090EE902F3CFE9FFF450EA267A
:102BB000600EE926000EEA22020EE926000EEA2245
:102BC000EECF27F0EFCF28F0080E0F0B05E0D890DE
:102BD00028322732E806FBE12750146EDECFE9FFEA
:102BE000DDCFEAFF090EEA02F3CFEAFF090EE902A0
:102BF000F3CFE9FFF450EA26600EE926000EEA2240
:102C0000020EE926000EEA22EECF27F0EFCF28F0E1
:102C10000001286A2750156E050EE66E7CEC05F063
:102C2000E552D1EC0BF0DF2A010E01E3DB2A92D64C
:102C3000030EE15C02E2E16AE552E16EE552E7CFA4
:102C4000D9FF1200D9CFE6FFE1CFD9FF020EE1266E
:102C5000DE6ADD6ADE6ADD6ADECF27F0DDCF28F0CE
:102C6000D890285004E6100E275C000E285824E265
:102C7000DECFE9FFDDCFEAFF090EEA02F3CFEAFF7C
:102C8000090EE902F3CFE9FFF450EA26600EE926C7
:102C9000000EEA22EF50010B0AE1E66ADECFE6FF02
:102CA000DDCFE6FFB0EC11F0E552E552E552DF2A48
:102CB000010E01E3DB2AD0D7020EE15C02E2E16AF9
:102CC000E552E16EE552E7CFD9FF1200D9CFE6FF1A
:102CD000E1CFD9FF060EE126DE6ADD6A020EDB6A6D
:102CE000030EDB6ADE6ADD6ADECF27F0DDCF28F077
:102CF000D890285004E6080E275C000E28583EE2C3
:102D0000DECFE9FFDDCFEAFF090EEA02F3CFEAFFEB
:102D1000090EE902F3CFE9FFF450EA26600EE92636
:102D2000000EEA22EF50010B24E1DECFE6FFDDCFFB
:102D3000E6FF84EC12F0E552E552000902E0000ED5
:102D400001D0010EE76E040EE7CFDBFF040EDB506F
:102D5000DF5206E0DFCFF3FFE846FE0BF306FCE1AF
:102D6000276E020EDBCFE7FF2750E726020EE7CFE4
:102D7000DBFFDF2A010E01E3DB2AB6D7020EDBCF31
:102D8000E6FF760EE66E4DEC0BF0E552E552080ECE
:102D9000DE6EDD6ADECF27F0DDCF28F0D890285038
:102DA00004E6100E275C000E28583EE2DECFE9FF55
:102DB000DDCFEAFF090EEA02F3CFEAFF090EE902CE
:102DC000F3CFE9FFF450EA26600EE926000EEA226E
:102DD000EF50010B24E1DECFE6FFDDCFE6FF84EC10
:102DE00012F0E552E552000902E0000E01D0010E9A
:102DF000E76E050EE7CFDBFF050EDB50DF5206E086
:102E0000DFCFF3FFE846FE0BF306FCE1276E030E6F
:102E1000DBCFE7FF2750E726030EE7CFDBFFDF2AF4
:102E2000010E01E3DB2AB6D7030EDBCFE6FF770EF8
:102E3000E66E4DEC0BF0E552E552060EE15C02E267
:102E4000E16AE552E16EE552E7CFD9FF1200D9CF32
:102E5000E6FFE1CFD9FF060EE126DE6ADD6A760ED7
:102E6000E66E3DEC0BF0E552E76E020EE7CFDBFFBE
:102E7000770EE66E3DEC0BF0E552E76E030EE7CF02
:102E8000DBFFDE6ADD6ADECF27F0DDCF28F0D890E9
:102E9000285004E6080E275C000E285835E2DECFE5
:102EA000E9FFDDCFEAFF090EEA02F3CFEAFF090EE0
:102EB000E902F3CFE9FFF450EA26600EE926000E9E
:102EC000EA22EF50010B1BE1020EDB50DF5206E05D
:102ED000DFCFF3FFE8327F0BF306FCE1010BE76E77
:102EE000040EE7CFDBFF040EDBCFE6FFDECFE6FF0D
:102EF000DDCFE6FFB0EC11F0E552E552E552DF2AF6
:102F0000010E01E3DB2ABFD7080EDE6EDD6ADECFDD
:102F100027F0DDCF28F0D890285004E6100E275C6B
:102F2000000E285835E2DECFE9FFDDCFEAFF090EBB
:102F3000EA02F3CFEAFF090EE902F3CFE9FFF4500A
:102F4000EA26600EE926000EEA22EF50010B1BE193
:102F5000030EDB50DF5206E0DFCFF3FFE8327F0BDA
:102F6000F306FCE1010BE76E050EE7CFDBFF050E74
:102F7000DBCFE6FFDECFE6FFDDCFE6FFB0EC11F002
:102F8000E552E552E552DF2A010E01E3DB2ABFD705
:102F9000060EE15C02E2E16AE552E16EE552E7CF3E
:102FA000D9FF1200075007E00001F251E8B0818E0E
:082FB000E8A0819EF2711200FD
:020000040030CA
:0100010006F8
:0100020016E7
:0100030010EC
:0100050000FA
:010006008079
:010008000FE8
:01000900C036
:01000A000FE6
:01000B00E014
:01000C000FE4
:01000D0040B2
:0200000400F00A
:040000007F0000007D
:0100FF000000
:00000001FF
