:020000040000FA
:06000000D7EF07F012002B
:020006001200E6
:0600080058EF04F01200A5
:02000E000000F0
:0100100000EF
:0100110000EE
:06001800DDEF04F0120010
:02001E000200DE
:1000200011000000FC01000001000000E60F0000CC
:08003000600000000D0000005B
:08003800F9D8DF6A9EEC05F027
:10004000086A096A0A6A0B6A0C6A00017D6B7E6B9A
:100050007F6B010E7A6FE5D8076E87D8020EE1D864
:10006000036E046A046E036A030EDBD8346E356ACD
:10007000E8500326355004220350041005E0000127
:10008000031C05E1041C03E16F0E036E046A030EFA
:10009000C8D8056EE85003E0FF0E055C02E103508E
:1000A000056EA5D87FEC05F0E7EC06F07FEC05F0D7
:1000B0000101EF0EF16F6E0EF66E0F0EF76E080077
:1000C000F5CFF3F16F0EF66E0F0EF76E0800F5CF59
:1000D000F4F1700EF66E0F0EF76E0800F5CFF5F125
:1000E000710EF66E0F0EF76E0800F5CFF6F1720E78
:1000F000F66E0F0EF76E0800F5CFF7F1730EF66E81
:100100000F0EF76E0800F5CFF8F1740EF66E0F0EB5
:10011000F76E0800F5CFF9F1070EF26FF00EE66EFC
:10012000010EE66E9DEC01F0E552E552010EDB6A30
:1001300077EC01F000090AE18180140E086EECEC06
:1001400002F0E76E010EE7CFDBFFF2D70A50E66E52
:10015000D0EC06F0E552000905E00A2A100E0A5C10
:1001600001E30A6A5AEC02F0E1D760D8DE6ADD6A80
:10017000F26AA66AA56AA26A9F6AA36AA386A06AAF
:100180009D6AF06AF16AF26AA46AA16A9E6AD08ED8
:10019000420ED56ED66AD76AF28AD58EF18477EC94
:1001A00001F0000906E1FAC1E9FFFBC1EAFFEF6ACD
:1001B000F6D7060E0D6ED00E1C6E070E1D6EC80E05
:1001C0001E6E1F6A100E080E206E216AD08EF28CF1
:1001D000F28EE66AB2EC05F0E552020EE15C02E254
:1001E000E16AE552E16EE552E7CFD9FF12000E6AEF
:1001F00024D8B0090F6E070E0514200DF350106EB1
:100200001CD870090F01416F070E0514200DF3CFA4
:1002100042FF010E456F020E466FF28EF28C24EF04
:1002200001F0E66E06EC05F0E5521200D9CFE6FFCC
:10023000E1CFD9FF020EE1261200780E0514E84046
:10024000E840E8401F0B1200AFD9020EE126DE6A3B
:10025000DD6A800E6F6E6EAEFED7B00E776E0D014A
:10026000F86B606A070E706E9E0E716E030E726EF2
:10027000200E736E010ED46FD56BD86B0F01186B07
:10028000080E196F1A6B1B6B1C6B1D6F1E6B1F6B9F
:10029000800E016F0D01E06BE16BE26BE36BE46BD1
:1002A000E56BE66BE76BF06BF16BF26BF36BFA6B84
:1002B000FC6B606A0F01506B0E01206B306B406B62
:1002C000506B606B706B6F6ADE6ADD6A50D901E655
:1002D00070D907E236D9EF6ADF2A010EF7E3DB2A8D
:1002E000F5D7020EE15C02E2E16AE55258D1070E51
:1002F0006F14010A07E0010A0BE10101600EFA6FB9
:100300000F0E04D00101500EFA6F0F0EFB6F0CD0D0
:10031000020E6F5C070B100DF3500101FA6FFB6BBF
:10032000200EFA270E0EFB23FAC1E9FFFBC1EAFFFC
:10033000EF50800B01E0000C010C36D9040EE126D1
:10034000DE6ADD6A020EDB6A030EDB6ADE6ADD6AE4
:100350000ED901E62ED940E2F4D8EF5038E112D997
:10036000E66EEFD8EE52E552E750EF6E07D9EF5048
:10037000E66EE7D8020E2CD9E552E750EF6E020E7A
:10038000DB6A030EDB6A020EDBCF34F0030EDBCF39
:1003900035F0D890355004E6070E345C000E355821
:1003A00011E2E1D8F3D8EF50E66ECBD8030E10D9A6
:1003B000EDD8E552E750EF6E020EDB2A030EE3E3C1
:1003C000DB2AE1D7BED8010EEF6E819207D0DF2A7B
:1003D000010EBEE3DB2ABCD78182000E346E040E10
:1003E000E15C02E2E16AE552E16E3450E552E7CFAA
:1003F000D9FF1200D9D8040EE126C0D8EF28136E19
:100400000F0E0F16B00E0F12BDD8146EACD8EF50F1
:10041000156EA9D8010ED2D8166EA5D8020ECED868
:10042000176EA1D8030ECAD8186E9DD8040EC6D870
:10043000196E99D8050EC2D81A6E95D8060EBED878
:100440001B6E0A0E066E8180140E086EDF6AD9508C
:10045000010FE96EDACFEAFF300EEE6E0F0EED6E91
:10046000030EDB6A0E0EF36E030EDBCFF4FFF350C8
:10047000F45C18E2DF50DF2AEA6A0E0FE96E000E24
:10048000EA22EF50E66E010EDBCFE9FFDB2A020E17
:10049000DBCFEAFF01E3DB2AE552E750EF6E030E04
:1004A000DB2AE0D70F013087040EE15C02E2E16A4B
:1004B000E55275D079D8020EE1260F0130B73BD056
:1004C000DE6ADD6A54D801E674D80BE23AD8EF5000
:1004D000020802E136D8EF6ADF2A010EF3E3DB2AD5
:1004E000F1D7DE6ADD6A43D801E663D824E229D871
:1004F000EF041CE126D8020EEF6EDECF34F0DDCF24
:1005000035F00A0E3502F3CF35F03402F3CF34F074
:10051000F4503526000E3426010E352234C0E6FF95
:1005200035C0E6FF67DFE552E55205D0DF2A010E50
:10053000DAE3DB2AD8D7020EE15C02E2E16AE55297
:100540002ED0DECFE9FFDDCFEAFF0A0EEA02F3CFBD
:10055000EAFFE902F3CFE9FFF450EA26000EE926AC
:10056000010EEA2212002DD8030EE8EF02F0DECFD2
:1005700034F0DDCF35F0D8903550120022D8020E7D
:10058000E8EF02F01ED8EE52EF501200020EDB50E0
:10059000E924E96E030EDB50EA20EA6E1200E16EF8
:1005A000E552E7CFD9FF1200D9CFE6FFE1CFD9FF5F
:1005B0001200180E345C000E3558120009D8EF50A6
:1005C0001200FD0EDBCFE9FFFE0EDBCFEAFF1200CB
:1005D000E926000EEA221200D9CFE6FFE1CFD9FFCB
:1005E000050EE126DF6A3FD9060EEB50960A01E1BF
:1005F000C0D0E70A01E197D0790A01E18FD0180A4B
:1006000057E0520A29E0310A1AE0BC0A01E0C8D0DA
:1006100047D90001776F080EEB50786F090EEB5049
:10062000796F0A0EEB507A6F0B0EEB507B6F0C0E4E
:10063000EB507C6F010E7D6F7E6B7F6BB1D02AD942
:10064000010EF31801E0ACD0355001E0A9D02CD94F
:10065000E66EE66AB8D8A2D023D9E76E010EE7CFDE
:10066000DBFF080EEB50E76E020EE7CFDBFF010E5B
:10067000DB50356A356E346A020EDB5000013424DB
:10068000036E000E3520046E010EDBCFE6FF020E76
:10069000E66E0FEC05F0E552E552020EDBCFE6FF09
:1006A000030EE66E0FEC05F0E552E552819278D02C
:1006B0000101EF0EF16F6E0EF66E0F0EF76E080071
:1006C000F5CFF3F16F0EF66E0F0EF76E0800F5CF53
:1006D000F4F1700EF66E0F0EF76E0800F5CFF5F11F
:1006E000710EF66E0F0EF76E0800F5CFF6F1720E72
:1006F000F66E0F0EF76E0800F5CFF7F1730EF66E7B
:100700000F0EF76E0800F5CFF8F1740EF66E0F0EAF
:10071000F76E0800F5CFF9F1070E27D007A040D0FB
:10072000D7EC06F03DD089D8F350F41039E0BCD8AE
:10073000E76E030EE7CFDBFFDB0432E10101970E2A
:10074000A1D805E0D89035323432E806FBE13450C8
:100750000101F36F03C034F0356A0350F46F030EE8
:10076000DBCFF5F107C0F6F1040E82D8010EDF6E83
:1007700017D090D8F350F41013E096D8E76E040E1B
:10078000E7CFDBFFDB040CE16ED80A0EEB50076EFF
:10079000E850E66E010EE66E0FEC05F0E552E5520C
:1007A00062D8EF6A025002E0026AA380DF50346E22
:1007B000050EE15C02E2E16AE552E16E3450E55279
:1007C000E7CFD9FF1200D9CFE6FFE1CFD9FFFD0E69
:1007D000DBCF34F0FE0EDBCF35F0080E345C000EBC
:1007E000355827E201019B0E4DD805E0D8903532EF
:1007F0003432E806FBE134500101F36F03C034F0FA
:1008000004C035F0356A0350F46FFD0EDBCFF5F10F
:10081000DBCFF6FFFE0EDBCFF7FFF606000EF75A32
:100820006E0EF6260F0EF7220800F5CFF6F1040E35
:100830001FD8E552E7CFD9FF120032D8376E366A9B
:10084000080EEB503624346E000E3720356E035000
:10085000341806E10450351803E1010EF36E01D09F
:10086000F36AF46A1200FAC1E9FFFBC1EAFF120061
:10087000F26FF00EE66E010EE66E9DEC01F0E552B1
:10088000E5521200F16F03C034F004C035F0080ED9
:100890000F0B1200D2DFF3CF34F0F4CF35F012009B
:1008A000E2DF070EEB501200DEDF090EEB50120004
:1008B000DACFE4FFE2CFDAFFE9CFE4FFEACFE4FFEB
:1008C000F6CFE4FFF7CFE4FFF5CFE4FFF3CFE4FF8B
:1008D000F4CFE4FFFACFE4FF00EE24F0100EE804BA
:1008E00003E3EECFE4FFFBD700EE34F0040EE804A0
:1008F00003E3EECFE4FFFBD7E652F2940D50D66E41
:10090000000ED8802254000E23540BE22206000E63
:10091000235A2250231005E1809A80988096809473
:1009200080922006000E215A2050211008E1100E5E
:10093000206E216ADEEC05F0030E226E236A1E068D
:10094000000E1F5A1E501F1008E1C80E1E6E1F6AAF
:10095000C6EC06F0005001E000061C06000E1D5A11
:100960001C501D1006E1D00E1C6E070E1D6EEEEC25
:1009700006F0E55200EE37F0040EE80403E3E5CF9D
:10098000EDFFFBD700EE33F0100EE80403E3E5CFF4
:10099000EDFFFBD7E5CFFAFFE5CFF4FFE5CFF3FF9F
:1009A000E5CFF5FFE5CFF7FFE5CFF6FFE5CFEAFFAF
:1009B000E5CFE9FFE5CFDAFF1100D8CFE4FFE0CFC4
:1009C000E4FFE46EDACFE4FFE6528182A4AA14D0F9
:1009D0000F0130AB0CD0065004E1010E016E3097D0
:1009E00006D0060604E130973F0E0F16308730A977
:1009F00003D0010E016E3097A46AE552E5CFDAFF0D
:100A0000E550E5CFE0FFE5CFD8FF1000A2D8FE0EFD
:100A1000DB50A96EA69EA69CA680A8509FD099D810
:100A2000F29EA69EA69CA684FE0EDB50A96EFD0E2D
:100A3000DB50A86E550EA76EAA0EA76EA682A1A8BF
:100A4000FED7A198F28E8AD084D8030EE126FE0E3E
:100A5000DB50DF6EDF50DF2AE66ED8DFE552E66E50
:100A6000D950010FE96EDACFEAFFE552E750EE6E9A
:100A7000ED6ADFCFE6FFCADFE552366E376E366AC3
:100A8000010EDB503610346E020EDB503710356E1F
:100A9000010E34C0DBFF020E35C0DBFF010EDBCFE1
:100AA00034F0020EDBCF35F034C0F3FF35C0F4FF75
:100AB000030EE15C02E2E16AE552E16E4FD049D8F3
:100AC000E652FE0EDB50DF6EFC0EDBCFE6FFDF50A2
:100AD000DF2AE66EA4DFE552E552FC0EDBCF34F0F0
:100AE000FD0EDBCF35F035C034F0356A3450E66E9C
:100AF000DFCFE6FF94DFE552E552E5522FD029D84B
:100B0000020EE126DF6A0A0EDF5C11E2010EDB6AEB
:100B1000DB50346E356A353404E23450F508000E8B
:100B2000355403E3010EDB2AF3D7DF2AECD7020E9C
:100B3000E15C02E2E16AE552E16E10D00AD8E652C9
:100B4000DF6A640EDF5C03E2DADFDF2AFAD7E55200
:100B500005D0D9CFE6FFE1CFD9FF1200E552E7CFAC
:040B6000D9FF1200A7
:0C0B64004DD9C26A0F0EC16E949094929D
:100B7000949494969498949A949C949E929292941D
:100B800092969298929A939093929388938A819056
:100B900081928092020EE15C02E2E16AE552E16E2E
:100BA00035D1D9CFE6FF32D146D9E652DF6ADF50E0
:100BB00002E0000E01D0010EE55228D108500008D5
:100BC00004E20806085001E181900C5012E1000196
:100BD0006A2B000E6B236B3518E26A51B8080B0EB6
:100BE0006B5513E2010E0C6EE80E6A6F030E6B6F0D
:100BF0000CD000016A07000E6B5B6B3504E26A5192
:100C00000008000E6B5501E30C6A00017A510008E0
:100C100023E27D5121E07E2B000E7F237A51366E38
:100C2000376A980E2C6E3A0E2D6E7AC031F037C0AE
:100C300032F07BEC07F02CC034F02DC035F0000111
:100C40002D507F19E8AE02D07F3504D07E51345C40
:100C50007F51355801E27D6B0B50040A6FE0070AA3
:100C60004FE0010A37E0030A1DE0010A01E088D0E5
:100C700080988096809480927D5102E17A510EE1B5
:100C80000C5004E0CED87CC02DF003D0CAD877C079
:100C90002DF0E5EC07F02950BDD801D0730E826E1F
:100CA000808A6ED0809A8096809480927D5102E1F5
:100CB0007A510CE10C5004E0B4D87CC02DF003D084
:100CC000B0D877C02DF0C4D8A5D801D0380E826E28
:100CD000808856D0809A8098809480927D5102E1DD
:100CE0007A510AE10C5002E0ABD801D0ADD8E5EC66
:100CF00007F029508FD801D0790E826E808640D0BF
:100D0000809A8098809680927D5102E17A5110E11C
:100D10000C5005E095D89CD802E092D806D00C5033
:100D20002FE192D895D82CE08FD892D873D803D0E1
:100D30007D5126E1760E826E808422D0809A809842
:100D4000809680940C5006E17D5104E0320E6DD8FF
:100D5000095C03E300017A5102E1828005D00C5066
:100D600005E07D5103E08290828602D082908296D7
:100D70008082092A640E59D8D880095401E2096A90
:100D80000B2A0B50040801E20B6A120039D8E15C0F
:100D900002E2E16AE552E16E39D0D9CFE6FF36D002
:100DA0004AD8E652010EDF6EDF50E5522FD043D80D
:100DB000040EE126DE6ADD6A020EDB6A030EDB6AE0
:100DC000040EE15C02E2E16AE552E16E1FD018D840
:100DD000E15C02E2E16AE552E16E18D000016C517B
:100DE000E8B08182E8A081926C711200D9CFE6FF51
:100DF0000DD006D8E15C02E2E16AE552E16E06D070
:100E00001AD8020EE126DE6ADD6A1200E552E7CF4B
:100E1000D9FF1200EA6A600FE96E000EEA22EF5075
:100E200012000A0E346E326E1200346E7AC032F046
:100E30002D6E28EF07F0D9CFE6FFE1CFD9FF1200E2
:100E4000F0DF7BC02DF01200ECDF78C02DF0120037
:080E5000E5EC07F02D50120043
:080E58001E0EF66E000EF76E8F
:100E6000000EF86E00010900F550726F0900F55090
:100E7000736F03E1726701D03DD00900F5506D6FCB
:100E80000900F5506E6F0900F5506F6F09000900F9
:100E9000F550E96E0900F550EA6E090009000900F5
:100EA000F550706F0900F550716F09000900F6CF19
:100EB00074F0F7CF75F0F8CF76F06DC0F6FF6EC026
:100EC000F7FF6FC0F8FF0001705302E1715307E0B4
:100ED0000900F550EE6E7007F8E27107F9D774C09B
:100EE000F6FF75C0F7FF76C0F8FF00017207000E2D
:060EF000735BBFD7120086
:0A0EF600246A32AE84EF07F0316C7D
:100F0000321EE86A3222241E2DAE8CEF07F02C6CC4
:100F10002D1EE86A2D22241EA1EC07F02DBE9CEFA9
:100F200007F024AE000C2C6C2D1EE86A2D22286CD4
:100F3000291EE86A2922000C24BE93EF07F02588B9
:020F4000FF0CA4
:0E0F4200296A286A100EE76ED8902C362D36DC
:100F5000283629363150285C3250295805E3315063
:0E0F6000285E3250295A2C2AE72EF0D71200B4
:020F6E004661DA
:100F70000711001101000000000000000000000047
:0E0F8000000000000000000000000000000063
:020F8E00000E53
:100F9000F36E00EE00F0030E01D81200EA6002D0FA
:0E0FA000EE6AFCD7F350E9601200EE6AFCD74F
:020FAE0012EE41
:100FB00000F022EE00F0F86A259C2CEC07F003EC20
:0A0FC00000F01CEC00F0FBD712005B
:060FCA00296A080EE76E23
:100FD000D8902D3629363250295C02E3296E2D2A0D
:060FE000E72EF7D7120016
:0A0FE6003F065B4F666D7D077F6FCD
:030FF000000000FE
:020000040030CA
:0100010006F8
:0100020016E7
:0100030010EC
:0100050000FA
:010006008079
:010008000FE8
:01000900C036
:01000A000FE6
:01000B00E014
:01000C000FE4
:01000D0040B2
:00000001FF
