:100000008A110A12052800000900831609308500AC
:1000100001309F00950183122C107D3085006430E3
:10002000A000A10185209F13831630309F0400306B
:100030008312A000B8201E08AD002D084B3C031809
:1000400032280B302E02031828282E08013EAE005D
:100050001F3083052E080A3C03182F282C141F304C
:10006000830541281F3083052C183F282E08003CAB
:1000700003183D2801302E02AE001F3083051F30CB
:1000800083051F3083052C1C55282F08003C031DB9
:100090004E280130AF000C30850053281F308305F7
:1000A000AF01083085001F3083051F308305851D93
:1000B0007328AC142C1C6D282F08003C031D6528E8
:1000C0000130AF000C3085006A281F308305AF0176
:1000D000083085001F30830571281F3083050830E4
:1000E00085001F3083051F30830585198028AC1CCF
:1000F0007E282C102F308500AE01AC101F308305F8
:100100001F3083050F2883288428A008031990280E
:100110009720A003000000000000000000008528D8
:10012000A108031908009720A103A00385280C301B
:10013000A500A50B9928000000001230A200A20B18
:10014000A628A820A820000000000800A8209F28BA
:100150000D30A400A40BAA28000008000A30A80251
:10016000031C0800B3280630A802031C0800B328AB
:10017000A00DA00D3C30A005C0309F0520089F04B5
:100180001F141430A800AE209F149F18C5280C130C
:040190001F10080034
:02400E009431EB
:00000001FF
