:020000040000FA
:0600000083EF06F0120080
:020006001200E6
:060008005AEF04F01200A3
:02000E000000F0
:0100100000EF
:0100110000EE
:06001800CBEF04F0120022
:02001E000100DF
:0C00200011000000FC01000001000000C5
:04002C00E2D8DF6ACD
:100030008BEC05F0096A0A6A010ED6D8086E78D8EA
:10004000020ED2D8036E046A046E036A030ECCD883
:10005000236E246AE850032624500422035004101F
:1000600005E00001031C05E1041C03E10B0E036E17
:10007000046A040EB9D8066EE85003E0FF0E065C71
:1000800002E10350066E96D86CEC05F0F0EC05F03A
:100090006CEC05F08284010EDB6A5AEC01F0000979
:1000A0000AE18280140E056ECDEC02F0E76E010EBF
:1000B000E7CFDBFFF2D70950E66EDAEC05F0E55248
:1000C000000905E0092A100E095C01E3096A3BEC0E
:1000D00002F0CFEC05F0000905E0DF5003E1010E6E
:1000E000DF6ED9D7CFEC05F00009D5E1DF50D3E0C2
:1000F000DF6A0A5002E00A6ACED70101520EF16FA0
:1001000004C0F3F103C023F004C024F00001246A0A
:1001100003C0F4F10101020EF26FF00EE66E010E63
:10012000E66E80EC01F0E552E552010E0A6EB3D79F
:1001300060D8DE6ADD6AF26AA66AA56AA26A9F6A68
:10014000A36AA386A06A9D6AF06AF16AF26AA46A49
:10015000A16A9E6AD08E420ED56ED66AD76AF28A9E
:10016000D58EF1845AEC01F0000906E1FAC1E9FFED
:10017000FBC1EAFFEF6AF6D7060E0C6ED00E1B6EBF
:10018000070E1C6EC80E1D6E1E6A100E080E1F6E26
:10019000206AD08EF28CF28EE66A9FEC05F0E55272
:1001A000020EE15C02E2E16AE552E16EE552E7CF60
:1001B000D9FF12000D6A24D8B0090E6E070E06147E
:1001C000200DF3500F6E1CD870090F01416F070E00
:1001D0000614200DF3CF42FF010E456F020E466F4D
:1001E000F28EF28C07EF01F0E66EF3EC04F0E552CC
:1001F0001200D9CFE6FFE1CFD9FF020EE1261200AF
:10020000780E0614E840E840E8401F0B1200ADD914
:10021000020EE126DE6ADD6A800E6F6E6EAEFED7DC
:10022000B00E776E0D01F86B606A070E706E9E0E51
:10023000716E030E726E200E736E010ED46FD56B4D
:10024000D86B0F01186B080E196F1A6B1B6B1C6BA8
:100250001D6F1E6B1F6B800E016F0D01E06BE16B5C
:10026000E26BE36BE46BE56BE66BE76BF06BF16BFA
:10027000F26BF36BFA6BFC6B606A0F01506B0E0153
:10028000206B306B406B506B606B706B6F6ADE6A1B
:10029000DD6A4ED901E66ED907E234D9EF6ADF2A6A
:1002A000010EF7E3DB2AF5D7020EE15C02E2E16A18
:1002B000E55256D1070E6F14010A07E0010A0BE15F
:1002C0000101600EFA6F0F0E04D00101500EFA6F9B
:1002D0000F0EFB6F0CD0020E6F5C070B100DF3506E
:1002E0000101FA6FFB6B200EFA270E0EFB23FAC1F9
:1002F000E9FFFBC1EAFFEF50800B01E0000C010CAD
:1003000034D9040EE126DE6ADD6A020EDB6A030ED2
:10031000DB6ADE6ADD6A0CD901E62CD93FE2F2D84D
:10032000EF5037E110D9E66EEDD8EE52E552E750C6
:10033000EF6E05D9EF50E66EE5D8020E2AD9E552E8
:10034000E750EF6E020EDB6A030EDB6A020EDBCFB4
:1003500023F0030EDBCF24F0D890245004E6070EE0
:10036000235C000E245811E2DFD8F1D8EF50E66E7E
:10037000C9D8030E0ED9EBD8E552E750EF6E020E46
:10038000DB2A030EE3E3DB2AE1D7BCD8010EEF6ED4
:1003900006D0DF2A010EBFE3DB2ABDD7000E236E95
:1003A000040EE15C02E2E16AE552E16E2350E5529F
:1003B000E7CFD9FF1200D9D8040EE126C0D8EF2824
:1003C000126E0F0E0E16B00E0E12BDD8136EACD8F4
:1003D000EF50146EA9D8010ED2D8156EA5D8020E12
:1003E000CED8166EA1D8030ECAD8176E9DD8040EAB
:1003F000C6D8186E99D8050EC2D8196E95D8060EB3
:10040000BED81A6E0A0E076E8280140E056EDF6A61
:10041000D950010FE96EDACFEAFF300EEE6E0F0E03
:10042000ED6E030EDB6A0E0EF36E030EDBCFF4FFF0
:10043000F350F45C18E2DF50DF2AEA6A0D0FE96E30
:10044000000EEA22EF50E66E010EDBCFE9FFDB2A59
:10045000020EDBCFEAFF01E3DB2AE552E750EF6E45
:10046000030EDB2AE0D70F013087040EE15C02E2C5
:10047000E16AE55275D079D8020EE1260F0130B756
:100480003BD0DE6ADD6A54D801E674D80BE23AD874
:10049000EF50020802E136D8EF6ADF2A010EF3E3DB
:1004A000DB2AF1D7DE6ADD6A43D801E663D824E2AD
:1004B00029D8EF041CE126D8020EEF6EDECF23F020
:1004C000DDCF24F00A0E2402F3CF24F02302F3CF71
:1004D00023F0F4502426000E2326010E242223C0EC
:1004E000E6FF24C0E6FF67DFE552E55205D0DF2ACC
:1004F000010EDAE3DB2AD8D7020EE15C02E2E16A00
:10050000E5522ED0DECFE9FFDDCFEAFF0A0EEA0288
:10051000F3CFEAFFE902F3CFE9FFF450EA26000E39
:10052000E926010EEA2212002DD8030EC9EF02F0CF
:10053000DECF23F0DDCF24F0D8902450120022D853
:10054000020EC9EF02F01ED8EE52EF501200020E5A
:10055000DB50E924E96E030EDB50EA20EA6E12005C
:10056000E16EE552E7CFD9FF1200D9CFE6FFE1CF28
:10057000D9FF1200180E235C000E2458120009D86F
:10058000EF501200FD0EDBCFE9FFFE0EDBCFEAFFDE
:100590001200E926000EEA221200D9CFE6FFE1CFD1
:1005A000D9FF050EE126DF6A56D9060EEB50960AF2
:1005B00001E1CCD0E70A01E19CD0790A01E1E9D060
:1005C000180A5EE0520A2BE0310A1CE07E0A01E0C4
:1005D000E0D00101B60E44D902E05DD9FEE148D970
:1005E000C60EF66E0C0EF76E0800F5CFF5F1C80ECC
:1005F000F66E0C0EF76E0800F5CFF6F108C0F7F1B5
:10060000050EA0D04DD9010EF31801E0C2D0245040
:1006100001E0BFD04BD9E66EE66ACED8B8D00A501A
:1006200001E1B7D018D9070EEB50E76E010EE7CF06
:10063000DBFF080EEB50E76E020EE7CFDBFF010E8B
:10064000DB50246A246E236A020EDB50000123244F
:10065000036E000E2420046E010EDBCFE6FF020EB7
:10066000E66EFCEC04F0E552E552020EDBCFE6FF4D
:10067000030EE66EFCEC04F0E552E5520A6A89D0FE
:100680000A5001E186D00101EF0EF16FC60EF66E41
:100690000C0EF76E0800F5CFF3F1C70EF66E0C0ED8
:1006A000F76E0800F5CFF4F1C80EF66E0C0EF76E7B
:1006B0000800F5CFF5F1C90EF66E0C0EF76E0800C6
:1006C000F5CFF6F1CA0EF66E0C0EF76E0800F5CFF8
:1006D000F7F1CB0EF66E0C0EF76E0800F5CFF8F1C1
:1006E000CC0EF66E0C0EF76E0800F5CFF9F1070E82
:1006F00029D099D8F350F4104CE0D8D8E76E030E07
:10070000E7CFDBFFDB040DE10101970EA9D802E082
:10071000C2D8FEE1ADD8030EDBCFF5F108C0F6F18B
:1007200010D0030EDB50020834E10101970E98D877
:1007300002E0B1D8FEE19CD8030EDBCFF5F106C094
:10074000F6F1040E9ED8010EDF6E23D0A9D8F35027
:10075000F4101FE0ABD8E76E040EE7CFDBFFDB043D
:1007600008E179D80A0EEB50086EE850E66E010EEB
:100770000BD0040EDB5002080CE16DD80A0EEB50D2
:10078000066EE850E66E040EE66EFCEC04F0E552F0
:10079000E55261D8EF6A025002E0026AA380DF509E
:1007A000236E050EE15C02E2E16AE552E16E235040
:1007B000E552E7CFD9FF1200D9CFE6FFE1CFD9FF4D
:1007C000FD0EDBCF23F0FE0EDBCF24F0080E235C02
:1007D000000E245824E201019B0E42D802E05BD8AF
:1007E000FEE123500101F36F03C023F004C024F0A5
:1007F000246A0350F46FFD0EDBCFF5F1DBCFF6FF7B
:10080000FE0EDBCFF7FFF606000EF75AC60EF626F1
:100810000C0EF7220800F5CFF6F1040E32D8E5529F
:10082000E7CFD9FF120017D8070EEB50266E256AC6
:10083000080EEB502524236E000E2620246E035054
:10084000231806E10450241803E1010EF36E01D0D1
:10085000F36AF46A1200FAC1E9FFFBC1EAFF120071
:10086000F16F03C023F004C024F0080E0F0B120038
:1008700023500101F36F03C023F0246A0350F46F87
:100880001200F26FF00EE66E010EE66E80EC01F0E3
:10089000E552E5521200D89024322332E8061200C5
:1008A000C2DFF3CF23F0F4CF24F01200D4DF090E1F
:1008B000EB501200DACFE4FFE2CFDAFFE9CFE4FF3A
:1008C000EACFE4FFF6CFE4FFF7CFE4FFF5CFE4FF94
:1008D000F3CFE4FFF4CFE4FFFACFE4FF00EE27F01C
:1008E000020EE80403E3EECFE4FFFBD700EE23F0B3
:1008F000040EE80403E3EECFE4FFFBD7E652F294E4
:100900000C50D66E1F06000E205A1F50201005E115
:100910000C0E1F6E206ABDEC05F01D06000E1E5A5F
:100920001D501E1008E1C80E1D6E1E6AC5EC05F0B4
:10093000005001E000061B06000E1C5A1B501C1044
:1009400006E1D00E1B6E070E1C6EF7EC05F0E552AB
:1009500000EE26F0040EE80403E3E5CFEDFFFBD73D
:1009600000EE28F0020EE80403E3E5CFEDFFFBD72D
:10097000E5CFFAFFE5CFF4FFE5CFF3FFE5CFF5FFD5
:10098000E5CFF7FFE5CFF6FFE5CFEAFFE5CFE9FFDB
:10099000E5CFDAFF1100D8CFE4FFE0CFE4FFE46E4B
:1009A000DACFE4FFE652A4AA14D00F0130AB0CD08A
:1009B000075004E1010E016E309706D0070604E1EE
:1009C00030973F0E0E16308730A903D0010E016E0E
:1009D0003097A46AE552E5CFDAFFE550E5CFE0FFB6
:1009E000E5CFD8FF1000A2D8FE0EDB50A96EA69E60
:1009F000A69CA680A8509FD099D8F29EA69EA69CA1
:100A0000A684FE0EDB50A96EFD0EDB50A86E550EBF
:100A1000A76EAA0EA76EA682A1A8FED7A198F28EF5
:100A20008AD084D8030EE126FE0EDB50DF6EDF5045
:100A3000DF2AE66ED8DFE552E66ED950010FE96E87
:100A4000DACFEAFFE552E750EE6EED6ADFCFE6FF60
:100A5000CADFE552256E266E256A010EDB50251091
:100A6000236E020EDB502610246E010E23C0DBFF26
:100A7000020E24C0DBFF010EDBCF23F0020EDBCF22
:100A800024F023C0F3FF24C0F4FF030EE15C02E274
:100A9000E16AE552E16E4FD049D8E652FE0EDB50D6
:100AA000DF6EFC0EDBCFE6FFDF50DF2AE66EA4DF51
:100AB000E552E552FC0EDBCF23F0FD0EDBCF24F038
:100AC00024C023F0246A2350E66EDFCFE6FF94DFD4
:100AD000E552E552E5522FD029D8020EE126DF6A11
:100AE0000A0EDF5C11E2010EDB6ADB50236E246A22
:100AF000243404E22350F508000E245403E3010ECD
:100B0000DB2AF3D7DF2AECD7020EE15C02E2E16ACE
:100B1000E552E16E10D00AD8E652DF6A640EDF5C5F
:100B200003E2DADFDF2AFAD7E55205D0D9CFE6FFB4
:0E0B3000E1CFD9FF1200E552E7CFD9FF120046
:020B3E0066D877
:100B4000C26A0F0EC16E9490949294949280829097
:100B500082928294020EE15C02E2E16AE552E16E69
:100B600051D0D9CFE6FF4ED057D8DF6ADF5002E030
:100B7000000E01D0010EE55245D00550000804E2F8
:100B80000506055001E18290120040D8E15C02E2C6
:100B9000E16AE552E16E36D0D9CFE6FF33D03CD8DA
:100BA0008050010BDF6EDF5002E0000E01D0010E1D
:100BB000E55228D031D8010EDF6EDF50E55222D049
:100BC0002ED8040EE126DE6ADD6A020EDB6A030E11
:100BD000DB6A040EE15C02E2E16AE552E16E12D0EA
:100BE00015D8E15C02E2E16AE552E16E0BD0120039
:100BF000D9CFE6FF07D00AD8E15C02E2E16AE5520C
:100C0000E16E00D0E552E7CFD9FF120008D8020EFE
:100C1000E126DE6ADD6A120002D8E6521200D9CF60
:080C2000E6FFE1CFD9FF12004D
:080C28001E0EF66E000EF76EC1
:100C3000000EF86E00010900F550656F0900F550CF
:100C4000666F03E1656701D03DD00900F550606F24
:100C50000900F550616F0900F550626F0900090045
:100C6000F550E96E0900F550EA6E09000900090027
:100C7000F550636F0900F550646F09000900F6CF65
:100C800067F0F7CF68F0F8CF69F060C0F6FF61C099
:100C9000F7FF62C0F8FF0001635302E1645307E00D
:100CA0000900F550EE6E6307F8E26407F9D767C0F4
:100CB000F6FF68C0F7FF69C0F8FF00016507000E86
:060CC000665BBFD71200C5
:0A0CC60046610B0000010100000070
:100CD0000000000000000000000000000000000014
:060CE0000000000000000E
:0A0CE600000EF36E00EE00F00D0E9C
:100CF00001D81200EA6002D0EE6AFCD7F350E96036
:060D00001200EE6AFCD7B0
:0A0D06001CEE00F02CEE00F0F86A7D
:100D1000289C14EC06F003EC00F016EC00F0FBD776
:020D20001200BF
:020000040030CA
:0100010006F8
:0100020016E7
:0100030010EC
:0100050000FA
:010006008079
:010008000FE8
:01000900C036
:01000A000FE6
:01000B00E014
:01000C000FE4
:01000D0040B2
:00000001FF
