:020000040000FA
:06000000A7EF26F012003C
:020006001200E6
:06000800BBEF0FF0120037
:02000E000000F0
:0100100000EF
:0100110000EE
:0100120000ED
:0400130000000000E9
:0600180031EF10F01200B0
:02001E000500DB
:10002000934D0000F50200000200000013000000E4
:10003000FC010000040000006A4D000049030000BC
:100040002900000012000000F90200000100000079
:0C00500011000000F80200000100000098
:04005C00C7EC07F0F6
:10006000030EE126DF6A040EDF5C1DE2FBEC09F003
:10007000EF6A4EEC09F0EF904EEC09F0EF824EEC97
:1000800009F0EF844EEC09F0EF984EEC09F0EF9692
:100090004EEC09F0EF9A59EC0AF0B2EC07F0E9ECFB
:1000A00009F0DF2AE0D70201E96B040EEA6FEB6B7F
:1000B000EC6BED6BEE6B030EE15C02E2E16AE55284
:1000C000E16ECCEF07F0C7EC07F0030EE126DF6A24
:1000D000040EDF5C2FE2FBEC09F0EF5029E1B2ECFB
:1000E00007F0010EEF6EDBCFE9FF020EDBCFEAFF78
:1000F0000B0E8BEC07F0FD0EDBCFEEFFFE0EDBCF21
:10010000EDFFB2EC07F00D0EEB6A0E0EEB6AB2ECEF
:1001100007F0C8EC09F04EEC09F0EF804EEC09F066
:10012000EF9659EC0AF04EEC09F0EF82DF5003D065
:10013000DF2ACED7FE0E1A6E030EE15C02E2E16A00
:10014000E552E16E1A50CCEF07F0C7EC07F0DAEC9D
:1001500007F0EF50040802E0000E01D0010ECCEFD2
:1001600007F027EC0AF096EC07F0EF50040809E0DE
:10017000DECFE6FFDDCFE6FF1CEC06F0E552E552F0
:1001800014D0FE0EDBCFE6FFBDD8E552D0EC08F070
:10019000110E2DEC0AF086EC0AF0EE2AEE22EE2289
:1001A000EE2296EC07F0050EEF6E020EE15C02E225
:1001B000E16AE552E16ECCEF07F027EC0AF096EC2D
:1001C00009F0EF50FF0804E056EC0AF0020B02E1E0
:1001D000000E24D096EC07F0100E33EC09F096ECEC
:1001E00009F0EF50E66E100E2DEC0AF0100EF1EC57
:1001F00009F01C6A1D6A96EC07F086EC0AF0B8EC70
:1002000008F031EC09F0EF9231EC09F0EF9896EC40
:1002100009F0CAEC08F05EEC0AF0010E1A6E020E4C
:10022000E15C02E2E16AE552E16E1A50CCEF07F0C0
:10023000C7EC07F0DAEC07F00F0E8BEC07F0EF508D
:10024000FF0803E136EC17F005D006EC0AF0020BCC
:1002500001E0010ECCEF07F062EC09F002E13BECAB
:1002600009F0AEEC09F002E3000E12D0B9EC07F091
:1002700090EC0AF0EF88FD0E75EC08F0DF2A010E15
:1002800001E3DB2AB7EC09F002E3DFEC08F0010E32
:100290001A6E040EE15C02E2E16AE552E16E1A5068
:1002A000CCEF07F062EC09F002E13BEC09F0AEECB8
:1002B00009F002E3000E1CD0B9EC07F090EC0AF054
:1002C000DBEC09F0A4EC19F06DEC0AF0FA0EDBCFD0
:1002D0001AF0FB0EDBCF1BF0A9EC08F01A50EE264B
:1002E0001B50ED22B7EC09F002E3DFEC08F0010E41
:1002F0001A6E040EE15C02E2E16AE552E16E1A5008
:10030000CCEF07F08CEC0AF002E1000E06D045ECD1
:1003100017F031EC09F0EF96010E1A6E020EE15C57
:1003200002E2E16AE552E16E1A50CCEF07F08CEC84
:100330000AF00DE056EC0AF0040B02E063EC0AF060
:1003400031EC09F0DBEC09F0E6EC08F002D0F36ADE
:10035000F46A020EE15C02E2E16AE552E16ECCEF82
:1003600007F08CEC0AF029E056EC0AF0040B02E0EE
:1003700063EC0AF096EC07F0120E8BEC07F0EE50EF
:10038000ED1006E145EC17F031EC09F0EF9616D0D0
:1003900096EC07F0120E8BEC07F0EE06EF5A56ECD7
:1003A00019F0E66EFC0EDBCFE9FFFD0EDBCFEAFFB6
:1003B000E552E750EF6E010E01D0000E1A6E020EEC
:1003C000E15C02E2E16AE552E16E1A50CCEF07F01F
:1003D000C7EC07F006EC0AF0080B01E0010ECCEFC9
:1003E00007F0C7EC07F0100EE1260F0EDB6ADF6A9C
:1003F000040EDF5C01E312D1DF509BEC07F0090E25
:100400001AC0DBFF0A0E1BC0DBFFCCEC09F0080BA7
:1004100001E002D1CCEC09F0100B01E0FDD0A5EC1D
:1004200007F0EF5001E1F8D0A5EC07F0EF0405E18B
:10043000CCEC09F0010B01E0EFD067EC26F0050EE3
:100440002CC0DBFF060E2DC0DBFF070E2EC0DBFF2E
:10045000080E2FC0DBFF050EDBCF1EF0060EDBCF34
:100460001FF0070EDBCF20F0080EDBCF21F0A5EC4C
:1004700007F01D0E8BEC07F0EE501E5C1A6EEE506E
:100480001F581B6EEE5020581C6EEE5021581D6EEA
:1004900086EC08F0030E1CC0DBFF040E1DC0DBFF62
:1004A000010EDBCF1AF0020EDBCF1BF0030EDBCF09
:1004B0001CF0040EDBCF1DF0A5EC07F0210E8BEC39
:1004C00007F01A50EE5C1B50EE581C50EE581D50B1
:1004D000EE5801E3A1D036EC17F0000901E19ED0FF
:1004E00067EC26F0EEEC07F0A5EC07F01D0E72ECC1
:1004F0000AF0A5EC07F0210E8BEC07F0D890EF3650
:10050000010EEB36020EEB36030EEB36C0EC09F0B3
:10051000EF2AA5EC07F0EF50060A28E0010A26E0D2
:10052000020A1DE00F0A1BE00E0A0FE0060A04E0B3
:10053000010A2DE1020E27D0C0EC09F0EFCF1AF02E
:10054000050E1A5C18E2120E1ED0110EF36E0F0E7D
:10055000F3CFDBFFA5EC07F0050EEF6E18D0C0EC73
:1005600009F0EF50050807E3010E0DD0C0EC09F0CB
:10057000EF50050807E2090EDBCFE6FF0A0E0AEC92
:100580000AF005D0100EF36E0F0EF3CFDBFF0F0E47
:10059000DB50000841E20F0EDB50100813E0A5EC21
:1005A00007F086EC0AF041EC08F00B0E1AC0DBFFF6
:1005B0000C0E1BC0DBFF0D0E1CC0DBFF0E0E1DC0A2
:1005C000DBFF0CD0A5EC07F086EC0AF00B0EEECFAB
:1005D000DBFF9BEC08F00E0EEECFDBFFD0EC08F05B
:1005E0000F0EDBCFE6FFA5EC07F0180E75EC0AF056
:1005F000D9500B0FF4EC09F0A5EC07F00D0E33EC1D
:1006000009F0A5EC07F00B0E33EC09F0A5EC07F0B0
:10061000D0EC07F094EC08F0DF2AEAD6100EE15C8B
:1006200002E2E16AE552E16ECCEF07F0C7EC07F0B9
:10063000240EE126140EE66EE66AD5EC08F0E6EC30
:1006400008F0D5EC08F0D1DAE552E5528FEC07F06E
:1006500089EC0AF0140EEECFDBFF150EEECFDBFFB8
:10066000160EEECFDBFF170EEECFDBFF27EC08F008
:10067000180E1DEC0AF0010E8BEC07F0190E1DECA4
:100680000AF0020E8BEC07F01A0E1DEC0AF0030EB6
:100690008BEC07F01B0EEFCFDBFF1C0EDB6A060EA8
:1006A000F36E1D0EF3CFDBFFA2EC08F01E0E2EC082
:1006B000DBFF1F0E2FC0DBFF1E0EDBCFE6FF1F0E82
:1006C000F1EC08F01E0EF3CFDBFF1F0EF8EC08F084
:1006D000140F98EC09F0210E1AC0DBFF220E1BC08C
:1006E000DBFF100E17EC08F0210E75EC08F0110E70
:1006F00017EC08F0220E75EC08F0000E17EC08F06D
:10070000EAEC08F017EC19F0E552E552210EF3CFB0
:10071000DBFF220EF4CFDBFF210EDBCF1AF0220E1F
:10072000DBCF1BF0100EDB501A1803E1110EDB506B
:100730001B1804E045EC17F0010E94D0D9500C0FB3
:1007400065EC08F0C1EC08F01A6E1B6A140E1A5E14
:10075000000E1B5A230E1AC0DBFFDB501C6E1D6AF5
:10076000A2EC08F01C502E5C1A6E1D502F581B6E08
:10077000140E1A5E000E1B5AF90E1AC0DBFFFA0E99
:100780001BC0DBFFD9500C0FE96EC1EC08F017EC71
:1007900008F035EC08F0D5EC08F094D96DEC0AF0CF
:1007A000E76E200EE7CFDBFFFE0EF36E200EDBCFF1
:1007B000F4FFF350F45C0DE2EAEC08F0D5EC08F03D
:1007C00035EC08F0200EDBCFE6FF64DA1A6E070E78
:1007D00046D045EC17F0200EDB50FF0842E1F90E41
:1007E000DBCF1AF0FA0EDBCF1BF01C6A1D6AD95062
:1007F000080F65EC08F0B8EC08F0D9500D0F65EC67
:1008000008F0EF50020B07E1D9500D0F65EC08F02E
:10081000EF50010B09E0D950080F65EC08F0EE2A03
:10082000000EEE22EE22EE22D0EC08F0040EE66E70
:10083000D950040FF4EC09F0D950080FF4EC09F08A
:10084000DECFE6FFDDCFE6FF020EDBCFE6FF030ED5
:10085000DBCFE6FF35EC08F00ED81A6E120EE15E23
:100860001A50010E1A6E240EE15C02E2E16AE552B2
:10087000E16E1A5091D38BDB260EE12636EC17F091
:100880000009FCE0FB0EDBCF2EF0FC0EDBCF2FF0DF
:10089000020E2EC0DBFF030E2FC0DBFFA2EC08F020
:1008A000040E2EC0DBFF050E2FC0DBFFD950F50F65
:1008B00060EC08F010EC0AF0FFEC08F0D950F10FF2
:1008C00060EC08F006EC09F09BEC08F00F0EDB9CE6
:1008D000DB9E0E0EDB90DB92DB94DB96F00EDB50A2
:1008E000E76E0F0EE7CFDBFF73EC17F0100EF3CFC0
:1008F000DBFF110EF4CFDBFF100EDBCF1AF0110E71
:10090000DBCF1BF0000E1A5C040E1B5808E3100E20
:10091000DB6A040EF36E110EF3CFDBFF13D0D95058
:10092000100FD3DB360E27EC09F008E2D950100F78
:10093000CCDB360EEE5E000EED5A04D0100EDB6AF4
:10094000110EDB6A120EDB6A130EDB6A140EDB6A11
:10095000150EDB6AD950020F78EC0AF046D9E55241
:10096000E552D950ED0FACDB140EEE26000EED2251
:10097000F00EDBA21CD0D950ED0FA2DB040EEE2648
:10098000000EED22020EF36E160EF3CFDBFF040E07
:10099000F36E170EF3CFDBFF040EF36E180EF3CFDA
:1009A000DBFF190EDB6A0E0EDB98DB8A03D00E0E1E
:1009B000DB88DB9ADB8CDB9E1A0E72C3DBFF1B0E1F
:1009C00073C3DBFF1C0E74C3DBFF1D0E75C3DBFF9F
:1009D000A6DA89EC0AF01E0EEECFDBFF1F0EEECF7B
:1009E000DBFF200EEECFDBFF210EEECFDBFF220E72
:1009F000DB6A060EF36E230EF3CFDBFFED0EDBCFCB
:100A00002EF0EE0EDBCF2FF0240E2EC0DBFF250ED6
:100A10002FC0DBFF240EDBCFE6FF250EE2DB240E2A
:100A2000F3CFDBFF250EE4DB1A0F98EC09F0120E72
:100A30001AC0DBFF130E1BC0DBFF120EDBCFDEFF85
:100A4000DBCFDDFFEF0EDB50FF0802E1EF0EDB6ACC
:100A5000140EBCDAE2DB060EE66E07DB28EC1EF0B5
:100A60001A6E050EE15E1A50140EE66EE66AD95053
:100A7000020F41DBF00EDBA206D0040EE66EE66A42
:100A8000D950160F38DB140EA1DAC7DB17EC19F0BA
:100A9000E552E552F3CFDEFFF4CFDDFF240E96DA08
:100AA000010E23DBDFCFE6FF95EC19F0E552000ED7
:100AB0008DDA9CEC18F0260EE15C02E2E16AE55268
:100AC000E16E6AD264DA040EE126FE0EF36E030EC6
:100AD000F3CFDBFF020EDB6A040EF36E020EDBCFF8
:100AE000F4FFF350F45C47E2020E72EC09F01EDAF8
:100AF000EF503EE01BDA0B0EF1EC09F010DA020EBB
:100B00000ADA92DB35E11D501B1832E10FDAEF04EF
:100B100006E1020EDB50E76E030EE7CFDBFF06DADD
:100B20000D0EF1EC09F0FBD97FDB22E11D501B1803
:100B30001FE18DDA89EC0AF0EECF1EF0EECF1FF048
:100B4000EECF20F0EFCF21F0F1D9EE5289EC0AF090
:100B5000EE5000011E180CE1EE501F1809E1EE5096
:100B6000201806E1EE50211803E102E1020E2BD01D
:100B7000020EDB2AB1D7030EB5DB030EDB50FE08F5
:100B800024E0D4D9EF0421E10A0EE66EE66AFB0EFA
:100B9000DBCFE6FFFC0EDBCFE6FFC8D901DA4BDB8B
:100BA000BED9020EF1EC09F0C1D90B0E21EC0AF00E
:100BB000B6D981DABBD90D0E21EC0AF052DBEF96E3
:100BC0005EEC0AF0030EDB5007D0030EDB50FE088C
:100BD00002E1FF0E01D0FE0E1A6E040EE15C02E28D
:100BE000E16AE552E16E1A50D7D1D1D998D951ECCA
:100BF0000AF08BDBB3DA93D9020E4EEC0AF0020E48
:100C0000CFDB040E89DB040E17EC0AF0080E84DB40
:100C1000080E17EC0AF00E0E4EEC0AF00E0EC0DBBA
:100C2000100E4EEC0AF0100EBBDB120E4EEC0AF06A
:100C3000120E71D993DAB0D1AAD9CFDBEF50FF08E9
:100C400006E0CBDBA7DAC9DBEF6864DBEF8267D9AC
:100C50009FDB65D90D0EEB6A0E0EEB6A5BDBEF5086
:100C6000080B02E045EC17F055DBEF9653DBEF9AEB
:100C700056D9AFDB4FDBEF988282140E046E4ADB4D
:100C8000EF50010B04E04BD9010EEF6E02D047D9B3
:100C9000EF6A82D17CD9130EE126120EDB6AFE0EBA
:100CA000DB5049D9100E1AC0DBFF110E1BC0DBFF51
:100CB000C1DB200B0DE168DBEECF1AF0EECF1BF0AD
:100CC000EECF1CF0EFCF1DF068EC0AF0D3DBEF8A1B
:100CD000F5DA95DA9BDA0ADB2EDA0E0EEECFDBFFC1
:100CE0000F0EEECFDBFF50DBF4D9F80EDBCF1AF09E
:100CF000F90EDBCF1BF01C6A1D6A1A50DE261B5052
:100D0000DE221C50DE221D50DD22DD52DD52EEDAE5
:100D100086D9EFDA5EDBF8D8EF0439E145EC17F05D
:100D20000201EB2B000EEC23ED23EE23DFDAEBC206
:100D3000EEFFECC2EEFFEDC2EEFFEEC2EEFF09DA0F
:100D400000DBC6DBD3DA6BD9D1DAEE2AEE22EE2253
:100D5000EE228CDA020B12E00A0EE66EE66A7ED90B
:100D6000D3D81ED968DA0CD9A6D9CED80D0E69DB36
:100D7000120EF36EDB6EC8D8020E97D0040EF3D9B4
:100D8000E8D94DD901DBA5D9BFD802DB9ED06EDAF8
:100D9000040B04E045EC17F0B3D9AFD0080EDBCF5D
:100DA0001AF0090EDBCF1BF00A0EDBCF1CF00B0E86
:100DB000DBCF1DF0E9DAEE501A1801E080D0EE50DA
:100DC0001B1801E07CD0EE501C1801E078D0EE50EA
:100DD0001D1875E174E138DB02080BE147DA100BEE
:100DE0004BE04BDB86DA040EEF6E0ADB45E258DAA5
:100DF0006CD043DB29DB040842E138DA100B0AE04F
:100E0000EEDAEF50FF0806E0EADAC4D9E8DAEF6874
:100E100031DBEF822BDA010B15E0110EA4D966DA73
:100E200030D9040E1AC0DBFF050E1BC0DBFF060E17
:100E30001CC0DBFF070E1DC0DBFF40DAE3D864D81F
:100E40000A0EEF6EDDDA18E2F5DA080B04E128DAB3
:100E5000100E89D93AD0120EDB6A48DA0C0EDBCFBD
:100E6000EEFF0D0EDBCFEEFF0E0EDBCFEEFF0F0E13
:100E7000DBCFEEFF23DA12D945EC17F026D0E4DA07
:100E80000A0804E13ADB100B20E017D0DDDA050890
:100E90000EE133DB010B19E0100E65D90FDAB2D881
:100EA000E5D9100B0AE130D8060EEF6E0ED0CCDA81
:100EB00006080BE122DB100B08E022D906D045EC36
:100EC00017F0100E50D945D9E9D8120EDB500008A2
:100ED00014E266D9120EDBCFE6FF3BD93DD8D950DC
:100EE000040F82DA4DD8DDDA4BD8020EBCD9B6D861
:100EF000C2DC1A6E120EE15E1A50130EE15C02E2C1
:100F0000E16AE552E16E48D0100EDBCFE9FF110E29
:100F1000DBCFEAFF1200E926000EEA221200FD0EE6
:100F2000DBCFE9FFFE0EDBCFEAFF1200DECFE9FFE9
:100F3000DDCFEAFF1200260DF3CF1AF0F4CF1BF03D
:100F4000600E1A26000E1B221200090EDBCFE9FFED
:100F50000A0EDBCFEAFF1200EECFE6FFEECFE6FF90
:100F600051EF0AF0010EDBCFE9FF020EDBCFEAFF03
:100F70001200020EDBCFE9FF030EDBCFEAFF120007
:100F8000FA0EDBCFE9FFFB0EDBCFEAFF1200D9CF71
:100F9000E6FFE1CFD9FF1200E552E7CFD9FF1200FB
:100FA000EE52E9CF1AF0EACF1BF0E9CFE6FFEACF25
:100FB000E6FF1200FE0EDB50260DF3CFE9FFF4CF63
:100FC000EAFF600EE926000EEA221200E66EE66AEB
:100FD000EF0EDBCFE6FFC1EC18F009D22CC01AF0FF
:100FE0002DC01BF02EC01CF02FC01DF012002CC015
:100FF000EEFFD4EF09F0E552E552F3CF1AF0F4CF4B
:101000001BF012009ED91AC0DFFF010E1BC0DBFFD0
:10101000020E1CC0DBFF030E1DC0DBFF1200040E1E
:10102000EECFDBFF050EEECFDBFF10EF0AF0E66E32
:10103000E66AC0EC1EF0E552E5521200DECF1AF06F
:10104000DDCF1BF0CA0E1A5C030E1B581200FB0EFC
:10105000DBCFE9FFFC0EDBCFEAFF1200FC0EDBCF9B
:10106000E6FFFD0EDBCFE6FF1200FD0EDBCFE6FF55
:10107000FE0EDBCFE6FF12001AC0DEFF1BC0DDFF55
:101080001200EFCF1AF0EE2AEFCF1BF0EE22EFCFD7
:101090001CF0EE22EFCF1DF0EF221200080EDBCF86
:1010A000EEFF090EDBCFEEFF0A0EDBCFEEFF0B0EDD
:1010B000DBCFEEFF1200EECF1AF0EFCF1BF01200E5
:1010C000E96EFF0EDA20EA6E1200E96EDACFEAFF6F
:1010D0001200EECFDFFF010EEECFDBFF020EEECFF0
:1010E000DBFF030EEECFDBFF1200DBCFE6FF95EC5C
:1010F00019F0E5521200FCD9A4EC19F0E55277D1B1
:10110000100EDBCFE6FF110E0AEF0AF0010E1AC037
:10111000DBFF020E1BC0DBFF1200700EEE6E170E1F
:10112000EE6EEE6AEE6A12003BEC04F01C6E120EDC
:10113000E15E1C5012000C0EEECFDBFF0D0EEECF69
:10114000DBFF1200F90EDBCF2EF0FA0EDBCF2FF013
:101150001200D9CFE9FFDACFEAFF1200F3CFEEFF9A
:101160001BC0EDFF1200F36E120EF3CFDBFF120077
:101170001A50EE261B50EE221C50EE221D50EE227D
:101180001200EF50F00BE842E842E842E842040D5A
:10119000F3501200EF50E66E42EC17F0E5521200E9
:1011A000000EE66EE66AE6681200D9CFE6FFDACFF7
:1011B000E6FF1200EF50E66EC1EC18F018D1FE0EFB
:1011C000DBCFE6FFDDEC00F0E552120063EC19F036
:1011D000E5520DD1F90EDBCFE6FFFA0EDBCFE6FFCD
:1011E0001200DBCFE6FF3DEC1CF0E552E5521200A9
:1011F000F4CFDBFF0C0EE66EE66AD9501200080E43
:10120000EECFDBFF090EEECFDBFF12000A0EEECFB2
:10121000DBFF0B0EEECFDBFF1200ED0EDBCFE6FFA8
:10122000EE0EDBCFE6FF1200EECF1CF0EFCF1DF08D
:101230001C501A18120041EC24F01C6E060EE15EE0
:101240001C501200EE6AEE6AEE6AEE6A1200D88056
:10125000EE54000EED5412001AC0EEFF1BC0EDFF5D
:10126000120064DE4ED157DE51EF0AF089DE0D0E1A
:1012700052DEEF5012000ED9EF6A0CD9EF50E66E35
:101280003FEC17F0E55275DE100EEB6A110EEB6ABB
:10129000280EE66EE66AFED8DAEF08F063DE31D19A
:1012A000E9D8EF8631DE120E36DEF80EDBCFEEFF28
:1012B000F90EDBCFEDFFDED8EF84120025DE180E2D
:1012C0008BEF07F064DE040EE126FE0EDB5033DE0A
:1012D000020E1AC0DBFF030E1BC0DBFFDBD8EF5092
:1012E000FF081200DB5027DE3CEF08F00DDE86EF32
:1012F0000AF00ADE1C0E0FDEEF6A67EC26F06EDEE7
:1013000003DE1D0EEFD884EF07F03DEC1CF073DE1A
:101310008FEF07F004DEF5D0E8D860EC1CF0DDD8E4
:101320005DDE8FEF07F0E1D896EF07F0FFDDEBD041
:10133000DFD8B1EC1CF0E552E5525DDE1A1E1B1E33
:101340001200EF2AEECF1AF0EF22EECF1BF0EF22C1
:10135000EECF1CF0EF22EFCF1DF012000ADE100ED0
:10136000DADDEECFDEFFEDCFDDFF1EEF08F001DEB0
:10137000100ED1DDDECFEEFFDDCFEDFF1EEF08F06A
:10138000E4DD1C0E8BEF07F0FBDD040E8BEF07F0A6
:10139000EE52BFD822EF09F0D8DDC2D8EF501200CC
:1013A000BADDDCDE8FEF07F01BC0EEFF1CC0EEFFE6
:1013B0001DC0EEFF1200EF88FA0EDBCFE6FFFB0E3A
:1013C000DBCFE6FF2EEF08F0B1DDEADDADDE96EF14
:1013D00007F0210EA0DD8DEF08F0A1DD94D094DDA3
:1013E00092D099DD5BEF08F070DEACEF07F0E552CC
:1013F000E552E5521200DF509EDD88DEB2EF07F0C5
:10140000D950F80F5DDE000E27EF09F0D3DD88D844
:10141000EF501200DBCFE6FF0FDCE552E552120081
:10142000060EEECFDBFF070EEECFDBFF12005AD821
:101430008FEF07F01FD8EF501200EFCFDBFF27EF41
:1014400008F069DD2CEF09F05FDDEF5012009FDD41
:10145000020EE126FE0E72EF09F0E66E67DD180E51
:1014600062DF140E60DF0D0EFEDE60DD0B0EFBDEB4
:10147000E4EF09F049DD90EF0AF020DFDFCFEEFF67
:10148000010EDBCFEEFF020EDBCFEEFF030EDBCF54
:10149000EEFF12006EDD0F0E8BEF07F0E4DE85EF3E
:1014A00009F0EECFE6FFEFCFE6FF1200DADEEF50F5
:1014B000120058DD0F0E2FDDEF68120037DFEF68E6
:1014C000D0DEEF821200140EB2DDCBDEEF941200FC
:1014D000F5DE1AC0EEFFD4EF09F0E552E552E55211
:1014E000E552120018DDF7EF07F015DDACEF07F05D
:1014F000E66E000EDA20E66E120045EC17F036EFCD
:1015000009F090EF0AF00F0E8BEF07F0140E8BEF3F
:1015100007F0060E8BEF07F09ADFC8DF080B12000A
:06152000250E8BEF07F021
:0A152600D9CFE6FFE1CFD9FFE6526E
:10153000DF6AE7EC10F00A6A0B6A0C6A0D6A0E6A41
:10154000106A010EC6D8096EFF0E095C0AE1E66A50
:10155000010EE66E58EC10F0E552E552096A780E7D
:10156000076E6BD8B2EC24F0020EB3D8006E016A9D
:10157000016E006A030EADD81A6E1B6AE850002691
:101580001B5001220050011005E00001001C05E184
:10159000011C03E10B0E006E016A040E9AD8066E60
:1015A000E85003E0FF0E065C02E10050066E82D8B0
:1015B0008292C6EC0BF0000910E18294140E026EC8
:1015C000ADEC14F00F0E0F5C02E3FCEC12F00F50C8
:1015D0000608EFE22EEC25F0ECD72EEC25F0A8EC77
:1015E0000CF082EC25F0000905E0DF5003E1010E6C
:1015F000DF6EDFD782EC25F00009DBE1DF50D9E0B8
:10160000DF6A0B5002E00B6AD4D70101520EE86F7B
:1016100001C0E9F100C01AF001C01BF000011B6A13
:1016200000C0EAF1E10EE66E010EE66E75EC14F014
:10163000E552E552010E0B6EBCD7D9CFE6FFE1CFE4
:10164000D9FF020EE126DE6ADD6AF26AA66AA56AA1
:10165000A26A9F6AA36AA386A06A9D6AF06AF16A79
:10166000F26AA46AA16A9E6AD08E420ED56ED66ACC
:10167000D76AF28AD58EF184060E116ED00E126EE4
:10168000070E136EC80E146E156A100E080E166E35
:10169000176AD08EF28CF28EE66A40EC25F0E552A5
:1016A000020EE15C02E2E16AE552E16EE552E7CF4B
:1016B000D9FF1200F28EF28C6EEC0BF0C6EC0BF040
:1016C000000906E1F0C1E9FFF1C1EAFFEF6AF6D7D0
:1016D0001200E66E4FEC10F0E5521200CAD9020E6D
:1016E000E126DE6ADD6A800E6F6E6EAEFED7B00E4A
:1016F000776E0D01F86B606A070E706E9E0E716E4C
:10170000030E726E200E736E030ED46FD56FD86BFE
:101710000F01186B196B1A6B1B6B1C6B1D6B1E6B0F
:101720001F6B800E016F056F0D01E06BE16BE26BCB
:10173000E36BE46BE56BE66BE76BF06BF16BF26B05
:10174000F36BFA6BFC6B606A0F01506B0E01206B40
:10175000306B406B506B606B706B6F6ADE6ADD6A7A
:101760007ED9D8901B5004E60F0E1A5C000E1B5851
:1017700007E28CD9EF6ADF2A010EF2E3DB2AF0D709
:10178000020EE15C02E2E16AE5526ED1070E6F14CF
:10179000010A07E0010A0BE10101600EF06F0F0E74
:1017A00004D00101500EF06F0F0EF16F0CD0020E3D
:1017B0006F5C070B100DF3500101F06FF16B200E01
:1017C000F0270E0EF123F0C1E9FFF1C1EAFFEF505F
:1017D000800B01E0000C010C4CD9040EE126DE6AFE
:1017E000DD6A020EDB6A030EDB6ADE6ADD6A37D968
:1017F000D8901B5004E60F0E1A5C000E1B5834E202
:1018000045D9EF502CE10F0EE66EE66AFD0EDBCFF8
:10181000E6FFFE0EDBCFE6FF22D90FD941EC24F024
:101820001C6E060EE15E1C5031D9010EEF6E17D909
:101830001A26000E1B220D501C6E1D6A1D501B180F
:10184000E8AE02D01B3404D01A501C5C1B501D584B
:1018500004E205D9010E1A240D6E010E09D0DF2A0B
:10186000010EC5E3DB2AC3D78282280E046E000E68
:101870001A6E040EE15C02E2E16AE552E16E1A5072
:10188000E552E7CFD9FF1200F4D8040EE126AED816
:10189000EF6A780E0614E840E840E8401F0BB009F4
:1018A000E66EA4D8010EE926000EEA22E552E750C2
:1018B000EF6E1F0E1A6EF0D81A50EF16070E0614B0
:1018C000200DEAD8F350EF120A0E086E8294140E1F
:1018D000026EDF6A0F0140B71AD0D950010FE96ECE
:1018E000DACFEAFF400EEE6E0F0EED6E030EDB6AEE
:1018F000C5D80AE27BD882D801E3DB2AE552E7505B
:10190000EF6E030EDB2AF4D70F0140871BD030B7F0
:1019100019D0D950010FE96EDACFEAFF300EEE6E22
:101920000F0EED6E030EDB6AA9D80AE25FD866D807
:1019300001E3DB2AE552E750EF6E030EDB2AF4D712
:101940000F013087040EE15C02E2E16AE5528CD0BF
:1019500090D8020EE1260F014051080B03E03051F0
:10196000080B30E1010EDB68DF6A0F0EDF5C13E26B
:1019700059D8EF50020803E155D8EF6A0AD0010E9A
:10198000DB50FF0806E14ED8EF0403E1010EDFCF84
:10199000DBFFDF2AEAD7010EDB50FF0813E0010E60
:1019A000DBCFE9FFEA6AE9BEEA6812D8020EEF6E01
:1019B000010EDBCF1AF01B6A1ABE1B683ED864DF2B
:1019C000E552E552020EE15C02E2E16AE5524CD0DA
:1019D0000F0EEA02F3CFEAFFE902F3CFE9FFF4507A
:1019E000EA26000EE926010EEA221200FD0EDBCFE8
:1019F000E9FFFE0EDBCFEAFFEE521200E9CF1AF04C
:101A0000DF50DF2A0F01E924E96E000EEA20EA6EBA
:101A1000EF50E66E010EDBCFE9FFDB2A020EDBCFD3
:101A2000EAFF1200DF500F0DF3CFE9FFF4CFEAFF1A
:101A3000000EE926010EEA2212000F0E1B02F3CF60
:101A40001BF01A02F3CF1AF0F4501B26000E1A26D0
:101A5000010E1B221AC0E6FF1BC0E6FF1200DECFFC
:101A60001AF0DDCF1BF01200E16EE552E7CFD9FF8F
:101A70001200D9CFE6FFE1CFD9FF12000E0EF36EB0
:101A8000030EDBCFF4FFF350F45C1200DECFE9FF6E
:101A9000DDCFEAFFE8EF0CF0A9DF020EE926000E29
:101AA000EA22120039DA230EE126010EDF6EFC0E67
:101AB000DB50030802E1010E7DD1FC0EDB50020871
:101AC00005E1D8D9060EE8D9000E74D1102A09A470
:101AD00023D038DA120EE7CFDBFF0650200D130EAD
:101AE000F3CFDBFF020EF36E170EF3CFDBFF180E02
:101AF000DB6AC0D9060E22DA190EEFCFDBFF1A0E11
:101B000010C0DBFF840EF36E160EF3CFDBFFD9504F
:101B1000100FE7D9E552E552ADD9060EBDD9960AA8
:101B200001E100D1E70A01E19AD0610A59E0520AC5
:101B30002FE0310A22E07E0A01E03BD1A3D9B60EA4
:101B4000D6D902E0EED9FEE1AAD9EE0EF66E4C0E21
:101B5000F76E08000B0ED8D90C0EF5CFDBFF0D0E7B
:101B600009C0DBFF060EF36E070EF3CFDBFFD95083
:101B7000010FB7D9E552E5521CD1A4D9010801E003
:101B800018D178D9090E88D9E66EE66A1CD9C6D074
:101B90000B5001E10ED16ED9070ED0D91F0EEFCF39
:101BA000DBFF68D9080ECAD9200EEFCFDBFF1F0E6E
:101BB000DB501B6A1B6E1A6A200EDB5000011A24D0
:101BC000006E000E1B20016E1F0EDBCFE6FF020E23
:101BD00095D9200EDBCFE6FF030E90D90B6AA0D07B
:101BE0000B5001E1E6D04ED9EF0EF36E080EF3CFA5
:101BF000DBFFEE0EF66E4C0EF76E0800090EF5CF09
:101C0000DBFFEF0EF66E4C0EF76E08000A0E7CD965
:101C10000B0EF5CFDBFFF10EF66E4C0EF76E0800E3
:101C20000C0EF5CFDBFFF20EF66E4C0EF76E0800D1
:101C30000D0EF5CFDBFFF30EF66E4C0EF76E0800BF
:101C40000E0EF5CFDBFFF40EF66E4C0EF76E0800AD
:101C50000F0EF5CFDBFF070EF36EDB6E5CD032D9D3
:101C6000000901E1A6D006D9090E68D9210EEFCFEF
:101C7000DBFF08D9970E3BD902E053D9FEE10FD91B
:101C8000210EDB50E76E0B0EE7CFDBFF040EF36E89
:101C9000070EF3CFDBFF210EDB0404E10C0E09C0BD
:101CA000DBFF39D0210EDB50020804E10C0E06C028
:101CB000DBFF31D0210EDB50020808E2070E49D9C4
:101CC00005E2210EDB50050FFD0F1DD0210EDB506C
:101CD000060808E20B0E3DD905E2210EDB50090F84
:101CE000F90F11D0210EDB500A0808E2110E31D98C
:101CF00005E2210EDB500D0FF50F05D0210EDB5054
:101D0000110857E1140EE66E4FEC10F0E552E76E45
:101D10000C0EE7CFDBFFD950010FE3D8E552E552B7
:101D2000DF6A47D0CFD8000944E0A4D8090E06D90D
:101D3000220EEFCFDBFFDB0406E1FCD8096EE85092
:101D4000E66E010E34D0220EDB50020806E1F2D816
:101D5000066EE850E66E040E2AD0220EDB50020812
:101D600007E2070EFAD804E201D9050FFD0F1FD0D4
:101D7000220EDB50060807E20B0EEFD804E2F6D87D
:101D8000090FF90F14D0220EDB500A0807E2110EDA
:101D9000E4D804E2EBD80D0FF50F09D0220EDB508A
:101DA000110806E1C7D8076EE850E66E140EA6D8F3
:101DB000DF6ADF501A6E230EE15C02E2E16AE5524F
:101DC000E16E1A50B3D0A8D8FD0EDBCF1AF0FE0E8C
:101DD000DBCF1BF0080E1A5C000E1B582CE2010131
:101DE0009B0EE86FBED8080E0F0B02E09AD8FEE1FA
:101DF0001A500101E96FB5D81B6A0050EA6FFD0E59
:101E0000DBCFEBF1DBCFF6FFFE0EDBCFF7FFF60605
:101E1000000EF75AEE0EF6264C0EF7220800F5CF0C
:101E2000ECF1050EE76FE10EE66E010EE66E75EC65
:101E300014F0E552E5527AD06FD81CD8070E7ED840
:101E4000EFCF1CF01CC01DF01C6A14D8080E24D85B
:101E50001C241A6E000E1D201B6E00501A1808E17B
:101E600001501B1805E182820A0E046E010E01D09A
:101E7000000E5CD0FD0EDBCFE9FFFE0EDBCFEAFFEC
:101E8000EE5212005FD8030EE7CFDBFF0650200DA5
:101E9000040EF3CFDBFF120051D8EF501200FF0EFB
:101EA0001A16000E1B16090E1AC0DBFF00C01AF02E
:101EB00000011B6AFF0E1A16000E1B160A0E1AC02E
:101EC000DBFF1200FD0EDBCFE6FFFE0EDBCFE6FFF1
:101ED000B3DFE552E5521200DBCFF4FFF350F45CC0
:101EE0001200E66E000EDA20E66E75EF14F0F36E67
:101EF000080EF3CFDBFF35D80F0B1200E66E58EC5F
:101F000010F0E552E5521200F5CFDBFFF00EF66E51
:101F10004C0EF76E08001200D9CFE6FFE1CFD9FFD3
:101F20001200D8901B321A32E8061200E552E7CFB1
:101F3000D9FF12009FDF0A0E4CEF0FF0E926000ECA
:101F4000EA22120006500640E840E8401F0BE76E08
:101F50001200F36E210E6CEF0FF0F36E220E6CEF99
:101F60000FF000C01AF001C01BF01200E3DFE66EB4
:101F7000220EDB501200DACFE4FFE2CFDAFFE9CF26
:101F8000E4FFEACFE4FFF6CFE4FFF7CFE4FFF5CFBD
:101F9000E4FFF3CFE4FFF4CFE4FFFACFE4FF00EE79
:101FA00028F00B0EE80403E3EECFE4FFFBD700EECE
:101FB0001AF00E0EE80403E3EECFE4FFFBD7E6527F
:101FC000F2941150D66E050604E1280E056E70ECF1
:101FD00026F01606000E175A1650171005E10C0EC3
:101FE000166E176A61EC25F01406000E155A14508F
:101FF000151005E1C80E146E156A78EC25F012066E
:10200000000E135A1250131008E1D00E126E070E74
:10201000136EA5EC25F0FEEC14F0E55200EE27F06F
:102020000E0EE80403E3E5CFEDFFFBD700EE32F040
:102030000B0EE80403E3E5CFEDFFFBD7E5CFFAFF96
:10204000E5CFF4FFE5CFF3FFE5CFF5FFE5CFF7FFF1
:10205000E5CFF6FFE5CFEAFFE5CFE9FFE5CFDAFF11
:102060001100D8CFE4FFE0CFE4FFE46EDACFE4FF65
:10207000E652A4A003D00F014087A390A4AA05D0E4
:102080000F0140B9409730B93097A46AE552E5CFC7
:10209000DAFFE550E5CFE0FFE5CFD8FF1000DBD851
:1020A000FE0EDB50A96EA69EA69CA680A850D8D096
:1020B000D2D8F29EA69EA69CA684FE0EDB50A96EE8
:1020C000FD0EDB50A86E550EA76EAA0EA76EA68257
:1020D000A1A8FED7A198F28EC3D0BDD8030EE126E9
:1020E000FE0EDB50DF6EDF50DF2AE66ED8DFE552F2
:1020F000E66ED950010FE96EDACFEAFFE552E750FC
:10210000EE6EED6ADFCFE6FFCADFE5521C6E1D6E94
:102110001C6A010EDB501C101A6E020EDB501D10E3
:102120001B6E010E1AC0DBFF020E1BC0DBFF010E8F
:10213000DBCF1AF0020EDBCF1BF01AC0F3FF1BC07F
:10214000F4FF030EE15C02E2E16AE552E16E88D041
:1021500082D8E652FE0EDB50DF6EFC0EDBCFE6FFD0
:10216000DF50DF2AE66EA4DFE552E552FC0EDBCF3E
:102170001AF0FD0EDBCF1BF01BC01AF01B6A1A50C1
:10218000E66EDFCFE6FF94DFE552E552E55268D018
:1021900062D8020EE126DF6A0A0EDF5C11E2010E50
:1021A000DB6ADB501A6E1B6A1B3404E21A50F50816
:1021B000000E1B5403E3010EDB2AF3D7DF2AECD712
:1021C000020EE15C02E2E16AE552E16E49D043D8D9
:1021D000E652DF6A640EDF5C03E2DADFDF2AFAD759
:1021E000E5523ED038D8FD0EDB5021E1200E2CD830
:1021F00002E2000E28D0400E27D802E2010E23D0C2
:10220000600E22D802E2020E1ED0800E1DD818E306
:10221000A00E1AD80FE3C00E17D802E2050E13D095
:10222000E00E12D802E2060E0ED0070E0CD0FE0E03
:10223000DB0402E1040E07D0FE0EDB50020802E1CF
:10224000030E01D0000E0CD0F36EFE0EDBCFF4FFB8
:10225000F350F45C1200D9CFE6FFE1CFD9FF1200B2
:08226000E552E7CFD9FF12009F
:0822680070EC15F0050EE126F3
:10227000FFEC15F09EEC15F0EF50080B58E08FECDA
:1022800016F00F0BDF6ECAEC15F0010E07EC16F01E
:10229000580EEF6EFFEC15F00BEC16F0F0EC15F0AD
:1022A0007DEC16F0060ECADBF0EC15F080EC16F0B3
:1022B000070EC4DBF2EC15F07DEC16F0080EBEDB69
:1022C000F2EC15F080EC16F0090EB8DB6EEC16F0AF
:1022D000400B02E0520E01D04E0EE66E0A0E8FEC5D
:1022E00015F0DB6ADF509AEC15F01AE2FFEC15F0FE
:1022F000010EDB50060F87EC15F07DEC16F0A0EC1C
:1023000015F09CDB010EDB50060F87EC15F080EC1E
:1023100016F0A0EC15F0010F8FEC15F0DB2AE2D7D8
:10232000A0EC15F0AFEC15F0A0EC15F059D08FEC47
:1023300016F0800B02E0010E01D0000EE66EFFECFD
:1023400015F0B8EC15F0E76E020EE7CFDBFF090ED3
:10235000F36E040EF3CFDBFFCAEC15F08FEC16F032
:10236000800B02E0590E01D0530EE66E010E66DBC3
:102370000BEC16F06EEC16F0400B02E0520E01D0A2
:102380004E0EE66E060E5ADB56EC16F07DEC16F09D
:10239000070E54DB56EC16F080EC16F0080EC2DB8C
:1023A000DB6A020EDB50F36E030E5EEC16F015E2F4
:1023B000FFEC15F0030EDB50070FA9DB7DEC16F0E8
:1023C0007DDB3CDB030EDB50070FA1DB80EC16F05E
:1023D00075DB010FA7DBDB2AE4D770DBC0DB6EDB2C
:1023E000010F1A6E050EE15C02E2E16AE55263D369
:1023F00077DB080EE126DF6A010EF36E020EF3CFE3
:10240000DBFFFD0EDBCF2EF0FE0EDBCF2FF0030E39
:102410002EC0DBFF040E2FC0DBFF010EDB6AFC0EBB
:10242000DB5088DB2AE281DB0DE125DB530803E08A
:1024300022DB590807E11FDB59080EE1020EF36E9B
:10244000DB6E0AD072DB16E116DB580813E1030ECF
:10245000F36E020EF3CFDBFF010EDB501A6E1B6A28
:10246000D950030FE96EDACFEAFF1A50EE261B505F
:10247000ED2203D0010EDB2AD2D7FC0EDB50F36E27
:10248000010EDB50F35C05E10301010E496F000E04
:102490008CD0020EDB50030835E175EC16F0CCDB76
:1024A00065DBDCDB050E4DEC16F0040EC5DB46DB10
:1024B000D5DB070EF2DB060EBFDB92DBCFDB090EAE
:1024C000ECDB080EB9DB8EDBC9DB010EDB6A080E24
:1024D00031DB10E235DB71EC16F03B080BE030DB52
:1024E000010FAFDAEFCF1CF02BDBC7DB060F83EC5D
:1024F00016F0EDD7E8DB010EDBCFEFFF0A0E33DB82
:1025000052E14FD0F2DB92EC16F0E76E050EE7CF0A
:10251000DBFFC3DB040E92EC16F0E76E060EE7CF8E
:10252000DBFF050EDB500F0B080D060EDB50E00B3A
:10253000E838E840F324E76E070EE7CFDBFFDB5017
:10254000065C91DA13DB050EDBCFEFFF8CDAF6DAEF
:10255000060EDBCFEFFF080EA0DB070E6DDBA6DB60
:102560007DDBE66A80DA04DBDF6E010EDB6ADF50BA
:10257000E1DA10E2010EDB50E824090F010F61DA05
:10258000EFCF1CF0010EDB50E824090F76DB070FBC
:10259000BADBEDD7DF28E66E96DB60DB060EE3DA0A
:1025A00002E191DBEF8C020EDB501A6E080EE15C4B
:1025B00002E2E16AE5527FD293DAE652DF6A040E64
:1025C000DF5C10E2AE0EE66E150EE66E63EC00F018
:1025D000E552E552E66ED4DA41DBD2DAEE52EF6A2A
:1025E000DF2AEDD7DF6A0F0EDF5C04E24FDAEF6A15
:1025F000DF2AF9D7E5526AD373DA020EE126010E1B
:10260000DB68DF6A0F0EDF5C13E240DAEF5002088E
:1026100003E13CDAEF6A0AD0010EDB50FF0806E165
:1026200035DAEF0403E1010EDFCFDBFFDF2AEAD763
:10263000010EDB50FF0818E003014A510CE0010EC7
:10264000DBCF1AF01B6A1ABE1B684FDAF0D8E552CE
:10265000E552000909E0010EDBCFE9FFEA6AE9BEB5
:10266000EA68EEDA020EEF6E020EE15C02E2E16A67
:10267000E5529DD235DA120EE126010EDB68020E1C
:10268000DB6A30D8E76E020EE7CFDBFFDB500301D9
:102690004A5D21E0010EF36E0A0EF3CFDBFF0B0E55
:1026A000DB6A020EDB50E76E0C0EE7CFDBFF0D0E90
:1026B0000DC0DBFF0E0E0EC0DBFF850EF36E090EA4
:1026C000F3CFDBFFD950030F40DA0FD9E552E552C3
:1026D000020EDBCF4AF390DF120EE15C02E2E16A08
:1026E000E55265D2FDD9570EE126010EDB6ADF6A9D
:1026F000040EDF5C01E392D0D4D9350E1AC0DBFFA3
:10270000360E1BC0DBFFCDDA54DA02E1E3DA84D007
:10271000010EDB2AC6DAE8EC01F0E55200095AE0C6
:10272000370EDB6AD7DA320EF36E370EC7DA1BE2EA
:10273000D950020F1C6EDACF1DF0370EDBCFF3FF3E
:10274000DB2AF35000011C241A6E000EDA201B6EE7
:102750001AC0E6FFE66EA5DAB1EC01F0E552E552EB
:10276000E5520009E0E1D950020F1A6EDACF1BF0F2
:10277000370EDB500F011A24E96E000EDA20EA6EE4
:10278000EF6A8FDA82EC01F0E552D950390FDDD9CA
:10279000370EDBCFE6FFD950020FD7D929DE1A6EEC
:1027A000050EE15E1A50E76E380EE7CFDBFFDB5017
:1027B000000832E2380EDBCFE6FFD950390FC5D919
:1027C00052EC0DF0E552E552E552000925E0D950F2
:1027D000390F1DD054D9EECF1AF0EFCF1BF00750B0
:1027E0000001D8801B5418E25CDAB1EC00F0E5522D
:1027F00071DA09A211D0080EF36E4F0EF3CFDBFF92
:10280000010EF36E4E0EF3CFDBFFD950480F9DD96A
:10281000ECEC0BF0E552E552DF2A6AD7010EDB50F3
:102820001A6E570EE15C02E2E16AE55244D158D9D2
:10283000270EE126DF6A040EDF5C14E232D9230E94
:102840001AC0DBFF240E1BC0DBFFA8D9B2D908E0F9
:10285000A5D918EC01F0E552000902E1000E3ED0C6
:10286000DF2AE9D7D950010F70D9ACD9FDDCE55288
:10287000E552E552E552E76E210EE7CFDBFFDF6A56
:10288000040EDF5C2AE20DD9250E1AC0DBFF260EEE
:102890001BC0DBFF1CD98DD91EE0220EDB6A17D9C5
:1028A00018EC01F0E552000913E0210EDBCFE6FF42
:1028B000E66AD950010F49D90AD952EC01F01A6ED3
:1028C000050EE15E1A5003D9DDEC00F0E55203D0AD
:1028D0008282280E046EDF2AD3D7010E1A6E270ECD
:1028E000E15C02E2E16AE552E6D0E2D9DE6ADD6A45
:1028F00031D9D8901B5004E60F0E1A5C000E1B58FD
:1029000021E2ABD8EF5019E10F0EE66EE66A5AD914
:1029100021D9EBD8A7D90E501C6E1D6A1D501B186B
:10292000E8AE02D01B3404D01A501C5C1B501D585A
:1029300002E2DF500E6E010E09D0DF2A010ED8E34D
:10294000DB2AD6D78282280E046E000E1A6E020E83
:10295000E15C02E2E16AE552AED0AAD9F0C1E9FF3A
:10296000F1C1EAFFEF6ADE6ADD6AF4D8D8901B5045
:1029700004E60F0E1A5C000E1B5835E26ED8EF50BD
:102980002DE10E0EE66EE66AF0C1E6FFF1C1E6FF4C
:1029900064D8EE52E9CF1AF0EACF1BF0E9CFE6FF98
:1029A000EACFE6FF5FD91A240F6ED4D8010E1A269B
:1029B000000E1B220E501C6E1D6A1D501B18E8AE27
:1029C00002D01B3404D01A501C5C1B501D5804E26A
:1029D000C1D8010E1A240E6E010E09D0DF2A010E95
:1029E000C4E3DB2AC2D78282280E046E000E1A6E60
:1029F000020EE15C02E2E16AE5525DD071D8030E9D
:102A0000E12609A015D0DF6A040EDF5C11E249D887
:102A1000010E1AC0DBFF020E1BC0DBFFDAD8EF503D
:102A2000E66EC7D803E0D5D8EE52EF2ADF2AECD7FE
:102A3000030EE15C02E2E16AE552B9D076D9FFEF1C
:102A400015F04FD946EF16F00F0BEA6A4B0FE96EFF
:102A5000030EEA22EF50E66E1200DECFE9FFDDCF73
:102A6000EAFF20EF16F0FA0EDBCFE9FFFB0EDBCF1B
:102A7000EAFFEE521200010EDB2871EF16F0350E60
:102A8000DBCFE9FF360EDBCFEAFF1200DF500F0D80
:102A9000F3CFE9FFF4CFEAFF000EE926020EEA22A7
:102AA00012001B6ADF34FE0B1B361A6EE10E1A266B
:102AB000020E1B221200E16E1A5008D1040EDBCF69
:102AC000E6FF030EDB50E824E552E7241200250E52
:102AD000DBCFE9FF260EDBCFEAFFEF50E66E1200F8
:102AE000D9CFE6FFE1CFD9FF12000F0E1B02F3CFC3
:102AF0001BF01A02F3CF1AF0F4501B26000E1A2610
:102B0000020E1B221AC0E6FF1BC0E6FF1200E924DA
:102B1000E96E000EEA20EA6E1200050EC6D005D955
:102B2000010E120002D9030E1200010EDB50D9D89B
:102B30003A081200F36E010E5EEF16F0020EB5D0E9
:102B4000010EDB50E8240B0F1200E66E000EDA20B7
:102B5000E66E1200DECF1AF0DDCF1BF0120057D860
:102B60003B0EEF6E1200BDD852081200010E9DD030
:102B70009DD8EF50E66EF2EC10F0E552E5521200EF
:102B8000EA6ADF34FE0BEA36E96EE10EE926020E50
:102B9000EA221200BDD83A0EEF6E1200230EDBCFF0
:102BA000E9FF240EDBCFEAFFEF50E66E1200E16E84
:102BB0008DD0A5EC00F0E55200091200EF38F00BC3
:102BC0001A241200FD0EDBCFE6FFFE0EDBCFE6FF80
:102BD0001200010EDBCFE9FF020EDBCFEAFF12008D
:102BE000030E63D0040E61D0DBCFE9FF040EDBCF10
:102BF000EAFFE750E926000EEA22EF501200FD0E30
:102C0000DBCFE9FFFE0EDBCFEAFFEE521200E76EEC
:102C10007FD8E7508DD0AADF70D8020E0FDFA6DF75
:102C20006FD8030E0BDF8ADF68D8040E07DF86DF5C
:102C300067D8050E1EEF15F075D8E66E33EF15F068
:102C40000F0EEA02F3CFEAFFE902F3CFE9FFF450F7
:102C5000EA26000EE926020EEA221200E552E750AB
:102C6000EF6E120041EC24F01C6E060EE15E1C506B
:102C7000F4DE010EEF6EAAEF15F0E3DEEF38F00B95
:102C80001C24E66EF0DE010EDB501200D00FEA6A63
:102C90005B0FE96E030EEA221200D3DEEFCF1AF0CB
:102CA0001200EDDEEF50E66E120042D0060E40D06C
:102CB00017DF020EE126DE6ADD6A1200DBCFF4FFC9
:102CC000F350F45C1200CFDE8DEF15F0E552E7CF44
:102CD000D9FF1200D4DEEE52EF6A12001EDFEF5071
:102CE0001200E76E030EF4EF15F0030EE76E7CDFC3
:102CF000CDDFEFCF1AF0020E1200EF3824EF15F0FF
:102D0000EF5024EF15F003DFA9DF010EDB2A1200DC
:102D1000FB0EDBCFE9FFFC0EDBCFEAFF12006FDF1B
:102D20006EEF16F08EDEDEEF15F071DF2EEF16F08F
:082D3000E926000EEA22120060
:082D3800BDEC1AF0E652899887
:102D400092981CEC1BF089881CEC1BF0898A929AE3
:102D500094969488949A200EC66E9E96C78CC79EB1
:102D60001D0EE9EC1BF0080EDF14FAE1DF1C010B6D
:102D7000F7E10ADB1CEC1BF00201EF6B010EF46FB4
:102D8000F06BF16BE66A080EB1EC1AF0E66A090E18
:102D9000B1EC1AF0F70EE66E0C0EB8EC1BF00D0E4F
:102DA000B1EC1AF0F70EE66E0A0EB8EC1BF00B0E43
:102DB000D8DBF80EE66E040EB8EC1BF0050ED1DB86
:102DC000E66A020EE2EC1BF00D0EE66EFFEC1AF066
:102DD000320EE66EECEC1BF0120EE66E060EC1DB58
:102DE0000C0EE66E070EBDDBEE0EE66E0A0EB9DBCC
:102DF000050EE66E0B0EB5DB040E86EC1BF076C3FB
:102E0000E6FF040EAEDB77C3E6FF050EAADB78C350
:102E1000E6FFECEC1BF079C3E6FF030EA2DB7AC3FE
:102E2000E6FFFFEC1AF07BC3E6FF010E9ADBE66AD1
:102E3000010EE66E100EE66E22EC1BF0720EE66ED0
:102E4000040EE66E140EE66E22EC1BF0E66A1BDB47
:102E5000E552040EA6DBE5528CD3010EE66EB7DA1E
:102E6000E552F350040B01E0010E12001F0EC2ECFC
:102E70001BF0E850080B080A01E0010E1200D9CF40
:102E8000E6FF77D3D9CFE6FF74D3D0EC1BF0020175
:102E9000F45122E1010EF46FF0C21AF0F1C21BF0FE
:102EA0001A06000E1B5A1AC0DEFF1BC0DDFFE5EC40
:102EB0001BF0CDDB02E393DB04E2F70EDE6E1B0EAC
:102EC000DD6E400ECCDBA8EC1BF0DFCFE6FF0C0E76
:102ED000EFEC1BF00D0E45DB020EE15C02E2E16A55
:102EE000E552E16E46D349DB040EE1269DEC1BF072
:102EF000190EE9EC1BF0A8EC1BF00E0E37DB020EEE
:102F00001AC0DBFF0F0E32DB030E1AC0DBFF9DEC95
:102F10001BF0190E2BDBDF5000011A5CE9E1A8EC75
:102F20001BF00C0EE9EC1BF00D0EDFEC1BF09FDB31
:102F3000DECF1CF0DDCF1DF01A501C5C1B501D585D
:102F400021E2F70E1E6E1B0E1F6E206A216A020E12
:102F5000DBCF26F0030EDBCF27F0DE50265C226E9F
:102F6000DD502758236E246A256A22501E5C1A6E93
:102F700023501F581B6E245020581C6E255021587A
:102F80001D6E1CD074DBDF501A1809E1DE52DD50D3
:102F90001B1805E1F70EF36E1B0EF46E11D0DECF99
:102FA0001CF0DDCF1DF0020EDB501C5C1A6E030E10
:102FB000DB501D581B6E1A06000E1B5AC6EC1BF088
:102FC000040EE15C02E2E16AE552E16ED2D2D5DAAA
:102FD000140EE126B2DB190EB8DBE85002E1000E58
:102FE0005CD00201F45101E150DFF0C2F2F2F1C213
:102FF000F3F2B1DBF0C2E6FF02DBF1C2E6FF010E45
:10300000B0DA140EE66EE66AD9CFE6FFDACFE6FF55
:103010005AD9E552E552E552E552120EDBCFE6FFF2
:10302000130EDBCFE6FF3DEC1CF0E552E552120E2D
:10303000F3CFDBFF130EF4CFDBFFDECFF0F2DDCFFB
:10304000F1F2060EE66EE66AD9500C0FE66E000E3F
:10305000DA20E66EE2DAE9CF1AF0EACF1BF0E9CF28
:10306000E6FFEACFE6FF41EC24F01C6E060EE15EBF
:103070001C5004DBEF68130EDB5008080BE1120E46
:10308000DB5004E0120EDB50060804E1F7DA120E02
:10309000DBCFEFFF0201F46B010E1A6E140EE15C40
:1030A00002E2E16AE552E16E1A5063D266DA020E7C
:1030B00082DBF80EE66E020E5BDB030E52DAD950AD
:1030C000FA0FB2DA060EEE261C0EED22FA0EDBCF58
:1030D000E6FF060E46DAFB0EDBCFE6FF070E41DA0F
:1030E000E66AA7DA060EE66EE66AFD0EDBCFE6FFBD
:1030F000DFDA2AD9E552E552E552E55276C3E6FF1A
:1031000098DA77C3E6FF95DA78C3E6FF92DA79C3F7
:10311000E6FF8FDA7AC3E6FF8CDA7BC3E6FF89DA53
:10312000080EE66E86DAFC0EDB5002E1000E01D0DE
:10313000060EE66E7EDA1DD21C0E07DB1AA208D040
:10314000800E2FDA800E47DA020EE66E1C0E06DBCA
:10315000080ED1EF1AF0BDDA01E237DAFCDADFCF80
:10316000E6FF4DDA56DAFDD9DFCFE6FF35DB51DA7F
:10317000030EF7D9020EE15C02E2E16AE552E16E6C
:10318000F8D1FBD9FE0EDBCFEFF2E150FC0F4CDAA9
:10319000070EEE261C0EED22020E0DDBFC0EDBCF21
:1031A000E6FF2DDAFD0EDBCFE6FF010EDAD9FC0ECD
:1031B000DBCFE6FF11DBFD0EDBCFE6FF030ED1D93F
:1031C000D8D187DA01E201DA98DAE0D901E2FDD953
:1031D00077DA1F0EBADA1ABAFCD7A1DA02E2E16A8C
:1031E000E552E16EC6D1DCDAFD0EDBCF1AF0FE0E41
:1031F000DBCF1BF01C6A1D6A060E1A261C0E1B2252
:10320000000E1C221D221A2A1B221C221D221AC05B
:10321000DEFF1BC0DDFF71DA53DA1F0E96DA1ABA31
:10322000FCD77DDA02E2E16AE552E16EA2D1B8DABA
:10323000D950FD0FF9D9EE50ED1003E1F368F468B1
:103240002ED0D950FD0FF0D9010EEE1808E1ED5047
:1032500006E12CD81B6E1A6A1A1E1B1E1FD07BDAC1
:10326000E66A99D8E5521A6EDF6E010EA8DA9CDA8A
:10327000ACDA000EECD907E3B2D905E37DDA86D9E2
:1032800003E2A3D901D078DA1BDA1F0E5EDA1ABA8C
:10329000FCD7160E9EDA170E92DA3CDA77DA020EB7
:1032A000E15C02E2E16AE552E16E63D1899A3A0E8D
:1032B000C96E9EA6FED79E96C96A9EA6FED79E960A
:1032C000898AC95012006CDA899A3A0EC96EDE6A90
:1032D000DD6AFD0EDB06FE0E01E2DB069EA6FED7D2
:1032E0009E9618DAFB0EDBCF1CF0FC0EDBCF1DF038
:1032F0001C501A5C1D501B5811E2C96ADF2A010ECE
:1033000001E3DB2AFD0EDB2AFE0E01E3DB2A9EA68B
:10331000FED79E9682D9C9CFEFFFE3D7898A50D9CD
:1033200002E2E16AE552E16E24D127D9899A7A0E48
:10333000C96E9EA6FED79E96FE0EDB50C96E9EA657
:10334000FED79E96898A15D118D9899A7A0EC96EA8
:103350009EA6FED79E96D950FB0F66D9EE50ED1073
:1033600011E05BD9EF50C96EFD0EDB2AFE0E01E3C2
:10337000DB2AFB0EDB06FC0E01E2DB069EA6FED777
:103380009E96E9D7898AF5D0899AC9689EA6FED704
:103390009E96898A1200D6D9C96E9EA6FED79E96A1
:1033A000C96A9EA6FED79E96898AC950E2D0CAD91C
:1033B000C96E9EA6FED79E96C96A9EA6FED79E9609
:1033C000C96A9EA6FED79E96898AC950D2D0E8D9EE
:1033D000ACD9010EE66E120EC4D80A0E97D90A0EA9
:1033E00013D900011AB0FBD7140EE66E020EEAD90B
:1033F000E66A120EB6D8180E07D9DF6E190E04D978
:1034000032D9DED802E2E16AE552E16EB2D09AD951
:103410004009C96E9EA6FED746D99EA6FED79E96A7
:10342000898AA7D08FD9A009C96E9EA6FED73BD99D
:103430009EA6FED79E96898A9CD084D98009C96EA3
:103440009EA6FED730D99EA6FED79E96898A91D099
:1034500094D86BD9FC0EDBCFE6FF160E82D8FD0E9A
:10346000DBCFE6FF170E7DD80A0E50D90A0ECCD856
:1034700000011AB0FBD77DD080D8030EACD818D984
:103480001F0E71D976D079D8030EE1260C0EA3D881
:10349000E66A9DDFE552DE52F3CFDEFFF4CFDDFFBB
:1034A000DD52FE0EDB50020808E1EFD8EF50010BB1
:1034B000E76EFE0EE7CFDBFF0CD0FE0EDB501A6E80
:1034C000E4D81A50E9D8A5D8020EDBCFE6FFE66AA9
:1034D000B9D8020EE66E76D9020EE66E68DFE552C6
:1034E000DF6EFE0EDB501A6E56D9E850D5D8DFCF0E
:1034F000E6FF72D9FE0EDB5002E0150E01D0120E6F
:10350000E66E040E2ED8040E4CD8030EE15C02E2E7
:10351000E16AE552E16E2DD0040E5DD81D0E15D97D
:103520001AB4FCD71F0E11D91AB6FCD7200E2FEFF4
:103530001BF0200EE66E1E0E11D91D0E06D91AA024
:10354000FCD7040ED1EF1AF018D8150EDFD8B0D87A
:10355000150E07D80ED0150ED9D8150E13D9E85070
:103560001200E66E54DFE552E55212000BD91A6ED6
:103570001200E552E7CFD9FF1200D9CFE6FFE1CF25
:10358000D9FF120079DFE552E55212001ED9D8802A
:10359000F70E1A541B0E1B54000E1C54000E1D5423
:1035A0001200E66E1F0EB3EF1BF0DBCF1BF01A0606
:1035B000000E1B5AF0D81A50EE261B50ED221200B6
:1035C000A9D8E4D8020EE15C1200E5D8F80EEE5E50
:1035D0001B0EED5A1200E66E1F0EAEEF1BF0DECF93
:1035E0001EF0DDCF1FF0206A216AD880F70E1E542E
:1035F0001B0E1F54000E2054000E21541200E66AC8
:1036000006DFE552E5521200E66ED1DEE5521A6E93
:103610001200010EDBCFE6FF1200FD0EDBCFE9FF4B
:10362000FE0EDBCFEAFF1200E96EFF0EDA20EA6E33
:1036300012007BDEE55212000A0EE66E87EC26F0E1
:10364000E552120005DFE552E552E55212001A5C20
:10365000000E1B58000E1C58000E1D581200E66E7E
:103660001E0EB3EF1BF0010E1AC0DBFF1200020E9C
:10367000DBCF1AF0030EDBCF1BF01200FB0EDBCF0B
:10368000E9FFFC0EDBCFEAFF1200D950010FE96E13
:10369000DACFEAFFEE521200010BF36EFE0EEF14CA
:1036A000F310EF6E12009E96FD0EDB50C96E1200F5
:1036B000FE0EDBCFE6FF1200899AFE0EDB501200F1
:1036C000DFCFE6FF120E8BD8130E4BDF300ED1EF9B
:1036D0001AF066D8140E02011D6AF2251C6EF35111
:1036E0001D22FD0EDB501C241A6EFE0EDB501D2029
:1036F0001AC0DEFFDD6EC6EF1AF0100E5CD854D88B
:10370000FB0EDBCF1AF0FC0ED5EF1AF0E66E030EBF
:10371000E2EF1BF0DECF1AF0DDCF1BF01200160E29
:103720004ED8170E56D8E0EF1AF0140EE66E020EC1
:1037300049D8BEDF140EB1EF1AF0190EE66E010E75
:10374000E2EF1BF01ADF5CEF1BF010DF000112004C
:103750000C0EDBEF1BF0000EDBEF1BF0E66E62DE03
:10376000E552E5521200E66E68DEE552E5521200BF
:10377000F8DE1B0EE66E1200FD0EDBCF1AF0FE0E19
:10378000D5EF1AF0E66E07DEE55212001AC0F3FF1D
:103790001BC0F4FF1200D9CFE9FFDACFEAFF120015
:1037A000ECDE020EE1261200DFCFE6FF100E17D886
:1037B000110EB1EF1AF0E66EE66AC2EF1AF0D6DE2D
:1037C00033EF1BF0E66EC2EF1AF0A4DF1C6A1D6A2D
:1037D0001200CCDEDF6E1200020EB1EF1AF0C1DE75
:0437E00009EF1BF0E2
:0C37E4007DD9FE0EDB50460802E2200EEC
:1037F00080D9FD0EDB50460802E2200E84D9FE0E71
:10380000DB50390802E2370E01D0300E72D9FD0EBE
:10381000DB50390802E2370E01D0300E74D9DBCF0D
:10382000E6FFFE0EDB38F00BE552E7105ED158D90B
:10383000FE0EDB380F0BF36EFE0EF3CFDBFFDB501B
:10384000090805E2FE0EDB50410FF60F03D0FE0E15
:10385000DB50300F4AD144D9FE0EDB98DB9ADB9C5B
:10386000DB9EDB50090805E2FE0EDB50410FF60F30
:1038700003D0FE0EDB50300F38D132D9030EE126D3
:10388000FD0EDBCFDEFFDBCFDDFF010EDB50E76E91
:10389000020EE7CFDBFF010EDFCFDBFF020EDB50B6
:1038A000DF6EDECF1AF0DDCF1BF01AC0F3FF1BC0B6
:1038B000F4FF030EE15C02E2E16AE552E16E15D12C
:1038C0000FD9070EE126D950FB0FE96EFF0EDA2063
:1038D000EA6E010EEECFDBFF020EEECFDBFF030E32
:1038E000EECFDBFF040EEECFDBFFD950010F1A6ED7
:1038F000050E1AC0DBFF060EDACFDBFFDAD8030EA7
:1039000016D9EF50E66ED5D8030E0BD9DFCFEFFFF7
:10391000D0D8020E0CD9010E00D9EF50E66EC9D8EE
:10392000020EFFD8010EF9D8DFCFEFFF010EDBCF7B
:103930001AF0020EDBCF1BF0030EDBCF1CF0040EDF
:10394000DBCF1DF01AC02CF01BC02DF01CC02EF0D8
:103950001DC02FF0070EE15C02E2E16AE552E16E64
:10396000C4D0BED80C0EE126080EDB6A090EDB6A55
:103970000A0EDB6A0B0EDB6AFB0EDBCF1AF0FC0EC5
:10398000DBCF1BF0D8901B321A321AC0DEFF1BC0EF
:10399000DDFFFD0EDBCF2EF0FE0EDBCF2FF0020E93
:1039A0002EC0DBFF030E2FC0DBFFDFCF1AF0DF06D8
:1039B000010EDBCF1BF001E2DB061A501B1017E0F3
:1039C000D950020FE96EDACFEAFFEECFF3FFEDCF69
:1039D000F4FF020EEE26000EEF22F3CFE9FFF4CF44
:1039E000EAFFEECF1AF0EFCF1BF06AD8DED7FB0E5E
:1039F000DB50010B0AE0020EDBCFE9FF030EDBCF49
:103A0000EAFFEFCF1AF01B6A5BD8D950080FE96EB6
:103A1000DACFEAFF040EEECFDBFF050EEECFDBFFC1
:103A2000060EEECFDBFF070EEECFDBFFD950060F01
:103A3000E96EDACFEAFFEECFDEFFEDCFDDFFEE502D
:103A4000ED1027E00A0EDB6A0B0EDB6A080EDBCFF7
:103A50001AF0090EDBCF1BF01C6A1D6ADECF1EF0C8
:103A6000DDCF1FF0206A216A1E501A261F501B222C
:103A700020501C2221501D22080E1AC0DBFF090E07
:103A80001BC0DBFF0A0E1CC0DBFF0B0E1DC0DBFFE3
:103A9000BCD7080EDB1C1A6E090EDB1C1B6E1AC08D
:103AA000F3FFF46E0C0EE15C02E2E16AE552E16EB6
:103AB0001CD0050EDBCFE9FF060EDBCFEAFF1200BC
:103AC0001C6A1D6AD950080FE96EDACFEAFF1A5056
:103AD000EE261B50EE221C50EE221D50EE2212004C
:103AE000D9CFE6FFE1CFD9FF1200E552E7CFD9FFEA
:103AF00012001A6EFE0EDBCFE7FF1A50E75EFE0ED5
:103B0000E7CFDBFF12001A6EFD0EDBCFE7FF1A5086
:103B1000E75EFD0EE7CFDBFF1200E926000EEA228A
:103B20001200FBDFE552E750EF6E59EF1DF0F5DFB5
:083B3000EFCFDFFF59EF1DF09C
:083B380076D9160EE126140EE9
:103B4000E66EE66A79D963EC19F05FD9020EDB50B4
:103B5000F00B400823E1020EDB500F0B040DF3CFF6
:103B6000FFF00001F350E66EE66A000EE66EE66ACC
:103B7000E1EC18F04AD9F3CFDEFFF4CFDDFF00010E
:103B8000FF51E66EE66AABEC18F0E552E552D9CF8C
:103B9000E9FFDACFEAFFEE50ED1002E0000E4FD061
:103BA0004BD905D9E552E552D950FD0FE96EFF0E0C
:103BB000DA20EA6EEE50ED100DE04CD9120EDBCF9C
:103BC000EEFF130EDBCFEEFF140EDBCFEEFF150E74
:103BD000DBCFEEFFFB0EDBCFE9FFFC0E34D90E0E80
:103BE000DBCFEEFF0F0EDBCFEEFF100EDBCFEEFFD5
:103BF000110EDBCFEEFFF90EDBCFE9FFFA0EDBCFC4
:103C0000EAFF0B0EDBCFEFFF0001FF511C6E1D6AB8
:103C1000040EDBCF2EF0050EDBCF2FF01C502E5CF8
:103C20001A6E1D502F581B6EF70EDBCFE9FFF80EF2
:103C3000DBCFEAFF1AC0EEFF1BC0EDFF010E1A6ECC
:103C4000160EE15C02E2E16AE552E16E1A50F0D034
:103C5000EAD8140EE1260001FF6F450EDF6E010E5B
:103C6000DB6AC8D8020E1AC0DBFF030E1BC0DBFFE5
:103C70000201F52B000EF623040EF5C2DBFF050E44
:103C8000F6C2DBFF060EDB6A070EDB6A640EF36E1C
:103C9000080EF3CFDBFFFC0EDB50E76E090EE7CF1B
:103CA000DBFF0A0EDB6A0B0EDB6A0C0E72C3DBFF56
:103CB0000D0E73C3DBFF0E0E74C3DBFF0F0E75C357
:103CC000DBFFFD0EDBCFE9FFFE0EBDD8100EEECF01
:103CD000DBFF110EEECFDBFF120EEECFDBFF130E7C
:103CE000EECFDBFFD9CFE6FFDACFE6FF60D8E552B3
:103CF000E55280D81AC0E6FF1BC0E6FFE66AAAD8E4
:103D0000E9CF1CF0EACF1DF0E9CFE6FFEACFE6FFEE
:103D100056EC18F01E6E050EE15E1E50140EE66E97
:103D2000E66AD9CFE6FFDACFE6FFA4EC19F06DD84A
:103D3000140EE66EE66A000EE66EE66AF3EC18F024
:103D400064D80A0EF3CFDBFF0B0EF4CFDBFF0A0EB5
:103D500061D8020EE66EE66AD9500A0FE66E000ED2
:103D6000DA20E66EA4EC19F050D8140E53D8F36A9A
:103D7000F46A140EE15C02E2E16AE552E16E58D0A9
:103D800052D80001FF51E76EFD0EDBCF1AF0FE0E98
:103D9000DBCF1BF0E7501A26000E1B221AC0E6FFED
:103DA0001BC0E6FFABEC18F0E552E55241D03BD822
:103DB00051D8020E0BD8020E1AD8040E07D8040EE2
:103DC00016D80A0E03D80A0E4CD832D0E926000EB7
:103DD000EA22EECFE6FFEFCFE6FF3DEC1CF0E55226
:103DE000E552F3CF1AF0F4CF1BF02AEF1FF039D8C9
:103DF0002AEF1FF0FA0EDBCF1AF0FB0EDBCF1BF021
:103E0000140E1A26000E1B221200E552E552E5524E
:103E1000E5521200E66EE66AE66AC1EC18F0E55279
:103E2000E552E5521200D9CFE6FFE1CFD9FF1200EB
:103E3000E552E7CFD9FF1200D950020FE66E000E0F
:103E4000DA20E66E1200DBCFEAFF060EE926000E4E
:103E5000EA221200FD0EDBCFE9FFFE0EDBCFEAFF08
:103E60001200E926000EEA22F3CFEEFF1BC0EDFFA1
:023E700012003E
:0E3E720052D958D963EC19F0E552E552E552E9
:103E8000E55245EC17F040D9D9CFE9FFDACFEAFF88
:103E9000010EEE1832E1ED5030E1040EDB501A6EE7
:103EA0001B6A060E1A1829E11B5027E1050EDB508C
:103EB0001C6E1D6A040E1C1820E11D501EE1D95015
:103EC000060FE96EDACFEAFF020EEE1805E1ED50BB
:103ED00003E113D9EF6A13D0D950060FE96EDACF98
:103EE000EAFF010EEE1806E1ED5004E106D9010EDD
:103EF000EF6E05D002D9020EEF6E000E34D0180E10
:103F0000DB500301725D2EE1190EDB50735D2AE177
:103F10001A0EDB50745D26E11B0EDB50755D22E14D
:103F20002DD9080EDBCFEEFF090EDBCFEEFF0A0E18
:103F3000DBCFEEFF0B0EDBCFEEFF0C0EDBCFEEFF89
:103F40000D0EDBCFEEFFCDD80E0EDBCFEEFF0F0E4A
:103F5000DBCFEEFF100EDBCFEEFF110EDBCFEEFF5F
:103F6000010E01D0000E1A6E1C0EE15C02E2E16A45
:103F7000E552E16E1A50ECD0CFD8010EDE6EDD6A4C
:103F8000020EDB6A080EF36E030EF3CFDBFF060EA4
:103F9000F36E040EF3CFDBFFF36E050EF3CFDBFF02
:103FA000FC0EDB040FE1010EC5D8120EDB68130E08
:103FB000DB68140EDB68150EDB68160EDB68170E67
:103FC000DB6809D0020EB6D8D9D8120ED926B9D8D6
:103FD000B8D8180ED95E080E76C3DBFF090E77C37A
:103FE000DBFF0A0E78C3DBFF0B0E79C3DBFF0C0E81
:103FF0007AC3DBFF0D0E7BC3DBFF0E0E72C3DBFF4C
:104000000F0E73C3DBFF100E74C3DBFF110E75C3FD
:10401000DBFF0E0EC1D8EF50E552E71803017C1507
:1040200012E10F0EB9D8010EB0D87D150CE1100EBB
:10403000B3D8020EAAD87E1506E1110EADD8030E34
:10404000A4D87F150DE0180E80C3DBFF190E81C3C5
:10405000DBFF1A0E82C3DBFF1B0E83C3DBFF0DD019
:1040600040D8180EEECFDBFF190EEECFDBFF1A0E95
:10407000EECFDBFF1B0EEECFDBFF46D81C0EE66E4D
:10408000E66A060EE66ED950120FE66E000EDA20D2
:10409000E66E56EC18F01A6E050EE15E1A501C0E14
:1040A00042D8A4EC19F0E552E552E552E5529CECF9
:1040B00018F01C0EE15C02E2E16AE552E16E48D0C4
:1040C000D9CFE6FFE1CFD9FF59D84BD857D844D83C
:1040D0000ED847D80CD840D804D843D802D83CD8FA
:1040E00037D04CD8060EE926000EEA22120046D838
:1040F000020EE926000EEA221200FB0EDBCFE9FFDA
:10410000FC0EDBCFEAFF1200D9CFE6FFDACFE6FFE5
:10411000D7DFE552E5521200D9CFE6FFE1CFD9FF54
:104120001C0EE1261200E66EE66AD9CFE6FFDACF72
:10413000E6FF1200F36E060EF3CFDBFF070EDB6A1D
:104140001200EECFDEFFEECFDEFFEECFDEFF12007D
:10415000E552E7CFD9FF1200F3CFEEFF1BC0EDFF12
:104160001200EECFE6FFEFCFE6FF3DEC1CF0E5528C
:10417000E552F3CF1AF0F4CF1BF01200FD0EDBCFA7
:10418000E9FFFE0EDBCFEAFF1200E926000EEA226D
:10419000EF50E552E7181200DBCFE6FF71EF20F099
:1041A0002DD9440EE126080EE66EE66A3FD963EC8F
:1041B00019F004D9420EDB6A430EDB6A04D9EF50D2
:1041C000E66EE66A140EE66EE66AE1EC18F0F6D8E2
:1041D000400EF3CFDBFF410EF4CFDBFF080E1A6E6B
:1041E000F2D81A50EF5EEFD8EF50E66EE66AFB0E9B
:1041F000DBCFE6FFFC0EDBCFE6FF63EC19F0DED889
:10420000E9D805D9DFCFEFFFF70EDBCFE9FFF80ED6
:10421000DBCFEAFF040EDBCFEEFF050EDBCFEDFFB9
:10422000F50EDBCFE9FFF60EDBCFEAFF060EDBCFA4
:10423000EEFF070EDBCFEDFF400EDBCF1AF0410E95
:10424000DBCF1BF0420EDB501A1803E1430EDB50AC
:104250001B1802E0000E01D0010E1A6E440EE15C44
:1042600002E2E16AE552E16E1A50CDD0C7D8420EA3
:10427000E126B5D8400E1AC0DBFF410E1BC0DBFFA4
:10428000010EDB6AFC0EDB50DF6E020EDB6A030EF2
:10429000DB6AF70EDBCF2EF0F80EDBCF2FF0040E2B
:1042A0002EC0DBFF050E2FC0DBFFF50EDBCF2EF09F
:1042B000F60EDBCF2FF0060E2EC0DBFF070E2FC051
:1042C000DBFFF90EDBCFE6FFE66AFA0EDBCFE6FF97
:1042D000FB0EDBCFE6FFD950080FE66E000EDA20AA
:1042E000E66E41EC24F01A6E060EE15E1A5072D8AA
:1042F00076D81AC0E6FF1BC0E6FF010EE66EFD0E83
:10430000DBCFE6FFFE0EDBCFE6FF28EC1EF01C6ED7
:10431000050EE15E1C506BD889D8A4EC19F04ED87C
:1043200066D8140EE66EE66AF3EC18F047D8020E73
:10433000F3CFDBFF030EF4CFDBFF160EE66EE66A6B
:10434000E66AC1EC18F0E552E552E552020EE66E5F
:10435000E66AD950020FE66E000EDA20E66EA4EC93
:1043600019F02CD89CEC18F0420EE15C02E2E16AF4
:10437000E552E16E48D042D84AD8040E0BD8040E5C
:104380001AD8060E07D8060E16D8020E03D8020E4B
:1043900045D839D0E926000EEA22EECFE6FFEFCF6E
:1043A000E6FF3DEC1CF0E552E552F3CF1AF0F4CFF6
:1043B0001BF007EF22F032D807EF22F0E552E5526A
:1043C000E552E5521200F90EDBCFE9FFFA0EDBCF22
:1043D000EAFF12002BD8CFDFE552E5521200F90EAA
:1043E000DB501B6A080F1A6E000E1B221200400ED3
:1043F000DBCFE6FF410EDBCFE6FF1200D9CFE6FFB1
:10440000E1CFD9FF1200E552E7CFD9FF1200FD0E30
:10441000DBCFE9FFFE0EDBCFEAFF1200E926000E3C
:10442000EA22F3CFEEFF1BC0EDFF1200D9CFE6FF6B
:06443000DACFE6FF1200E6
:0A4436000001F96BF86B010C0AD9C4
:10444000120EE1260001F8A103D0F36AF46A95D0B8
:10445000D9500F0FE96EDACFEAFF8F0EEE6E030E22
:10446000ED6EFD0EDBCFE9FFFE0EDBCFEAFFEF5076
:1044700001E181D0DCD89DEC24F0E552E552FD0E3F
:10448000F3CFDBFFFE0EF4CFDBFF0F0EE66EE66A26
:10449000DBCF1AF0100EDBCF1BF01C6A1AC0E6FF50
:1044A0001BC0E6FF1CC0E6FFD9CFE6FFDACFE6FF70
:1044B0006CEC24F01D6E070EE15E1D50DF5040E1F4
:1044C000B6D88FEC24F0E552E552110EF3CFDBFFA6
:1044D000DB500C0805E20C0EF36E110EF3CFDBFF80
:1044E000110EDBCFE6FFE66AD950030FE66E000E31
:1044F000DA20E66E9CD818EC24F01A6E060EE15E07
:104500001A50000913E1010EDBCFFCF0020EDBCFE5
:10451000FDF00001F92B010EDBCF1AF0020EDBCF0C
:104520001BF01AC0F3FF1BC0F4FF27D0D9500F0FA8
:10453000E96EDACFEAFF0F0EEE26000EED22A5D7C8
:10454000040EDF5C18E1D950010FE96EDACFEAFF03
:10455000FF0EEE1802E1FF0EED180DE0010EDBCFAD
:104560002EF0020EDBCF2FF00F0E2EC0DBFF100E51
:104570002FC0DBFF8AD7F368F468120EE15C02E219
:10458000E16AE552E16E5AD00001FE6BF891F951F3
:1045900001E0F90712005ED8E65254D80001FA2B68
:1045A000000EFB23030EDF5C05E14CD8FA2B000E56
:1045B000FB2305D0040EDF5C02E1FA69FB69DF50E2
:1045C000E5523CD00001F881200EF36EF46A12002F
:1045D000D9CFE6FF010E32D0FAC0F3FFFBC0F4FFE3
:1045E000120038D8020EE126FCC0FAF0FDC0FBF044
:1045F000DE6ADD6ADFCF1AF0DF2A010EDBCF1BF0A7
:1046000001E3DB2AFD0EDB501A1803E1FE0EDB503E
:104610001B1802E0C0DFEED7FAC0F3FFFBC0F4FFC7
:10462000020EE15C02E2E16AE552E16E07D0FD0EA6
:10463000DBCFE6FFFE0EDBCFE6FF1200E552E7CF51
:10464000D9FF1200FAC0F6FFFBC0F7FF0800F550D3
:0E465000DF6E1200D9CFE6FFE1CFD9FF1200D6
:02465E00030156
:10466000006B9CEC16F019EC26F02EEF00F0D9CF81
:10467000E6FFE1CFD9FF060EE126050EDB6A030156
:104680000051040A01E193D0070A63E0050A4CE0F7
:10469000040A25E0070A1DE0050A03E0010A01E01B
:1046A000A2D0B1D8E7EC17F0E552E552E552E55259
:1046B000000901E198D0AAD8040EDB5003E1030100
:1046C000020E2BD0040EDB5006086EE10301050E2E
:1046D00024D01CEC26F0000901E185D082D00B0E1D
:1046E000E66E030EE66E8FD8D9CFE6FFDACFE6FF8F
:1046F0009CEC1DF01A6E080EE15E1A50000911E0E4
:1047000085D8040EDB0403E10301030E06D0040E7A
:10471000DB50060804E10301060E006F64D0050EAD
:10472000DB6A45EC17F05DD08290140E036E0BC36C
:10473000E6FF0CC3E6FFD9CFE6FFDACFE6FF73D87A
:1047400016EC03F01A6E060EE15E1A5000094BE0FB
:1047500048D0006B400ED8800B55000E0C5524E35A
:104760008290140E036E470EE66E030EE66E450E43
:10477000E66E030EE66E0B0EE66E030EE66E0D0E93
:10478000E66E030EE66E48D8D0EC20F01A6E0A0EE4
:10479000E15E1A50000908E0040EDB50080804E14D
:1047A00035D80301040E006F45EC17F01CD036EC31
:1047B00017F0000918E047C3E6FF48C3E6FF45C30A
:1047C000E6FF46C3E6FF0BC3E6FF0D0EE66E030EE3
:1047D000E66EE66A28D836EC21F01A6E0A0EE15E23
:1047E0001A500301006B050EDB5001E046D7F1ECD7
:1047F00001F0060EE15C02E2E16AE552E16EE5528B
:10480000E7CFD9FF120008D813EF24F0010EF36EA2
:10481000050EF3CFDBFF1200D950040FE66E000E39
:10482000DA20E66E1200010EE66E030EE66E12004E
:10483000D9CFE6FFDACFE6FFFA0EE3CFD9FFFB0EC2
:10484000E3CFDAFFFC0EE3CFE9FFFD0EE3CFEAFF93
:10485000F80EE35003E1F90EE35008E0F80EE3062A
:1048600002E2F90EE306DE50EE5CF2E0F36EFF0EBC
:10487000E3CFDAFFE552FF0EE3CFD9FFE552F35065
:104880001200D9CFE6FFDACFE6FFFA0EE3CFD9FF69
:10489000FB0EE3CFDAFFFC0EE3CFE9FFFD0EE3CF23
:1048A000EAFFE9CFF3FFEACFF4FFF80EE35003E1AC
:1048B000F90EE35008E0F80EE30602E2F90EE30613
:1048C000DECFEEFFF2D7FF0EE3CFDAFFE552FF0EA9
:1048D000E3CFD9FFE5521200FB0EE3CFF6FFFC0E4B
:1048E000E3CFF7FFFD0EE3CFF8FFFE0EE3CFE9FFC6
:1048F000FF0EE3CFEAFFE9CFF3FFEACFF4FFF90EB3
:10490000E35003E1FA0EE35009E0F90EE30602E298
:10491000FA0EE3060900F5CFEEFFF1D71200FE0E06
:10492000E3CFE9FFFF0EE3CFEAFFF36AF46AEE524A
:1049300003E0F34AF42AFBD71200FE0EE3CFE9FFAF
:10494000FF0EE3CFEAFFE9CFF3FFEACFF4FF610EFA
:10495000EF5C05E67B0EEF5C02E7DF0EEF16EE5232
:04496000F6E112006A
:0C4964001BEC22F004D82FEC23F0DCEF59
:1049700012F082EC25F0000904E1130E79D8FF084B
:104980002CE1E66A130E6ED8C00EE66E050E6AD8EC
:10499000A80EE66E060E71D8070E64D8C80EE66E35
:1049A000080E60D8E668090E5DD8E6680A0E5AD887
:1049B000E6680B0E62D80C0E60D80D0E53D8040EAC
:1049C000E66E0E0E4FD8A30EE66E0F0E56D8100EE2
:1049D00054D8110E52D8120E45D8050E49D80301ED
:1049E000726F060E45D80301736F070E41D803019D
:1049F000746F080E3DD80301756F090E39D8030195
:104A00007C6F0A0E35D803017D6F0B0E31D8030180
:104A10007E6F0C0E2DD803017F6F7CC380F37DC3A6
:104A200081F37EC382F3836F0D0E22D80301766F6C
:104A30000E0E1ED80301776F0F0E1AD80301786F80
:104A4000100E16D80301796F110E12D803017A6F78
:104A5000120E0ED803017B6F8A91120037EC23F0FF
:104A60003AEF13F0E66E58EC10F0E552E552120002
:104A7000E66E4FEC10F0E5521200F4DFE66A120029
:104A800083D8C26A0F0EC16E9490949294949280CF
:104A9000948CF19E828482808282020EE15C02E22A
:104AA000E16AE552E16E67D0D9CFE6FF64D067D8FE
:104AB000E652DF6ADF5002E0000E01D0010EE5523F
:104AC0005AD00250000804E20206025001E182843A
:104AD0000350000804E20306035001E18280045001
:104AE000000804E20406045001E182920B50120017
:104AF0004BD8E15C02E2E16AE552E16E3CD0D9CFED
:104B0000E6FF39D03CD8E6528050010BDF6EDF5013
:104B100002E0000E01D0010EE5522DD030D8E65251
:104B2000010EDF6EDF50E55226D029D8040EE126B3
:104B3000DE6ADD6A020EDB6A030EDB6A040EE15CEC
:104B400002E2E16AE552E16E16D00B5002E10C5030
:104B500008E00201F851E8B08282E8A08292F87180
:104B600012000201F85103E1010EF86F8292120067
:104B7000D9CFE6FF00D0E552E7CFD9FF1200D9CF59
:104B8000E6FFE1CFD9FF1200FADF020EE126DE6A6E
:044B9000DD6A1200C8
:0C4B94001E0EF66E000EF76E000EF86E9E
:104BA00001010900F550F76F0900F550F86F03E1B6
:104BB000F76701D03DD00900F550F26F0900F550BC
:104BC000F36F0900F550F46F09000900F550E96E24
:104BD0000900F550EA6E090009000900F550F56F6B
:104BE0000900F550F66F09000900F6CFF9F1F7CF8B
:104BF000FAF1F8CFFBF1F2C1F6FFF3C1F7FFF4C110
:104C0000F8FF0101F55302E1F65307E00900F55002
:104C1000EE6EF507F8E2F607F9D7F9C1F6FFFAC12B
:104C2000F7FFFBC1F8FF0101F707000EF85BBFD7E4
:024C3000120070
:0E4C32000201F76B1200D9CFE6FFE1CFD9FFE8
:104C40000B0EE1260201F75118E1D9500A0FE66E6A
:104C5000000EDA20E66ED9CFE6FFDACFE6FF39ECB8
:104C60001FF0E552E552E552E552000919E00A0E3F
:104C7000DB5016E00201010EF76F36EC17F0000969
:104C80000DE0E66AD9CFE6FFDACFE6FFBCEC1FF015
:104C9000E552E552E5520201F76B02D0000E01D059
:104CA000010E1A6E0B0EE15C02E2E16AE552E16E62
:0A4CB0001A50E552E7CFD9FF1200B9
:064CBA00C70ED66EFE0ECF
:104CC000D76E070ED56ED58EF284F28A1200FCC123
:104CD0002CF0FDC12DF0FEC12EF0FFC12FF012000F
:0E4CE0000101FC2B000EFD23FE23FF2312001A
:024CEE00466519
:104CF0000B00001001000000000000000000000098
:0E4D00000000000000000000000000000000A5
:024D0E00FF0E96
:104D1000E350336E480E01D04C0EE76EE72EFED7FF
:0E4D2000E76AE72EFED7332EF7D70000120009
:024D2E00000E75
:104D3000F36E00EE00F00D0E01D81200EA6002D012
:0E4D4000EE6AFCD7F350E9601200EE6AFCD771
:024D4E001CEE59
:104D500000F02CEE00F0F86A329CCAEC25F003EC6F
:0A4D600000F093EC0AF0FBD71200FC
:064D6A000000303132337D
:104D70003435363738394142434445460001020351
:104D8000040506070809000000000000000A0B0CDB
:034D90000D0E0FF6
:024D930000001E
:020000040030CA
:0100010006F8
:0100020016E7
:0100030010EC
:0100050000FA
:010006008079
:010008000FE8
:01000900C036
:01000A000FE6
:01000B00E014
:01000C000FE4
:01000D0040B2
:00000001FF
