:020000040000FA
:060000005FEF23F0120087
:020006001200E6
:0600080001EF0FF01200F1
:02000E000000F0
:0100100000EF
:0100110000EE
:0100120000ED
:0400130000000000E9
:0600180078EF0FF012006A
:02001E000500DB
:1000200001470000FE020000020000001300000073
:10003000FC01000004000000DA4600004903000053
:1000400027000000120000009D03000001000000D6
:0C005000110000009C03000001000000F3
:04005C00D3EC07F0EA
:10006000030EE126DF6A040EDF5C20E2BDEC09F03E
:10007000EF6A40EC09F0EF9040EC09F0EF8240ECC1
:1000800009F0EF8440EC09F0EF9840EC09F0EF96AE
:1000900040EC09F0EF9AC5EC07F067EC09F0EF6867
:1000A000C5EC07F0B3EC09F0DF2ADDD703018F6B55
:1000B000040E906F916B926B936B946B030EE15CEB
:1000C00002E2E16AE552E16ED8EF07F0D3EC07F007
:1000D000030EE126DF6A040EDF5C32E2BDEC09F0BC
:1000E000EF502CE1C5EC07F0010EEF6EDBCFE9FF1E
:1000F000020EDBCFEAFF0B0E9EEC07F0FD0EDBCF0E
:10010000EEFFFE0EDBCFEDFFC5EC07F00D0EEB6A48
:100110000E0EEB6AC5EC07F09CEC09F040EC09F020
:10012000EF8040EC09F0EF96C5EC07F067EC09F0C2
:10013000EF6840EC09F0EF82DF5003D0DF2ACBD725
:10014000FE0E266E030EE15C02E2E16AE552E16E0C
:100150002650D8EF07F0D3EC07F0EDEC07F0EF50A6
:10016000040802E0000E01D0010ED8EF07F0ECEC1D
:1001700009F0A9EC07F0EF50040809E0DECFE6FF34
:10018000DDCFE6FF2DEC06F0E552E55214D0FE0E71
:10019000DBCFE6FFCBD8E552DEEC08F0110EF2EC37
:1001A00009F044EC0AF0EE2AEE22EE22EE22A9EC4F
:1001B00007F0050EEF6E020EE15C02E2E16AE55225
:1001C000E16ED8EF07F0ECEC09F010EC0AF0EF501C
:1001D000FF0804E01FEC0AF0020B02E1000E24D03D
:1001E000A9EC07F0100E3AEC09F010EC0AF0EF5011
:1001F000E66E100EF2EC09F0100EB7EC09F0286A6A
:10020000296AA9EC07F044EC0AF0BDEC08F038ECE0
:1002100009F0EF9238EC09F0EF9810EC0AF0D8EC06
:1002200008F04EEC0AF0010E266E020EE15C02E2CE
:10023000E16AE552E16E2650D8EF07F0D3EC07F003
:10024000EDEC07F067EC09F0EF50FF0803E113EC69
:1002500011F005D0C8EC09F0020B01E0010ED8EF57
:1002600007F0D3EC07F0040EE126FE0EDB50B5ECF0
:1002700007F0020E26C0DBFF030E27C0DBFF13ECE6
:100280000AF0FF081CE1E6EC07F067EC09F0EF6A02
:1002900013EC0AF0E66E1CEC11F0E552E6EC07F008
:1002A000100EEB6A110EEB6A280EE66EE66A13EC8E
:1002B0000AF0E66E9EEC12F0E552E552E552E6ECED
:1002C00007F0100E9EEC07F0EECFDEFFEDCFDDFF66
:1002D000C6EC08F002E3000E1FD0E6EC07F0250E96
:1002E0009EEC07F0EF88FD0E78EC08F0DF2A010E97
:1002F00001E3DB2AE6EC07F0100E9EEC07F0DECF00
:10030000EEFFDDCFEDFFC6EC08F005E3FE0EDBCF20
:10031000E6FF59DFE552010E266E040EE15C02E2B3
:10032000E16AE552E16E2650D8EF07F04AEC0AF098
:1003300002E1000E06D022EC11F038EC09F0EF9645
:10034000010E266E020EE15C02E2E16AE552E16E08
:100350002650D8EF07F04AEC0AF014E01FEC0AF040
:10036000040B02E022EC0AF038EC09F0EF88FA0EF8
:10037000DBCFE6FFFB0EDBCFE6FF9EEC08F0EDECFB
:1003800008F002D0F36AF46A020EE15C02E2E16A6C
:10039000E552E16ED8EF07F04AEC0AF029E01FECD5
:1003A0000AF0040B02E022EC0AF0A9EC07F0120EAE
:1003B0009EEC07F0EE50ED1006E122EC11F038EC67
:1003C00009F0EF9616D0A9EC07F0120E9EEC07F09C
:1003D000EE06EF5A33EC13F0E66EFC0EDBCFE9FFCE
:1003E000FD0EDBCFEAFFE552E750EF6E010E01D0C4
:1003F000000E266E020EE15C02E2E16AE552E16E59
:100400002650D8EF07F0D3EC07F0C8EC09F0080B42
:1004100001E0010ED8EF07F0D3EC07F0100EE12653
:100420000F0EDB6ADF6A040EDF5C01E312D1DF50DE
:10043000B5EC07F0090E26C0DBFF0A0E27C0DBFF74
:10044000A0EC09F0080B01E002D1A0EC09F0100BC0
:1004500001E0FDD0AEEC07F0EF5001E1F8D0AEECDA
:1004600007F0EF0405E1A0EC09F0010B01E0EFD08B
:100470001FEC23F0050E38C0DBFF060E39C0DBFF92
:10048000070E3AC0DBFF080E3BC0DBFF050EDBCFDB
:100490002AF0060EDBCF2BF0070EDBCF2CF0080E78
:1004A000DBCF2DF0AEEC07F01D0E9EEC07F0EE500A
:1004B0002A5C266EEE502B58276EEE502C58286E74
:1004C000EE502D58296E89EC08F0030E28C0DBFF92
:1004D000040E29C0DBFF010EDBCF26F0020EDBCFBE
:1004E00027F0030EDBCF28F0040EDBCF29F0AEECB3
:1004F00007F0210E9EEC07F02650EE5C2750EE58D8
:100500002850EE582950EE5801E3A1D013EC11F019
:10051000000901E19ED01FEC23F001EC08F0AEECE5
:1005200007F01D0E2CEC0AF0AEEC07F0210E9EEC4D
:1005300007F0D890EF36010EEB36020EEB36030EC5
:10054000EB3694EC09F0EF2AAEEC07F0EF50060A18
:1005500028E0010A26E0020A1DE00F0A1BE00E0A4D
:100560000FE0060A04E0010A2DE1020E27D094EC08
:1005700009F0EFCF26F0030E265C18E2120E1ED013
:10058000110EF36E0F0EF3CFDBFFAEEC07F0050E8E
:10059000EF6E18D094EC09F0EF50030807E3010E5A
:1005A0000DD094EC09F0EF50030807E2090EDBCF01
:1005B000E6FF0A0ECBEC09F005D0100EF36E0F0E1D
:1005C000F3CFDBFF0F0EDB50000841E20F0EDB50D4
:1005D000100813E0AEEC07F044EC0AF044EC08F02D
:1005E0000B0E26C0DBFF0C0E27C0DBFF0D0E28C054
:1005F000DBFF0E0E29C0DBFF0CD0AEEC07F044ECA5
:100600000AF00B0EEECFDBFFA5EC08F00E0EEECFDE
:10061000DBFFDEEC08F00F0EDBCFE6FFAEEC07F001
:10062000180E2FEC0AF0D9500B0FBAEC09F0AEEC13
:1006300007F00D0E3AEC09F0AEEC07F00B0E3AECB9
:1006400009F0AEEC07F0DCEC07F097EC08F0DF2ADD
:10065000EAD6100EE15C02E2E16AE552E16ED8EF03
:1006600007F0D3EC07F0240EE126140EE66EE66ADE
:10067000E3EC08F0EDEC08F0E3EC08F0CCDAE5523E
:10068000E552A2EC07F047EC0AF0140EEECFDBFFC8
:10069000150EEECFDBFF160EEECFDBFF170EEECF03
:1006A000DBFF31EC08F0180EDEEC09F0010E9EECD9
:1006B00007F0190EDEEC09F0020E9EEC07F01A0EA0
:1006C000DEEC09F0030E9EEC07F01B0EEFCFDBFF14
:1006D0001C0EDB6A060EF36E1D0EF3CFDBFFACECD7
:1006E00008F01E0E3AC0DBFF1F0E3BC0DBFF1E0EE4
:1006F000DBCFE6FF1F0EF8EC08F01E0EF3CFDBFF9A
:100700001F0EFFEC08F0140F7EEC09F0210E26C03E
:10071000DBFF220E27C0DBFF100E2AEC08F0210EB3
:1007200078EC08F0110E2AEC08F0220E78EC08F0B4
:10073000000E2AEC08F0F1EC08F0F4EC12F0E552AF
:10074000E552210EF3CFDBFF220EF4CFDBFF210EAB
:10075000DBCF26F0220EDBCF27F0100EDB50261861
:1007600003E1110EDB50271804E022EC11F0010E1A
:1007700095D0D9500C0F68EC08F0CFEC08F0266E3D
:10078000276A140E265E000E275A230E26C0DBFFB2
:10079000DB50286E296AACEC08F028503A5C266ED3
:1007A00029503B58276E140E265E000E275AF90E6C
:1007B00026C0DBFFFA0E27C0DBFFD9500C0FE96E15
:1007C000CFEC08F02AEC08F038EC08F0E3EC08F085
:1007D00093D9E552E552E552E552E76E200EE7CF98
:1007E000DBFFFE0EF36E200EDBCFF4FFF350F45C64
:1007F0000DE2F1EC08F0E3EC08F038EC08F0200E24
:10080000DBCFE6FF5BDA266E070E45D022EC11F057
:10081000200EDB50FF0841E1F90EDBCF26F0FA0E87
:10082000DBCF27F0286A296AD950080F68EC08F056
:10083000BDEC08F0D9500D0F68EC08F0EF50020B3A
:1008400007E1D9500D0F68EC08F0EF50010B09E0FB
:10085000D950080F68EC08F0EE2A000EEE22EE22C6
:10086000EE22DEEC08F0040EE66ED950040FBAEC6E
:1008700009F0D950080FBAEC09F0DECFE6FFDDCF62
:10088000E6FF020EDBCFE6FF030EDBCFE6FFF0DB79
:100890000ED8266E120EE15E2650010E266E240E34
:1008A000E15C02E2E16AE552E16E265081D37BDB36
:1008B000260EE12613EC11F00009FCE0FB0EDBCF65
:1008C0003AF0FC0EDBCF3BF0020E3AC0DBFF030E2A
:1008D0003BC0DBFFACEC08F0040E3AC0DBFF050EBA
:1008E0003BC0DBFFD950F50FEEDBD1EC09F006EC95
:1008F00009F0D950F10FE7DB0DEC09F0A5EC08F099
:100900000F0EDB9CDB9E0E0EDB90DB92DB94DB9606
:10091000F00EDB50E76E0F0EE7CFDBFF50EC11F06F
:10092000100EF3CFDBFF110EF4CFDBFF100EDBCF89
:1009300026F0110EDBCF27F0000E265C040E2758A0
:1009400008E3100EDB6A040EF36E110EF3CFDBFF2B
:1009500013D0D950100FBCDB360E2EEC09F008E294
:10096000D950100FB5DB360EEE5E000EED5A04D0F6
:10097000100EDB6A110EDB6A120EDB6A130EDB6AE5
:10098000140EDB6A150EDB6AD950020F32EC0AF046
:1009900042D9E552E552D950ED0F95DB140EEE2603
:1009A000000EED22F00EDBA21CD0D950ED0F8BDB38
:1009B000040EEE26000EED22020EF36E160EF3CF9D
:1009C000DBFF040EF36E170EF3CFDBFF040EF36EA6
:1009D000180EF3CFDBFF190EDB6A0E0EDB98DB8AF5
:1009E00003D00E0EDB88DB9ADB8CDB9E1A0E70C305
:1009F000DBFF1B0E71C3DBFF1C0E72C3DBFF1D0E82
:100A000073C3DBFF9FDA47EC0AF01E0EEECFDBFF6D
:100A10001F0EEECFDBFF200EEECFDBFF210EEECF61
:100A2000DBFF220EDB6A060EF36E230EF3CFDBFF35
:100A3000ED0EDBCF3AF0EE0EDBCF3BF0240E3AC0EA
:100A4000DBFF250E3BC0DBFF240EDBCFE6FF250ED0
:100A5000CFDB240EF3CFDBFF250ED1DB1A0F7EECAC
:100A600009F0120E26C0DBFF130E27C0DBFF120EAB
:100A7000DBCFDEFFDBCFDDFFEF0EDB50FF0802E157
:100A8000EF0EDB6A140EB5DACFDB060EE66EF0DA97
:100A900045EC1BF0266E050EE15E2650140EE66E48
:100AA000E66AD950020F2ADBF00EDBA206D0040E54
:100AB000E66EE66AD950160F21DB140E9ADAB4DB23
:100AC000F4EC12F0E552E552F3CFDEFFF4CFDDFF98
:100AD000240E8FDA010E0CDBDFCFE6FF72EC13F091
:100AE000E552000E86DA79EC12F0260EE15C02E2A5
:100AF000E16AE552E16E5CD256DA040EE126FE0EA2
:100B0000F36E030EF3CFDBFF020EDB6A040EF36E0F
:100B1000020EDBCFF4FFF350F45C46E2020EC4DBBE
:100B200018DAEF503EE015DA0B0EB7EC09F00ADAEE
:100B3000020E04DA80DB35E12950271832E109DAA8
:100B4000EF0406E1020EDB50E76E030EE7CFDBFF9A
:100B500000DA0D0EB7EC09F0F5D96DDB22E1295072
:100B600027181FE17EDA47EC0AF0EECF2AF0EECF2D
:100B70002BF0EECF2CF0EFCF2DF0EBD9EE5247EC6F
:100B80000AF0EE5000012A180CE1EE502B1809E192
:100B9000EE502C1806E1EE502D1803E102E1020E92
:100BA00028D0020EDB2AB2D7030E7EDB030EDB5009
:100BB000FE0821E0CED9EF041EE10A0EE66EE66AD9
:100BC000FB0EDBCFE6FFFC0EDBCFE6FFC2D9F4D98C
:100BD00039DBB8D9020ECBDBBCD90B0EF3DBB2D9B3
:100BE0006DDAB7D90D0EEEDB43DBEF964EEC0AF073
:100BF000030EDB5007D0030EDB50FE0802E1FF0EB0
:100C000001D0FE0E266E040EE15C02E2E16AE552BE
:100C1000E16E2650CDD1C7D995D91AEC0AF05ADB2E
:100C2000A2DA90D9020E17EC0AF0020E8CDB040E49
:100C300058DB040EBDDB080E54DB080EB9DB0E0ECC
:100C4000F6DB0E0E80DB100EF2DB100E7CDB120EDC
:100C5000EEDB120E73D987DAABD1A5D937EC0AF0E7
:100C6000EF50FF0808E037EC0AF0A2DA37EC0AF0A0
:100C7000EF6835DBEF8266D95FDB64D90D0EEB6A76
:100C80000E0EEB6A2CDBEF50080B02E022EC11F0A9
:100C900026DBEF9624DBEF9A55D965DB20DBEF9856
:100CA0008282140E076E1BDBEF50010B04E04AD961
:100CB000010EEF6E02D046D9EF6A7AD174D9130EC5
:100CC000E126120EDB6AFE0EDB504FD9100E26C055
:100CD000DBFF110E27C0DBFF6EDB200B0CE128DBF6
:100CE000EECF26F0EECF27F0EECF28F0EFCF29F0B1
:100CF000AEDB85DBEF8AD4DA89DA8FDAD9DA25DA66
:100D00000E0EEECFDBFF0F0EEECFDBFF11DBE4D9D3
:100D1000F80EDBCF26F0F90EDBCF27F0286A296A20
:100D20002650DE262750DE222850DE222950DD22E2
:100D3000DD52DD52BDDA86D9BEDA15DBF8D8EF0414
:100D400039E122EC11F00301912B000E9223932341
:100D50009423AEDA91C3EEFF92C3EEFF93C3EEFF8E
:100D600094C3EEFF35DAD3DA72DBA2DA6BD9A0DAFC
:100D7000EE2AEE22EE22EE2280DA020B12E00A0EBA
:100D8000E66EE66ADBD9D3D817D95CDA05D996D9ED
:100D9000CED80D0E17DB120EF36EDB6EC8D8020E26
:100DA00097D0040EE5D914DA4DD9C2DA95D9BFD857
:100DB000C3DA9ED062DA040B04E022EC11F0A3D96E
:100DC000AFD0080EDBCF26F0090EDBCF27F00A0EDE
:100DD000DBCF28F00B0EDBCF29F0AADAEE50261875
:100DE00001E080D0EE50271801E07CD0EE502818AA
:100DF00001E078D0EE50291875E174E1EADA0208D2
:100E00000BE13BDA100B4BE0FEDA55DA040EEF6E25
:100E1000B9DA45E237DA6CD0F6DADBDA040842E117
:100E20002CDA100B0AE026DBEF50FF0806E022DB8D
:100E3000BFD920DBEF68E3DAEF821FDA010B15E0A0
:100E4000110E96D935DA20D9040E26C0DBFF050E27
:100E500027C0DBFF060E28C0DBFF070E29C0DBFF23
:100E60001FDAE3D864D80A0EEF6E8CDA18E2A3DA40
:100E7000080B04E107DA100E7BD93AD0120EDB6AB8
:100E800017DA0C0EDBCFEEFF0D0EDBCFEEFF0E0EF2
:100E9000DBCFEEFF0F0EDBCFEEFF02DA02D922EC42
:100EA00011F026D096DA0A0804E1E7DA100B20E008
:100EB00017D08FDA05080EE1E0DA010B19E0100E09
:100EC00057D9EED9B2D8D9D9100B0AE130D8060ECD
:100ED000EF6E0ED07EDA06080BE1CFDA100B08E0D9
:100EE00012D906D022EC11F0100E42D971D9D9D8FE
:100EF000120EDB50000814E261D9120EDBCFE6FFC0
:100F000067D93DD8D950040F35DA46D893DA44D89A
:100F1000020EB0D913D9CBDC266E120EE15E26503C
:100F2000130EE15C02E2E16AE552E16E41D0100E7F
:100F3000DBCFE9FF110EDBCFEAFF1200E926000E3E
:100F4000EA221200FD0EDBCFE9FFFE0EDBCFEAFF47
:100F50001200DECFE9FFDDCFEAFF1200090EDBCF82
:100F6000E9FF0A0EDBCFEAFF1200260DF3CF26F0D1
:100F7000F4CF27F0600E2626000E27221200EECFB7
:100F8000E6FFEECFE6FF1AEF0AF0010EDBCFE9FF36
:100F9000020EDBCFEAFF1200FA0EDBCFE9FFFB0EF9
:100FA000DBCFEAFF1200D9CFE6FFE1CFD9FF120075
:100FB000E552E7CFD9FF1200EE52E9CF26F0EACF93
:100FC00027F0E9CFE6FFEACFE6FF1200020EDBCF03
:100FD000E9FF030EDBCFEAFF1200FE0EDB50260D09
:100FE000F3CFE9FFF4CFEAFF600EE926000EEA2214
:100FF0001200E66EE66AEF0EDBCFE6FF9EEC12F023
:10100000E4D138C026F039C027F03AC028F03BC000
:1010100029F0120038C0EEFFA7EF09F0E552E552C3
:10102000F3CF26F0F4CF27F0120071D926C0DFFFEE
:10103000010E27C0DBFF020E28C0DBFF030E29C014
:10104000DBFF1200040EEECFDBFF050EEECFDBFF61
:10105000D1EF09F0E66EE66ADDEC1BF0E552E552F1
:101060001200FB0EDBCFE9FFFC0EDBCFEAFF120024
:10107000FD0EDBCFE6FFFE0EDBCFE6FF120026C043
:10108000DEFF27C0DDFF1200EFCF26F0EE2AEFCF04
:1010900027F0EE22EFCF28F0EE22EFCF29F0EF225B
:1010A0001200080EDBCFEEFF090EDBCFEEFF0A0EBB
:1010B000DBCFEEFF0B0EDBCFEEFF1200EECF26F004
:1010C000EFCF27F01200E96EFF0EDA20EA6E120071
:1010D000E96EDACFEAFF1200EECFDFFF010EEECFAE
:1010E000DBFF020EEECFDBFF030EEECFDBFF1200C5
:1010F000DBCFE6FF72EC13F0E5521200B3D981ECBE
:1011000013F0E55262D1100EDBCFE6FF110ECBEFEC
:1011100009F0010E26C0DBFF020E27C0DBFF120024
:10112000700EEE6E170EEE6EEE6AEE6A120057EC5F
:1011300004F0286E120EE15E28501200FC0EDBCF88
:10114000E6FFFD0EDBCFE6FF12000C0EEECFDBFF5D
:101150000D0EEECFDBFF1200F90EDBCF3AF0FA0EE8
:10116000DBCF3BF01200F3CFEEFF27C0EDFF120004
:10117000F36E120EF3CFDBFF12002650EE2627503F
:10118000EE222850EE222950EE221200DECF26F069
:10119000DDCF27F0CA0E265C030E27581200EF5051
:1011A000F00BE842E842E842E842040DF350120036
:1011B000EF50E66E1FEC11F0E5521200000EE66EE5
:1011C000E66AE6681200D9CFE6FFDACFE6FF120042
:1011D000D9CFE9FFDACFEAFF120040EC13F0E55275
:1011E000F4D0F90EDBCFE6FFFA0EDBCFE6FF1200FC
:1011F000DBCFE6FF5AEC19F0E552E5521200F4CFCE
:10120000DBFF0C0EE66EE66AD9501200080EEECF38
:10121000DBFF090EEECFDBFF12000A0EEECFDBFF85
:101220000B0EEECFDBFF1200ED0EDBCFE6FFEE0E76
:10123000DBCFE6FF1200EECF28F0EFCF29F02850E9
:10124000261812005EEC21F0286E060EE15E285092
:101250001200EE6AEE6AEE6AEE6A1200D880EE5470
:10126000000EED54120026C0EEFF27C0EDFF120065
:1012700070DE07D163DE1AEF0AF08EDE0D0E13D199
:1012800084DEFFD0BCD8EF8652DE120E57DEF80E99
:10129000DBCFEEFFF90EDBCFEDFFB1D8EF8412000C
:1012A00046DE180E9EEF07F0DB505FDE3FEF08F0E2
:1012B0003EDE44EF0AF03BDE1C0E40DEEF6A1FEC20
:1012C00023F09FDE34DE1D0EC7D897EF07F00F0E18
:1012D0009EEF07F05AEC19F0A1DEA2EF07F032DE24
:1012E000D0D0BDD87DEC19F0E552E552E552E5527B
:1012F00088DEA2EF07F0B3D8A9EF07F0B3D8CEECA1
:1013000019F0E552E5528ADE261E271E1200EF2A4A
:10131000EECF26F0EF22EECF27F0EF22EECF28F02F
:10132000EF22EFCF29F0120019DE1C0E9EEF07F01E
:1013300033DE040E9EEF07F0EE52A9D829EF09F034
:101340000DDE250EB0D0FADD0EDFA2EF07F027C0CC
:10135000EEFF28C0EEFF29C0EEFF1200FADD2CDE02
:10136000E6DEA9EF07F0210EE9DD90EF08F0E6DDFB
:101370005EEF08F0ADDEBFEF07F0DF50F6DDC9DE4F
:10138000C5EF07F0D950F80F9EDE000E2EEF09F0E2
:1013900024DE250E88D0DBCFE6FF5FDCE552E55288
:1013A0001200060EEECFDBFF070EEECFDBFF1200C2
:1013B00053D8A2EF07F023D8EF501200EFCFDBFF96
:1013C00031EF08F0BBDD33EF09F0E552E552E552AD
:1013D0001200ADDDEF501200E6DD020EE126FE0E3A
:1013E00054EF09F0E66EB5DD180E85DF140E83DFCD
:1013F0000D0E40DFAEDD0B0E3DDFAEEF09F097DDE9
:10140000250E9EEF07F04CDFDFCFEEFF010EDBCFA6
:10141000EEFF020EDBCFEEFF030EDBCFEEFF12007E
:1014200098DD67EF09F0D2DD52DFEF50120022DFC6
:101430006AEF09F0EECFE6FFEFCFE6FF120018DF0C
:10144000EF501200140E06DE13DFEF94120028DFB7
:1014500026C0EEFFA7EF09F071DD0AEF08F06EDDA0
:10146000BFEF07F0E66E000EDA20E66E12006ADDCE
:1014700067EF09F05CDD67EF09F022EC11F03DEF5A
:1014800009F0250E9EEF07F0140E9EEF07F0060EF2
:101490009EEF07F0A1DFD3DF080B1200C1DFEF687A
:0C14A000E7DEEF8212004ADDEF50120080
:0414AC00D7D8DF6A44
:1014B00038EC10F00C6A0D6A0E6A010ECAD80B6E79
:1014C000EBEC22F06AD8020EC4D8036E046A046EF4
:1014D000036A030EBED8266E276AE85003262750FB
:1014E00004220350041005E00001031C05E1041C64
:1014F00003E10B0E036E046A040EABD8096EE850CC
:1015000003E0FF0E095C02E10350096E88D8829265
:1015100019EC10F0010EDB6A8FEC0BF000090AE108
:101520008294140E056E05EC0DF0E76E010EE7CF08
:10153000DBFFF2D711EC23F073EC0CF010EC22F08F
:10154000000905E0DF5003E1010EDF6EE3D710EC88
:1015500022F00009DFE1DF50DDE0DF6A0D5002E03C
:101560000D6AD8D70101520EF16F04C0F3F103C028
:1015700026F004C027F00001276A03C0F4F101013E
:10158000020EF26FF00EE66E010EE66EE1EC17F061
:10159000E552E552010E0D6EBDD760D8DE6ADD6AF8
:1015A000F26AA66AA56AA26A9F6AA36AA386A06A6B
:1015B0009D6AF06AF16AF26AA46AA16A9E6AD08E94
:1015C000420ED56ED66AD76AF28AD58EF1848FEC38
:1015D0000BF0000906E1FAC1E9FFFBC1EAFFEF6A7F
:1015E000F6D7060E0F6ED00E1E6E070E1F6EC80EBB
:1015F000206E216A100E080E226E236AD08EF28CA5
:10160000F28EE66ACFEC21F0E552020EE15C02E2D6
:10161000E16AE552E16EE552E7CFD9FF1200106AA8
:1016200024D8B009116E070E0914200DF350126E64
:101630001CD870090F01416F070E0914200DF3CF5C
:1016400042FF010E456F020E466FF28EF28C3CEFA8
:101650000BF0E66EA0EC0FF0E5521200D9CFE6FFDA
:10166000E1CFD9FF020EE1261200780E0914E840FE
:10167000E840E8401F0B1200B0D9020EE126DE6AF6
:10168000DD6A800E6F6E6EAEFED7B00E776E0D0106
:10169000F86B606A070E706E9E0E716E030E726EAE
:1016A000200E736E010ED46FD56BD86B0F01186BC3
:1016B000080E196F1A6B1B6B1C6B1D6F1E6B1F6B5B
:1016C000800E016F0D01E06BE16BE26BE36BE46B8D
:1016D000E56BE66BE76BF06BF16BF26BF36BFA6B40
:1016E000FC6B606A0F01506B0E01206B306B406B1E
:1016F000506B606B706B6F6ADE6ADD6A51D901E610
:1017000071D907E237D9EF6ADF2A010EF7E3DB2A46
:10171000F5D7020EE15C02E2E16AE55259D1070E0B
:101720006F14010A07E0010A0BE10101600EFA6F74
:101730000F0E04D00101500EFA6F0F0EFB6F0CD08C
:10174000020E6F5C070B100DF3500101FA6FFB6B7B
:10175000200EFA270E0EFB23FAC1E9FFFBC1EAFFB8
:10176000EF50800B01E0000C010C37D9040EE1268C
:10177000DE6ADD6A020EDB6A030EDB6ADE6ADD6AA0
:101780000FD901E62FD93FE2F5D8EF5037E113D951
:10179000E66EF0D8EE52E552E750EF6E08D9EF5002
:1017A000E66EE8D8020E2DD9E552E750EF6E020E34
:1017B000DB6A030EDB6A020EDBCF26F0030EDBCF03
:1017C00027F0D890275004E6070E265C000E275815
:1017D00011E2E2D8F4D8EF50E66ECCD8030E11D95E
:1017E000EED8E552E750EF6E020EDB2A030EE3E37C
:1017F000DB2AE1D7BFD8010EEF6E09D0DF2A010E38
:10180000BFE3DB2ABDD78282280E076E000E266E4C
:10181000040EE15C02E2E16AE552E16E2650E55217
:10182000E7CFD9FF1200D9D8040EE126C0D8EF289F
:10183000156E0F0E1116B00E1112BDD8166EACD863
:10184000EF50176EA9D8010ED2D8186EA5D8020E87
:10185000CED8196EA1D8030ECAD81A6E9DD8040E20
:10186000C6D81B6E99D8050EC2D81C6E95D8060E28
:10187000BED81D6E0A0E0A6E8294140E056EDF6AC3
:10188000D950010FE96EDACFEAFF300EEE6E0F0E7F
:10189000ED6E030EDB6A0E0EF36E030EDBCFF4FF6C
:1018A000F350F45C18E2DF50DF2AEA6A100FE96EA9
:1018B000000EEA22EF50E66E010EDBCFE9FFDB2AD5
:1018C000020EDBCFEAFF01E3DB2AE552E750EF6EC1
:1018D000030EDB2AE0D70F013087040EE15C02E241
:1018E000E16AE55275D079D8020EE1260F0130B7D2
:1018F0003BD0DE6ADD6A54D801E674D80BE23AD8F0
:10190000EF50020802E136D8EF6ADF2A010EF3E356
:10191000DB2AF1D7DE6ADD6A43D801E663D824E228
:1019200029D8EF041CE126D8020EEF6EDECF26F098
:10193000DDCF27F00A0E2702F3CF27F02602F3CFE0
:1019400026F0F4502726000E2626010E272226C058
:10195000E6FF27C0E6FF67DFE552E55205D0DF2A44
:10196000010EDAE3DB2AD8D7020EE15C02E2E16A7B
:10197000E5522ED0DECFE9FFDDCFEAFF0A0EEA0204
:10198000F3CFEAFFE902F3CFE9FFF450EA26000EB5
:10199000E926010EEA2212002DD8030E01EF0DF008
:1019A000DECF26F0DDCF27F0D8902750120022D8C6
:1019B000020E01EF0DF01ED8EE52EF501200020E93
:1019C000DB50E924E96E030EDB50EA20EA6E1200D8
:1019D000E16EE552E7CFD9FF1200D9CFE6FFE1CFA4
:1019E000D9FF1200180E265C000E2758120009D8E5
:1019F000EF501200FD0EDBCFE9FFFE0EDBCFEAFF5A
:101A00001200E926000EEA221200D9D9060EEB5088
:101A10000101F16F070EEB50F36F080EEB50F46FFE
:101A2000090EEB50F56F0A0EEB50F66F0B0EEB50F4
:101A3000F76F0C0EEB50F86F0D0EEB50F96FF1C114
:101A4000E6FF43EC10F0E552010195D9B8D9EF6AF1
:101A5000025002E0026AA3801200B6D90F0EE126FE
:101A6000DF6ABBD9EE52EF50960A01E1D3D0E70A04
:101A700001E19FD0790A01E1F3D0180A5EE0520A31
:101A80002CE0310A1BE07E0A01E0EAD0B60E58D9FC
:101A900002E07BD9FEE141D95E0EF66E460EF76E8E
:101AA0000800060E7CD9070EF5CFDBFF080E0BC031
:101AB000DBFF050E4BD9E1EC17F0D0D095D9010E24
:101AC000F31801E0CDD0275001E0CAD020D9020E92
:101AD00061D9E66EE66ACED8C1D00D5001E1C0D022
:101AE00016D90B0EEFCFDBFF12D9010EE926000E3F
:101AF000EA220C0EEFCFDBFF0B0EDB50276A276EBE
:101B0000266A0C0EDB5000012624036E000E2720EF
:101B1000046E0B0EDBCFE6FF020EE66EA9EC0FF0B3
:101B2000E552E5520C0EDBCFE6FF030EE66EA9ECA4
:101B30000FF0E552E5520D6A93D00D5001E190D0BF
:101B4000EF0EF36E020EF3CFDBFF5E0EF66E460E67
:101B5000F76E0800040EF5CFDBFF5F0EF66E460E43
:101B6000F76E0800050E1BD9060EF5CFDBFF610EE0
:101B7000F66E460EF76E0800070EF5CFDBFF620E1D
:101B8000F66E460EF76E0800080EF5CFDBFF630E0B
:101B9000F66E460EF76E0800090EF5CFDBFF640EF9
:101BA000F66E460EF76E08000A0EF5CFDBFF070E45
:101BB00017D0D7D8F350F41053E001D9090EEB50E9
:101BC000E76E0D0EE7CFDBFFDB040EE1970EB8D812
:101BD00002E0DBD8FEE1A1D8EAD80BC0DBFF040E9F
:101BE000B5D8E1EC17F011D00D0EDB50020838E14A
:101BF000970EA6D802E0C9D8FEE18FD8D8D809C080
:101C0000DBFF040EA3D8B5EC0BF0E552E552010E54
:101C1000DF6E26D0E9D8F350F41022E078D8020E17
:101C2000E926000EEA220E0EEFCFDBFFDB0408E10F
:101C30006ED8030EAFD80B6EE850E66E010E0BD0D7
:101C40000E0EDB5002080CE162D8030EA3D8096E19
:101C5000E850E66E040EE66EA9EC0FF0E552E55290
:101C6000DF50266E0F0EE15C02E2E16AE552E16EA2
:101C70002650AFD0A9D8FD0EDBCF26F0FE0EDBCF6D
:101C800027F0080E265C000E275825E201019B0E66
:101C9000F16FB0D802E079D8FEE126500101F36F70
:101CA00003C026F004C027F0276A0350F46FFD0E2E
:101CB000DBCFF5F1DBCFF6FFFE0EDBCFF7FFF6064D
:101CC000000EF75A5E0EF626460EF7220800F5CFF4
:101CD000F6F1040E50D87DD077D819D8EFCF28F080
:101CE00028C029F0286A13D8010E54D82824266E5B
:101CF000000E2920276E0350261806E104502718ED
:101D000003E1010EF36E01D0F36AF46A62D065D884
:101D1000030EE926000EEA221200FF0E2616000E20
:101D20002716040E26C0DBFF03C026F00001276A39
:101D3000FF0E2616000E2716050E26C0DBFF12002A
:101D4000F36E020EF3CFDBFFFAEF0EF0F36E030E2D
:101D5000F3CFDBFFD950010FE66E000EDA20E66EFE
:101D60001200FD0EDBCFE6FFFE0EDBCFE6FFB4DF99
:101D7000E552E5521200F26FF00EE66E010EE66ECD
:101D8000E1EC17F0E552E5521200D89027322632E6
:101D9000E8061200E926000EEA22EF501200F5CF05
:101DA000DBFF600EF66E460EF76E080012000D0E99
:101DB000DB50E76E060EE7CFDBFF070E1200FAC11D
:101DC000E9FFFBC1EAFF1200D9CFE6FFE1CFD9FF5F
:101DD0001200E552E7CFD9FF1200FD0EDBCFE9FF7D
:101DE000FE0EDBCFEAFF1200BCDFF3CF26F0F4CF0C
:101DF00027F0120003C026F004C027F0080E0F0BD6
:101E00001200DACFE4FFE2CFDAFFE9CFE4FFEACF56
:101E1000E4FFF6CFE4FFF7CFE4FFF5CFE4FFF3CF25
:101E2000E4FFF4CFE4FFFACFE4FF00EE34F00B0E52
:101E3000E80403E3EECFE4FFFBD700EE26F00E0E3E
:101E4000E80403E3EECFE4FFFBD7E652F2940F5031
:101E5000D66E080604E1280E086E28EC23F0220650
:101E6000000E235A2250231005E10C0E226E236A25
:101E7000EFEC21F02006000E215A2050211008E13D
:101E8000C80E206E216A06EC22F0005001E0000628
:101E90001E06000E1F5A1E501F1006E1D00E1E6EA9
:101EA000070E1F6E33EC22F0E55200EE33F00E0EFB
:101EB000E80403E3E5CFEDFFFBD700EE3EF00B0EA9
:101EC000E80403E3E5CFEDFFFBD7E5CFFAFFE5CF6D
:101ED000F4FFE5CFF3FFE5CFF5FFE5CFF7FFE5CF63
:101EE000F6FFE5CFEAFFE5CFE9FFE5CFDAFF110026
:101EF000D8CFE4FFE0CFE4FFE46EDACFE4FFE652B0
:101F0000A4AA14D00F0130AB0CD00A5004E1010E8A
:101F1000016E309706D00A0604E130973F0E111685
:101F2000308730A903D0010E016E3097A46AE552C4
:101F3000E5CFDAFFE550E5CFE0FFE5CFD8FF1000B1
:101F4000CFD8FE0EDB50A96EA69EA69CA680A850F8
:101F5000CCD0C6D8F29EA69EA69CA684FE0EDB50D0
:101F6000A96EFD0EDB50A86E550EA76EAA0EA76EC9
:101F7000A682A1A8FED7A198F28EB7D0B1D8030E41
:101F8000E126FE0EDB50DF6EDF50DF2AE66ED8DF83
:101F9000E552E66ED950010FE96EDACFEAFFE5525D
:101FA000E750EE6EED6ADFCFE6FFCADFE552286E3E
:101FB000296E286A010EDB502810266E020EDB50B7
:101FC0002910276E010E26C0DBFF020E27C0DBFFA3
:101FD000010EDBCF26F0020EDBCF27F026C0F3FF89
:101FE00027C0F4FF030EE15C02E2E16AE552E16E14
:101FF0007CD076D8E652FE0EDB50DF6EFC0EDBCFD7
:10200000E6FFDF50DF2AE66EA4DFE552E552FC0E64
:10201000DBCF26F0FD0EDBCF27F027C026F0276AA6
:102020002650E66EDFCFE6FF94DFE552E552E5523B
:102030005CD056D8020EE126DF6A0A0EDF5C11E2A0
:10204000010EDB6ADB50266E276A273404E2265035
:10205000F508000E275403E3010EDB2AF3D7DF2A2D
:10206000ECD7020EE15C02E2E16AE552E16E3DD09E
:1020700037D8E652DF6A640EDF5C03E2DADFDF2A7C
:10208000FAD7E55232D02CD8200E23D802E2000E27
:102090001FD0400E1ED802E2010E1AD0600E19D8D1
:1020A00002E2020E15D0800E14D802E2030E10D008
:1020B000A00E0FD802E2040E0BD0C00E0AD802E226
:1020C000050E06D0E00E05D802E2060E01D0070E7E
:1020D0000CD0F36EFE0EDBCFF4FFF350F45C120075
:1020E000D9CFE6FFE1CFD9FF1200E552E7CFD9FF04
:0220F0001200DC
:0E20F2009AEC14F0E65289989298F9EC14F0EA
:102100008988F9EC14F0898A929A94969488949A22
:10211000200EC66E9E96C78CC79E1D0EC6EC15F08F
:10212000080EDF14FAE1DF1C010BF7E10ADBF9EC22
:1021300014F00301956B010E9A6F966B976BE66A2C
:10214000080E8EEC14F0E66A090E8EEC14F0F70E11
:10215000E66E0C0E95EC15F00D0E8EEC14F0F70EED
:10216000E66E0A0E95EC15F00B0ED8DBF80EE66E57
:10217000040E95EC15F0050ED1DBE66A020EBFECFD
:1021800015F00D0EE66EDCEC14F0320EE66EC9ECC6
:1021900015F0120EE66E060EC1DB0C0EE66E070E93
:1021A000BDDBEE0EE66E0A0EB9DB050EE66E0B0E1B
:1021B000B5DB040E63EC15F074C3E6FF040EAEDB72
:1021C00075C3E6FF050EAADB76C3E6FFC9EC15F082
:1021D00077C3E6FF030EA2DB78C3E6FFDCEC14F066
:1021E00079C3E6FF010E9ADBE66A010EE66E100E79
:1021F000E66EFFEC14F0720EE66E040EE66E140E40
:10220000E66EFFEC14F0E66A1BDBE552040EA6DB7B
:10221000E5528CD3010EE66EB7DAE552F350040BAB
:1022200001E0010E12001F0E9FEC15F0E850080BA4
:10223000080A01E0010E1200D9CFE6FF77D3D9CF0B
:10224000E6FF74D3ADEC15F003019A5122E1010EC3
:102250009A6F96C326F097C327F02606000E275ADA
:1022600026C0DEFF27C0DDFFC2EC15F0CDDB02E3A8
:1022700093DB04E2F70EDE6E1B0EDD6E400ECCDB50
:1022800085EC15F0DFCFE6FF0C0ECCEC15F00D0E53
:1022900045DB020EE15C02E2E16AE552E16E46D303
:1022A00049DB040EE1267AEC15F0190EC6EC15F0A8
:1022B00085EC15F00E0E37DB020E26C0DBFF0F0E8D
:1022C00032DB030E26C0DBFF7AEC15F0190E2BDB98
:1022D000DF500001265CE9E185EC15F00C0EC6EC40
:1022E00015F00D0EBCEC15F09FDBDECF28F0DDCF36
:1022F00029F02650285C2750295821E2F70E2A6E33
:102300001B0E2B6E2C6A2D6A020EDBCF32F0030EF1
:10231000DBCF33F0DE50325C2E6EDD5033582F6E43
:10232000306A316A2E502A5C266E2F502B58276E49
:1023300030502C58286E31502D58296E1CD074DB2B
:10234000DF50261809E1DE52DD50271805E1F70EAF
:10235000F36E1B0EF46E11D0DECF28F0DDCF29F026
:10236000020EDB50285C266E030EDB502958276EC8
:102370002606000E275AA3EC15F0040EE15C02E2DB
:10238000E16AE552E16ED2D2D5DA140EE126B2DB73
:10239000190EB8DBE85002E1000E5CD003019A513F
:1023A00001E150DF96C398F397C399F3B1DB96C36D
:1023B000E6FF02DB97C3E6FF010EB0DA140EE66E0D
:1023C000E66AD9CFE6FFDACFE6FF5AD9E552E55201
:1023D000E552E552120EDBCFE6FF130EDBCFE6FF30
:1023E0005AEC19F0E552E552120EF3CFDBFF130E53
:1023F000F4CFDBFFDECF96F3DDCF97F3060EE66E6C
:10240000E66AD9500C0FE66E000EDA20E66EE2DACC
:10241000E9CF26F0EACF27F0E9CFE6FFEACFE6FFE3
:102420005EEC21F0286E060EE15E285004DBEF68BA
:10243000130EDB5008080BE1120EDB5004E0120E05
:10244000DB50060804E1F7DA120EDBCFEFFF0301E1
:102450009A6B010E266E140EE15C02E2E16AE5520F
:10246000E16E265063D266DA020E82DBF80EE66E6B
:10247000020E5BDB030E52DAD950FA0FB2DA060E07
:10248000EE261C0EED22FA0EDBCFE6FF060E46DA34
:10249000FB0EDBCFE6FF070E41DAE66AA7DA060E8F
:1024A000E66EE66AFD0EDBCFE6FFDFDA2AD9E552FB
:1024B000E552E552E55274C3E6FF98DA75C3E6FFCC
:1024C00095DA76C3E6FF92DA77C3E6FF8FDA78C350
:1024D000E6FF8CDA79C3E6FF89DA080EE66E86DA63
:1024E000FC0EDB5002E1000E01D0060EE66E7EDA35
:1024F0001DD21C0E07DB26A208D0020EE66E1C0EB3
:102500000ADB800E2BDA800E43DA080EAEEF14F0F1
:10251000BDDA01E237DAFCDADFCFE6FF4DDA56DA70
:10252000FDD9DFCFE6FF35DB51DA030EF7D9020E16
:10253000E15C02E2E16AE552E16EF8D1FBD9FE0E00
:10254000DBCF95F3E150FC0F4CDA070EEE261C0EA4
:10255000ED22020E0DDBFC0EDBCFE6FF2DDAFD0EC9
:10256000DBCFE6FF010EDAD9FC0EDBCFE6FF11DB95
:10257000FD0EDBCFE6FF030ED1D9D8D187DA01E219
:1025800001DA98DAE0D901E2FDD977DA1F0EBADA7A
:1025900026BAFCD7A1DA02E2E16AE552E16EC6D1C1
:1025A000DCDAFD0EDBCF26F0FE0EDBCF27F0286A4B
:1025B000296A060E26261C0E2722000E2822292212
:1025C000262A27222822292226C0DEFF27C0DDFF57
:1025D00071DA53DA1F0E96DA26BAFCD77DDA02E2F8
:1025E000E16AE552E16EA2D1B8DAD950FD0FF9D90E
:1025F000EE50ED1003E1F368F4682ED0D950FD0FD2
:10260000F0D9010EEE1808E1ED5006E12CD8276E46
:10261000266A261E271E1FD07BDAE66A99D8E55265
:10262000266EDF6E010EA8DA9CDAACDA000EECD969
:1026300007E3B2D905E37DDA86D903E2A3D901D055
:1026400078DA1BDA1F0E5EDA26BAFCD7160E9EDA8F
:10265000170E92DA3CDA77DA020EE15C02E2E16A06
:10266000E552E16E63D1899A3A0EC96E9EA6FED7F5
:102670009E96C96A9EA6FED79E96898AC950120068
:102680006CDA899A3A0EC96EDE6ADD6AFD0EDB06E7
:10269000FE0E01E2DB069EA6FED79E9618DAFB0E22
:1026A000DBCF28F0FC0EDBCF29F02850265C295028
:1026B000275811E2C96ADF2A010E01E3DB2AFD0E69
:1026C000DB2AFE0E01E3DB2A9EA6FED79E9682D968
:1026D000C9CFEFFFE3D7898A50D902E2E16AE55218
:1026E000E16E24D127D9899A7A0EC96E9EA6FED7AB
:1026F0009E96FE0EDB50C96E9EA6FED79E96898AD8
:1027000015D118D9899A7A0EC96E9EA6FED79E96C3
:10271000D950FB0F66D9EE50ED1011E05BD9EF50A8
:10272000C96EFD0EDB2AFE0E01E3DB2AFB0EDB0683
:10273000FC0E01E2DB069EA6FED79E96E9D7898AAB
:10274000F5D0899AC9689EA6FED79E96898A1200FE
:10275000D6D9C96E9EA6FED79E96C96A9EA6FED7FA
:102760009E96898AC950E2D0CAD9C96E9EA6FED764
:102770009E96C96A9EA6FED79E96C96A9EA6FED759
:102780009E96898AC950D2D0E8D9ACD9010EE66E9E
:10279000120EC4D80A0E97D90A0E13D9000126B01A
:1027A000FBD7140EE66E020EEAD9E66A120EB6D810
:1027B000180E07D9DF6E190E04D932D9DED802E21D
:1027C000E16AE552E16EB2D09AD94009C96E9EA67F
:1027D000FED746D99EA6FED79E96898AA7D08FD9C6
:1027E000A009C96E9EA6FED73BD99EA6FED79E968F
:1027F000898A9CD084D98009C96E9EA6FED730D91B
:102800009EA6FED79E96898A91D094D86BD9FC0E4D
:10281000DBCFE6FF160E82D8FD0EDBCFE6FF170EEC
:102820007DD80A0E50D90A0ECCD8000126B0FBD7AD
:102830007DD080D8030EACD818D91F0E71D976D0B0
:1028400079D8030EE1260C0EA3D8E66A9DDFE55287
:10285000DE52F3CFDEFFF4CFDDFFDD52FE0EDB50A4
:10286000020808E1EFD8EF50010BE76EFE0EE7CF4C
:10287000DBFF0CD0FE0EDB50266EE4D82650E9D8E4
:10288000A5D8020EDBCFE6FFE66AB9D8020EE66EE7
:1028900076D9020EE66E68DFE552DF6EFE0EDB5083
:1028A000266E56D9E850D5D8DFCFE6FF72D9FE0E96
:1028B000DB5002E0150E01D0120EE66E040E2ED88B
:1028C000040E4CD8030EE15C02E2E16AE552E16ECF
:1028D0002DD0040E5DD81D0E15D926B4FCD71F0EC1
:1028E00011D926B6FCD7200E0CEF15F0200EE66E9F
:1028F0001E0E11D91D0E06D926A0FCD7040EAEEF70
:1029000014F018D8150EDFD8B0D8150E07D80ED091
:10291000150ED9D8150E13D9E8501200E66E54DF03
:10292000E552E55212000BD9266E1200E552E7CFB0
:10293000D9FF1200D9CFE6FFE1CFD9FF120079DF2E
:10294000E552E55212001ED9D880F70E26541B0E10
:102950002754000E2854000E29541200E66E1F0E54
:1029600090EF15F0DBCF27F02606000E275AF0D89F
:102970002650EE262750ED221200A9D8E4D8020EE8
:10298000E15C1200E5D8F80EEE5E1B0EED5A120067
:10299000E66E1F0E8BEF15F0DECF2AF0DDCF2BF0A9
:1029A0002C6A2D6AD880F70E2A541B0E2B54000E69
:1029B0002C54000E2D541200E66A06DFE552E55253
:1029C0001200E66ED1DEE552266E1200010EDBCF5C
:1029D000E6FF1200FD0EDBCFE9FFFE0EDBCFEAFFC4
:1029E0001200E96EFF0EDA20EA6E12007BDEE5527D
:1029F00012000A0EE66E3FEC23F0E552120005DFEE
:102A0000E552E552E5521200265C000E2758000EF2
:102A10002858000E29581200E66E1E0E90EF15F091
:102A2000010E26C0DBFF1200020EDBCF26F0030EE4
:102A3000DBCF27F01200FB0EDBCFE9FFFC0EDBCF74
:102A4000EAFF1200D950010FE96EDACFEAFFEE5229
:102A50001200010BF36EFE0EEF14F310EF6E120076
:102A60009E96FD0EDB50C96E1200FE0EDBCFE6FF18
:102A70001200899AFE0EDB501200DFCFE6FF120E25
:102A80008BD8130E4BDF300EAEEF14F066D8140E59
:102A90000301296A9825286E99512922FD0EDB50E1
:102AA0002824266EFE0EDB50292026C0DEFFDD6EB8
:102AB000A3EF14F0100E5CD854D8FB0EDBCF26F039
:102AC000FC0EB2EF14F0E66E030EBFEF15F0DECF92
:102AD00026F0DDCF27F01200160E4ED8170E56D86E
:102AE000BDEF14F0140EE66E020E49D8BEDF140ED0
:102AF0008EEF14F0190EE66E010EBFEF15F01ADF1F
:102B000039EF15F010DF000112000C0EB8EF15F0D0
:102B1000000EB8EF15F0E66E62DEE552E5521200E7
:102B2000E66E68DEE552E5521200F8DE1B0EE66E38
:102B30001200FD0EDBCF26F0FE0EB2EF14F0E66EB3
:102B400007DEE552120026C0F3FF27C0F4FF120093
:102B5000D9CFE9FFDACFEAFF1200ECDE020EE12660
:102B60001200DFCFE6FF100E17D8110E8EEF14F013
:102B7000E66EE66A9FEF14F0D6DE10EF15F0E66E13
:102B80009FEF14F0A4DF286A296A1200CCDEDF6E02
:0E2B90001200020E8EEF14F0C1DEE6EF14F01C
:022B9E00CADA91
:102BA000030EE1268FDAFBDA090EF36E020EF3CF85
:102BB000DBFF2ADB3A0EEF6E010E58DA530EEF6E92
:102BC000020E07DB030E05DB040E03DB050E01DB43
:102BD000060E4CDA4E0EEF6E75DAEE52EF387EDAF4
:102BE000070EFBDA6FDAEE52EF5078DA080EF5DAFC
:102BF000010EDB6ADF5089DA13E264DAAFDA0F0123
:102C0000C2DAEF386BDA73DAE8DA5CDAA7DABBDA61
:102C1000EF5064DA6CDA010FE0DA010EDB2AEAD752
:102C200066DA24DA3B0EEF6E62DA010F266E030ECF
:102C3000E15C02E2E16AE5526CD27CDA040EE12644
:102C4000DF6AFD0EDBCF3AF0FE0EDBCF3BF0020E6B
:102C50003AC0DBFF030E3BC0DBFF010EDB6AFC0E5C
:102C6000DB5053DA1BE2010EDB5017DA3A0813E1AE
:102C7000010EDB2812DA53080EE1010EDB50266E3E
:102C8000276AD950020FE96EDACFEAFF2650EE2606
:102C90002750ED2203D0010EDB2AE1D7FC0EDB50DA
:102CA000F36E010EDB50F35C02E1000E34D0080E2F
:102CB00097DAEFCF26F0070E93DAEF38F00B2624E1
:102CC000E66E31DAEE5246DA2EDA69DA010EDB6AA6
:102CD000DF501BDA1BE2010EDB50E824090F010F65
:102CE0007FDAEFCF28F0010EDB50E824090F78DA05
:102CF000EF38F00B2824E66E16DA030E81DA010EA7
:102D0000DB5041DA27DA010EDB2AE2D70CDA4FDAA0
:102D1000DFCFEFFF010E266E040EE15C02E2E16AF6
:102D2000E552F7D107DAE652DF6A040EDF5C12E201
:102D3000AE0EE66E150EE66E66EC00F0E552E5525C
:102D4000E66EDF50EA6AF00FE96E020EEA2202DA5E
:102D5000DF2AEBD7DF6A180EDF5C05E2DF50A8D967
:102D6000EF6ADF2AF8D7E5523ED2E4D9020EE12617
:102D7000DF6A040EDF5C06E2DFCFE6FF3BD8E552F8
:102D8000DF2AF7D7010EDB6A180EBFD909E22FDA66
:102D9000EF50020802E12BDAEF6A010EDB2AF4D7CA
:102DA000010EDB6A180EB1D91EE221DAEF0418E138
:102DB000010EDB500A0DF3CF26F0F4CF27F0000E02
:102DC0002626020E272226C0E6FF27C0E6FF79D876
:102DD000E552E552000907E00ADA020EEF6E03D071
:102DE000010EDB2ADFD7020EE15C02E2E16AE55266
:102DF000E16EF9D19FD9400EE126FE0EDB50C9D914
:102E0000330E26C0DBFF340E27C0DBFF79D9D2D9C1
:102E100051E076D903EC02F0E55200094BE0350EA3
:102E2000DB6A320EF36E350EE6D91AE2D9CF28F0FE
:102E3000DACF29F0350EDBCFF3FFDB2AF3500001A8
:102E4000D924266E000EDA20276E26C0E6FFE66E35
:102E500057D9CCEC01F0E552E552E5520009E1E129
:102E6000D9CF26F0DACF27F0350EDB500F01D92469
:102E7000E96E000EDA20EA6EEF6A42D996EC01F0B4
:102E8000E55275D9350EDBCFE6FFD9CFE6FFDACFB5
:102E9000E6FFD3DE266E050EE15E265000090AE04D
:102EA00066D9B5EC0BF0E552E55261D92DEC0DF089
:102EB000E552E552400EE15C02E2E16AE552E16E64
:102EC00092D138D9280EE126DF6A040EDF5C12E2C7
:102ED000DF505FD9240E26C0DBFF250E27C0DBFFA5
:102EE0004DD968D905E04AD96AD902E1000E62D00D
:102EF000DF2AEBD7D950010FE66E000EDA20E66E1E
:102F0000FD0EDBCFE6FFFE0EDBCFE6FF48DEE5522F
:102F1000E552E552E552E76E210EE7CFDBFFDF6AAF
:102F2000040EDF5C46E2DF5034D9260E26C0DBFFFC
:102F3000270E27C0DBFFCDD83DD939E0230EDB6A51
:102F4000C8D83DD90AE10A0EF36E230E54D905E222
:102F5000230EDB2A19EC10F0F3D7BBD830D924E0CC
:102F6000220EDB6A210EDB50F36E220E44D917E2EB
:102F7000D950010F266EDACF27F0220EDB500F0159
:102F80002624E96E000EDA20EA6EEF50E66EA1D834
:102F900031EC01F0E552E552220EDB2AE3D799D855
:102FA000E3EC00F0E55203D08282280E076EDF2AA0
:102FB000B7D7010E266E280EE15C02E2E16AE55207
:102FC000A8D0B8D8040EE126DE6ADD6A020EDB6AFC
:102FD000030EDB6ADE6ADD6ADECF26F0DDCF27F086
:102FE000D890275004E6180E265C000E275833E2CE
:102FF00042D8EF502BE166D8EE520DD9EE52AAD846
:1030000061D8D5D808D9D3D8A5D8020EDB6A030E6B
:10301000DB6A020EDBCF26F0030EDBCF27F0D89061
:10302000275004E6070E265C000E27580BE24AD80C
:1030300086D8F1D884D88ED8020EDB2A030EE9E3B5
:10304000DB2AE7D718D8010EEF6E09D0DF2A010E70
:10305000C3E3DB2AC1D78282280E076E000E266EDC
:10306000040EE15C02E2E16AE55253D0E76ECCD88F
:10307000E75000EF19F0DECFE9FFDDCFEAFF0A0EDF
:10308000EA02F3CFEAFFE902F3CFE9FFF450EA26C0
:10309000000EE926020EEA221200E76E020EDBCFD6
:1030A000E9FF030EDBCFEAFFE750AAD8EF5012008A
:1030B0000A0DF3CFE9FFF4CFEAFF000EE926020E76
:1030C000EA221200FD0EDBCFE9FFFE0EDBCFEAFFA6
:1030D0001200260EDBCFE9FF270E76D00F0BEA6A2F
:1030E000490FE96E030EEA22EF50E66E1200020E5F
:1030F000DBCFE6FF010EDB50E824E552E7241200A7
:10310000330EDBCFE9FF340E5FD0F36E010EFBEF21
:1031100018F0E16E265067D0D00FEA6A590FE96EB9
:10312000030EEA221200FA0EDBCFE9FFFB0EDBCF23
:10313000EAFF1200D9CFE6FFE1CFD9FF1200030E5C
:103140005FD8020EDB50E924E96E030EDB50EA2063
:10315000EA6E1200E552E750EF6E1200030E50D8EF
:10316000E9CF26F0EACF27F0010EDB501200D9504C
:10317000360FE66E000EDA20E66E1200240EDBCF6C
:10318000E9FF250E21D0E924E96E000EEA20EA6E5F
:103190001200276AF00F266E020E27221200EE524E
:1031A000EF50E66E43EC10F0E552DF6E1200020EB7
:1031B00000EF19F0ABEC00F0E552000912001EEC34
:1031C00001F0E55200091200DBCFEAFFEF50E66E96
:1031D00012004CDF300EEF6E120048DFAAEF18F03D
:1031E0005CDF8CEF18F0E552E7CFD9FF1200010E3B
:1031F000DB5058EF18F0DBCFF4FFF350F45C120013
:10320000E926000EEA221200FB0EDBCFE9FFFC0EDE
:0E321000DBCFEAFF1200EF50E66E3BEF18F046
:02321E007DD958
:10322000FE0EDB50460802E2200E80D9FD0EDB5078
:10323000460802E2200E84D9FE0EDB50390802E275
:10324000370E01D0300E72D9FD0EDB50390802E284
:10325000370E01D0300E74D9DBCFE6FFFE0EDB381F
:10326000F00BE552E7105ED158D9FE0EDB380F0B9C
:10327000F36EFE0EF3CFDBFFDB50090805E2FE0E16
:10328000DB50410FF60F03D0FE0EDB50300F4AD15A
:1032900044D9FE0EDB98DB9ADB9CDB9EDB500908F1
:1032A00005E2FE0EDB50410FF60F03D0FE0EDB50A1
:1032B000300F38D132D9030EE126FD0EDBCFDEFF11
:1032C000DBCFDDFF010EDB50E76E020EE7CFDBFF49
:1032D000010EDFCFDBFF020EDB50DF6EDECF26F00C
:1032E000DDCF27F026C0F3FF27C0F4FF030EE15C1B
:1032F00002E2E16AE552E16E15D10FD9070EE1262F
:10330000D950FB0FE96EFF0EDA20EA6E010EEECF08
:10331000DBFF020EEECFDBFF030EEECFDBFF040E72
:10332000EECFDBFFD950010F266E050E26C0DBFF66
:10333000060EDACFDBFFDAD8030E16D9EF50E66EB1
:10334000D5D8030E0BD9DFCFEFFFD0D8020E0CD9A2
:10335000010E00D9EF50E66EC9D8020EFFD8010E5B
:10336000F9D8DFCFEFFF010EDBCF26F0020EDBCF67
:1033700027F0030EDBCF28F0040EDBCF29F026C0A8
:1033800038F027C039F028C03AF029C03BF0070ECA
:10339000E15C02E2E16AE552E16EC4D0BED80C0EF7
:1033A000E126080EDB6A090EDB6A0A0EDB6A0B0EE9
:1033B000DB6AFB0EDBCF26F0FC0EDBCF27F0D890CC
:1033C0002732263226C0DEFF27C0DDFFFD0EDBCF11
:1033D0003AF0FE0EDBCF3BF0020E3AC0DBFF030EED
:1033E0003BC0DBFFDFCF26F0DF06010EDBCF27F08F
:1033F00001E2DB062650271017E0D950020FE96ED4
:10340000DACFEAFFEECFF3FFEDCFF4FF020EEE26A8
:10341000000EEF22F3CFE9FFF4CFEAFFEECF26F064
:10342000EFCF27F06AD8DED7FB0EDB50010B0AE0A6
:10343000020EDBCFE9FF030EDBCFEAFFEFCF26F072
:10344000276A5BD8D950080FE96EDACFEAFF040E7D
:10345000EECFDBFF050EEECFDBFF060EEECFDBFF80
:10346000070EEECFDBFFD950060FE96EDACFEAFF89
:10347000EECFDEFFEDCFDDFFEE50ED1027E00A0EC0
:10348000DB6A0B0EDB6A080EDBCF26F0090EDBCF02
:1034900027F0286A296ADECF2AF0DDCF2BF02C6ACC
:1034A0002D6A2A5026262B5027222C5028222D50B8
:1034B0002922080E26C0DBFF090E27C0DBFF0A0EFB
:1034C00028C0DBFF0B0E29C0DBFFBCD7080EDB1CBE
:1034D000266E090EDB1C276E26C0F3FFF46E0C0E61
:1034E000E15C02E2E16AE552E16E1CD0050EDBCF41
:1034F000E9FF060EDBCFEAFF1200286A296AD950DD
:10350000080FE96EDACFEAFF2650EE262750EE22AA
:103510002850EE222950EE221200D9CFE6FFE1CF4B
:10352000D9FF1200E552E7CFD9FF1200266EFE0E3A
:10353000DBCFE7FF2650E75EFE0EE7CFDBFF120092
:10354000266EFD0EDBCFE7FF2650E75EFD0EE7CFD0
:10355000DBFF1200E926000EEA221200FBDFE55233
:10356000E750EF6E76EF1AF0F5DFEFCFDFFF76EF83
:023570001AF04F
:0E35720076D9160EE126140EE66EE66A79D9B9
:1035800040EC13F05FD9020EDB50F00B400823E152
:10359000020EDB500F0B040DF3CFFFF00001F350D0
:1035A000E66EE66A000EE66EE66ABEEC12F04AD9F6
:1035B000F3CFDEFFF4CFDDFF0001FF51E66EE66AD8
:1035C00088EC12F0E552E552D9CFE9FFDACFEAFFF5
:1035D000EE50ED1002E0000E4FD04BD905D9E55268
:1035E000E552D950FD0FE96EFF0EDA20EA6EEE507B
:1035F000ED100DE04CD9120EDBCFEEFF130EDBCF3A
:10360000EEFF140EDBCFEEFF150EDBCFEEFFFB0E51
:10361000DBCFE9FFFC0E34D90E0EDBCFEEFF0F0E31
:10362000DBCFEEFF100EDBCFEEFF110EDBCFEEFF98
:10363000F90EDBCFE9FFFA0EDBCFEAFF0B0EDBCF93
:10364000EFFF0001FF51286E296A040EDBCF3AF02C
:10365000050EDBCF3BF028503A5C266E29503B58D4
:10366000276EF70EDBCFE9FFF80EDBCFEAFF26C0AF
:10367000EEFF27C0EDFF010E266E160EE15C02E2A2
:10368000E16AE552E16E2650F0D0EAD8140EE12648
:103690000001FF6F450EDF6E010EDB6AC8D8020E17
:1036A00026C0DBFF030E27C0DBFF0201FE2B000E4E
:1036B000FF23040EFEC2DBFF050EFFC2DBFF060E7A
:1036C000DB6A070EDB6A640EF36E080EF3CFDBFFD6
:1036D000FC0EDB50E76E090EE7CFDBFF0A0EDB6A5C
:1036E0000B0EDB6A0C0E70C3DBFF0D0E71C3DBFF2C
:1036F0000E0E72C3DBFF0F0E73C3DBFFFD0EDBCFBD
:10370000E9FFFE0EBDD8100EEECFDBFF110EEECF9F
:10371000DBFF120EEECFDBFF130EEECFDBFFD9CFB8
:10372000E6FFDACFE6FF60D8E552E55280D826C042
:10373000E6FF27C0E6FFE66AAAD8E9CF28F0EACF7D
:1037400029F0E9CFE6FFEACFE6FF33EC12F02A6E6C
:10375000050EE15E2A50140EE66EE66AD9CFE6FF4A
:10376000DACFE6FF81EC13F06DD8140EE66EE66A50
:10377000000EE66EE66AD0EC12F064D80A0EF3CFC3
:10378000DBFF0B0EF4CFDBFF0A0E61D8020EE66EF4
:10379000E66AD9500A0FE66E000EDA20E66E81EC7A
:1037A00013F050D8140E53D8F36AF46A140EE15C87
:1037B00002E2E16AE552E16E58D052D80001FF51B1
:1037C000E76EFD0EDBCF26F0FE0EDBCF27F0E750D5
:1037D0002626000E272226C0E6FF27C0E6FF88EC3B
:1037E00012F0E552E55241D03BD851D8020E0BD829
:1037F000020E1AD8040E07D8040E16D80A0E03D8E3
:103800000A0E4CD832D0E926000EEA22EECFE6FFAF
:10381000EFCFE6FF5AEC19F0E552E552F3CF26F070
:10382000F4CF27F047EF1CF039D847EF1CF0FA0E21
:10383000DBCF26F0FB0EDBCF27F0140E2626000E82
:1038400027221200E552E552E552E5521200E66EDB
:10385000E66AE66A9EEC12F0E552E552E552120085
:10386000D9CFE6FFE1CFD9FF1200E552E7CFD9FF6C
:103870001200D950020FE66E000EDA20E66E12003A
:10388000DBCFEAFF060EE926000EEA221200FD0E4B
:10389000DBCFE9FFFE0EDBCFEAFF1200E926000EC8
:0C38A000EA22F3CFEEFF27C0EDFF12007C
:0438AC0052D958D9BC
:1038B00040EC13F0E552E552E552E55222EC11F0EE
:1038C00040D9D9CFE9FFDACFEAFF010EEE1832E195
:1038D000ED5030E1040EDB50266E276A060E2618E6
:1038E00029E1275027E1050EDB50286E296A040ED6
:1038F000281820E129501EE1D950060FE96EDACFD1
:10390000EAFF020EEE1805E1ED5003E113D9EF6A6C
:1039100013D0D950060FE96EDACFEAFF010EEE1888
:1039200006E1ED5004E106D9010EEF6E05D002D993
:10393000020EEF6E000E34D0180EDB500301705DE6
:103940002EE1190EDB50715D2AE11A0EDB50725D1B
:1039500026E11B0EDB50735D22E12DD9080EDBCF73
:10396000EEFF090EDBCFEEFF0A0EDBCFEEFF0B0EF4
:10397000DBCFEEFF0C0EDBCFEEFF0D0EDBCFEEFF4D
:10398000CDD80E0EDBCFEEFF0F0EDBCFEEFF100E0D
:10399000DBCFEEFF110EDBCFEEFF010E01D0000EEC
:1039A000266E1C0EE15C02E2E16AE552E16E2650F1
:1039B000ECD0CFD8010EDE6EDD6A020EDB6A080E97
:1039C000F36E030EF3CFDBFF060EF36E040EF3CFA0
:1039D000DBFFF36E050EF3CFDBFFFC0EDB040FE124
:1039E000010EC5D8120EDB68130EDB68140EDB68FF
:1039F000150EDB68160EDB68170EDB6809D0020EA9
:103A0000B6D8D9D8120ED926B9D8B8D8180ED95EDA
:103A1000080E74C3DBFF090E75C3DBFF0A0E76C305
:103A2000DBFF0B0E77C3DBFF0C0E78C3DBFF0D0E45
:103A300079C3DBFF0E0E70C3DBFF0F0E71C3DBFF1C
:103A4000100E72C3DBFF110E73C3DBFF0E0EC1D865
:103A5000EF50E552E71803017A1512E10F0EB9D8BD
:103A6000010EB0D87B150CE1100EB3D8020EAAD807
:103A70007C1506E1110EADD8030EA4D87D150DE01E
:103A8000180E7EC3DBFF190E7FC3DBFF1A0E80C347
:103A9000DBFF1B0E81C3DBFF0DD040D8180EEECF2D
:103AA000DBFF190EEECFDBFF1A0EEECFDBFF1B0E96
:103AB000EECFDBFF46D81C0EE66EE66A060EE66E1B
:103AC000D950120FE66E000EDA20E66E33EC12F0DB
:103AD000266E050EE15E26501C0E42D881EC13F0D6
:103AE000E552E552E552E55279EC12F01C0EE15C2C
:103AF00002E2E16AE552E16E48D0D9CFE6FFE1CFBC
:103B0000D9FF59D84BD857D844D80ED847D80CD855
:103B100040D804D843D802D83CD837D04CD8060E69
:103B2000E926000EEA22120046D8020EE926000E0F
:103B3000EA221200FB0EDBCFE9FFFC0EDBCFEAFF2F
:103B40001200D9CFE6FFDACFE6FFD7DFE552E55224
:103B50001200D9CFE6FFE1CFD9FF1C0EE1261200FB
:103B6000E66EE66AD9CFE6FFDACFE6FF1200F36E23
:103B7000060EF3CFDBFF070EDB6A1200EECFDEFF8F
:103B8000EECFDEFFEECFDEFF1200E552E7CFD9FF2A
:103B90001200F3CFEEFF27C0EDFF1200EECFE6FFDD
:103BA000EFCFE6FF5AEC19F0E552E552F3CF26F0DD
:103BB000F4CF27F01200FD0EDBCFE9FFFE0EDBCFC6
:103BC000EAFF1200E926000EEA22EF50E552E7185C
:0A3BD0001200DBCFE6FF8EEF1DF0C0
:063BDA002DD9440EE12686
:103BE000080EE66EE66A3FD940EC13F004D9420EA7
:103BF000DB6A430EDB6A04D9EF50E66EE66A140E08
:103C0000E66EE66ABEEC12F0F6D8400EF3CFDBFFAC
:103C1000410EF4CFDBFF080E266EF2D82650EF5E81
:103C2000EFD8EF50E66EE66AFB0EDBCFE6FFFC0E48
:103C3000DBCFE6FF40EC13F0DED8E9D805D9DFCFC3
:103C4000EFFFF70EDBCFE9FFF80EDBCFEAFF040E44
:103C5000DBCFEEFF050EDBCFEDFFF50EDBCFE9FF8F
:103C6000F60EDBCFEAFF060EDBCFEEFF070EDBCF53
:103C7000EDFF400EDBCF26F0410EDBCF27F0420EEA
:103C8000DB50261803E1430EDB50271802E0000E3C
:103C900001D0010E266E440EE15C02E2E16AE552BB
:103CA000E16E2650CDD0C7D8420EE126B5D8400EE1
:103CB00026C0DBFF410E27C0DBFF010EDB6AFC0ED6
:103CC000DB50DF6E020EDB6A030EDB6AF70EDBCF22
:103CD0003AF0F80EDBCF3BF0040E3AC0DBFF050EE6
:103CE0003BC0DBFFF50EDBCF3AF0F60EDBCF3BF04F
:103CF000060E3AC0DBFF070E3BC0DBFFF90EDBCF41
:103D0000E6FFE66AFA0EDBCFE6FFFB0EDBCFE6FF4F
:103D1000D950080FE66E000EDA20E66E5EEC21F058
:103D2000266E060EE15E265072D876D826C0E6FFD3
:103D300027C0E6FF010EE66EFD0EDBCFE6FFFE0EAE
:103D4000DBCFE6FF45EC1BF0286E050EE15E285048
:103D50006BD889D881EC13F04ED866D8140EE66E75
:103D6000E66AD0EC12F047D8020EF3CFDBFF030E69
:103D7000F4CFDBFF160EE66EE66AE66A9EEC12F002
:103D8000E552E552E552020EE66EE66AD950020FA0
:103D9000E66E000EDA20E66E81EC13F02CD879EC9A
:103DA00012F0420EE15C02E2E16AE552E16E48D0B7
:103DB00042D84AD8040E0BD8040E1AD8060E07D8DB
:103DC000060E16D8020E03D8020E45D839D0E926C1
:103DD000000EEA22EECFE6FFEFCFE6FF5AEC19F035
:103DE000E552E552F3CF26F0F4CF27F024EF1FF091
:103DF00032D824EF1FF0E552E552E552E5521200A9
:103E0000F90EDBCFE9FFFA0EDBCFEAFF12002BD869
:103E1000CFDFE552E5521200F90EDB50276A080F9A
:103E2000266E000E27221200400EDBCFE6FF410E69
:103E3000DBCFE6FF1200D9CFE6FFE1CFD9FF1200BA
:103E4000E552E7CFD9FF1200FD0EDBCFE9FFFE0EF2
:103E5000DBCFEAFF1200E926000EEA22F3CFEEFFE5
:103E600027C0EDFF1200D9CFE6FFDACFE6FF120040
:103E70000001F96BF86B010C0AD9120EE126000162
:103E8000F8A103D0F36AF46A95D0D9500F0FE96E08
:103E9000DACFEAFF8D0EEE6E030EED6EFD0EDBCF78
:103EA000E9FFFE0EDBCFEAFFEF5001E181D0DCD865
:103EB000BAEC21F0E552E552FD0EF3CFDBFFFE0E2A
:103EC000F4CFDBFF0F0EE66EE66ADBCF26F0100EB6
:103ED000DBCF27F0286A26C0E6FF27C0E6FF28C010
:103EE000E6FFD9CFE6FFDACFE6FF89EC21F0296EB5
:103EF000070EE15E2950DF5040E1B6D8ACEC21F06E
:103F0000E552E552110EF3CFDBFFDB500C0805E262
:103F10000C0EF36E110EF3CFDBFF110EDBCFE6FFBD
:103F2000E66AD950030FE66E000EDA20E66E9CD8E2
:103F300035EC21F0266E060EE15E2650000913E1F5
:103F4000010EDBCFFCF0020EDBCFFDF00001F92B00
:103F5000010EDBCF26F0020EDBCF27F026C0F3FFE9
:103F600027C0F4FF27D0D9500F0FE96EDACFEAFF50
:103F70000F0EEE26000EED22A5D7040EDF5C18E131
:103F8000D950010FE96EDACFEAFFFF0EEE1802E119
:103F9000FF0EED180DE0010EDBCF3AF0020EDBCF85
:103FA0003BF00F0E3AC0DBFF100E3BC0DBFF8AD7A1
:103FB000F368F468120EE15C02E2E16AE552E16E38
:103FC0005AD00001FE6BF891F95101E0F907120097
:103FD0005ED8E65254D80001FA2B000EFB23030EE4
:103FE000DF5C05E14CD8FA2B000EFB2305D0040E54
:103FF000DF5C02E1FA69FB69DF50E5523CD0000169
:10400000F881200EF36EF46A1200D9CFE6FF010E9C
:1040100032D0FAC0F3FFFBC0F4FF120038D8020E12
:10402000E126FCC0FAF0FDC0FBF0DE6ADD6ADFCFFE
:1040300026F0DF2A010EDBCF27F001E3DB2AFD0E9D
:10404000DB50261803E1FE0EDB50271802E0C0DF2C
:10405000EED7FAC0F3FFFBC0F4FF020EE15C02E210
:10406000E16AE552E16E07D0FD0EDBCFE6FFFE0E02
:10407000DBCFE6FF1200E552E7CFD9FF1200FAC00E
:10408000F6FFFBC0F7FF0800F550DF6E1200D9CF36
:08409000E6FFE1CFD9FF1200A9
:084098000301006B79EC10F04C
:1040A000A7EC22F02EEF00F0D9CFE6FFE1CFD9FF49
:1040B000060EE126050EDB6A03010051040A01E148
:1040C00093D0070A63E0050A4CE0040A25E0070ADA
:1040D0001DE0050A03E0010A01E0A2D0B1D8C4EC5A
:1040E00011F0E552E552E552E552000901E198D0A0
:1040F000AAD8040EDB5003E10301020E2BD0040EFC
:10410000DB5006086EE10301050E24D0AAEC22F074
:10411000000901E185D082D00B0EE66E030EE66E3B
:104120008FD8D9CFE6FFDACFE6FFB9EC1AF0266ECA
:10413000080EE15E2650000911E085D8040EDB046C
:1041400003E10301030E06D0040EDB50060804E170
:104150000301060E006F64D0050EDB6A22EC11F03D
:104160005DD08290140E066E0BC3E6FF0CC3E6FF13
:10417000D9CFE6FFDACFE6FF73D831EC03F0266E35
:10418000060EE15E265000094BE048D0006B400E61
:10419000D8800B55000E0C5524E38290140E066E49
:1041A000470EE66E030EE66E450EE66E030EE66EF5
:1041B0000B0EE66E030EE66E0D0EE66E030EE66E59
:1041C00048D8EDEC1DF0266E0A0EE15E265000097F
:1041D00008E0040EDB50080804E135D80301040EA2
:1041E000006F22EC11F01CD013EC11F0000918E064
:1041F00047C3E6FF48C3E6FF45C3E6FF46C3E6FF05
:104200000BC3E6FF0D0EE66E030EE66EE66A28D8D7
:1042100053EC1EF0266E0A0EE15E26500301006B81
:10422000050EDB5001E046D70CEC02F0060EE15C17
:1042300002E2E16AE552E16EE552E7CFD9FF1200F2
:1042400008D830EF21F0010EF36E050EF3CFDBFF3F
:104250001200D950040FE66E000EDA20E66E12004E
:0A426000010EE66E030EE66E12007A
:06426A00D9CFE6FFDACF18
:10427000E6FFFA0EE3CFD9FFFB0EE3CFDAFFFC0E29
:10428000E3CFE9FFFD0EE3CFEAFFF80EE35003E1D1
:10429000F90EE35008E0F80EE30602E2F90EE30639
:1042A000DE50EE5CF2E0F36EFF0EE3CFDAFFE55294
:1042B000FF0EE3CFD9FFE552F3501200D9CFE6FF4E
:1042C000DACFE6FFFA0EE3CFD9FFFB0EE3CFDAFF3A
:1042D000FC0EE3CFE9FFFD0EE3CFEAFFE9CFF3FFEA
:1042E000EACFF4FFF80EE35003E1F90EE35008E0E3
:1042F000F80EE30602E2F90EE306DECFEEFFF2D798
:10430000FF0EE3CFDAFFE552FF0EE3CFD9FFE55210
:104310001200FB0EE3CFF6FFFC0EE3CFF7FFFD0E1E
:10432000E3CFF8FFFE0EE3CFE9FFFF0EE3CFEAFF96
:10433000E9CFF3FFEACFF4FFF90EE35003E1FA0E01
:10434000E35009E0F90EE30602E2FA0EE306090083
:10435000F5CFEEFFF1D71200FE0EE3CFE9FFFF0E1F
:10436000E3CFEAFFF36AF46AEE5203E0F34AF42A79
:10437000FBD71200FE0EE3CFE9FFFF0EE3CFEAFF0B
:10438000E9CFF3FFEACFF4FF610EEF5C05E67B0EA9
:0E439000EF5C02E7DF0EEF16EE52F6E11200D0
:02439E0082D8C3
:1043A000C26A0F0EC16E9490949294949280F19E82
:1043B000828482808282020EE15C02E2E16AE5523E
:1043C000E16E67D0D9CFE6FF64D067D8E652DF6AE6
:1043D000DF5002E0000E01D0010EE5525AD0055028
:1043E000000804E20506055001E182840650000839
:1043F00004E20606065001E182800750000804E24C
:104400000706075001E182920D5012004BD8E15C83
:1044100002E2E16AE552E16E3CD0D9CFE6FF39D045
:104420003CD8E6528050010BDF6EDF5002E0000EF8
:1044300001D0010EE5522DD030D8E652010EDF6ECC
:10444000DF50E55226D029D8040EE126DE6ADD6A67
:10445000020EDB6A030EDB6A040EE15C02E2E16A33
:10446000E552E16E16D00D5002E10E5008E0030156
:104470009C51E8B08282E8A082929C7112000301F4
:104480009C5103E1010E9C6F82921200D9CFE6FF8E
:1044900000D0E552E7CFD9FF1200D9CFE6FFE1CF38
:1044A000D9FF1200FADF020EE126DE6ADD6A120091
:1044B0001E0EF66E000EF76E000EF86E0201090079
:1044C000F550F96F0900F550FA6F03E1F96701D073
:1044D0003DD00900F550F46F0900F550F56F090063
:1044E000F550F66F09000900F550E96E0900F55026
:1044F000EA6E090009000900F550F76F0900F55050
:10450000F86F09000900F6CFFBF2F7CFFCF2F8CF05
:10451000FDF2F4C2F6FFF5C2F7FFF6C2F8FF0201A2
:10452000F75302E1F85307E00900F550EE6EF70784
:10453000F8E2F807F9D7FBC2F6FFFCC2F7FFFDC2AD
:0E454000F8FF0201F907000EFA5BBFD7120068
:02454E00030167
:104550009B6B1200D9CFE6FFE1CFD9FF0B0EE1260E
:1045600003019B5118E1D9500A0FE66E000EDA20C4
:10457000E66ED9CFE6FFDACFE6FF56EC1CF0E55247
:10458000E552E552E552000919E00A0EDB5016E04B
:104590000301010E9B6F13EC11F000090DE0E66AB8
:1045A000D9CFE6FFDACFE6FFD9EC1CF0E552E552B1
:1045B000E55203019B6B02D0000E01D0010E266E66
:1045C0000B0EE15C02E2E16AE552E16E2650E55233
:0645D000E7CFD9FF120045
:0A45D60038EC1FF004D84CEC20F084
:1045E00092EF16F00301C00E706FA80E716F640E8B
:1045F000726F1E0E736F7A697B697C697D6BC00E6A
:104600007E6FA80E7F6F640E806F1E0E816F746BBD
:10461000040E756FA30E766F776B786B796B88914C
:0A462000120054EC20F0B5EF16F084
:06462A00C70ED66EFE0E65
:10463000D76E070ED56ED58EF284F28A1200FCC1B9
:1046400038F0FDC139F0FEC13AF0FFC13BF0120075
:0E4650000101FC2B000EFD23FE23FF231200B0
:02465E004661B3
:104660000B0000010100000000000000000000003D
:0E46700000000000000000000000000000003C
:02467E00FF0E2D
:10468000E3503F6E480E01D04C0EE76EE72EFED78A
:0E469000E76AE72EFED73F2EF7D70000120094
:02469E00000E0C
:1046A000F36E00EE00F00D0E01D81200EA6002D0A9
:0E46B000EE6AFCD7F350E9601200EE6AFCD708
:0246BE001CEEF0
:1046C00000F02CEE00F0F86A3E9C58EC22F003EC6F
:0A46D00000F056EC0AF0FBD71200D0
:0646DA00303132333435AB
:1046E0003637383941424344454600010203040548
:1046F00006070809000000000000000A0B0C0D0E60
:014700000FA9
:024701000000B6
:020000040030CA
:0100010006F8
:0100020016E7
:0100030010EC
:0100050000FA
:010006008079
:010008000FE8
:01000900C036
:01000A000FE6
:01000B00E014
:01000C000FE4
:01000D0040B2
:00000001FF
