:020000040000FA
:060000005CEF42F012006B
:020006001200E6
:0600080087EF31F0120049
:01000E0000F1
:01000F0000F0
:03001000000000ED
:0100130000EC
:020014000000EA
:0100160000E9
:0100170000E8
:06001800CAEF31F01200F6
:02001E000900D7
:10002000170000002D0200000100000016850000EE
:100030002602000004000000160000002C02000050
:100040000100000014000000FD010000020000009B
:10005000130000002B02000001000000FC840000DF
:10006000A40100001A0000000F000000220200009E
:1000700004000000D4840000D0000000280000002C
:0C0080000E0000002A0200000100000039
:04008C000101BC5161
:10009000BD5D01E11200FE0EBD5D16E0270EE66EAD
:1000A000E66A010EE66E3E0EE66E010E43EC19F0B6
:1000B0001B0EB2EC15F0EF5043EC19F0DAEC15F032
:1000C00077EC1DF05BEC1AF0BCC1BDF1270EE66EBB
:1000D000E66AB9EC1FF0FFEC1BF077EC1DF0010EA7
:1000E000E66E3E0EE66E010EE66E5BEF1AF034EC45
:1000F00016F00B0EE126D80EF36E090EF3CFDBFFE0
:100100000C0EF36E0A0EF3CFDBFF01013C513D11E3
:100110000FE13DEC28F006C03CF107C03DF1FF0EB9
:1001200001013C17070E3D17000E3C27040E3D232E
:100130003C0EE66EE66AE66A000EE66E010EE66EBC
:1001400052EC3FF0146E050EE15E1450010EDB6AB6
:10015000DF6ADDEC17F076E2DFCFBCF187EC17F059
:10016000EE52080EEFCFDBFF87EC17F0020EB2EC79
:1001700015F069EC1AF087EC17F0040EB2EC15F0EC
:1001800062EC1AF0080EDB502AE1090EDBCF08F012
:100190000A0ECDEC1CF056EC17F0270E1626000EBA
:1001A0001722FCEC1AF0040E73EC1DF0050E01ECA6
:1001B0001EF052EC19F0090F30EC1CF0090EDBCFE9
:1001C00014F00A0EDAEC18F0D880FC0E14541F0E4E
:1001D0001554000E1654000E175402E2EFD7FFD745
:1001E000010183EC1EF0080EDBCFEFFF270EE76E58
:1001F000A7EC18F0E7501426000E1522AFEC15F00E
:1002000044EC16F056EC17F0E1EC1EF01CEC1BF081
:1002100044EC16F0CCEC1BF01CEC1BF0A0EC16F040
:1002200033EC1EF01FEC1FF00D0EEF6E17EC1BF001
:10023000EF962CDF87EC17F0EFCF64F1D3EC0DF0E5
:10024000DF2A87D70B0EE15C02E2E16AE552E16E3C
:1002500039EF16F034EC16F0E652DF6ADDEC17F0F9
:1002600001E394D0DFCFBCF144EC1FF00D0801E0B6
:100270008BD00CDFF70EDB500101645D01E084D010
:10028000180E616F020E626FFA0EDB5017E1F80E66
:10029000DBCF4EF1F90EDBCF4FF1010117EC1BF074
:1002A000EF8621EC1BF0040EEF6E7CEC1BF0F80ED9
:1002B000DBCFEEFFF90EDBCFEDFF64D0000E3C5D2F
:1002C000040E3D5906E3880ED8803C55130E3D556B
:1002D00003E23C6B040E3D6F3CC14EF13DC14FF15A
:1002E0003C2B000E3D23F80EDBCF4CF1F90EDBCF9B
:1002F0004DF116EC41F07DEC1DF08CEC1FF00E0E74
:10030000DDEC1DF017EC1BF0EF88FA0EDB50040A51
:100310002AE0070A37E1FB0EDBCF1AF0FC0EDBCF39
:100320001BF0FD0EDB501A24186EFE0EDB501B2056
:10033000196E15EC1EF0FB0EDBCF54F1FC0EDBCF7B
:1003400055F1FD0EDBCF56F1FE0EDBCF57F101016B
:10035000636B1E0E3E6F3F6B406B416B08EC1EF0F3
:10036000020EEF6E0FD03CEC1CF015EC1EF0D6EC3C
:100370001CF008EC1EF0050EEF6E010EE66E020E8C
:10038000EEEC16F0DF5003D0DF2A68D7FE0EE55200
:1003900039EF16F034EC1CF00AE2EEEC17F041EC09
:1003A0001FF0EF50100B05E005EC1EF0EF98010E6A
:1003B00001D0000E39EF16F034EC1CF006E2EEEC42
:1003C00017F044EC1FF0070802E0000E01D0010E08
:1003D00039EF16F034EC1CF041E272EC1FF01FEC28
:1003E0001FF0EF50080A34E0010A32E0050A30E05D
:1003F000020A29E0050A1AE00D0A0BE0010A09E0E9
:10040000070A2AE0020A28E0010A26E0060A20E19B
:1004100023D0DCEC1CF006E088EC1EF0FAE14B5136
:100420001518F7E108EC1EF0080E10D0DCEC1CF0FB
:1004300006E088EC1EF0FAE14B511518F7E108ECE4
:100440001EF00C0E03D021EC1BF00D0EEF6E06D04B
:10045000E66A140EEEEC16F0D3EC0DF039EF16F060
:1004600034EC1CF00AE2EEEC17F0010117EC1BF083
:10047000EF96ABEC1EF0AEDFE55239EF16F034EC40
:100480001CF003E3F36AF46A16D0EEEC17F0FEDD1D
:100490000BEC1BF0DFEC18F0650EE66E010EE66E5D
:1004A000AEEC18F04CC16FF14DC170F1650E146ED9
:1004B000010EA2EC1EF039EF16F034EC1CF00BE24A
:1004C000EEEC17F0E3DD88EC1EF002E14B5115185D
:1004D00002E02BEC1CF039EF16F034EC16F0E6528B
:1004E000D6EC15F00CE2EEEC17F008EC1EF0EFCFB6
:1004F000DFFF070EDF5C06E00B0EDF5C03E0F36A54
:10050000F46A29D034EC1BF0DAEC15F03CEC1BF06B
:10051000D9EC1BF013E31CEC1BF098EC1EF0160654
:10052000000E175A34EC1BF0ADEC1FF03CEC1BF046
:10053000C3EC17F014C0F3FFF46E0DD03CEC1BF0CD
:10054000D1EC15F034EC1BF02DEC16F01406000E77
:10055000155AB4EC1CF0E55239EF16F034EC16F0F5
:10056000020EE126D6EC15F007E2EEEC17F0B5EC42
:1005700018F017EC18F002E1000E3ED0BBEC18F0BA
:1005800004E1ED5002E13CEC17F041EC1FF0EF50BC
:10059000010B0CE14CEC18F01CEC1BF0AEEC1BF06A
:1005A00005E33CEC17F041EC1FF0EF80010EE66E26
:1005B000E66AE66E77EC1AF026EC1BF034EC1BF0E2
:1005C000B9EC1CF08FEC1FF0E7EC1EF01CEC1BF0FC
:1005D000D9EC1BF002E35BEC1FF0BBEC18F005E17B
:1005E000ED5003E13CEC17F006D02AEC1EF0200B96
:1005F00002E164EC1EF0010E146E020EE15C02E2F8
:10060000E16AE552E16E145039EF16F0EEEC1EF09F
:1006100005E24AEC1CF005E13CEC17F0F36AF46AE1
:100620002ED052EC1CF003E2FA0E39EC19F041EC3A
:100630001FF0EF50010B08E1F3EC1EF005E33CEC7A
:1006400017F041EC1FF0EF8090EC1EF006E3AFECEA
:100650001EF092EC1FF021EC1EF01FEC1DF092EC4E
:100660001FF0C4EC1EF003E33CEC17F006D02AECBC
:100670001EF0200B02E164EC1EF06EEC18F0060E8A
:10068000E15C02E2E16AE552E16E39EF16F0EEEC70
:100690001EF005E24AEC1CF005E13CEC17F0F36AB1
:1006A000F46A2ED041EC1FF0EF50010B08E1F3EC9F
:1006B0001EF005E33CEC17F041EC1FF0EF8052EC2C
:1006C0001CF003E2FA0E39EC19F090EC1EF006E390
:1006D000AFEC1EF097EC1FF021EC1EF01FEC1DF0AC
:1006E00097EC1FF0C4EC1EF003E33CEC17F006D0CF
:1006F0002AEC1EF0200B02E164EC1EF06EEC18F008
:10070000060EE15C02E2E16AE552E16E39EF16F0B5
:1007100034EC16F06DEC19F0AEEC16F06CEC3FF02A
:10072000E552E552F3CF18F0F4CF19F0F3CFE6FF1E
:10073000F4CFE6FFAEEC16F0ABEC1EF067DF1A6EFE
:10074000050EE15E1A50E6EF1BF034EC16F06DEC8E
:1007500019F0FC0EDBCF1AF0FD0EDBCF1BF01C6A8C
:100760001AC0E6FF1BC0E6FF1CC0E6FF7AEC3FF0B4
:10077000E552E552E55207C018F008C019F007C06D
:10078000E6FF08C0E6FFAEEC16F0ABEC1EF07FDF34
:100790001D6E050EE15E1D50E6EF1BF024EC1DF012
:1007A000D6EC15F003E3F36AF46A0DD0EEEC17F023
:1007B00010EC1EF01406000E155AE0EC17F0B5EC24
:1007C00018F0F8EC1EF0040EE15C02E2E16AE5527A
:1007D000E16E39EF16F034EC16F0A0EC17F0F350A0
:1007E000F41006E072EC1FF044EC16F02BEC1CF059
:1007F00039EF16F034EC1CF003E3F36AF46A24D00A
:1008000072EC1FF0D9EC1BF00CE32FEC1BF0D1ECD9
:1008100015F02AEC1BF0EE50165C146EEE501758D3
:1008200011D079EC1BF02AEC1BF035EC17F0FCEC46
:100830001AF02FEC1BF0B5EC1EF016501A24146EB3
:1008400017501B20A2EC1EF039EF16F034EC16F016
:10085000020EE126A0EC17F017EC18F002E1000EF2
:1008600025D0EEEC17F0BCEC1EF006E0010EE66EB3
:10087000E66A01019EEC1EF001012AEC1BF0E7EC98
:100880001EF060EC1FF002E24BEC1EF0BBEC18F027
:1008900006E1ED5004E105EC1EF0EF8406D02AECF1
:1008A0001EF0200B02E1C9EC1EF0010E146E020EC8
:1008B000E15C02E2E16AE552E16E145039EF16F0B4
:1008C00024EC1DF0020EDB6A030EDB6AA0EC17F0CD
:1008D00017EC18F003E1F36AF46A71D0EEEC17F04C
:1008E000A6EC17F0E9EC18F0B5EC16F008E281EC94
:1008F0001BF0FA0EEECFDBFFFB0EEDCFDBFFA7EC1C
:1009000016F001012AEC1BF0FDEC1EF026E239EC9A
:100910001BF02AEC1BF02DEC16F0C0EC1BF0E0EC09
:1009200017F0BCEC1EF00EE0020EDBCFE6FF030E6C
:10093000DBCFE6FF9EEC1EF03DEC16F0D950FC0F2D
:1009400062EC1CF03DEC16F0D950FA0FF9EC16F001
:100950004BEC17F001014BEC1EF0BCEC1EF004E078
:100960000FEC1CF09EEC1EF0A6EC17F001012AEC37
:100970001BF022EC17F03DEC16F0D950FA0F62ECA8
:100980001CF0E9EC18F0FA0E35EC1DF0FB0EDB5014
:100990001758156EFA0EDBCF18F0FB0E8AEC19F023
:1009A00004E305EC1EF0EF8406D02AEC1EF0200BC9
:1009B00002E1C9EC1EF0A6EC17F0B4EC1CF0040E3A
:1009C000E15C02E2E16AE552E16E39EF16F024ECF7
:1009D0001DF0D6EC15F003E3F36AF46A0BD0EEECED
:1009E00017F001015CEC1EF0E0EC17F0A0EC17F042
:1009F000F8EC1EF0040EE15C02E2E16AE552E16E01
:100A000039EF16F05DEC1CF0D6EC15F003E223ECA8
:100A10001FF003E1F36AF46A73D0EEEC17F0A0EC78
:100A200017F083EC19F0A7EC16F0F80E73EC1DF03C
:100A3000F90E01EC1EF0020EDBCF18F0030E8AEC6B
:100A400019F00FE256EC17F0F80E35EC1DF0F90E28
:100A5000DB501758156EFA0E14C0DBFFFB0E15C0E5
:100A6000DBFF7EEC1FF014C0DEFFDD6E4CEC18F0F7
:100A700060EC1FF006E25CEC1EF0C0EC1BF0B2EC88
:100A80001FF0E9EC18F033EC1EF08EEC19F0C0EC1E
:100A90001BF016EC1CF0A6EC17F0CCEC1BF0B5EC40
:100AA00016F005E30FEC1CF066EC1CF025D0040EEC
:100AB000D4EC18F066EC1CF0A7EC16F0F2EC17F092
:100AC000010160EC1EF0010EE66E040EDBCF1AF0A1
:100AD000050EDBCF1BF0FC0EDB501A24186EFD0E4A
:100AE000DB501B20196E18C0E6FFE66E14EC15F003
:100AF0001C6E080EE15E1C50A6EC17F0B4EC1CF066
:100B0000060EE15C02E2E16AE552E16E39EF16F0B1
:100B100034EC16F0E652AEEC16F0010EE1EC1DF0EE
:100B2000ABEC1EF06FDF146E070EE15E1450DF5069
:100B3000E55239EF16F091EC1DF003E223EC1FF0C3
:100B400003E1F36AF46AB7D0A1EC1BF001E2AAD08A
:100B5000D950F60F9CEC1BF005E086EC1CF002E28D
:100B600014EC19F044EC1EF002E202EC1FF0CFECA2
:100B70001EF023EC18F001E3DB2A13EC1BF00F0E40
:100B8000DB6AF50EDB5008E07FEC17F005E357EC6D
:100B90001AF002E304EC17F056EC18F003E2040E2E
:100BA00055EC19F0FDEC18F003E2020E55EC19F0CB
:100BB00058EC1BF004E16CEC1FF001EC1AF0F50EA0
:100BC000DB5041E00C0EDB6A00EC18F068E276ECDA
:100BD00018F005E383EC18F002E397EC1DF029EC24
:100BE0001DF019E161EC19F001E2DB0636EC1AF0B8
:100BF00039E0FC0E23EC18F001E3DB2A13EC1BF0C8
:100C000067EC19F07FEC17F01BE357EC1AF018E3D0
:100C100004EC17F015D00FEC17F012E027EC17F0EA
:100C200023EC18F001E3DB2A13EC1BF07FEC17F048
:100C300005E357EC1AF002E304EC17F00F0EDB6A41
:100C40000C0EDB2AC1D70C0EDB6A00EC18F027E291
:100C500029EC1DF014E161EC19F001E2DB0636EC41
:100C60001AF003E162EC17F026D0FC0E23EC18F02A
:100C700001E3DB2A13EC1BF067EC19F00DD00FEC4D
:100C800017F00AE027EC17F023EC18F001E3DB2A59
:100C900013EC1BF00F0EDB6A0C0EDB2AD6D746ECEA
:100CA0001CF003E2F368F46806D063EC18F0060F5A
:100CB00030EC1CF071D7300EE15C02E2E16AE552E3
:100CC000E16E39EF16F091EC1DF003E223EC1FF01A
:100CD00003E1F36AF46AB7D0A1EC1BF001E2AAD0F9
:100CE000D950F60F9CEC1BF005E086EC1CF002E2FC
:100CF00014EC19F044EC1EF002E202EC1FF0CFEC11
:100D00001EF02AEC18F001E3DB2AD7EC19F00F0EE5
:100D1000DB6AF50EDB5008E07FEC17F005E357ECDB
:100D20001AF002E304EC17F056EC18F003E2040E9C
:100D300055EC19F0FDEC18F003E2020E55EC19F039
:100D400058EC1BF004E16CEC1FF001EC1AF0F50E0E
:100D5000DB5041E00C0EDB6A00EC18F068E276EC48
:100D600018F005E383EC18F002E397EC1DF029EC92
:100D70001DF019E161EC19F001E2DB0636EC1AF026
:100D800039E0FC0E2AEC18F001E3DB2AD7EC19F06D
:100D900067EC19F07FEC17F01BE357EC1AF018E33F
:100DA00004EC17F015D00FEC17F012E027EC17F059
:100DB0002AEC18F001E3DB2AD7EC19F07FEC17F0EE
:100DC00005E357EC1AF002E304EC17F00F0EDB6AB0
:100DD0000C0EDB2AC1D70C0EDB6A00EC18F027E200
:100DE00029EC1DF014E161EC19F001E2DB0636ECB0
:100DF0001AF003E162EC17F026D0FC0E2AEC18F092
:100E000001E3DB2AD7EC19F067EC19F00DD00FECF9
:100E100017F00AE027EC17F02AEC18F001E3DB2AC0
:100E2000D7EC19F00F0EDB6A0C0EDB2AD6D746EC96
:100E30001CF003E2F368F46806D063EC18F0060FC8
:100E400030EC1CF071D7300EE15C02E2E16AE55251
:100E5000E16E39EF16F034EC16F0F80EDBCFE6FF5A
:100E60009CEC19F099EC17F0010EE66EE66A77EC4F
:100E70001AF0ABEC1EF05FDE146E0A0EE15E145049
:100E800039EF16F05DEC1CF0DF6ADDEC17F001E3E2
:100E9000D2D1DFCFBCF1030EDB6A010EDB6A020E9A
:100EA000DB6A41EC1FF0EF50020B05E105EC1EF090
:100EB000EF50040B11E082EC20F000090DE0100E61
:100EC00051EC18F041EC1FF0EF50040B01E0010E63
:100ED000E76E010EE7CFDBFF6FEC1FF0200B0EE09B
:100EE000AFEC15F0120ED3EC1BF021EC19F002E27E
:100EF000DCEC19F003E3100E51EC18F06FEC1FF06E
:100F0000400B09E0D5EC1EF002E2DCEC19F003E343
:100F1000100E51EC18F044EC1FF00B080DE1D5EC6D
:100F20001EF002E2DCEC19F007E3110E51EC18F0B0
:100F300008EC1EF00C0EEF6E44EC1FF004085BE1B1
:100F4000D2EC19F01DEC18F056E227EC1FF053E03C
:100F5000E1EC1BF0DAEC15F001017CEC1BF0D1ECBC
:100F600015F000011650141840E1175015183DE116
:100F700046EC00F00BEC1BF0B6EC15F00AEC1AF0A6
:100F8000DFEC18F085EC1AF014EC1DF0EECF4CF10C
:100F9000EDCF4DF1B6EC15F00C0EB2EC15F0EECF36
:100FA00046F1EECF47F1EECF48F1EFCF49F1010125
:100FB000462B47234823492356515425186E575131
:100FC0005521196E18504C25166E19504D21176E6B
:100FD000165052EC1FF0120E51EC18F021EC1BF0E1
:100FE000060EEF6EDFEC15F006D0040EDB2A050EC0
:100FF000A9E3DB2AA7D7030EDB5009E0010EDB5083
:1010000002E0000E01D0010EE66E3FEC1AF06FEC2C
:101010001FF0100B34E17AEC1FF0070801E009D152
:1010200039EC1DF001E005D16FEC1FF0070B06084D
:101030001CE12AEC1EF0080B01E0010EE76E030E26
:10104000E7CFDBFFDFCFE6FFEAEC01F0E552DFCFD1
:10105000E6FFEAEC01F0E552030EDB5001E0E9D0D7
:1010600008EC1EF00E0EEF6EE4D046EC00F0020E1F
:10107000E66E100EEEEC16F041EC1BF0DAD039EC17
:101080001DF001E0D6D046EC00F044EC1FF00C0A55
:1010900001E189D0060A01E180D0030A01E18ED086
:1010A000010A75E00F0A67E00C0A65E00D0A57E0D7
:1010B000030A41E0060A13E0010A01E087D01DECB3
:1010C0001CF08CEC1FF040EC1DF0DFEC18F092EC03
:1010D00038F0E552E55208EC1EF0030E2AD0580E07
:1010E000E66E010EE66EDFEC18F0D7EC38F05DEC42
:1010F00017F0000916E18CEC1FF0120ED3EC1BF078
:101100008CEC1AF0010114503E5D15503F595EE21F
:10111000060E635D02E293EC1AF008EC1EF0020E7C
:1011200008D0020E51EC18F0010EDB6A08EC1EF03C
:10113000050EEF6E4BD0020E51EC18F0DE52010E90
:10114000DD6E040E0101635D41E3040E636F200E4A
:101150003E6FA10E3F6F070E406F416B37D0020EFE
:101160000101635D02E2120E23D06FEC1FF0080B49
:1011700025E1020E09D0050E0101635D12E308ECC2
:101180001EF0080EEF6E110EF36E030E1DD0050E4D
:101190000101635D13E2110E0BD0050E0101635DC9
:1011A0000DE2100E05D0050E0101635D07E2110E80
:1011B00051EC18F0DE52010EDD6E08D0140E51EC29
:1011C00018F0010EF36E020EF3CFDBFF030EDB50BF
:1011D0002BE0010EDB5024E0010193EC1AF041EC0E
:1011E0001EF047EC1AF016EC1CF077EC1FF004E24E
:1011F00010EC1EF02BEC1FF09EEC1DF014500101C2
:1012000029EC19F0040EDBCF08F0050EDBCF09F056
:101210000850502709505123B6EC1FF0E66A02D05F
:10122000010EE66E3FEC1AF0020EDB5002E0D3EC4A
:101230000DF0DF2A2AD6D2EC19F01DEC18F01DE2D1
:1012400027EC1FF01AE0B6EC15F0120ED3EC1BF0F1
:101250008CEC1AF06E0ED8801454010E155407E26F
:10126000DFEC15F0040EDB06050E01E2DB06040ED2
:10127000DB2A050EE2E3DB2AE0D7060EE15C02E2A0
:10128000E16AE552E16E39EF16F034EC16F0250E06
:10129000E126CAEC15F0EDEC19F0170EEECFDBFFEE
:1012A00092EC17F0180EEECFDBFF190EEECFDBFF3E
:1012B0001A0EEECFDBFF1B0EEECFDBFF1C0EDB6A40
:1012C000060EF36E1D0EF3CFDBFF9AEC1AF01E0E26
:1012D00008C0DBFF1F0E09C0DBFF1E0EDBCFE6FFE1
:1012E0001F0EDBCFE6FFF3EC18F01E0EF3CFDBFF93
:1012F0001F0EA1EC1AF0140F90EC1CF0200E14C07D
:10130000DBFF210E15C0DBFF9CEC19F00EEC23F087
:10131000E552E552220EF3CFDBFF230EF4CFDBFFC5
:10132000200EDBCF14F0210EDBCF15F0220EDB50A8
:10133000141844E1230EDB50151840E1000EA3EC15
:1013400019F0140EE1EC1DF0ABEC24F05DEC17F09D
:1013500069EC18F0EEDBE552E552D9500C0FBAEC0F
:1013600016F094EC18F0A8EC1AF0240E14C0DBFF71
:10137000DB50166E176A9AEC1AF01650085C146E61
:1013800017500958156E140E145E000E155AF90EFA
:1013900014C0DBFFFA0E15C0DBFF97EC1BF069EC05
:1013A00018F09EDA5DEC17F0000908E09CEC19F0EB
:1013B00069EC18F094EC0EF05DEC17F089EC20F07D
:1013C000010E146E250EE15C02E2E16AE552E16E67
:1013D000145039EF16F034EC16F0280EE12646ECE6
:1013E00000F0FE0EDBA005D041EC1FF0EF86FE0EF4
:1013F000DB90010147EC1FF09CEC1FF0EF9082ECBA
:1014000020F00009FCE0FE0EDB50060B05E0260E86
:10141000DB6A270EDB6ABBD088EC1EF008E14B517B
:10142000151805E1260EDB6A270EDB6A98D08FECD3
:101430001FF038EC1CF023E28FEC1FF031EC18F0B9
:10144000156EEDEC1CF01450505D1550515902E230
:10145000AFEC1AF0A1EC1DF009E2260E61C1DBFF32
:10146000270E62C1DBFF41EC1FF0EF84AAEC19F0FC
:10147000B9EC1FF06DEC1CF048EC1DF070D06CEC7A
:101480001FF031EC18F04FEC1AF0240EDBCF18F0FF
:10149000250EDBCF19F08FEC1FF0C6EC18F003EC33
:1014A0001CF0EDEC1CF001011450505D1550515929
:1014B00002E2AFEC1AF0A1EC1DF009E2260E61C1C8
:1014C000DBFF270E62C1DBFF41EC1FF0EF84240E2F
:1014D000DBCF14F0250EDBCF15F0B1EC19F0B5EC35
:1014E00016F004E238EC18F0B6EC1AF0B8EC19F08B
:1014F000B9EC1FF06DEC1CF0B1EC19F0240E35ECDA
:101500001DF0250EDB5017584FEC1AF0D950240F60
:101510006AEC1EF01BE0B8EC19F0B9EC1FF0AFEC70
:1015200015F0F4EC16F0E66A1CEC1BF031EC18F048
:10153000156E166A176A1D0E1426070E1522000E68
:1015400016221722CDEC19F03FEC18F048EC1DF0F4
:101550006CEC1FF038EC1CF002E385EC1FF041EC62
:101560001FF0EF50080B13E0E7EC17F001015051AA
:10157000141802E1515115180AE0B1EC19F061514B
:10158000161802E16251171802E0FE0EDB802DEC06
:101590001DF0EE50ED1004E1FE0EDB50030B1EE0DB
:1015A00038EC18F008500101505F0950515B2DECE8
:1015B0001DF0EE50ED1002E0FE0EDB86FD0EDBA00E
:1015C00007D0636B120E3E6F7A0E3F6F406B416B1C
:1015D00086EC1BF017EC1BF0EF8831D0FD0EDBA280
:1015E0001CD06FEC1FF0070BE82AF36EE850070BD6
:1015F000F36EF46EF80EEF14F310EF6EF450010179
:101600004207000E435B445B455B010EF36E260E02
:10161000F3CFDBFF270EDB6A12D06FEC1FF0100B4D
:101620000EE0FD0EDBB009D00101635106E0630757
:10163000D890413340333F333E3386EC1BF0020EEB
:101640004EC1DBFF030E4FC1DBFF040E4CC1DBFFBD
:10165000050E4DC1DBFF060E42C1DBFF070E43C185
:10166000DBFF080E44C1DBFF090E45C1DBFF0A0E9C
:1016700046C1DBFF0B0E47C1DBFF0C0E48C1DBFF91
:101680000D0E49C1DBFF0F0EDB9CDB9E0E0EDB90C7
:10169000DB92DB94DB96FE0EDB50E76E0F0EE7CF9E
:1016A000DBFF140EDB6A150EDB6AE7EC17F046EC85
:1016B00019F0FE0EDBA21AD0DBB808D00A0EDB6AE6
:1016C0000B0EDB6A0C0EDB6A0D0EDB6A60A308D022
:1016D000A7EC1EF0EE06000EEE5AEE5AEE5A06D0B9
:1016E000422B000E4323442345236083FE0EDBB0D0
:1016F000608101010BEC1EF0D9EC1BF003E338EC28
:101700001EF002D06FEC1EF0100E14C0DBFF110EA5
:1017100015C0DBFFB9EC20F0BDEC1CF04CEC18F070
:10172000400E145C000E155803E2DE6ADD6A06D036
:1017300081EC1BF0400EEE5E000EED5ACDEC18F081
:10174000E9EC18F0B5EC16F008E281EC1BF0100E95
:10175000EECFDBFF110EEDCFDBFFD950020FEEEC29
:1017600018F0E7D9E552E5522DEC1DF0140EEE26E7
:10177000000EED220E0EDB88DB9ADB8CDB9EFE0E6C
:10178000DBA22CD02DEC1DF0040EEE26000EED2277
:10179000020EF36E160EF3CFDBFF040EF36E170E80
:1017A000F3CFDBFF020EF36E180EF3CFDBFF01EC7D
:1017B0001BF0010E146ED9500E0FBAEC16F0A8EC07
:1017C0001DF014240F0BF36EF46EF346F346F3464C
:1017D000F3460F0EEF14F310EF6EF4501A0E71C1B2
:1017E000DBFF1B0E72C1DBFF1C0E73C1DBFF1D0E86
:1017F00074C1DBFF1E0E54C1DBFF1F0E55C1DBFFA2
:10180000200E56C1DBFF210E57C1DBFF220EDB6A23
:10181000060EF36E230EF3CFDBFF38EC18F0B6ECB8
:101820001AF0B8EC19F0F3EC18F0240EF3CFDBFF4C
:10183000250EA1EC1AF01A0F90EC1CF0120E14C039
:10184000DBFF130E15C0DBFFF50EE66E060EE66E2F
:10185000E5EC1DF0AAEC19F0060EE66EDFEC18F0D0
:10186000E0EC3BF0146E050EE15E1450140EE66ED3
:10187000E66AD950020FEEEC18F031EC1DF0FE0EC6
:10188000DBA209D0040EE66EE66AD950160FEEEC24
:1018900018F031EC1DF0090EE66E070EE66EDDEC79
:1018A00022F0E552E552AAEC19F00EEC23F0E552D5
:1018B000E552BDEC1CF0190EE66E070EE66EE5EC87
:1018C0001DF0020EE1EC1DF031EC1DF050EC22F0A9
:1018D000280EE15C02E2E16AE552E16E39EF16F0B2
:1018E0005DEC1CF074EC1BF0EE50ED1001E199D0B2
:1018F000DE52FE0EDD6E3CEC1CF0CAEC15F0C6ECC0
:1019000018F074EC1BF01650EE18146E1750EE1809
:10191000156EE0EC17F0DF6ADDEC17F04DE2DFCF7B
:10192000BCF144EC1FF00D0845E07AEC1FF0040810
:1019300013E17CEC1BF0DAEC15F074EC1BF0D1EC4D
:1019400015F016500001141835E11750151832E142
:10195000010EDFCFDBFF2ED07CEC1BF0DAEC15F0B4
:10196000020EDB50141826E1030EDB50151822E19D
:1019700006EC1FF001014E5114181CE14F511518CF
:1019800019E1CAEC15F0D1EC15F04C51161812E122
:101990004D5117180FE192EC17F0EE5054190AE16F
:1019A000EE50551907E1EE50561904E1EE50571963
:1019B00001E129E0DF2AB0D7010EDB50FE0825E067
:1019C000010EDBCFBCF146EC00F0010EDB50FE084F
:1019D0001CE001017CEC1BF0020EDBCFEEFF030EDE
:1019E000DBCFEDFFD6EC1CF0CAEC15F0EECF4CF1DE
:1019F000EDCF4DF174EC1BF0EECF4EF1EDCF4FF18A
:101A00000101EAEC1DF0010E8AD0CAEC15F00D0EB2
:101A1000B2EC15F0EF50020B04E00101385139111E
:101A200002E0000E7CD0D2EC19F01DEC18F032E28E
:101A300027EC1FF02FE0E1EC1BF0DAEC15F074EC72
:101A40001BF0EEEC1DF020E1175015181DE114EC11
:101A50001DF0DAEC15F0CAEC15F0EEEC1DF014E117
:101A60001750151811E192EC17F0F5EC1CF0EE5040
:101A70000001141808E1EE50151805E1EE50161893
:101A800002E1EE5017183FE0040EDB2A050ECDE30D
:101A9000DB2ACBD7DF6ADDEC17F040E2DFCFBCF109
:101AA0006FEC1FF0080B38E006EC1FF0145001013A
:101AB0004E1932E115504F192FE10BEC1BF099EC48
:101AC00017F0B6EC15F00AEC1AF085EC1AF0CAEC37
:101AD00015F0DAEC15F014EC1DF044EC16F0CAEC3D
:101AE00015F0040EB2EC15F0F5EC1CF00C0EB2EC97
:101AF00015F0EAEC16F074EC1BF0DAEC15F0E1EC02
:101B00001BF044EC16F020EC41F007C015F0B6ECE9
:101B100015F040EC1DF003D0DF2ABDD7000E146E87
:101B2000060EE15C02E2E16AE552E16E145039EF23
:101B300016F034EC16F0CAEC15F02DEC1EF0CAECE1
:101B400015F0E1EC19F074EC1BF02DEC1EF074ECC8
:101B50001BF02FEC1FF0040EEFEC1BF0040EDDEC7D
:101B60001DF0CAEC15F0080EEFEC1BF0080EDDECD2
:101B70001DF081EC1CF02DEC1EF081EC1CF02FEC24
:101B80001FF0100EA1EC1FF0100EB2EC15F02FECB0
:101B90001FF0120EA1EC1FF0120EB2EC15F0E1ECEA
:101BA00019F039EF16F046EC00F001017CEC1BF067
:101BB0004EC1EEFF4FC1EDFF5BEC1FF00BEC1FF0D1
:101BC0001CEC1BF0DAEC15F02FEC1BF044EC16F0DB
:101BD0004BEC1EF02AEC1EF0080B02E0040E01D0C4
:101BE0000D0EE66E21EC1BF0E552E750EF6EA6EC11
:101BF0001FF017EC1BF0EF9847EC1FF0EF9005EC8F
:101C00001EF09CEC1FF0EF9605EC1EF0EF88010132
:101C100060916093609760990101EAEC1DF0FEEC21
:101C200027F0F3CF42F1F4CF43F1FEEC27F0F3CFEE
:101C300044F1F4CF45F101015E695F69010E506F17
:101C4000516B120024EC1DF00C0EA3EC19F09EEC6D
:101C500024F0DF6EF00EDF14E840E8403F0BA8EC04
:101C60001AF01450DF6EDF5053E0070EE66EFDEC05
:101C70001CF0DF50DF0600094BE031EC19F048E0C2
:101C8000010EDB04F6E0010EDB50020831E1030E29
:101C9000DF5C3EE3020EDB6A030EDB6A31EC19F017
:101CA00004080CE19EEC24F0E76E030EE7CFDBFFA7
:101CB0009EEC24F0E76E020EE7CFDBFF3DEC16F062
:101CC000180E145C020E155823E3D950020FBAEC1B
:101CD00016F0B40ED880EE54050EED5404E2B40EA6
:101CE000F36E050E18D03DEC16F0B4EC1CF014D0D9
:101CF000020EDF5C0DE331EC19F0DF5C09E3010E4D
:101D0000DBCFE6FFFDEC1CF0010EDB50DF5EB1D750
:101D1000180EF36E020EF46E040EE15C02E2E16A4C
:101D2000E552E16E39EF16F034EC16F01C0EE126A8
:101D3000CAEC15F00D0EB2EC15F00E0EEFCFDBFF76
:101D4000CAEC15F0080EB2EC15F00F0EEECFDBFF6B
:101D5000100EEECFDBFF110EEECFDBFF120EEECF3B
:101D6000DBFFCAEC15F0040EB2EC15F0130EEECF4B
:101D7000DBFFEDEC19F00101A6EC1FF02AEC1EF0E0
:101D8000100B02E141EC1BF07AEC1FF0050A25E094
:101D9000010A10E0BDEC1AF0170E08C0DBFF180EA8
:101DA00009C0DBFF0E0EDBA059D0170EDB2A180E80
:101DB00055E353D00E0EDBB430EF14F0DBA805D0A2
:101DC000CCEC17F0E66A040EF2D2DBA230EF14F08E
:101DD00009EC18F0C4EC1AF035D00E0EDBB437EF76
:101DE00014F0DBA811D033EC1FF0421901E02DD123
:101DF000EE50431901E029D1EE50441901E025D1FC
:101E0000EE50451901E021D10E0EDBA237EF14F0A0
:101E100009EC18F081EC1CF0EECF50F1EDCF51F150
:101E2000C4EC1AF00E0EDBA80DD02BEC1CF008EC65
:101E30001EF0070EEF6E41EC1BF017EC1BF0EF9855
:101E400037EF14F0010EE66E120EEEEC16F008EC11
:101E50001EF0060EEF6E37EF14F0DB2A0E0EDBA23B
:101E600005D0170EDB2A180E01E3DB2A0BEC1EF05F
:101E7000D9EC1BF003E338EC1EF002D06FEC1EF03F
:101E80000C0E14C0DBFF0D0E15C0DBFFD950130F75
:101E9000BAEC16F001014651EE5C146E4751EE5853
:101EA000156E4851EE58166E4951EE58176E95EC66
:101EB00019F0080E16C0DBFF090E17C0DBFF060E77
:101EC000DBCF08F0070E05EC1DF0190EDB6AAFEC56
:101ED0001DF06EE0D9500C0F6AEC1EF001E183D0CA
:101EE0000EEC1DF002E613EC1AF005E3C5EC1BF056
:101EF00099EC18F040E3170EDBCF14F0180EDAEC73
:101F000018F0A7EC1EF01CEC1AF01734000E17188E
:101F100009E6D880000E1454000E1554000E165415
:101F2000000E17542BE20C0EDBCF1CF00D0EDBCF96
:101F30001DF0170EDB501C5C186E180EDB501D5880
:101F4000196E1A6A1B6A19AE02D01A681B68A7ECD0
:101F50001EF0030EEBCFF3FF1B50F318E8AE02D0D8
:101F6000F33408D0EE50185CEE501958EE501A5861
:101F7000EE501B5803E3010E01EC1BF0C5EC1BF007
:101F8000030EEB501718E8AE02D0173402D099ECCC
:101F900018F029E2170EDBCF1AF0180E75EC19F0C5
:101FA000E83421E218500008000E19541CE218D041
:101FB000A7EC18F0080EDBCF16F0090EDBCF17F0F8
:101FC00014501510161017100BE00EEC1DF002E661
:101FD00013EC1AF008E3C5EC1BF099EC18F003E2DF
:101FE000010E01EC1BF0190EDB5006E10E0EDBB406
:101FF00037EF14F033EF14F00E0EDB50060B02E057
:1020000030EF14F00E0EDBA837EF14F044EC1FF0A5
:102010000C0A01E1E6D10B0A3DE00F0A3BE0010AA0
:1020200039E0020A37E0010A35E00C0A01E0F9D193
:1020300033EC1FF0421908E1EE50431905E1EE5070
:10204000441902E1EE50451921E0130E42C1DBFFB5
:10205000140E43C1DBFF150E44C1DBFF160E45C154
:10206000DBFFCCEC17F0010EE66E040EEEEC16F082
:10207000130EDBCF42F1140EDBCF43F1150EDBCF95
:1020800044F1160EDBCF45F137EF14F008EC1EF0EB
:10209000070EEF6E34EC1BF031EC18F0156E42ECCD
:1020A00017F0BFEC19F004E010EC1EF02BEC1FF061
:1020B0009EEC1DF0420EE96E010EEA6E1CEC1AF069
:1020C000B4EC1BF070EC16F002E6F7EC19F016E237
:1020D00001016051010B09E0BBEC18F005E1EE5085
:1020E00003E1EE5001E1EE5002E0E66ABED3DDEC22
:1020F0001BF0EE06000EEE5AEE5AEE5A41EC1EF0C0
:102100000101EE504A5D186EEE504B59196E1A6A75
:102110001B6A19AE02D01A681B681850425D146E13
:1021200019504359156E1A504459166E1B50455993
:10213000176EB4EC1BF077EC1FF00CE2B9EC1EF05C
:1021400081EC1BF01450EE5E1550EE5A1650EE5A0C
:102150001750EE5A70EC16F002E6F7EC19F06EE24A
:10216000B9EC1EF081EC1BF0EE50145CEE501558EB
:10217000EE501658EE50175861E3010160976099D0
:1021800041EC1FF0EF903CEC1BF062EC1AF0DFCF5B
:1021900014F0010EDBCF15F03CEC1BF022EC17F035
:1021A00070EC1BF0BDEC17F008E377EC1FF02BE2AE
:1021B00041EC1EF031EC18F021D06CEC1FF098ECE3
:1021C0001EF001014A511624146E4B511720156E52
:1021D00042EC17F0DBCF14F0050EDBCF15F041EC2D
:1021E0001EF0D9EC1BF00FE23CEC1BF0D1EC15F02B
:1021F000040E35EC1DF0050EDB501758156E46EC3D
:1022000019F0B6EC1FF041EC1EF0DAEC15F01CEC06
:102210001BF0D9EC1BF00AE31CEC1BF0D1EC15F021
:1022200003EC1CF03CEC1BF04BEC17F01CEC1BF02F
:1022300038EC1CF031E385EC1FF02ED041EC1EF0A1
:10224000B0EC1CF002E14B51151826E060A723D03A
:1022500060A91FD041EC1EF047EC1AF0166A176A0D
:1022600015AE02D016681768145029EC19F077ECF7
:102270001FF00AE2B9EC1EF015AE02D0166817681E
:102280001450010129EC19F0B6EC1FF005EC1EF01A
:10229000EF8401016089608741EC1EF0DAEC15F0F3
:1022A00034EC1BF0EEEC1DF025E11750151822E17F
:1022B00005EC1EF0EF50080B06E141EC1BF017ECAB
:1022C0001BF0EF9817D08BEC1EF014E14351EE1881
:1022D00011E14451EE180EE14551EE180BE10AE10F
:1022E0006051010B07E0010117EC1BF0EF9805ECC2
:1022F0001EF0EF9633EC1FF0425D166EEE50435920
:10230000176EEE504459186EEE504559196E81EC17
:102310001CF08EEC19F01A0E14C0DBFF1B0E15C05A
:10232000DBFF5051511108E1D9501A0F6AEC1EF031
:1023300003E041EC1FF0EF821A0EDBCF50F11B0ED1
:10234000DBCF51F144EC1FF0080826E18BEC1EF0C6
:1023500068E14351EE1865E14451EE1862E14551E0
:10236000EE185FE15EE16051010B5BE016EC41F0BD
:102370001EEC17F05A0E1426620E1522020E1622BB
:10238000000E172251EC1EF017EC1BF0EF8821EC29
:102390001BF0090EEF6E45D07AEC1FF009080AE138
:1023A0000E0EDBB03ED0CCEC17F0E66A140EEEEC6D
:1023B00016F056D27AEC1FF00A0833E18BEC1EF0CF
:1023C00001E055D24351EE1801E051D24451EE18CC
:1023D00001E04DD24551EE1801E049D201E047D26B
:1023E0003FD242C114F043C115F044C116F045C1BB
:1023F00017F0142AE4EC18F0DDEC1BF01450EE1882
:1024000001E035D21550EE1801E031D21650EE1829
:1024100001E02DD21750EE1801E029D201E027D2B9
:102420001FD20E0EDBBA23D244EC1FF00B0801E1E1
:102430001ED27AEC1FF00A0801E119D27AEC1FF0E3
:102440000C0801E114D2D950FB0F9CEC1BF001E108
:1024500084D145EC18F0153402E2DCEC19F001E20D
:10246000AAD050EC1DF0166E176A0A0EDB50F35C12
:10247000146E0B0EDB5019EC1DF05DEC3CF0E552D8
:10248000E55245EC18F0D950FB0F62EC1CF0B3ECB0
:102490001DF0CBEC1AF0B5EC16F00CE20C0EDBCF15
:1024A00008F00D0EDBCF09F0FB0E08C0DBFFFC0EC1
:1024B00009C0DBFFFB0EDBCF14F0FC0E06EC19F0BD
:1024C00024EC1CF001012FEC1BF0FDEC1EF029E2C6
:1024D00039EC1BF02FEC1BF0C0DBC0EC1BF042EC26
:1024E00017F0D4EC18F03BEC1AF00FEC1FF064EC92
:1024F0001FF03FEC18F0FB0EDBCF18F0FC0EDBCF2B
:1025000019F0040EDB50185C166E050EDB501958DE
:10251000176E6CEC1FF0A0EC16F02FEC1BF0B4DB88
:102520000BD0F3EC1DF00FEC1FF0B3EC1DF001012C
:102530002FEC1BF022EC17F001015E1D01E15F1D85
:1025400001E10BD1BDEC1AF008505E5F09505F5BF2
:1025500052515E25146E53515F21156E42EC17F0F7
:10256000DBCF14F0BFEC19F022E101015F3504E28A
:102570005E510008000E5F5501E2EFD037EC1FF00E
:1025800006EC19F070EC1BF001012FEC1BF022ECB3
:1025900017F02FEC1BF00EDB60EC1FF008E25CEC98
:1025A0001EF0C0EC1BF02FEC1BF04BEC17F0010100
:1025B0005E695F69D2D045EC18F0153401E3CDD0E7
:1025C000DCEC19F001E3C9D0C6EC19F025EC1AF0E7
:1025D0000C0EDBCF18F00D0E8AEC19F00AE2CBECF2
:1025E0001AF02AEC1AF0FB0E14C0DBFFFC0E15C02B
:1025F000DBFF50EC1DF0A3EC19F0D2EC1AF0010156
:102600002FEC1BF0C6EC18F025EC1AF033EC1EF0A2
:102610003CEC1FF014501A5C15501B583AE279EC50
:102620001BF02FEC1BF035EC17F0FCEC1AF02AEC49
:102630001AF042EC17F0BFEC19F00DE1040ED4ECE7
:1026400018F03BEC1AF0010179EC1EF03FEC18F0A9
:1026500064EC1FF022D0F3EC1DF0B9EC1FF0D2ECCB
:102660001AF02FEC1BF0C6EC18F033EC1EF0B5ECB2
:102670001EF0010E1A26000E1B221A50165C146E54
:102680001B5019EC1DF0D0D91E6E080EE15E1E50D5
:1026900006D0F3EC1DF079EC1EF03FEC18F00101D0
:1026A0005E1D07E15F1D05E1E0EC1AF0D9EC1AF0C0
:1026B00054D045EC18F05E51145C5F5115582AE275
:1026C000ADEC17F013E3FB0EDBCF1CF0FC0EDBCF01
:1026D0001DF00A0EDB501C241A6E0B0EDB501D2061
:1026E0001B6E5E511A5C5F511B5803E2D9EC1AF065
:1026F0000ED0E7EC1AF00A0EDB500001145C010169
:10270000526F0B0EDB50000115580101536FE0ECC6
:102710001AF023D0ADEC17F020E245EC18F05E5132
:102720005225166E5F515321176E1FDB16E3FB0E09
:10273000DBCF1AF0FC0E75EC19F05E51185C166ECA
:102740005F511958176E5251165C146E5351175839
:10275000156E1450522715505323AFEC1DF01FE097
:1027600044EC1FF0070803E00BEC1EF08DDA2AECB6
:102770001EF0800B05E02BEC1CF046EC00F00FD0B7
:1027800017EC1BF0EF8E2AEC1EF0400B08E117EC63
:102790001BF0EF8C1DEC1CF00C0E78EC1CF00E0EF8
:1027A000DBA065D046C114F047C115F048C116F052
:1027B00049C117F0142AE4EC18F0170EDBCF18F01B
:1027C000180EDBCF19F01A6A1B6AD950130FD2DA30
:1027D000EE501826EE501922EE501A22EE501B220F
:1027E0001450181844E11550191841E116501A18E0
:1027F0003EE117501B183BE13AE1BAEC1DF044EC06
:102800001FF0090A2AE0010A16E00F0A0AE0010A8D
:102810002AE121EC1BF00C0EEF6E010EE66E110E9C
:1028200025D021EC1BF00B0EEF6E1DEC1CF0180EEA
:1028300078EC1CF018D08BEC1EF00AE14351EE1836
:1028400007E14451EE1804E14551EE1801E105E0BD
:1028500008EC1EF00A0EEF6E06D0E66A100EBEDA25
:10286000D3EC0DF004D0010EE66E100EB7DA1C0E9C
:10287000E15C02E2E16AE552E16EFBD15DEC1CF045
:1028800095D901E384D0AADBBCEC1EF007E1010E70
:10289000F36EFC0EF3CFDBFFFD0EDB6A010139ECBA
:1028A0001BF003EC1CF01406000E155A14C0DEFFDA
:1028B00015C0DDFF4CDA31EC1AF0DECF18F0DDCFB9
:1028C00019F0C2EC1CF063E346EC00F0F90EDB50AB
:1028D000030B03E1F90EDB80DB82C1EC1DF0040E7B
:1028E00008C0DBFF050E09C0DBFF31DA31EC1AF05E
:1028F000B2EC1FF0F90EDBA20AD0DBA005D0CCDBD6
:10290000D8901532143201D0C7DB2BEC1FF0CCEC81
:102910001BF00101E1EC1EF014C0DEFF15C0DDFF6D
:102920002FEC1BF069EC1AF001015E1D01E15F1D47
:1029300012E0E7EC1AF0D950020F30EC1CF09DD9F0
:10294000010160EC1FF007E25CEC1EF052EC19F0A4
:10295000020FC0EC1EF0010113EC1FF0CBDA0AE20B
:102960009BDB2AEC1BF01DD900DA1BE2F90EDBB46D
:102970000ED00FD013EC1FF0F8D90BE28DDB1CEC5E
:102980001BF00FD9F2D90DE2F90EDBA402D0000E34
:1029900042D02AEC1BF006EC1BF02FEC1BF006ECEF
:1029A0001BF06BD92AEC1BF0D9EC1BF020E2F90EDE
:1029B000DB50040B1CE07ADA1CEC1BF04ED914C07F
:1029C000E6FFE66E60EC1EF026EC1BF01FEC1DF03F
:1029D00056DB01010BEC1EF0D9EC1BF008E2F9DB31
:1029E0001CEC1BF08EEC19F02FEC1BF054DA1CECF5
:1029F0001BF006EC1BF0EAEC1DF00BEC1FF0FFECFB
:102A00001BF034EC1BF01FEC1FF0EF50070802E145
:102A10002BEC1CF0010E146E060EE15C02E2E16A82
:102A2000E552E16E145025D11FD9F90EDB5018E0A4
:102A3000010A3FE1FC0EDB5007E0010A3AE1B9DA96
:102A400097EC1BF08BDB35D0C8EC1DF002E1FF0EDC
:102A5000ED1802E080EC19F0ACDAFAEC24F01AD0B0
:102A6000FC0EDB5019E0010A24E1D950FA0FC1D95C
:102A7000FF0EEE1802E1FF0EED1806E00FEC1CF061
:102A8000DDEC22F0E552E552CFEC1DF097EC1BF0A7
:102A9000ABEC24F012DA0DD08CDA97EC1BF0C9EC19
:102AA00023F0146E060EE15E145098EC24F0000939
:102AB000FCE0DFD0D9D8120EE126FC0EDB500FE08F
:102AC000010A46E1F80EDBCFE6FFF90EDBCFE6FFA9
:102AD00057EC1DF097EC1BF0EEEC1AF039D0C8EC77
:102AE0001DF002E1FF0EED1802E080EC19F0100E6F
:102AF000F36EDB6E110EDB6AD950F80F9CEC1BF005
:102B000027E04BDB3CDB31D90CE2F80EDBCF08F0E1
:102B1000F90EDBCF09F0100E08C0DBFF110E09C063
:102B2000DBFFF5EC1AF057EC1DF0D3DAEEEC1AF0FF
:102B3000F5EC1AF0CEDA31EC1DF02FDBD950FA0F9C
:102B400062EC1CF02ADBD950F80F53D9A4D9D4D7A2
:102B5000120EE15C02E2E16AE552E16E8AD0BC51FC
:102B600099EF1CF0E926000EEA221200040EDBCFDA
:102B7000E9FF050EDBCFEAFF140EEA02F3CFEAFF0E
:102B8000E902F3CFE9FFF450EA26000EE926010E30
:102B9000EA221200FD0EDBCFE9FFFE0EDBCFEAFFDB
:102BA0001200EECF16F0EFCF17F01200FE0EDB5042
:102BB0005EEF1DF0EECF14F0EFCF15F0120070ECC9
:102BC0001BF0020ED8801456000E1556140E150276
:102BD000F3CF15F01402F3CF14F0F4501526F3CF11
:102BE000E6FF15C0E6FF010EE66EE76ECCEC1BF0CB
:102BF000E7501626000E1722140E1702F3CF17F017
:102C00001602F3CF16F0F4501726000E1626010E0A
:102C10001722F7EC1DF0010EE66E040EDBCF18F064
:102C2000050EDBCF19F0140E1902F3CF19F01802BC
:102C3000F3CF18F0F4501926000E1826010E1922B1
:102C400018C0E6FF19C0E6FFEFDE1A6E080EE15E5F
:102C50001A500101386B396B1200EE50165C146E7D
:102C6000EE501758156E1200D9CFE6FFE1CFD9FF0D
:102C70001200E552E7CFD9FF1200020EDBCF14F0AD
:102C8000030EDBCF15F0120014C0EEFF15C0EDFFF0
:102C90001200060E35EC1DF0070EDB501758156EAE
:102CA000C0EC1BF016EC1CF0F80EDBCF08F0F90EB0
:102CB000CDEC1CF0C1EC1DF0080E08C0DBFF090EC6
:102CC00009C0DBFFFC0EDBCF08F0FD0E05EC1DF0AC
:102CD000FC0E1200A9DE146E080EE15E1450120004
:102CE0000F0EDBCF18F0100EDBCF19F0110EDBCF7B
:102CF0001AF0120EDBCF1BF081EC1BF0D6EC1DF0AE
:102D0000EE501A58166EEE501B58176EB4EC1BF0AE
:102D1000DECF07F0DECF08F0DECF09F0DDCF0AF01E
:102D2000DD52DD520A34000E0A181200D950100F7D
:102D3000146EDACF15F00C0EDB501424FCEF1DF0EE
:102D40001650EE24146E1750EE20156E1200FA0E77
:102D5000DBCF16F0FB0EDBCF17F01200FC0EDBCF43
:102D6000E6FFFD0EDBCFE6FF12001450165C155097
:102D700017581200E96EDACFEAFF1200EECF18F012
:102D8000EECF19F03CEC1FF018C0E6FF19C0E6FFCB
:102D90001AC0E6FF1BC0E6FF16EC41F0E552E7CF94
:102DA0001BF0E552E7CF1AF0E552E7CF19F0E552F4
:102DB000E7CF18F000011850065C146E1950075840
:102DC000156E1A500858166E1B500958176E800E53
:102DD0001714120014C0EEFF65EF1DF0E66EEBEC69
:102DE00009F0E552E5521200EECFE6FFEFCFE6FF25
:102DF0001200E96EFF0EDA20EA6E1200F7EC1DF009
:102E000020EC41F018EF1FF0E00E146E0D0EDBCF3A
:102E1000E7FF1450E7260D0EE7CFDBFF1200080E88
:102E2000DBCF08F0090EDBCF09F0FA0E08C0DBFF9C
:102E3000FB0E09C0DBFF0F0EDB50120006C014F0C2
:102E40007DEF1DF01450EE261550ED2212000A0EF3
:102E5000DBCF08F00B0EDBCF09F0FC0E08C0DBFF68
:102E6000FD0E09C0DBFFFC0E1200EE50185C166E62
:102E7000EE501958176E1200ABEC1EF05DEC02F02C
:102E8000E552120016EC1CF0040E1200EECF18F002
:102E9000EFCF19F012001450EE5E1550ED5A1200EB
:102EA000EF8A1DEC1CF0166A176A1200020EDBCFC7
:102EB00016F0030EDBCF17F01200E552E552E55293
:102EC000E5521200060EDBCF18F0070EDBCF19F02B
:102ED000080EDB50185C166E090EDB501958176E81
:102EE0000C0E73EC1DF0000E1720156EC0EC1BF0DD
:102EF000B4EF1CF01650145C175015581200610EF8
:102F0000F36E0D0EDBCFF4FFF350F45C1200DF50D4
:102F1000060DF3CFE9FFF4CFEAFFA40EE926010E78
:102F2000EA221200FB0EDBCFE9FFFC0EDBCFEAFF4B
:102F30001200FB0EDBCFE6FFFC0EDBCFE6FF12003C
:102F4000ABEC1EF0FAEC03F0E5521200FA0EDBCF08
:102F500014F0FB0EDBCF15F0120024EC1CF00A0E6F
:102F600073EC1DF00B0E01EC1EF05E515225186E35
:102F70005F515321196EC2EF1CF0010114504A5DDC
:102F800015504B591200A3EC1CF01A50165C146E2D
:102F90001B501758156E12000F0EDBCF42F1100EAA
:102FA000DBCF43F1110EDBCF44F1120EDBCF45F145
:102FB0001200CFEC1DF00FEF1CF0DF505EEF1DF0A4
:102FC000020E14C0DBFF030E15C0DBFF1200260E3D
:102FD000DBCF14F0270EDBCF15F01200FE0EDBCF97
:102FE000BCF11200040E35EC1DF0050EDB5019EF9C
:102FF0001DF0EF50E66E1FEC1DF0010EE66E1200A4
:103000000E0EDB50F36E0C0EDBCFF4FFF350F45CCE
:103010001200130EDBCF46F1140EDBCF47F1150E75
:10302000DBCF48F1160EDBCF49F1BAEF1DF0BDEC56
:103030001CF067DBEE50ED10120052DB030E145C47
:10304000000E15581200DBCFE9FFDB2AFD0EDBCFA7
:10305000EAFF1200DBCFF6FFDB2AFD0EDBCFF7FF26
:10306000120001014A51EE5C146E4B51EE581200F1
:10307000260EDBCF08F0270EDBCF09F01200D4DCE0
:10308000186E080EE15E185012000A0EDBCF14F025
:103090000B0EDBCF15F01200DECF14F0DDCF15F0F4
:1030A0001200F36E030EF3CFDBFF1200200EF36E5F
:1030B0000E0EF3CFDBFFDBCF14F0040EDBCF15F0E9
:1030C000050E6CEF1DF00E0EDB50146E156AD95014
:1030D0001200D9CFE6FFDACFE6FF12005DDBDE504B
:1030E0001624146EDD501720A2EF1EF0D950100FD9
:1030F000156E0C0EDB501524FCEC1DF0EFCF14F018
:10310000610E145C1200D950100F176EDACF18F050
:103110000C0EDB501724FCEC1DF0EF507A08120067
:1031200006C0EEFF65EF1DF0A8EC1DF0040DF35096
:1031300012001450EE5C1550EE581650EE58175011
:10314000EE581200D6EC1DF0166A176A1200060E31
:10315000DBCF14F0070EDBCF15F0120004EC3FF0CC
:10316000146E060EE15E14501200ABEC1EF06DEC16
:1031700002F0E5521200C5DA010EEE181200F80E48
:10318000DBCF16F0F90EDBCF17F012001850EE244B
:10319000166E1950EE20176E1200100EDBCF14F0D1
:1031A000110EDBCF15F01200DBCFE6FF050EDBCFF3
:1031B000E6FF1200DBCF15F0166A176A1200540EF4
:1031C000E66E010EE66E1200000E15221622172280
:1031D0001200DECF16F0DDCF17F01200E66E000E03
:1031E000DA20E66E120016EC2BF0E552E5521200E2
:1031F000F3CF14F0F4CF15F012000E0EDBCF14F065
:10320000020EDBCF15F0030E6CEF1DF0DBCF15F0D7
:103210000001145001014627000115500101472308
:10322000000E482349231200F60EDBCF08F0F70EFC
:10323000DBCF09F0020E08C0DBFF030E09C0DBFF85
:1032400012000650165C146E07501758156EE834BD
:103250001200425F1550435B1650445B1750455BAC
:1032600012009EEC24F0E76E010EE7CFDBFFDB508F
:103270001200DBCFDEFFDBCFDDFF1200EECF4AF125
:10328000EDCF4BF11200E66EBD5153D30001145047
:10329000010142270001155001014323000E442380
:1032A000452312006DDAD9501200DB50E76E0E0E86
:1032B000E7CFDBFF1200EF50F36E0D0EDB50F35C37
:1032C0001200FA0EDB06DBCF14F0FB0E1200010E2B
:1032D000F36E0F0EF3CFDBFF1200FC0EDBCF16F008
:1032E000FD0EDBCF17F0F7EF1DF0DBCF1BF00A0E62
:1032F000DB501A24186E0B0EDB501B20196E1200C7
:1033000016DAE5EF1DF0020EF3CFDBFF030EF4CF6C
:10331000DBFF1200DBCF19F0C2EF1CF01650EE5CA1
:10332000146E1750EE58156E1200060E14C0DBFF17
:10333000070E15C0DBFF1200F90EDBCFE6FFFA0E19
:10334000DBCFE6FF1200E66EE66A5DEC3CF0E5528C
:10335000E5521200260EDBCFE6FF270EDBCFE6FF9D
:103360001200260EDBCF16F0270EDBCF17F012006F
:10337000240EDBCFE6FF250EDBCFE6FF1200050EA5
:10338000DBCF15F00001800E151412000A0EDBCF02
:1033900016F00B0EDBCF17F0120014C0E6FF15C0BD
:1033A000E6FF1200040EDB6A050EDB6A120008005D
:1033B0000D0EF5CFDBFF120014500008000E15545F
:1033C0001200F3CFEEFF15C0EDFF1200DE50165CC9
:1033D000146EDD501758A2EF1EF0140EEECFDBFF77
:1033E000150EEECFDBFF160EEECFDBFF1200D880FE
:1033F000000E0754000E0854000E0954000E0A5423
:103400001200EECFDEFFEDCFDDFF040EDB68050E10
:10341000DB681200E9CF14F0EACF15F0E9CFE6FF40
:10342000EACFE6FF1200000EEE5C000EEE58000E32
:10343000EE58000EEE581200EE501426EE501522F3
:10344000EE501622EE5017221200FB0E4CDBFC0E43
:1034500001EF1EF00A0E09DB0B0EDB501758156E3C
:103460001200FC0E40DBFD0E01EF1EF0DBCF15F06D
:10347000145015101200E66AE668E6681200030EA2
:10348000DBCFE6FFEBEC09F0E552E552120001015B
:10349000EE504A5D146EEE504B59156E1200156ECB
:1034A000240E14C0DBFF250E15C0DBFF12000D0E2D
:1034B000DB507A08120014EC15F0166E080EE15E6F
:1034C00016501200040EEECFDBFF050EEDCFDBFF32
:1034D0001200020EEECFDBFF030EEDCFDBFF12007A
:1034E0001A50EE24186E1B50EE20196E1200D9509F
:1034F000FD0FE66EFF0EDA20E66E12005AEC15F0B4
:10350000146E070EE15E1450120004EC3FF0166ECC
:10351000060EE15E165012001650065C146E17502F
:103520000758156E1200632BD8903E373F3740374F
:1035300041371200F90EDBCF08F0FA0EDBCF09F0AD
:103540001200F4CFDBFF0C0EE66EE66AD9501200D3
:10355000146E156A140E145E000E155A1200260E13
:1035600050C1DBFF270E51C1DBFF1200240E08C043
:10357000DBFF250E09C0DBFF1200FB0EDBCF08F0DE
:10358000FC0EDBCF09F0120022EC0EF0F3CF61F15C
:10359000F4CF62F112000C0EDBCF16F00D0EDBCF74
:1035A00017F012000A0EDBCF18F00B0EDBCF19F06C
:1035B0001200FB0EDBCF52F1FC0EDBCF53F11200F9
:1035C0000A0EDBCF5EF10B0EDBCF5FF112005E5116
:1035D0005225146E5F515321156E12002FEC3FF0EF
:1035E000176E070EE15E17501200100EDBCFE6FFDC
:1035F000110EDBCFE6FF1200010E1626000E172279
:103600001200F36E190EF3CFDBFF1200DECFEEFFD8
:10361000DDCFEDFF12000A0EE66EE66A1200010130
:103620004A51141812000D0EEFCFDBFF1200AFEC61
:1036300015F0170EB2EF15F0AFEC15F0020EB2EF69
:1036400015F0AFEC15F0160EB2EF15F05CDBEF5095
:10365000E66E1200AFEC15F00C0EB2EF15F0AFEC09
:1036600015F00A0EB2EF15F0AFEC15F0060EB2EF42
:1036700015F0F9DAD1EF15F0AFEC15F0080EB2EF56
:1036800015F016EC41F01EEC17F0B40E1426C40E23
:103690001522040E1622000E172251EF1EF01426DA
:1036A00093DD8CEC1FF0120EB2EC15F044EF16F027
:1036B0000E0EDBCFE6FFE66A010125DB9ADCD9506E
:1036C000100F8CDD6AEC16F00E0EDB50DE26000EBD
:1036D000DD22F9DC040F54DBD950040F6AEF1EF031
:1036E000C6DBDBCF15F01200CAEC15F0020EB2EF0C
:1036F00015F0B9DA46EF17F0AFEC15F0190EB2EF8E
:1037000015F0D9CFE9FFDACFEAFF120016EC41F04D
:10371000065001013E25146E07503F21156E0850DA
:103720004021166E09504121176E51EF1EF0FD0E1B
:10373000DBCFE6FFABEF1EF0F9EC16F0EE50ED102C
:1037400012004CDCA0EC17F0F80EDB50F35C146EAA
:10375000F90EDB50F458156E33DC2DD3E9DAD8902E
:1037600017321632B5EF16F014C0DFFF010E15C088
:10377000DBFF020E16C0DBFF030E17C0DBFF1200DB
:10378000010E1426000E152212000C0EDBCF14F0D1
:103790000D0E10DDA7EF1EF0040EDBCF16F0050EA8
:1037A000DBCF17F01200B2EC15F0D1EC15F0FEEF04
:1037B00016F0D1EC15F07AEF17F0D9500F0FBAEFE1
:1037C00016F0B6EC15F0100EB2EF15F031DB165016
:1037D000F324146E1750F420B5DA39EF16F0B2EC7A
:1037E00015F0EECFE6FFEECFE6FFF4EC16F036EC88
:1037F0002BF05DEC17F01EEC17F0CAEF15F0AFECF4
:1038000015F0DAEF15F0AFEC15F02DEF16F0F4EC43
:1038100016F0010EE66EAEEC16F06AEF16F0FA0E38
:10382000DBCFE6FFFB0EDBCFE6FF1200040E14C079
:10383000DBFF050E15C0DBFF120020EC41F006C0D7
:1038400014F007C015F01200FB0EDBCF16F0FC0ED3
:10385000DBCF17F01200010EE66E100EEEEF16F041
:10386000BAEC16F022EF17F034EC16F0D6EF15F0A4
:10387000DAEC15F0BDEF17F092EC17F0020EB2EC97
:1038800015F0FADA92EC17F070EF1AF01CDC020F68
:1038900077DA91D2EEEC17F068DC35DDD950020F03
:1038A0006AEF1EF0020EE5DCDBCF14F0030EDBCF77
:1038B00015F0A7EC16F0B5EF16F034EC16F0060E86
:1038C000E1261200F9EC16F022EF17F01CDAF9EC01
:1038D00017F0AEEC16F06AEF16F04AC1E6FF4BC1E6
:1038E000E6FFE66A1D0EE66E070EE66E6AEF16F05C
:1038F0001426000E152210DB140EB2EC15F044EF66
:1039000016F0CAEC15F00E0EB2EF15F03DEC16F005
:10391000F60EDBCF16F0F70EDBCF17F0B5EF16F093
:103920005DDC57EC2BF05DEC17F062DC141E151E0D
:1039300012001C0DF3CFE9FFF4CFEAFF600EE92679
:10394000000EEA221200EE501C5C1A6EEE501D585A
:103950001B6E120046EC17F0AFEC15F0A2EF18F05A
:10396000DAEC15F00FEF1BF014C0F3FF15C0F4FFF5
:103970001200F4EC16F06AEF16F0F3CFDEFFF4CF8E
:10398000DDFF12001450185C1550195812002DEC70
:1039900016F088DC060FC0EF1EF0DBCF09F0060E34
:1039A00008C0DBFF070E09C0DBFF120034DE99EC14
:1039B00017F005DCAEEF18F0010EE66E110EEEEC1E
:1039C00016F0010150515111120022EC17F03DEC9C
:1039D00016F0A7EC16F0B5EF16F0260E14C0DBFFBC
:1039E000270E15C0DBFFE7EF17F0EECF14F0EECF98
:1039F00015F0D1EC15F0B6EF15F0E66A000EE66EA4
:103A0000E66AABEC24F05DEF17F0DBCF09F00A0EAD
:103A100008C0DBFF0B0E09C0DBFF120098D9D8905D
:103A2000030EEB50000A1200B6EC15F00A0EB2EFCE
:103A300015F01758156E14C0E6FFE66E1200DECFC3
:103A4000E6FFDDCFE6FF120034EC16F0040EE126AF
:103A5000120096EC16F05BEF19F0D950260FBAEF72
:103A600016F0FAEC24F05DEF17F0DB50165C146EE4
:103A70001200AFEC15F00E0EB2EC15F0BEEF16F022
:103A8000120EB2EC15F006C0EEFF15C0EDFF1200ED
:103A900038EC18F0085001014A2709504B23120056
:103AA000CAEC15F00C0EB2EC15F094EF18F0A6EC81
:103AB00017F0166A72DC16C0E6FF1200146E156A63
:103AC000040E145C000E1558120015C0EEFF16C04F
:103AD000EEFF17C0EEFF1200DBCF16F01450155C9E
:103AE000000E16581200DB501624146E1200270E1A
:103AF000145E000E155ACDEF19F007C015F008C07E
:103B000016F009C017F0120046EC17F01850145CBC
:103B10001950155812002DEC16F042EC17F0D4EFA6
:103B200018F034EC16F0300EE126D6EF15F0E00E6A
:103B3000166E96EC16F01650EF26120098D9DAEFB2
:103B400018F0E7EC17F01450615D1550625912003F
:103B5000EF50F00BE842E842E842E8421200D95048
:103B6000170F6AEF1EF0FB0EDBCF14F0FC0EDBCF5D
:103B700015F012000101462B000E4723482349236C
:103B80001200FA0EDBCF08F0FB0EDBCF09F01200BB
:103B9000D950FD0FF9EC16F0FF0EEE181200F70EDB
:103BA000DBCFE6FFF80EDBCFE6FF1200EE50185C2D
:103BB000146EEE501958156E1200B2EC15F090EF1D
:103BC00018F0E66EE66A69EF18F0CDEC22F0E552E7
:103BD000E5521200AFEC15F03EEF19F0D1EC15F004
:103BE00016501418120099EC17F03BEF1AF016C09B
:103BF000E6FF17C0E6FF1200E96E000EDA20EA6E5B
:103C00001200DB501720156E120011DDEE5212006B
:103C1000010121EF1BF023DDDAEC15F02AEF1BF098
:103C20005BD9D1EC15F003EF1CF0F80EDB50182433
:103C3000166EF90EDB501920176E1650010152EF67
:103C40001FF04EDDD950FC0F3DDE4ADD8BD901015E
:103C50005BEF1FF0ECDCEF501200F4EC16F0F3EC2D
:103C600018F0F8EF18F0AFEC15F0040EB2EF15F005
:103C700040DDE2DC35EC17F0F2DC6FD9EBDCC3EFB2
:103C800017F001013CEF1BF039D995EC19F0A7ECC6
:103C900018F060EF1FF0D0DCDAEC15F0DBDC44EF5D
:103CA00016F03AD90E0EB2EC15F0EAEF16F0AEECC3
:103CB00016F0CCDC34EF1BF0DCDCBEDC2DEF16F0B4
:103CC000C5DCBADCF4EF16F0B2DC50EC17F0040EF1
:103CD0004FEF1BF0BAEC16F0EE50ED101200BADC0C
:103CE000D1EC15F0BCDC2DEC16F01406000E155AC4
:103CF0001200ACDCC6EC19F0B2DCA0EC16F014C07B
:103D0000E6FFE66E1200AFEC15F01B0EB2EF15F0F9
:103D100006D9B0EF1CF051DD01014251EE1812003E
:103D2000E9EC18F0A1DCA0EC16F086DC84EF1DF0C5
:103D300046EC17F0AFEC15F035EF17F087DC8ADCB6
:103D400007EF1CF0156E14C0F3FFF46E1200D9508B
:103D5000060FBAEF16F0FE0EDBCFE6FF12006CDCAA
:103D6000D1EC15F081DC8BEF1DF0F7D865DCA3EF0B
:103D70001CF0B2D8AAEF1CF0D950FC0F9CEF1BF03E
:103D8000BAEC16F04BEF17F04CEC18F0C8D8E5EF92
:103D90001CF04DDC50EC17F0180E4FEF1BF0060E28
:103DA00039EC19F066DC49EF16F0AFEC15F0140EA3
:103DB000FADC21EF19F03DEC16F0A7EC16F07AEFE3
:103DC00017F0AFEC15F0A0EC16F0C0EF1BF0EE2AE8
:103DD000ED22EECF14F0EDCF15F012006EDDD2EC37
:103DE00019F0D6EF15F03DEC16F026DCAEEF1BF027
:103DF000C4DD56EC17F0E6EF19F0A0EC16F079DC14
:103E0000C2EF1CF036DC18DCC7EF1CF046EC00F00B
:103E10006BDCDAEF15F0F3DC2FDC44EF16F016DC88
:103E20001EDCB9EF1CF016DCDAEC15F056EF17F0DB
:103E3000E552E7CF17F0E552E7CF16F0120044EC59
:103E400016F021EF1BF0D950FA0F9CEF1BF0B9DCF4
:103E5000EE50ED101200D950040F30EF1CF0E1ECE1
:103E600019F0CAEF15F0A9DCEE5001011200040EA2
:103E7000DBCF14F0050E1200EECF1AF0EFCF1BF0DF
:103E80001200010105EF1EF0C3DEEF50120017EC27
:103E90001BF0EF9A17EC1BF0EF9C17EC1BF0EF9E5A
:103EA00005EF1EF04E19146E17504F19156E0101D3
:103EB00023DC44EF16F0A3DC34EC1BF044EF16F0E7
:103EC00039EC1BF0B5EF16F0BFDCF2EC17F03BEC71
:103ED0001AF0010160EF1EF001011CEF1BF001015F
:103EE0002AEF1EF0EEEC17F001010BEF1EF0C9DE19
:103EF00038EF1CF021EC1BF0EF501200BFEC18F073
:103F000001012AEC1BF0A0EF16F08ADE145001012B
:103F10004A5F15504B5B12000101AFEF15F0010134
:103F200034EF1BF0010EE66EC2DEB9EF1CF0BFDE0F
:103F3000F4EC16F07EEF1AF0EF9267DEEF9405EFE7
:103F40001EF0B2EC15F089DECAEF15F017EC1BF08D
:103F5000F80EEF140009EF6E1200EECF1CF0EFCF59
:103F60001DF0120081EC1BF04BEF17F08ADE3EEFE4
:083F700019F0010126EF1BF01E
:083F780012EC26F0E652898AE2
:103F8000929A9496949A9488898892989E96200EF4
:103F9000C66EC78CC79E30EC25F01D0E6FEC27F067
:103FA000080EDF14F8E1DF1C010BF5E10201010E40
:103FB0001C6F186B196BE66A080E08EC26F0E66AAF
:103FC000090E08EC26F0E50EE66E0C0E19EC27F053
:103FD0000D0E08EC26F0E50EE66E0A0E19EC27F041
:103FE0000B0E08EC26F0E60EE66E040E19EC27F038
:103FF000050E08EC26F0E60E8EEC27F0E66AF0ECF3
:1040000024F0E552E66A020EE66E2CEC26F00D0E68
:10401000E66E27EC26F0320EE66E020E08EC26F075
:10402000120EE66E040E08EC26F0400EE66E030E4D
:1040300008EC26F03F0EE66E090E08EC26F0120E94
:10404000E66E060E08EC26F00C0EE66E070E08EC87
:1040500026F0EE0EE66E0A0E08EC26F0050EE66E71
:104060000B0E08EC26F0040E12EC27F09EC1E6FFC2
:10407000040E08EC26F09FC1E6FF050E08EC26F0C2
:10408000A0C1E6FF020E08EC26F0A1C1E6FF030E78
:1040900008EC26F0A2C1E6FF27EC26F0A3C1E6FF5C
:1040A000010E08EC26F0E66A150E08EC26F0120E5A
:1040B0000DEC26F0E8CF1DF2E66A010EE66E100E5A
:1040C000E66EC6EC25F0E552E552E552720EE66E5C
:1040D000340EE66E140EE66E98EC26F0E66A98EC66
:1040E00026F02CEC26F0A0EC26F0E55217EF26F097
:1040F000010EE66E88EC25F0E552F350040B01E06A
:10410000010E1200CFEC26F0080B080A01E0010EA8
:10411000120081EC27F002011C5123E1010E1C6FFB
:1041200018C214F019C215F01406000E155A14C066
:10413000DEFF15C0DDFF85EC27F01BEC26F004E266
:10414000E50EDE6E060EDD6E400EC4EC26F0DFCF0F
:10415000E6FF0C0E08EC26F0E2EC26F00D0E08EC63
:1041600026F0020EE15C02E2E16AE552E16E17EF31
:1041700026F012EC26F0040EE1265DEC27F0190E75
:104180006FEC27F00E0E1DEC27F00E0E0DEC26F056
:10419000C7EC26F00F0E2BEC27F05DEC27F0190E84
:1041A0000DEC26F0DF500001145CE9E10C0E1DEC73
:1041B00027F00C0E6FEC27F00D0E72EC27F086EC5A
:1041C00026F0DECF16F0DDCF17F01450165C155038
:1041D000175821E2E50E186E060E196E1A6A1B6A50
:1041E000020EDBCF20F0030EDBCF21F0DE50205C8F
:1041F0001C6EDD5021581D6E1E6A1F6A1C50185C13
:10420000146E1D501958156E1E501A58166E1F50F8
:104210001B58176E1DD086EC26F0DF50141809E1EC
:10422000DE52DD50151805E1E50EF36E060EF46E54
:1042300013D0DECF16F0DDCF17F0020EDB50165C88
:10424000146E030EDB501758156E1406000E155A27
:1042500014C0F3FF15C0F4FF040EE15C02E2E16A52
:10426000E552E16E17EF26F0D9CFE6FFE1CFD9FF97
:10427000150EE126190EE66E010EE66EDAEC25F05B
:10428000E552E552190EE66E72EC25F0E552146E19
:10429000140E14C0DBFF000EE66EE66ADAEC25F0C1
:1042A000E552E552140EDB5002E1000EB7D00201D8
:1042B0001C5103E12EDF000EB1D018C21AF219C250
:1042C0001BF21AC2E6FFE66AABEC25F0E552E552B6
:1042D0001BC2E6FF010EE66EABEC25F0E552E5529F
:1042E000140EE66EE66AD9CFE6FFDACFE6FF33DBDF
:1042F000E552E552E552E552120EDBCFE6FF130E12
:10430000DBCFE6FF16EC2BF0E552E552120EF3CFB1
:10431000DBFF130EF4CFDBFFDECF14F0DDCF15F0A3
:10432000166A176AD880E50E1454060E1554000E4E
:104330001654000E175431E3D9CFE9FFDACFEAFF64
:10434000EF50010B2AE1D950020FE96EDACFEAFFF4
:10435000EE52EE52EE52EF50800B1FE1D950020F99
:10436000E96EDACFEAFFEE52EE52EF50100B15E194
:10437000D950020FE96EDACFEAFFEE0ED880EE5484
:10438000050EED540AE3D950020FE96EDACFEAFFC9
:10439000EE52EE52EF50800B01E1FF00DECF18F23B
:1043A000DDCF19F2060EE66EE66AD9500C0FE66E06
:1043B000000EDA20E66EFD0EDBCFE9FFFE0EDBCF4E
:1043C000EAFFE9CF14F0EACF15F014C0E6FF15C0FC
:1043D000E6FF04EC3FF0166E060EE15E1650FB0E93
:1043E000DBCFE9FFFC0EDBCFEAFFEF68130EDB50FB
:1043F000080810E1120EDB5004E0120EDB50060834
:1044000009E1FB0EDBCFE9FFFC0EDBCFEAFF120E6A
:10441000DBCFEFFF02011C6B010E00D0146E150EF6
:10442000E15C02E2E16AE552E16E1450E552E7CF49
:10443000D9FF120012EC26F0E70E8EEC27F0D950CF
:10444000FA0F3DEC26F0F40EEE26060EED22FA0EE3
:10445000DBCFE6FF060EDCDBFB0EDBCFE6FF070E55
:1044600019EC27F0E66ACBEC26F094EC26F0D5ECBC
:1044700026F0060EE66EE66A9E0EE66E010EE66E0B
:10448000D5EC26F0080EE66EABDAE552FC0EDB50FA
:1044900002E1000E01D0060EE66EA2DAE552C7D3A5
:1044A000C1DB0E0EE126DCDB050E02011D5D03E023
:1044B000060E1D5D5BE1DE6ADD6A61EC27F010E14E
:1044C000D9CFE9FFDACFEAFFEE2A000EED22EECFD8
:1044D00015F0EDCF16F0E80E155C030E1658EDE35F
:1044E0001C0E5AEC27F0E850020B09E1DECF15F064
:1044F000DDCF16F0E80E155C030E165837E3A4EC7A
:1045000026F094EC27F0060E88DB040E14C0DBFFC7
:10451000070E83DB050E14C0DBFF040EDB2A050E3D
:1045200001E3DB2AF0EC26F0DB6A100EF36E0D0ED1
:10453000DBCFF4FFF350F45C17E21C0E5AEC27F0CB
:10454000E850020B11E0D7DBEE52EE52EE52EF5084
:10455000200B0AE085DB61EC27F0FDE0A4EC26F0FF
:10456000F0EC26F0DB2AE1D721EC27F00E0EE15C1F
:1045700002E2E16AE552E16E5AD354DB020EFCEC32
:1045800026F002E2A7EC26F0EAEC26F0020EE15C4F
:1045900002E2E16AE552E16E4AD381EC27F06FEC6A
:1045A00027F0030E72EC27F03CEC27F067EC27F0C5
:1045B00002E2E16AE552E16E3AD381EC27F00DECBC
:1045C00027F0CBEC26F043DBAFDB010E67EC27F0E6
:1045D00002E2E16AE552E16E2AD324DB040EFCEC30
:1045E00026F001E2B4DB94EC27F0EAEC26F0FB0EB7
:1045F000DBCFE6FFFC0EDBCFE6FF10D8E552E5523D
:10460000F3CFDEFFF4CFDDFF21EC27F03BDB040E20
:10461000E15C02E2E16AE552E16E09D303DB1E0EC2
:10462000E126020EDB6A030EDB6A040EDB6A050E6E
:10463000DB6A0DEC27F0A2EC27F075E015EC27F013
:10464000140ED880EE54000EED5404E2140E146ED5
:10465000156A06D0FD0EDBCF14F0FE0EDBCF15F091
:10466000060E14C0DBFF070E15C0DBFF060EDBCF06
:10467000E6FF070EDBCFE6FFD950080F0DDB060E75
:10468000DBCF14F0070EDBCF15F0CFDB1450EE5E5E
:104690001550ED5A30DBEF50010B13E0D950080FE5
:1046A000146EDACF15F0060EDB501424E96E070EF7
:1046B000DB50DA20EA6EEF6A060EDB2A070E01E312
:1046C000DB2AD950080F146EDACF15F01C0E14C077
:1046D000DBFF1D0EDACFDBFF0EDBEE50ED10ABE0A3
:1046E000D9501C0FE96EDACFEAFFEECFF3FFEDCF22
:1046F000F4FF020EEE26000EEF22F3CFE9FFF4CF17
:10470000EAFFEECF14F0EFCF15F0166A176A28DB38
:10471000EE221650EE221750EE22EDDA020EEE5E79
:10472000000EED5AD9D756DBF1DA166A176A040E75
:10473000DBCF18F0050EDBCF19F01A6A1B6A185090
:104740001426195015221A5016221B5017221FDB4F
:10475000030E15C0DBFF040E16C0DBFF050E17C0ED
:10476000DBFF040EDBCF14F0050EDBCF15F0F8DA1B
:10477000ED22020EDB1C146E030EDB1C156E14C042
:10478000F3FFF46E1E0EE15C02E2E16AE552E16EB7
:104790004ED248DA060EE126040EDB6A050EDB6A0D
:1047A00044DBFF0EEE1816E1FF0EED1813E1010ECB
:1047B000F36E040EF3CFDBFF020E7CDBE850E66EF7
:1047C00034DBE552E750EE6EED6A030E26DAFE0E9C
:1047D00014C0DBFFBBDBFF0EEE1816E1FF0EED1879
:1047E00013E1010EF36E050EF3CFDBFF71DA00016A
:1047F000E850E66EABDBE552E750EE6EED6A010E77
:104800000CDAFC0E14C0DBFFA5DB010ED880EE54E1
:10481000000EED542EE3050EDB5001E1FEDA040E2E
:10482000DB5005E1020EF9D9B2DA030E14DBFB0E00
:1048300071DBFC0E5CDB20DBE66E8DD9E552E552C8
:10484000F90EDBCF14F0DB06FA0EDBCF15F001E238
:10485000DB061450151004E071D8E66EC1D8EFD70E
:10486000050EDB5001E1B6DA040EDB505AE10ADB3B
:1048700057D0040EDB500EE0F90EDBCF16F0FA0E27
:10488000DBCF17F030DA156E82DA030E15C0DBFFCE
:10489000F9DABED942DA1406000E155A5BDB145061
:1048A000EE261550ED221F0E05DB14BAFCD7FB0EC9
:1048B000DBCFE6FF100EACD9FC0EDBCFE6FF110E0E
:1048C000A7D969DA140EA4D92FDA150EA1D925DAE1
:1048D000B2D903E3EBD901E2DDDAF90EDBCFE6FF73
:1048E000120E96D9FA0EDBCFE6FF130E91D9100EF9
:1048F0006DDA200EE66E8FDA050EDB5012E0F90E4F
:10490000DB2AFA0E01E3DB2A08DA95D903E3CED9D4
:1049100001E2C0DAF90EFEDAFA0EDBCFE6FF010E95
:1049200077D9060EE15C02E2E16AE552E16E7FD1E1
:1049300036DA200B200A01E0010E120073D9E6528C
:10494000899A9E963A0EC96E9EA6FED7A1D9C96ACB
:104950009EA6FED789D266D9030EE126899A9E9635
:104960003A0EC96EDE6ADD6AEDDA05E0FD0EDB06A1
:10497000FE0E01E2DB069EA6FED79E96020EC9CF72
:10498000DBFFC3DAFB0EDBCF16F0FC0EDBCF17F03C
:104990001650145C175015581AE2C96ADF2A010E26
:1049A00001E3DB2ACFDA0CE0FD0EDB2AFE0E01E389
:1049B000DB2A9EA6FED79E96FED9C9CFEFFFE1D790
:1049C0009EA6FED79E96020EC9CFDBFFDAD7898A54
:1049D00059D9030EE15C02E2E16AE552E16E27D1AA
:1049E0007BDA9EA6FED754D9FE0EDB50C96E9EA67A
:1049F000FED736D271DA9EA6FED752DA10E0DBD9A6
:104A0000EF50C96EFD0EDB2AFE0E01E3DB2AFB0E22
:104A1000DB06FC0E01E2DB069EA6FED7EED7898AF6
:104A2000E55205D159DA9EA6FED73ADA16E0FD0E18
:104A3000DBCFF6FFFE0EDBCFF7FF0800F550C96EA7
:104A4000FD0EDB2AFE0E01E3DB2AFB0EDB06FC0E6D
:104A500001E2DB069EA6FED7E8D7898AE552E7D0B9
:104A6000E1D8050EE12685D9010EF36EDB6E020E4C
:104A7000DB6A010EDBCF14F0DB06020EDBCF15F094
:104A800001E2DB061450151006E0080EE66E3CEC61
:104A900042F0E552EED7899A9E96C9689EA6FED747
:104AA000F7D8898A010EF36E030EF3CFDBFF040EF5
:104AB000DB6A030EDBCF14F0DB06040EDBCF15F050
:104AC00001E2DB061450151006E0080EE66E3CEC21
:104AD00042F0E552EED7050EE15C02E2E16AE552F2
:104AE000E16EA5D0C6D9C96E9EA6FED7D1D8C96A37
:104AF0009EA6FED7B9D1BDD9C96E9EA6FED7C8D88D
:104B0000C96A9EA6FED7C4D8C96A9EA6FED7ACD1F4
:104B1000F8D99CD9010EE66E120E7AD80A0E82D907
:104B20000A0EEFD8000114B0FBD703DAE66A120EC2
:104B30006FD8180EE6D8DF6E190EE3D8010E14C038
:104B4000DBFF000E7AD99ED8020EE15C02E2E16A38
:104B5000E552E16E6CD08DD94009C96E9EA6FED794
:104B6000A4D99EA6FED77CD184D9A009C96E9EA6E1
:104B7000FED79BD99EA6FED773D17BD98009C96E7B
:104B80009EA6FED792D99EA6FED76AD14BD85ED9F3
:104B9000FC0EDBCFE6FF160E3BD8FDD8170E38D83B
:104BA0000A0E40D90A0EADD8000114B0FBD7000E92
:104BB00044D93DD037D8030E09D9B6D82CD937D02F
:104BC000040E04D91D0E76D914B4FCD71F0E72D969
:104BD00014B6FCD7200EC4EF26F0CBD81D0E6AD930
:104BE00014A0FCD7A0EF26F01DD8150E1BD99CD819
:104BF000150E0ED8000E21D91AD014D8E652150E73
:104C000011D9150E6CD9000E18D9DF50E5520FD00E
:104C1000E66EA1DFE552E5521200E66E63DFE55273
:104C2000146E1200D9CFE6FFE1CFD9FF1200E55292
:104C3000E7CFD9FF1200166A176AD880E50E145420
:104C4000060E1554000E1654000E17541200E66A94
:104C500082DFE552E5521200ADDFE552E552120067
:104C6000800EE66ED8D8800EB1D80A0EE66E1C0E05
:104C700043D9080EE66E0BEF27F0E96EFF0EDA203F
:104C8000EA6E120042D914C0F3FF15C0F4FF1200FF
:104C90009E96C950DF6E1200E66E000EDA20E66EB8
:104CA0005ADEE552E552E552E5521200F90EDBCF2D
:104CB00018F0FA0EDBCF19F01A6A1B6AD880E50EDD
:104CC0001854060E1954000E1A54000E1B541200EC
:104CD000E66A08DFE552146E1200E652899A9E9643
:104CE000FE0EDB501200FD0EDB501624146EFE0E7D
:104CF000DB5017201200D950060FE96EDACFEAFF19
:104D00001200E66EF8DEE552146E1200020EDBCFE2
:104D100014F0030EDBCF15F01200FB0EDBCF14F006
:104D2000FC0EDBCF15F01200FE0EDBCFE6FF12000B
:104D30002DDFE552E552E552000EE66EE66A1200FE
:104D4000040EE66E0BEF27F0080EE6EF26F0D9CF43
:104D5000E9FFDACFEAFFE60EEE5E060EED5A12002C
:104D6000D950020FE96EDACFEAFF1450EE26155043
:104D70001200200EE66E1E0E7CEF27F0E652899A96
:104D80009E967A0EC96E1200E66E1E0ED6D0020EE8
:104D900014C0DBFF1200FD0EDBCFE6FF12001F0E7A
:104DA000E66EA0DEE552E850120024DEE552E55240
:104DB000E552E5521200FD0EDBCFE9FFFE0EDBCF20
:104DC000EAFF1200010EDBCFE6FF1200E66E1F0EB7
:104DD0007CEF27F0DFCFE6FF3ADFF4DF08EF26F0C5
:104DE000040E98D8050E83D8070EE66EE66AD950F1
:104DF000060F52DF0D0E1200E126140E0201176A93
:104E00001A25166E1B5117226EDF14C0DEFFDD6EF1
:104E10007CD81BEF26F01F0E90D05ADFDF6E010EFC
:104E200072EF27F0E66E030E99D0D950FD0F3DEFDB
:104E300026F0EEDE060EE66E1200E66EE66A2CEF57
:104E400026F0020E67D8030E77EF27F072D86CDFDA
:104E5000140E08EF26F0E1DE030E14C0DBFF120093
:104E600017DF898AE552E3D613DF898ADF50E552DE
:104E7000DED6D8DE6DEF26F08EDF020EC9DE54DFFF
:104E8000030E1200020EDBCFE6FFC2DE030EDBCF05
:104E9000E6FF12005FD8E60EEE5E060EED5A120037
:104EA000F7DE54D8EE50ED101200F2DEFD0EDB50AE
:104EB000C96E1200B2DE00011200190EE66E010E7C
:104EC0004DD01C0EAADE0A0E000114141200A0DE42
:104ED000D9DE020EE15C1200A5DEBEEF26F09DDEFB
:104EE000DF6E12009ADE010E14C0DBFF1200DBCF72
:104EF000E6FF010E08EF26F0E66E36DEE552E552DB
:104F0000120090DE020EE1261200DECF14F0DDCF9B
:104F100015F01200DBCFE6FF27EF26F0E66E020E5B
:104F200088DF030E08EF26F0D3DE31DF010E2BEF12
:104F300027F0140EE66E020E11D0E66E1EDEE5526C
:104F4000E552120072DFEE50ED101200D950FB0F47
:104F50003DEF26F0D950F90F3DEF26F0E66E2CEF2D
:024F600026F039
:0E4F620023EC2DF0050EE12626C2DFFF010E26
:104F700027C2DBFF020E28C2DBFF030E29C2DBFFC4
:104F80006AEC2DF014501510161017100BE1010EDD
:104F9000F36EFB0EF3CFDBFFFC0EDB6AFD0EDB6A6C
:104FA000FE0EDB6AFB0EDBCF26F2FC0EDBCF27F218
:104FB000FD0EDBCF28F2FE0EDBCF29F2040EDB6AFA
:104FC000100EF36E040EDBCFF4FFF350F45C04E23A
:104FD00015D8040EDB2AF4D7DECF06F0DECF07F0BB
:104FE000DECF08F0DDCF09F0DD52DD52050EE15CC9
:104FF00002E2E16AE552E16E28EF2DF023EC2DF09C
:10500000E652DF6A0F0EDF5C31E226C214F027C2DF
:1050100015F028C216F029C217F0D89017321632B0
:105020001532143226C218F0010E1816196A1A6ABF
:105030001B6A000E186C191E19221A1E1A221B1E3A
:105040001B22010E1816196A1A6AD00E1B1614506C
:1050500018180201266F15501918276F16501A18C4
:10506000286F17501B18296FDF2ACCD726C2F3FFF1
:1050700027C2F4FFE55228EF2DF0D9CFE6FFE1CFAC
:10508000D9FF140EE1260F0EC2CFDBFF100EC0CFEA
:10509000DBFF110ED5CFDBFF130ED6CFDBFF120ED9
:1050A000D7CFDBFF010EC26E3F0EC06E880ED56EED
:1050B000DF6A070EDB6A080EDB6A090EDB6A0A0E7E
:1050C000DB6A050EDB6A060EDB6A98DFF3CF14F0AD
:1050D000F4CF15F00B0E14C0DBFF0C0E15C0DBFF78
:1050E0000D0EDB6A0E0EDB6AD76AD66AC282040036
:1050F000C2B2FED7030ED6CFDBFF040ED7CFDBFF45
:105100007DDFDE52F3CFDEFFF4CFDDFFDD52030E95
:10511000DBCF14F0040EDBCF15F0166A176AD950F6
:10512000070FE96EDACFEAFF1450EE261550EE2293
:105130001650EE221750EE22D950070FE96EDACF43
:10514000EAFF000EEE5C120EEE587A0EEE58000EDC
:10515000EE581DE353DFF3CF14F0F4CF15F0D95020
:105160000B0FE96EDACFEAFF1450EE1A1550ED1A64
:1051700045DFF3CF14F0F4CF15F0D9500D0FE96EE1
:10518000DACFEAFF1450EE1A1550ED1A5CD0050E76
:10519000DBCF14F0060EDBCF15F0030EDB50141836
:1051A00003E1040EDB50151801E19ED7050EDBCF9D
:1051B0001AF0060EDBCF1BF0030EDB501A5C186EE4
:1051C000040EDB501B58196E010EDB501824146EB0
:1051D000020EDB501920156E166A176A14C0E6FF1E
:1051E00015C0E6FF16C0E6FF17C0E6FFBADEE552BF
:1051F000E552E552E552030EDBCF08F0040EDBCF9B
:1052000009F0050E08C0DBFF060E09C0DBFFD95010
:105210000B0FE96EDACFEAFFD890EF36010EEB36CE
:10522000020EEB36030EEB36E9DEF350800B07E09F
:10523000D9500B0FE96EDACFEAFFEE80ED52DF2A8C
:1052400001E101D051D70F0EDB50C26E100EDB50C2
:10525000C06E120EDB50D76E130EDB50D66E110EE1
:10526000DB50D56E0B0EDBCF14F00C0EDBCF15F040
:105270000D0EDBCF16F00E0EDBCF17F014C006F0CC
:1052800015C007F016C008F017C009F000D0140EC2
:10529000E15C02E2E16AE552E16EE552E7CFD9FF57
:1052A0001200F1EC2DF087EC2DF08FEC2DF001E3E6
:1052B000DB2A040EEFCFDBFFEF5023E0060EDB50BE
:1052C00003081FE3D2EC2DF004E19FEC2DF017E270
:1052D00034D0050EDB50030807E1040EDB50FE0856
:1052E0002CE187DB07E229D0040EDB50FE0804E145
:1052F00080DB23E38CDBD7D79FEC2DF01EE3C9DBEB
:10530000D4D7040EDB5017E0040EDB502F0813E057
:10531000040EDB500D080FE0040EDB500A080BE012
:10532000040EDB50200807E09FEC2DF004E0040E93
:10533000DB503A0802E15DDB02E2000E01D08CDBBB
:10534000146E070EE15C02E2E16AE552E16E145070
:105350007FD3F1EC2DF0DBDBFD0EDBCFF6FFDB2A9C
:10536000FE0EDBCFF7FF01E3DB2A0800040EF5CFCA
:10537000DBFFF55021E0060EDB5003081DE3D2EC05
:105380002DF003E1DCDB16E22ED0050EDB50030826
:1053900007E1040EDB50FE0826E12BDB07E223D0F9
:1053A000040EDB50FE0804E124DB1DE330DBD3D721
:1053B000C6DB19E36EDBD0D7040EDB5012E0040E1F
:1053C000DB502F080EE0040EDB500D080AE0040E3F
:1053D000DB500A0806E0040EDB50200802E0AFDBD9
:1053E00002E107DB02E2000E01D036DB146E070E8D
:1053F000E15C02E2E16AE552E16E145029D323DB5D
:10540000060EE126050EDB6A9EDBEE50ED105AE03B
:10541000DF6A100EF36E030EF3CFDBFF270EF36E81
:10542000040EF3CFDBFF050EDF5C51E2FD0EDBCF98
:1054300008F0FE0E63DB16EC42F0DE5208C0DEFF21
:1054400009C0DDFFDD52D950010FEFDBEE50ED104A
:1054500003E1050EDB5024E0010EDBCF14F0020E59
:10546000DBCF15F0300E1426000E152260DB01E3B1
:10547000DB2A14C0EFFF010EDBCF08F0020E3EDB8B
:10548000F8EC41F006C014F007C015F05CDB0650E4
:10549000EE5E1550ED5A010EF36E050EF3CFDBFFF5
:1054A000D950030FC2DB0A0E0D6E0E6AEECF08F064
:1054B000EDCF09F016EC42F008C0EEFF09C0EDFF99
:1054C000DF2AB1D734DB01E3DB2A300EEF6E74DB69
:1054D000EF6A060EE15C02E2E16AE552E16EB8D2E3
:1054E000B2DAFE0EDB50460802E2200E81DBFD0E32
:1054F000DB50460802E2200E82DBFE0EDB5039084C
:1055000002E2370E01D0300E73DBFD0EDB5039089E
:1055100002E2370E01D0300E72DBDBCFE6FFFE0E6B
:10552000DB38F00BE552E71093D28DDAFE0EDB3854
:105530000F0BF36EFE0EF3CFDBFFDB50090805E225
:10554000FE0EDB50410FF60F03D0FE0EDB50300F86
:105550007FD279DAFE0EDB98DB9ADB9CDB9EDB5098
:10556000090805E2FE0EDB50410FF60F03D0FE0ED8
:10557000DB50300F6DD267DA020EE12624DBEFCF6D
:10558000DFFFFB0EDBCFF6FFFC0EDBCFF7FF0800E3
:10559000010EF5CFDBFFDF5032E0010EDB502FE0D4
:1055A000610EDF5C05E3DF507A0802E3200EDF5E68
:1055B000610EF36E010EDBCFF4FFF350F45C0BE3EE
:1055C000010EDB507A0807E3200E146E010E7DDA1F
:1055D000010EE7CFDBFF010EDB50D880DF5414E370
:1055E000010EDB50DF5C16E3FD0EDB2AFE0E01E34D
:1055F000DB2AFB0EDB2AFC0EC1E3DB2ABFD7010E40
:10560000DB50D880DF5402E2010E07D0010EDB50E0
:10561000DF5C02E2FF0E01D0000E146E020EE15CB0
:1056200002E2E16AE552E16E145012D20CDA030E86
:10563000E126FD0EDBCFDEFFDBCFDDFF010EDB5011
:10564000E76E020EE7CFDBFF010EDFCFDBFF020EBE
:10565000DB50DF6EDECF14F0DDCF15F09EDA030EE7
:10566000E15C02E2E16AE552E16EF2D1ECD9CEDA18
:10567000E7CFDBFFFE0EDBCFE7FFFB0EDB50E71AC9
:10568000FE0EE7CFDBFFC2DA2DDAFD0EDBCFE7FF40
:10569000FC0EDB50E71AFD0E25DA1CDA14C006F00A
:1056A00015C007F016C008F017C009F0D1D1CBD94A
:1056B000080EE126B3DAD8901532143214C0DEFF9A
:1056C00015C0DDFFFD0EDBCF08F0FE0EDBCF09F0CD
:1056D000020E08C0DBFF030E09C0DBFF040EDB6A0D
:1056E000050EDB6A060EDB6A070EDB6ADFCF14F0FD
:1056F000DF06010EDBCF15F001E2DB0614501510BA
:1057000015E0D950020F91DAEECFF3FFEDCFF4FFA1
:10571000020EEE26000EEF22F3CFE9FFF4CFEAFFF0
:10572000EECF14F0EFCF15F0C7D9E0D7FB0EDB506A
:10573000010B0AE0020EDBCFE9FF030EDBCFEAFF2D
:10574000EFCF14F0156AB8D9040EDBCF14F0050EB4
:10575000DBCF15F0166A176A060EDBCF18F0070EBE
:10576000DBCF19F01A6A1B6A18501426195015223B
:105770001A5016221B501722EDD9060E16C0DBFF59
:10578000070E17C0DBFFEDD925DAED22040EDB1C76
:10579000146E050EDB1C156E14C0F3FFF46E080EBC
:1057A000E15C02E2E16AE552E16E52D1D9CFE6FF57
:1057B000E1CFD9FF020EE126FB0EDBCF1EF2FC0E7D
:1057C000DBCF1FF2FD0EDBCF20F2FE0EDBCF21F28E
:1057D000FA0EDB50DF6E080EDF5C0FE3010E21C214
:1057E000DBFF20C221F21FC220F21EC21FF2010EF7
:1057F000DBCF1EF2080EDF5EEED7DF500AE00201BB
:10580000D89021BFD8801E371F3720372137DF06B9
:10581000F4D71EC206F01FC207F020C208F021C252
:1058200009F000D0020EE15C02E2E16AE552E16EAD
:10583000E552E7CFD9FF120006D9E6520F0E22D962
:10584000EF6AFD0EDBCFE6FFFE0EDBCFE6FFCDEC11
:105850003FF0E552E552DF6A0F0EDF5C0FE2DF50EA
:1058600011D9EF5009E10F0EDF5C08E2DF50DF2AAB
:1058700009D9200EEF6EF7D7DF2AEED7E552E8D030
:10588000E2D8E652FB0EDBCF14F0DB06FC0EDBCFDA
:1058900015F001E2DB061450151016E040D901E3C3
:1058A000DB2AEFCFDFFFDF500FE0FA0EDB50DF5CCB
:1058B000E9E1FD0EDB06DBCF14F0FE0E01E2DB06B4
:1058C000DBCF15F06AD902D0F36AF46AE552C0D092
:1058D000BAD8080EE12677D9EF6A51D9FD0EDB5010
:1058E0001624146EFE0EDB501720156E1406000EE3
:1058F000155A30D93DD9EF6A060EDB6A070EDB6A0E
:10590000D950F90F146EFF0EDA20156E14C0DEFFA9
:10591000DD6EF90EDBCF14F0DB06FA0EDBCF15F0EF
:1059200001E2DB06145015105BE022D9EF500DE0C8
:10593000FB0EDBCF08F0FC0EDBCF09F0060E08C033
:10594000DBFF070E09C0DBFF4BD0DECF14F0DDCF4D
:1059500015F0020E145E000E155A14C0DEFF15C0BD
:10596000DDFFDECFE9FFDDCFEAFF020EEECFDBFF8A
:10597000030EEDCFDBFF03D9060EDB50165C146E71
:10598000070EDB501758156E14C0E6FFE66EFED802
:10599000060EDBCF1AF0070EDBCF1BF0FD0EDB503F
:1059A0001A24186EFE0EDB501B20196E18C0E6FF7D
:1059B000E66E9FEC3FF01C6E060EE15E1C50E6D8D2
:1059C0006CEC3FF0E552E552F3CF14F0F4CF15F054
:1059D000D950060F2AD9F350EE261550ED2299D74B
:1059E000C0D8DBD8080EE15C02E2E16AE552E16E64
:1059F0002FD0D9CFE9FFDACFEAFFD880050EEE54D9
:105A0000050EEE54020EEE54000EEE541200010E7E
:105A1000DB500A0DF3CF16F0020EDB50640DF3508D
:105A20001624DF24E66EC8D8060EDBCFF3FFDB2A90
:105A3000F350E924E96E000EEA20EA6EE552E750E1
:105A4000EF6E050E1200D9CFE6FFE1CFD9FF1200AD
:105A5000E552E7CFD9FF1200010EDB500A0DF3CF5C
:105A600014F0020EDB50640DF3501424DF24E66EB4
:105A7000A3D8030EE926000EEA22E552E750EF6EA6
:105A8000010E1200E76E9FD8E750E926000EEA22C9
:105A90001200050EDB2AD9CFE9FFDACFEAFFEF507B
