:020000040000FA
:06000000FAEF22F01200ED
:020006001200E6
:060008008FEF0EF0120064
:02000E000000F0
:0100100000EF
:0100110000EE
:0400120000000000EA
:020016000000E8
:0600180006EF0FF01200DC
:02001E000300DD
:100020001600000093020000020000001200000011
:10003000FC01000004000000110000009602000016
:0400400001000000BB
:0C004400C4EC07F0030EE126DF6A040E96
:10005000DF5C20E2AEEC09F0EF6A31EC09F0EF90E2
:1000600031EC09F0EF8231EC09F0EF8431EC09F06A
:10007000EF9831EC09F0EF9631EC09F0EF9AB6EC1D
:1000800007F058EC09F0EF68B6EC07F0A4EC09F0C3
:10009000DF2ADDD70201876B040E886F896B8A6BBC
:1000A0008B6B8C6B030EE15C02E2E16AE552E16E60
:1000B000C9EF07F0C4EC07F0030EE126DF6A040E77
:1000C000DF5C32E2AEEC09F0EF502CE1B6EC07F069
:1000D000010EEF6EDBCFE9FF020EDBCFEAFF0B0E66
:1000E0008FEC07F0FD0EDBCFEEFFFE0EDBCFEDFF5A
:1000F000B6EC07F00D0EEB6A0E0EEB6AB6EC07F0ED
:100100008DEC09F031EC09F0EF8031EC09F0EF965D
:10011000B6EC07F058EC09F0EF6831EC09F0EF822B
:10012000DF5003D0DF2ACBD7FE0E246E030EE15C36
:1001300002E2E16AE552E16E2450C9EF07F0C4EC37
:1001400007F0DEEC07F0EF50040802E0000E01D0EB
:10015000010EC9EF07F0DDEC09F09AEC07F0EF5063
:10016000040809E0DECFE6FFDDCFE6FF21EC06F074
:10017000E552E55214D0FE0EDBCFE6FFCBD8E552B8
:10018000CFEC08F0110EE3EC09F035EC0AF0EE2AA2
:10019000EE22EE22EE229AEC07F0050EEF6E020E32
:1001A000E15C02E2E16AE552E16EC9EF07F0DDECE5
:1001B00009F001EC0AF0EF50FF0804E010EC0AF03F
:1001C000020B02E1000E24D09AEC07F0100E2BEC8B
:1001D00009F001EC0AF0EF50E66E100EE3EC09F0C6
:1001E000100EA8EC09F0266A276A9AEC07F035ECA5
:1001F0000AF0AEEC08F029EC09F0EF9229EC09F0D6
:10020000EF9801EC0AF0C9EC08F03FEC0AF0010E9F
:10021000246E020EE15C02E2E16AE552E16E2450D6
:10022000C9EF07F0C4EC07F0DEEC07F058EC09F07A
:10023000EF50FF0803E174EC10F005D0B9EC09F0C1
:10024000020B01E0010EC9EF07F0C4EC07F0040E49
:10025000E126FE0EDB50A6EC07F0020E24C0DBFF09
:10026000030E25C0DBFF04EC0AF0FF081CE1D7EC0D
:1002700007F058EC09F0EF6A04EC0AF0E66E7DEC4A
:1002800010F0E552D7EC07F0100EEB6A110EEB6A96
:10029000280EE66EE66A04EC0AF0E66EFFEC11F05A
:1002A000E552E552E552D7EC07F0100E8FEC07F05F
:1002B000EECFDEFFEDCFDDFFB7EC08F002E3000E7E
:1002C0001FD0D7EC07F0250E8FEC07F0EF88FD0E5E
:1002D00069EC08F0DF2A010E01E3DB2AD7EC07F016
:1002E000100E8FEC07F0DECFEEFFDDCFEDFFB7ECA9
:1002F00008F005E3FE0EDBCFE6FF59DFE552010E05
:10030000246E040EE15C02E2E16AE552E16E2450E3
:10031000C9EF07F03BEC0AF002E1000E06D083ECD7
:1003200010F029EC09F0EF96010E246E020EE15C4C
:1003300002E2E16AE552E16E2450C9EF07F03BECBE
:100340000AF014E010EC0AF0040B02E013EC0AF0DF
:1003500029EC09F0EF88FA0EDBCFE6FFFB0EDBCFCE
:10036000E6FF8FEC08F0DEEC08F002D0F36AF46AE6
:10037000020EE15C02E2E16AE552E16EC9EF07F0CC
:100380003BEC0AF029E010EC0AF0040B02E013EC5D
:100390000AF09AEC07F0120E8FEC07F0EE50ED1019
:1003A00006E183EC10F029EC09F0EF9616D09AECF8
:1003B00007F0120E8FEC07F0EE06EF5A94EC12F0F5
:1003C000E66EFC0EDBCFE9FFFD0EDBCFEAFFE55268
:1003D000E750EF6E010E01D0000E246E020EE15CBC
:1003E00002E2E16AE552E16E2450C9EF07F0C4EC85
:1003F00007F0B9EC09F0080B01E0010EC9EF07F0B6
:10040000C4EC07F0100EE1260F0EDB6ADF6A040E63
:10041000DF5C01E312D1DF50A6EC07F0090E24C027
:10042000DBFF0A0E25C0DBFF91EC09F0080B01E0B1
:1004300002D191EC09F0100B01E0FDD09FEC07F028
:10044000EF5001E1F8D09FEC07F0EF0405E191ECEB
:1004500009F0010B01E0EFD0B3EC22F0050E36C03D
:10046000DBFF060E37C0DBFF070E38C0DBFF080ED0
:1004700039C0DBFF050EDBCF28F0060EDBCF29F0FD
:10048000070EDBCF2AF0080EDBCF2BF09FEC07F036
:100490001D0E8FEC07F0EE50285C246EEE502958AC
:1004A000256EEE502A58266EEE502B58276E7AECA9
:1004B00008F0030E26C0DBFF040E27C0DBFF010E91
:1004C000DBCF24F0020EDBCF25F0030EDBCF26F0CE
:1004D000040EDBCF27F09FEC07F0210E8FEC07F026
:1004E0002450EE5C2550EE582650EE582750EE581A
:1004F00001E3A1D074EC10F0000901E19ED0B3EC4F
:1005000022F0F2EC07F09FEC07F01D0E1DEC0AF054
:100510009FEC07F0210E8FEC07F0D890EF36010E1C
:10052000EB36020EEB36030EEB3685EC09F0EF2AC4
:100530009FEC07F0EF50060A28E0010A26E0020AC5
:100540001DE00F0A1BE00E0A0FE0060A04E0010A94
:100550002DE1020E27D085EC09F0EFCF24F0030E39
:10056000245C18E2120E1ED0110EF36E0F0EF3CFA4
:10057000DBFF9FEC07F0050EEF6E18D085EC09F05D
:10058000EF50030807E3010E0DD085EC09F0EF50A2
:10059000030807E2090EDBCFE6FF0A0EBCEC09F008
:1005A00005D0100EF36E0F0EF3CFDBFF0F0EDB50F6
:1005B000000841E20F0EDB50100813E09FEC07F03B
:1005C00035EC0AF035EC08F00B0E24C0DBFF0C0E06
:1005D00025C0DBFF0D0E26C0DBFF0E0E27C0DBFFA4
:1005E0000CD09FEC07F035EC0AF00B0EEECFDBFFE2
:1005F00096EC08F00E0EEECFDBFFCFEC08F00F0EFE
:10060000DBCFE6FF9FEC07F0180E20EC0AF0D95084
:100610000B0FABEC09F09FEC07F00D0E2BEC09F083
:100620009FEC07F00B0E2BEC09F09FEC07F0CDECE4
:1006300007F088EC08F0DF2AEAD6100EE15C02E24F
:10064000E16AE552E16EC9EF07F0C4EC07F0240E51
:10065000E126140EE66EE66AD4EC08F0DEEC08F053
:10066000D4EC08F0CCDAE552E55293EC07F038EC24
:100670000AF0140EEECFDBFF150EEECFDBFF160EE9
:10068000EECFDBFF170EEECFDBFF22EC08F0180EEB
:10069000CFEC09F0010E8FEC07F0190ECFEC09F04A
:1006A000020E8FEC07F01A0ECFEC09F0030E8FEC60
:1006B00007F01B0EEFCFDBFF1C0EDB6A060EF36E9E
:1006C0001D0EF3CFDBFF9DEC08F01E0E38C0DBFFE4
:1006D0001F0E39C0DBFF1E0EDBCFE6FF1F0EE9EC5D
:1006E00008F01E0EF3CFDBFF1F0EF0EC08F0140F26
:1006F0006FEC09F0210E24C0DBFF220E25C0DBFFCA
:10070000100E1BEC08F0210E69EC08F0110E1BEC2A
:1007100008F0220E69EC08F0000E1BEC08F0E2EC89
:1007200008F055EC12F0E552E552210EF3CFDBFF55
:10073000220EF4CFDBFF210EDBCF24F0220EDBCF25
:1007400025F0100EDB50241803E1110EDB502518A4
:1007500004E083EC10F0010E95D0D9500C0F59EC49
:1007600008F0C0EC08F0246E256A140E245E000E1A
:10077000255A230E24C0DBFFDB50266E276A9DEC32
:1007800008F02650385C246E27503958256E140E18
:10079000245E000E255AF90E24C0DBFFFA0E25C098
:1007A000DBFFD9500C0FE96EC0EC08F01BEC08F031
:1007B00029EC08F0D4EC08F093D9E552E552E55263
:1007C000E552E76E200EE7CFDBFFFE0EF36E200E44
:1007D000DBCFF4FFF350F45C0DE2E2EC08F0D4EC74
:1007E00008F029EC08F0200EDBCFE6FF58DA246E83
:1007F000070E45D083EC10F0200EDB50FF0841E1DE
:10080000F90EDBCF24F0FA0EDBCF25F0266A276A3B
:10081000D950080F59EC08F0AEEC08F0D9500D0F84
:1008200059EC08F0EF50020B07E1D9500D0F59ECCD
:1008300008F0EF50010B09E0D950080F59EC08F00F
:10084000EE2A000EEE22EE22EE22CFEC08F0040E8D
:10085000E66ED950040FABEC09F0D950080FABECA1
:1008600009F0DECFE6FFDDCFE6FF020EDBCFE6FFCD
:10087000030EDBCFE6FFEDDB0ED8246E120EE15E39
:100880002450010E246E240EE15C02E2E16AE5527E
:10089000E16E24507ED378DB260EE12674EC10F056
:1008A0000009FCE0FB0EDBCF38F0FC0EDBCF39F0AB
:1008B000020E38C0DBFF030E39C0DBFF9DEC08F0F1
:1008C000040E38C0DBFF050E39C0DBFFD950F50F31
:1008D000EBDBC2EC09F0F7EC08F0D950F10FE4DBE8
:1008E000FEEC08F096EC08F00F0EDB9CDB9E0E0E83
:1008F000DB90DB92DB94DB96F00EDB50E76E0F0EA5
:10090000E7CFDBFFB1EC10F0100EF3CFDBFF110EE1
:10091000F4CFDBFF100EDBCF24F0110EDBCF25F080
:10092000000E245C040E255808E3100EDB6A040E4A
:10093000F36E110EF3CFDBFF13D0D950100FB9DBDC
:10094000360E1FEC09F008E2D950100FB2DB360E5C
:10095000EE5E000EED5A04D0100EDB6A110EDB6A5B
:10096000120EDB6A130EDB6A140EDB6A150EDB6AED
:10097000D950020F23EC0AF042D9E552E552D95082
:10098000ED0F92DB140EEE26000EED22F00EDBA230
:100990001CD0D950ED0F88DB040EEE26000EED22A0
:1009A000020EF36E160EF3CFDBFF040EF36E170E7E
:1009B000F3CFDBFF040EF36E180EF3CFDBFF190E3F
:1009C000DB6A0E0EDB98DB8A03D00E0EDB88DB9A27
:1009D000DB8CDB9E1A0E5EC2DBFF1B0E5FC2DBFFF1
:1009E0001C0E60C2DBFF1D0E61C2DBFF9CDA38EC1F
:1009F0000AF01E0EEECFDBFF1F0EEECFDBFF200E48
:100A0000EECFDBFF210EEECFDBFF220EDB6A060E00
:100A1000F36E230EF3CFDBFFED0EDBCF38F0EE0EDF
:100A2000DBCF39F0240E38C0DBFF250E39C0DBFFE9
:100A3000240EDBCFE6FF250ECCDB240EF3CFDBFF4D
:100A4000250ECEDB1A0F6FEC09F0120E24C0DBFF6F
:100A5000130E25C0DBFF120EDBCFDEFFDBCFDDFF89
:100A6000EF0EDB50FF0802E1EF0EDB6A140EB2DA84
:100A7000CCDB060EE66EEDDAF5EC1AF0246E050E10
:100A8000E15E2450140EE66EE66AD950020F27DBB1
:100A9000F00EDBA206D0040EE66EE66AD950160F01
:100AA0001EDB140E97DAB1DB55EC12F0E552E5527D
:100AB000F3CFDEFFF4CFDDFF240E8CDA010E09DB6D
:100AC000DFCFE6FFD3EC12F0E552000E83DADAEC6A
:100AD00011F0260EE15C02E2E16AE552E16E59D2C4
:100AE00053DA040EE126FE0EF36E030EF3CFDBFFA6
:100AF000020EDB6A040EF36E020EDBCFF4FFF3503E
:100B0000F45C46E2020EC1DB15DAEF503EE012DA89
:100B10000B0EA8EC09F007DA020E01DA7DDB35E1F5
:100B20002750251832E106DAEF0406E1020EDB5009
:100B3000E76E030EE7CFDBFFFDD90D0EA8EC09F041
:100B4000F2D96ADB22E1275025181FE17BDA38EC65
:100B50000AF0EECF28F0EECF29F0EECF2AF0EFCF5B
:100B60002BF0E8D9EE5238EC0AF0EE5000012818CC
:100B70000CE1EE50291809E1EE502A1806E1EE507A
:100B80002B1803E102E1020E28D0020EDB2AB2D7B5
:100B9000030E7BDB030EDB50FE0821E0CBD9EF0414
:100BA0001EE10A0EE66EE66AFB0EDBCFE6FFFC0EE8
:100BB000DBCFE6FFBFD9F1D936DBB5D9020EC8DBF2
:100BC000B9D90B0EF0DBAFD96ADAB4D90D0EEBDB75
:100BD00040DBEF963FEC0AF0030EDB5007D0030E2C
:100BE000DB50FE0802E1FF0E01D0FE0E246E040E63
:100BF000E15C02E2E16AE552E16E2450CAD1C4D957
:100C000092D90BEC0AF057DB9FDA8DD9020E08EC73
:100C10000AF0020E89DB040E55DB040EBADB080E67
:100C200051DB080EB6DB0E0EF3DB0E0E7DDB100E75
:100C3000EFDB100E79DB120EEBDB120E70D984DACB
:100C4000A8D1A2D928EC0AF0EF50FF0808E028EC60
:100C50000AF09FDA28EC0AF0EF6832DBEF8263D902
:100C60005CDB61D90D0EEB6A0E0EEB6A29DBEF50EF
:100C7000080B02E083EC10F023DBEF9621DBEF9A08
:100C800052D962DB1DDBEF981BDBEF50010B04E058
:100C90004AD9010EEF6E02D046D9EF6A7AD174D9E3
:100CA000130EE126120EDB6AFE0EDB504FD9100E3A
:100CB00024C0DBFF110E25C0DBFF6EDB200B0CE137
:100CC00028DBEECF24F0EECF25F0EECF26F0EFCFED
:100CD00027F0AEDB85DBEF8AD4DA89DA8FDAD9DA6E
:100CE00025DA0E0EEECFDBFF0F0EEECFDBFF11DBB2
:100CF000E4D9F80EDBCF24F0F90EDBCF25F0266A1D
:100D0000276A2450DE262550DE222650DE22275078
:100D1000DD22DD52DD52BDDA86D9BEDA15DBF8D828
:100D2000EF0439E183EC10F00201892B000E8A23D5
:100D30008B238C23AEDA89C2EEFF8AC2EEFF8BC210
:100D4000EEFF8CC2EEFF35DAD3DA72DBA2DA6BD9B2
:100D5000A0DAEE2AEE22EE22EE2280DA020B12E078
:100D60000A0EE66EE66ADBD9D3D817D95CDA05D964
:100D700096D9CED80D0E17DB120EF36EDB6EC8D8E7
:100D8000020E97D0040EE5D914DA4DD9C2DA95D9FE
:100D9000BFD8C3DA9ED062DA040B04E083EC10F013
:100DA000A3D9AFD0080EDBCF24F0090EDBCF25F09E
:100DB0000A0EDBCF26F00B0EDBCF27F0AADAEE50BF
:100DC000241801E080D0EE50251801E07CD0EE50D0
:100DD000261801E078D0EE50271875E174E1EADAC0
:100DE00002080BE13BDA100B4BE0FEDA55DA040E99
:100DF000EF6EB9DA45E237DA6CD0F6DADBDA0408FE
:100E000042E12CDA100B0AE026DBEF50FF0806E087
:100E100022DBBFD920DBEF68E3DAEF821FDA010BB8
:100E200015E0110E96D935DA20D9040E24C0DBFF67
:100E3000050E25C0DBFF060E26C0DBFF070E27C010
:100E4000DBFF1FDAE3D864D80A0EEF6E8CDA18E203
:100E5000A3DA080B04E107DA100E7BD93AD0120EA0
:100E6000DB6A17DA0C0EDBCFEEFF0D0EDBCFEEFFE9
:100E70000E0EDBCFEEFF0F0EDBCFEEFF02DA02D954
:100E800083EC10F026D096DA0A0804E1E7DA100BBA
:100E900020E017D08FDA05080EE1E0DA010B19E047
:100EA000100E57D9EED9B2D8D9D9100B0AE130D8E3
:100EB000060EEF6E0ED07EDA06080BE1CFDA100BCD
:100EC00008E012D906D083EC10F0100E42D971D987
:100ED000D9D8120EDB50000814E261D9120EDBCF14
:100EE000E6FF67D93DD8D950040F35DA46D893DAF2
:100EF00044D8020EB0D913D9CEDC246E120EE15EB6
:100F00002450130EE15C02E2E16AE552E16E41D049
:100F1000100EDBCFE9FF110EDBCFEAFF1200E9264E
:100F2000000EEA221200FD0EDBCFE9FFFE0EDBCF42
:100F3000EAFF1200DECFE9FFDDCFEAFF1200090E63
:100F4000DBCFE9FF0A0EDBCFEAFF1200260DF3CF5D
:100F500024F0F4CF25F0600E2426000E2522120086
:100F6000EECFE6FFEECFE6FF0BEF0AF0010EDBCF90
:100F7000E9FF020EDBCFEAFF1200FA0EDBCFE9FF3A
:100F8000FB0EDBCFEAFF1200D9CFE6FFE1CFD9FF9E
:100F90001200E552E7CFD9FF1200EE52E9CF24F05C
:100FA000EACF25F0E9CFE6FFEACFE6FF1200020E16
:100FB000DBCFE9FF030EDBCFEAFF1200FE0EDB50B2
:100FC000260DF3CFE9FFF4CFEAFF600EE926000E0D
:100FD000EA221200E66EE66AEF0EDBCFE6FFFFECD8
:100FE00011F0E4D136C024F037C025F038C026F027
:100FF00039C027F0120036C0EEFF98EF09F0E55235
:10100000E552F3CF24F0F4CF25F0120071D924C0BB
:10101000DFFF010E25C0DBFF020E26C0DBFF030E43
:1010200027C0DBFF1200040EEECFDBFF050EEECF74
:10103000DBFFC2EF09F0E66EE66A8DEC1BF0E552CD
:10104000E5521200FB0EDBCFE9FFFC0EDBCFEAFF1F
:101050001200FD0EDBCFE6FFFE0EDBCFE6FF120037
:1010600024C0DEFF25C0DDFF1200EFCF24F0EE2A02
:10107000EFCF25F0EE22EFCF26F0EE22EFCF27F0D4
:10108000EF221200080EDBCFEEFF090EDBCFEEFFE2
:101090000A0EDBCFEEFF0B0EDBCFEEFF1200EECF22
:1010A00024F0EFCF25F01200E96EFF0EDA20EA6E91
:1010B0001200E96EDACFEAFF1200EECFDFFF010E79
:1010C000EECFDBFF020EEECFDBFF030EEECFDBFF3A
:1010D0001200DBCFE6FFD3EC12F0E5521200B3D9D9
:1010E000E2EC12F0E55262D1100EDBCFE6FF110EFA
:1010F000BCEF09F0010E24C0DBFF020E25C0DBFFB0
:101100001200700EEE6E170EEE6EEE6AEE6A1200B0
:101110004BEC04F0266E120EE15E26501200FC0E1F
:10112000DBCFE6FFFD0EDBCFE6FF12000C0EEECFAD
:10113000DBFF0D0EEECFDBFF1200F90EDBCF38F038
:10114000FA0EDBCF39F01200F3CFEEFF25C0EDFF32
:101150001200F36E120EF3CFDBFF12002450EE26C6
:101160002550EE222650EE222750EE221200DECF2E
:1011700024F0DDCF25F0CA0E245C030E25581200A2
:10118000EF50F00BE842E842E842E842040DF35029
:101190001200EF50E66E80EC10F0E5521200000EE7
:1011A000E66EE66AE6681200D9CFE6FFDACFE6FF20
:1011B0001200D9CFE9FFDACFEAFF1200A1EC12F05A
:1011C000E552F4D0F90EDBCFE6FFFA0EDBCFE6FFF7
:1011D0001200DBCFE6FF0AEC19F0E552E5521200EF
:1011E000F4CFDBFF0C0EE66EE66AD9501200080E53
:1011F000EECFDBFF090EEECFDBFF12000A0EEECFC3
:10120000DBFF0B0EEECFDBFF1200ED0EDBCFE6FFB8
:10121000EE0EDBCFE6FF1200EECF26F0EFCF27F089
:1012200026502418120006EC21F0266E060EE15E10
:1012300026501200EE6AEE6AEE6AEE6A1200D8805C
:10124000EE54000EED54120024C0EEFF25C0EDFF59
:10125000120070DE07D163DE0BEF0AF08EDE0D0E9A
:1012600013D184DEFFD0BCD8EF8652DE120E57DEDB
:10127000F80EDBCFEEFFF90EDBCFEDFFB1D8EF8438
:10128000120046DE180E8FEF07F0DB505FDE30EF06
:1012900008F03EDE35EF0AF03BDE1C0E40DEEF6A62
:1012A000B3EC22F09FDE34DE1D0EC7D888EF07F0C6
:1012B0000F0E8FEF07F00AEC19F0A1DE93EF07F0A5
:1012C00032DED0D0BDD82DEC19F0E552E552E55212
:1012D000E55288DE93EF07F0B3D89AEF07F0B3D862
:1012E0007EEC19F0E552E5528ADE241E251E12001E
:1012F000EF2AEECF24F0EF22EECF25F0EF22EECF53
:1013000026F0EF22EFCF27F0120019DE1C0E8FEF30
:1013100007F033DE040E8FEF07F0EE52A9D81AEF74
:1013200009F00DDE250EB0D0FADD0EDF93EF07F0E9
:1013300025C0EEFF26C0EEFF27C0EEFF1200FADD4B
:101340002CDEE6DE9AEF07F0210EE9DD81EF08F0F2
:10135000E6DD4FEF08F0ADDEB0EF07F0DF50F6DD71
:10136000C9DEB6EF07F0D950F80F9EDE000E1FEF72
:1013700009F024DE250E88D0DBCFE6FF62DCE552E3
:10138000E5521200060EEECFDBFF070EEECFDBFFBD
:10139000120053D893EF07F023D8EF501200EFCF8D
:1013A000DBFF22EF08F0BBDD24EF09F0E552E55248
:1013B000E5521200ADDDEF501200E6DD020EE1262F
:1013C000FE0E45EF09F0E66EB5DD180E85DF140E52
:1013D00083DF0D0E40DFAEDD0B0E3DDF9FEF09F02A
:1013E00097DD250E8FEF07F04CDFDFCFEEFF010E0C
:1013F000DBCFEEFF020EDBCFEEFF030EDBCFEEFF07
:10140000120098DD58EF09F0D2DD52DFEF501200E4
:1014100022DF5BEF09F0EECFE6FFEFCFE6FF120031
:1014200018DFEF501200140E06DE13DFEF941200E7
:1014300028DF24C0EEFF98EF09F071DDFBEF07F025
:101440006EDDB0EF07F0E66E000EDA20E66E1200F9
:101450006ADD58EF09F05CDD58EF09F083EC10F01D
:101460002EEF09F0250E8FEF07F0140E8FEF07F027
:10147000060E8FEF07F0A1DFD3DF080B1200C1DFEC
:0E148000EF68E7DEEF8212004ADDEF50120047
:02148E00E6D89E
:10149000DF6AC6EC0FF00A6A0B6A010EDAD8096E31
:1014A0007FEC22F07AD8020ED4D8036E046A046E60
:1014B000036A030ECED8246E256AE8500326255011
:1014C00004220350041005E00001031C05E1041C84
:1014D00003E10B0E036E046A040EBBD8076EE850DE
:1014E00003E0FF0E075C02E10350076E98D8A7ECFB
:1014F0000FF0C8EC21F0A7EC0FF08292010EDB6A2E
:101500008FEC0BF000090AE18294140E056E02ECD8
:101510000DF0E76E010EE7CFDBFFF2D70A50E66E63
:10152000B2EC21F0E552000905E00A2A100E0A5C2F
:1015300001E30A6A70EC0CF0A7EC22F0A7EC21F0B2
:10154000000905E0DF5003E1010EDF6ED7D7A7ECFD
:1015500021F00009D3E1DF50D1E0DF6A0B5002E057
:101560000B6ACCD70101520EF16F04C0F3F103C036
:1015700024F004C025F00001256A03C0F4F1010144
:10158000020EF26FF00EE66E010EE66EB5EC0BF099
:10159000E552E552010E0B6EB1D760D8DE6ADD6A06
:1015A000F26AA66AA56AA26A9F6AA36AA386A06A6B
:1015B0009D6AF06AF16AF26AA46AA16A9E6AD08E94
:1015C000420ED56ED66AD76AF28AD58EF1848FEC38
:1015D0000BF0000906E1FAC1E9FFFBC1EAFFEF6A7F
:1015E000F6D7060E0D6ED00E1C6E070E1D6EC80EC1
:1015F0001E6E1F6A100E080E206E216AD08EF28CAD
:10160000F28EE66A77EC21F0E552020EE15C02E22E
:10161000E16AE552E16EE552E7CFD9FF12000E6AAA
:1016200024D8B0090F6E070E0714200DF350106E6A
:101630001CD870090F01416F070E0714200DF3CF5E
:1016400042FF010E456F020E466FF28EF28C3CEFA8
:101650000BF0E66E2EEC0FF0E5521200D9CFE6FF4C
:10166000E1CFD9FF020EE1261200780E0714E84000
:10167000E840E8401F0B1200ADD9020EE126DE6AF9
:10168000DD6A800E6F6E6EAEFED7B00E776E0D0106
:10169000F86B606A070E706E9E0E716E030E726EAE
:1016A000200E736E010ED46FD56BD86B0F01186BC3
:1016B000080E196F1A6B1B6B1C6B1D6F1E6B1F6B5B
:1016C000800E016F0D01E06BE16BE26BE36BE46B8D
:1016D000E56BE66BE76BF06BF16BF26BF36BFA6B40
:1016E000FC6B606A0F01506B0E01206B306B406B1E
:1016F000506B606B706B6F6ADE6ADD6A4ED901E613
:101700006ED907E234D9EF6ADF2A010EF7E3DB2A4C
:10171000F5D7020EE15C02E2E16AE55256D1070E0E
:101720006F14010A07E0010A0BE10101600EFA6F74
:101730000F0E04D00101500EFA6F0F0EFB6F0CD08C
:10174000020E6F5C070B100DF3500101FA6FFB6B7B
:10175000200EFA270E0EFB23FAC1E9FFFBC1EAFFB8
:10176000EF50800B01E0000C010C34D9040EE1268F
:10177000DE6ADD6A020EDB6A030EDB6ADE6ADD6AA0
:101780000CD901E62CD93FE2F2D8EF5037E110D95D
:10179000E66EEDD8EE52E552E750EF6E05D9EF5008
:1017A000E66EE5D8020E2AD9E552E750EF6E020E3A
:1017B000DB6A030EDB6A020EDBCF24F0030EDBCF05
:1017C00025F0D890255004E6070E245C000E25581D
:1017D00011E2DFD8F1D8EF50E66EC9D8030E0ED96A
:1017E000EBD8E552E750EF6E020EDB2A030EE3E37F
:1017F000DB2AE1D7BCD8010EEF6E06D0DF2A010E3E
:10180000BFE3DB2ABDD7000E246E040EE15C02E2CA
:10181000E16AE552E16E2450E552E7CFD9FF1200AC
:10182000D9D8040EE126C0D8EF28136E0F0E0F167C
:10183000B00E0F12BDD8146EACD8EF50156EA9D8EB
:10184000010ED2D8166EA5D8020ECED8176EA1D82A
:10185000030ECAD8186E9DD8040EC6D8196E99D832
:10186000050EC2D81A6E95D8060EBED81B6E0A0E8B
:10187000086E8294140E056EDF6AD950010FE96E6E
:10188000DACFEAFF300EEE6E0F0EED6E030EDB6A5E
:101890000E0EF36E030EDBCFF4FFF350F45C18E290
:1018A000DF50DF2AEA6A0E0FE96E000EEA22EF50DF
:1018B000E66E010EDBCFE9FFDB2A020EDBCFEAFF8B
:1018C00001E3DB2AE552E750EF6E030EDB2AE0D797
:1018D0000F013087040EE15C02E2E16AE55275D047
:1018E00079D8020EE1260F0130B73BD0DE6ADD6AFF
:1018F00054D801E674D80BE23AD8EF50020802E15E
:1019000036D8EF6ADF2A010EF3E3DB2AF1D7DE6A6D
:10191000DD6A43D801E663D824E229D8EF041CE14C
:1019200026D8020EEF6EDECF24F0DDCF25F00A0EB2
:101930002502F3CF25F02402F3CF24F0F45025261E
:10194000000E2426010E252224C0E6FF25C0E6FF56
:1019500067DFE552E55205D0DF2A010EDAE3DB2A24
:10196000D8D7020EE15C02E2E16AE5522ED0DECF6A
:10197000E9FFDDCFEAFF0A0EEA02F3CFEAFFE90250
:10198000F3CFE9FFF450EA26000EE926010EEA2221
:1019900012002DD8030EFEEF0CF0DECF24F0DDCFC9
:1019A00025F0D8902550120022D8020EFEEF0CF040
:1019B0001ED8EE52EF501200020EDB50E924E96E01
:1019C000030EDB50EA20EA6E1200E16EE552E7CF2B
:1019D000D9FF1200D9CFE6FFE1CFD9FF1200180ED0
:1019E000245C000E2558120009D8EF501200FD0E9D
:1019F000DBCFE9FFFE0EDBCFEAFF1200E926000E87
:101A0000EA221200D9CFE6FFE1CFD9FF050EE12689
:101A1000DF6A56D9060EEB50960A01E1CCD0E70AF0
:101A200001E19CD0790A01E1E9D0180A5EE0520A8E
:101A30002BE0310A1CE07E0A01E0E0D00101B60E85
:101A400044D902E05DD9FEE148D9940EF66E450E08
:101A5000F76E0800F5CFF5F1960EF66E450EF76EAF
:101A60000800F5CFF6F109C0F7F1050EA0D04DD969
:101A7000010EF31801E0C2D0255001E0BFD04BD9D0
:101A8000E66EE66ACED8B8D00B5001E1B7D018D9CF
:101A9000070EEB50E76E010EE7CFDBFF080EEB50B1
:101AA000E76E020EE7CFDBFF010EDB50256A256EE5
:101AB000246A020EDB5000012424036E000E252050
:101AC000046E010EDBCFE6FF020EE66E37EC0FF080
:101AD000E552E552020EDBCFE6FF030EE66E37EC71
:101AE0000FF0E552E5520B6A89D00B5001E186D028
:101AF0000101EF0EF16F940EF66E450EF76E0800C1
:101B0000F5CFF3F1950EF66E450EF76E0800F5CFA2
:101B1000F4F1960EF66E450EF76E0800F5CFF5F16E
:101B2000970EF66E450EF76E0800F5CFF6F1980E9B
:101B3000F66E450EF76E0800F5CFF7F1990EF66ECA
:101B4000450EF76E0800F5CFF8F19A0EF66E450EC9
:101B5000F76E0800F5CFF9F1070E29D099D8F350A8
:101B6000F4104CE0D8D8E76E030EE7CFDBFFDB04C0
:101B70000DE10101970EA9D802E0C2D8FEE1ADD86F
:101B8000030EDBCFF5F109C0F6F110D0030EDB50E8
:101B9000020834E10101970E98D802E0B1D8FEE1C5
:101BA0009CD8030EDBCFF5F107C0F6F1040E9ED8EA
:101BB000010EDF6E23D0A9D8F350F4101FE0ABD88C
:101BC000E76E040EE7CFDBFFDB0408E179D80A0EED
:101BD000EB50096EE850E66E010E0BD0040EDB50A0
:101BE00002080CE16DD80A0EEB50076EE850E66E65
:101BF000040EE66E37EC0FF0E552E55261D8EF6A5D
:101C0000025002E0026AA380DF50246E050EE15C00
:101C100002E2E16AE552E16E2450E552E7CFD9FFD6
:101C20001200D9CFE6FFE1CFD9FFFD0EDBCF24F0C4
:101C3000FE0EDBCF25F0080E245C000E255824E2B2
:101C400001019B0E42D802E05BD8FEE12450010165
:101C5000F36F03C024F004C025F0256A0350F46F2D
:101C6000FD0EDBCFF5F1DBCFF6FFFE0EDBCFF7FF8E
:101C7000F606000EF75A940EF626450EF7220800D7
:101C8000F5CFF6F1040E32D8E552E7CFD9FF1200B6
:101C900017D8070EEB50276E266A080EEB50262445
:101CA000246E000E2720256E0350241806E10450F0
:101CB000251803E1010EF36E01D0F36AF46A1200F5
:101CC000FAC1E9FFFBC1EAFF1200F16F03C024F083
:101CD00004C025F0080E0F0B120024500101F36F11
:101CE00003C024F0256A0350F46F1200F26FF00E67
:101CF000E66E010EE66EB5EC0BF0E552E552120011
:101D0000D89025322432E8061200C2DFF3CF24F047
:101D1000F4CF25F01200D4DF090EEB501200DACF19
:101D2000E4FFE2CFDAFFE9CFE4FFEACFE4FFF6CF4A
:101D3000E4FFF7CFE4FFF5CFE4FFF3CFE4FFF4CF08
:101D4000E4FFFACFE4FF00EE32F00B0EE80403E309
:101D5000EECFE4FFFBD700EE24F00E0EE80403E321
:101D6000EECFE4FFFBD7E652F2940D50D66E060696
:101D700004E1040E066EBCEC22F02006000E215A8F
:101D80002050211005E10C0E206E216A95EC21F007
:101D90001E06000E1F5A1E501F1008E1C80E1E6EB0
:101DA0001F6A9DEC21F0005001E000061C06000EA9
:101DB0001D5A1C501D1006E1D00E1C6E070E1D6E24
:101DC000CFEC21F0E55200EE31F00E0EE80403E313
:101DD000E5CFEDFFFBD700EE3CF00B0EE80403E38C
:101DE000E5CFEDFFFBD7E5CFFAFFE5CFF4FFE5CF79
:101DF000F3FFE5CFF5FFE5CFF7FFE5CFF6FFE5CF42
:101E0000EAFFE5CFE9FFE5CFDAFF1100D8CFE4FF25
:101E1000E0CFE4FFE46EDACFE4FFE652A4AA14D0E8
:101E20000F0130AB0CD0085004E1010E016E309769
:101E300006D0080604E130973F0E0F16308730A910
:101E400003D0010E016E3097A46AE552E5CFDAFFA8
:101E5000E550E5CFE0FFE5CFD8FF1000A2D8FE0E99
:101E6000DB50A96EA69EA69CA680A8509FD099D8AC
:101E7000F29EA69EA69CA684FE0EDB50A96EFD0EC9
:101E8000DB50A86E550EA76EAA0EA76EA682A1A85B
:101E9000FED7A198F28E8AD084D8030EE126FE0EDA
:101EA000DB50DF6EDF50DF2AE66ED8DFE552E66EEC
:101EB000D950010FE96EDACFEAFFE552E750EE6E36
:101EC000ED6ADFCFE6FFCADFE552266E276E266A8F
:101ED000010EDB502610246E020EDB502710256EFB
:101EE000010E24C0DBFF020E25C0DBFF010EDBCF9D
:101EF00024F0020EDBCF25F024C0F3FF25C0F4FF51
:101F0000030EE15C02E2E16AE552E16E4FD049D88E
:101F1000E652FE0EDB50DF6EFC0EDBCFE6FFDF503D
:101F2000DF2AE66EA4DFE552E552FC0EDBCF24F09B
:101F3000FD0EDBCF25F025C024F0256A2450E66E87
:101F4000DFCFE6FF94DFE552E552E5522FD029D8E6
:101F5000020EE126DF6A0A0EDF5C11E2010EDB6A87
:101F6000DB50246E256A253404E22450F508000E67
:101F7000255403E3010EDB2AF3D7DF2AECD7020E48
:101F8000E15C02E2E16AE552E16E10D00AD8E65265
:101F9000DF6A640EDF5C03E2DADFDF2AFAD7E5529C
:101FA00005D0D9CFE6FFE1CFD9FF1200E552E7CF48
:041FB000D9FF120043
:0C1FB400FBEC13F0E6528A9A939A5AEC68
:101FC00014F08A8A5AEC14F08A8693969496948830
:101FD000949A200EC66E9E96C78CC79E1D0E27EC47
:101FE00015F0080EDF14FAE1DF1C010BF7E10ADB44
:101FF0005AEC14F002018D6B010E926F8E6B8F6B99
:10200000E66A080EEFEC13F0E66A090EEFEC13F047
:10201000F70EE66E0C0EF6EC14F00D0EEFEC13F06E
:10202000F70EE66E0A0EF6EC14F00B0ED8DBF80E87
:10203000E66E040EF6EC14F0050ED1DBE66A020E35
:1020400020EC15F00D0EE66E3DEC14F0320EE66E4F
:102050002AEC15F0120EE66E060EC1DB0C0EE66ED3
:10206000070EBDDBEE0EE66E0A0EB9DB050EE66E60
:102070000B0EB5DB040EC4EC14F062C2E6FF040ED6
:10208000AEDB63C2E6FF050EAADB64C2E6FF2AEC04
:1020900015F065C2E6FF030EA2DB66C2E6FF3DEC6B
:1020A00014F067C2E6FF010E9ADBE66A010EE66EE7
:1020B000100EE66E60EC14F0720EE66E040EE66E24
:1020C000140EE66E60EC14F0E66A1BDBE552040EBB
:1020D000A6DBE5528CD3010EE66EB7DAE552F3507B
:1020E000040B01E0010E12001F0E00EC15F0E85089
:1020F000080B080A01E0010E1200D9CFE6FF77D3E2
:10210000D9CFE6FF74D30EEC15F00201925122E113
:10211000010E926F8EC224F08FC225F02406000EAD
:10212000255A24C0DEFF25C0DDFF23EC15F0CDDBF2
:1021300002E393DB04E2F70EDE6E1B0EDD6E400E53
:10214000CCDBE6EC14F0DFCFE6FF0C0E2DEC15F047
:102150000D0E45DB020EE15C02E2E16AE552E16E42
:1021600046D349DB040EE126DBEC14F0190E27EC14
:1021700015F0E6EC14F00E0E37DB020E24C0DBFF88
:102180000F0E32DB030E24C0DBFFDBEC14F0190E64
:102190002BDBDF500001245CE9E1E6EC14F00C0ECF
:1021A00027EC15F00D0E1DEC15F09FDBDECF26F0B1
:1021B000DDCF27F02450265C2550275821E2F70E6A
:1021C000286E1B0E296E2A6A2B6A020EDBCF30F0B6
:1021D000030EDBCF31F0DE50305C2C6EDD50315819
:1021E0002D6E2E6A2F6A2C50285C246E2D50295893
:1021F000256E2E502A58266E2F502B58276E1CD035
:1022000074DBDF50241809E1DE52DD50251805E1AA
:10221000F70EF36E1B0EF46E11D0DECF26F0DDCF7D
:1022200027F0020EDB50265C246E030EDB5027588D
:10223000256E2406000E255A04EC15F0040EE15C10
:1022400002E2E16AE552E16ED2D2D5DA140EE1265D
:10225000B2DB190EB8DBE85002E1000E5CD00201DF
:10226000925101E150DF8EC290F28FC291F2B1DB48
:102270008EC2E6FF02DB8FC2E6FF010EB0DA140E5B
:10228000E66EE66AD9CFE6FFDACFE6FF5AD9E55225
:10229000E552E552E552120EDBCFE6FF130EDBCF1F
:1022A000E6FF0AEC19F0E552E552120EF3CFDBFF20
:1022B000130EF4CFDBFFDECF8EF2DDCF8FF2060EF2
:1022C000E66EE66AD9500C0FE66E000EDA20E66E76
:1022D000E2DAE9CF24F0EACF25F0E9CFE6FFEACF52
:1022E000E6FF06EC21F0266E060EE15E265004DBCA
:1022F000EF68130EDB5008080BE1120EDB5004E010
:10230000120EDB50060804E1F7DA120EDBCFEFFF06
:102310000201926B010E246E140EE15C02E2E16A8E
:10232000E552E16E245063D266DA020E82DBF80ECB
:10233000E66E020E5BDB030E52DAD950FA0FB2DA08
:10234000060EEE261C0EED22FA0EDBCFE6FF060E81
:1023500046DAFB0EDBCFE6FF070E41DAE66AA7DAC4
:10236000060EE66EE66AFD0EDBCFE6FFDFDA2AD95F
:10237000E552E552E552E55262C2E6FF98DA63C2E1
:10238000E6FF95DA64C2E6FF92DA65C2E6FF8FDA0D
:1023900066C2E6FF8CDA67C2E6FF89DA080EE66EEF
:1023A00086DAFC0EDB5002E1000E01D0060EE66E6E
:1023B0007EDA1DD21C0E07DB24A208D0020EE66EC8
:1023C0001C0E0ADB800E2BDA800E43DA080E0FEFAC
:1023D00014F0BDDA01E237DAFCDADFCFE6FF4DDADE
:1023E00056DAFDD9DFCFE6FF35DB51DA030EF7D938
:1023F000020EE15C02E2E16AE552E16EF8D1FBD93E
:10240000FE0EDBCF8DF2E150FC0F4CDA070EEE260C
:102410001C0EED22020E0DDBFC0EDBCFE6FF2DDAEB
:10242000FD0EDBCFE6FF010EDAD9FC0EDBCFE6FFB7
:1024300011DBFD0EDBCFE6FF030ED1D9D8D187DA51
:1024400001E201DA98DAE0D901E2FDD977DA1F0E6C
:10245000BADA24BAFCD7A1DA02E2E16AE552E16E07
:10246000C6D1DCDAFD0EDBCF24F0FE0EDBCF25F08B
:10247000266A276A060E24261C0E2522000E262216
:102480002722242A25222622272224C0DEFF25C037
:10249000DDFF71DA53DA1F0E96DA24BAFCD77DDA43
:1024A00002E2E16AE552E16EA2D1B8DAD950FD0F3D
:1024B000F9D9EE50ED1003E1F368F4682ED0D9504D
:1024C000FD0FF0D9010EEE1808E1ED5006E12CD811
:1024D000256E246A241E251E1FD07BDAE66A99D851
:1024E000E552246EDF6E010EA8DA9CDAACDA000E3B
:1024F000ECD907E3B2D905E37DDA86D903E2A3D9A3
:1025000001D078DA1BDA1F0E5EDA24BAFCD7160E79
:102510009EDA170E92DA3CDA77DA020EE15C02E21A
:10252000E16AE552E16E63D18A963A0EC96E9EA6C3
:10253000FED79E96C96A9EA6FED79E968A86C950E9
:1025400012006CDA8A963A0EC96EDE6ADD6AFD0EFA
:10255000DB06FE0E01E2DB069EA6FED79E9618DA8B
:10256000FB0EDBCF26F0FC0EDBCF27F02650245CE1
:102570002750255811E2C96ADF2A010E01E3DB2A40
:10258000FD0EDB2AFE0E01E3DB2A9EA6FED79E96F9
:1025900082D9C9CFEFFFE3D78A8650D902E2E16A38
:1025A000E552E16E24D127D98A967A0EC96E9EA68D
:1025B000FED79E96FE0EDB50C96E9EA6FED79E9657
:1025C0008A8615D118D98A967A0EC96E9EA6FED72C
:1025D0009E96D950FB0F66D9EE50ED1011E05BD9F5
:1025E000EF50C96EFD0EDB2AFE0E01E3DB2AFB0E67
:1025F000DB06FC0E01E2DB069EA6FED79E96E9D71F
:102600008A86F5D08A96C9689EA6FED79E968A8647
:102610001200D6D9C96E9EA6FED79E96C96A9EA6FE
:10262000FED79E968A86C950E2D0CAD9C96E9EA6A8
:10263000FED79E96C96A9EA6FED79E96C96A9EA69A
:10264000FED79E968A86C950D2D0E8D9ACD9010E61
:10265000E66E120EC4D80A0E97D90A0E13D90001DD
:1026600024B0FBD7140EE66E020EEAD9E66A120E0B
:10267000B6D8180E07D9DF6E190E04D932D9DED8B4
:1026800002E2E16AE552E16EB2D09AD94009C96E20
:102690009EA6FED746D99EA6FED79E968A86A7D02E
:1026A0008FD9A009C96E9EA6FED73BD99EA6FED79C
:1026B0009E968A869CD084D98009C96E9EA6FED734
:1026C00030D99EA6FED79E968A8691D094D86BD993
:1026D000FC0EDBCFE6FF160E82D8FD0EDBCFE6FF49
:1026E000170E7DD80A0E50D90A0ECCD8000124B09E
:1026F000FBD77DD080D8030EACD818D91F0E71D966
:1027000076D079D8030EE1260C0EA3D8E66A9DDFB9
:10271000E552DE52F3CFDEFFF4CFDDFFDD52FE0ED9
:10272000DB50020808E1EFD8EF50010BE76EFE0E18
:10273000E7CFDBFF0CD0FE0EDB50246EE4D8245034
:10274000E9D8A5D8020EDBCFE6FFE66AB9D8020EBB
:10275000E66E76D9020EE66E68DFE552DF6EFE0E9B
:10276000DB50246E56D9E850D5D8DFCFE6FF72D9BA
:10277000FE0EDB5002E0150E01D0120EE66E040EC6
:102780002ED8040E4CD8030EE15C02E2E16AE55259
:10279000E16E2DD0040E5DD81D0E15D924B4FCD7E2
:1027A0001F0E11D924B6FCD7200E6DEF14F0200EA9
:1027B000E66E1E0E11D91D0E06D924A0FCD7040EFC
:1027C0000FEF14F018D8150EDFD8B0D8150E07D8B3
:1027D0000ED0150ED9D8150E13D9E8501200E66E9A
:1027E00054DFE552E55212000BD9246E1200E55277
:1027F000E7CFD9FF1200D9CFE6FFE1CFD9FF120012
:1028000079DFE552E55212001ED9D880F70E245424
:102810001B0E2554000E2654000E27541200E66E9F
:102820001F0EF1EF14F0DBCF25F02406000E255A21
:10283000F0D82450EE262550ED221200A9D8E4D875
:10284000020EE15C1200E5D8F80EEE5E1B0EED5AAA
:102850001200E66E1F0EECEF14F0DECF28F0DDCF95
:1028600029F02A6A2B6AD880F70E28541B0E2954A7
:10287000000E2A54000E2B541200E66A06DFE552C1
:10288000E5521200E66ED1DEE552246E1200010E12
:10289000DBCFE6FF1200FD0EDBCFE9FFFE0EDBCF44
:1028A000EAFF1200E96EFF0EDA20EA6E12007BDE0C
:1028B000E55212000A0EE66EDAEC22F0E552120042
:1028C00005DFE552E552E5521200245C000E255862
:1028D000000E2658000E27581200E66E1E0EF1EF6D
:1028E00014F0010E24C0DBFF1200020EDBCF24F037
:1028F000030EDBCF25F01200FB0EDBCFE9FFFC0E51
:10290000DBCFEAFF1200D950010FE96EDACFEAFF00
:10291000EE521200010BF36EFE0EEF14F310EF6E89
:1029200012009E96FD0EDB50C96E1200FE0EDBCF2C
:10293000E6FF12008A96FE0EDB501200DFCFE6FFA4
:10294000120E8BD8130E4BDF300E0FEF14F066D83B
:10295000140E0201276A9025266E91512722FD0E42
:10296000DB502624246EFE0EDB50272024C0DEFF21
:10297000DD6E04EF14F0100E5CD854D8FB0EDBCFE4
:1029800024F0FC0E13EF14F0E66E030E20EF15F0AA
:10299000DECF24F0DDCF25F01200160E4ED8170E34
:1029A00056D81EEF14F0140EE66E020E49D8BEDFA4
:1029B000140EEFEF13F0190EE66E010E20EF15F076
:1029C0001ADF9AEF14F010DF000112000C0E19EF5D
:1029D00015F0000E19EF15F0E66E62DEE552E552D5
:1029E0001200E66E68DEE552E5521200F8DE1B0EBC
:1029F000E66E1200FD0EDBCF24F0FE0E13EF14F096
:102A0000E66E07DEE552120024C0F3FF25C0F4FF96
:102A10001200D9CFE9FFDACFEAFF1200ECDE020E96
:102A2000E1261200DFCFE6FF100E17D8110EEFEFF0
:102A300013F0E66EE66A00EF14F0D6DE71EF14F0E4
:102A4000E66E00EF14F0A4DF266A276A1200CCDEDF
:102A5000DF6E1200020EEFEF13F0C1DE47EF14F04D
:102A6000E0DAE652DF6A020EDF5C07E2DF5069DB84
:102A7000DF5053DBEF90DF2AF6D7E552D7D2D1DA19
:102A8000030EE126D950010FFCDA020EDF5C3DE2B5
:102A9000A8DA0C0E53DB266A276A2450251026106C
:102AA00027102FE19EDA0C0E91DAFD0EDBCFEEFF40
:102AB000FE0EDBCFEDFFD950FB0FE96EFF0EDA20E3
:102AC000EA6EEE50ED1006E00A0EE66EE66ACDDA2A
:102AD00088DABCDA86DA0A0E79DAF90EDBCFEEFF95
:102AE000FA0EDBCFEDFF7DDA0E0EEB6A0F0EEB6A0E
:102AF00078DA100EEB6A110EEB6ADFCF5DF2DF5071
:102B000005D0D950010FC6DAC0D7FF0E246E030ED0
:102B1000E15C02E2E16AE552E16E245087D281DA9B
:102B2000FE0EDB500EDB82D27CDA040EE1260201BF
:102B30005D5180DA24C0DEFF25C0DDFFF2DAEE5001
:102B4000ED1010E17EDA120E41DAEF6A1C0EE66E2D
:102B5000E66A77DA120E3ADAB8DA73DA130EEB6A4B
:102B6000140EEB6AFE0EA5DA6CDA130E2FDAEECF36
:102B700024F0EDCF25F0EE2AEF22D3DAA0DA245CA0
:102B80002750255803E3CDDAEE2AEF22CADA020EE7
:102B9000EECFDBFF030EEDCFDBFF020EDBCF24F029
:102BA000030EDBCF25F0D60E245C030E255801E37F
:102BB0000AD8010E246E040EE15C02E2E16AE552DD
:102BC000E16E245033D22DDA0A0EE12674EC10F0B7
:102BD0000009FCE002015D512DDA080E24C0DBFF84
:102BE000090E25C0DBFFF6D90C0EF0D95CDAF3CF65
:102BF000DEFFF4CFDDFFEED90A0EE8D954DA7DDA34
:102C0000E9D90E0E9BDA080E2426000E252265DA7D
:102C1000DB6A070EDB6A140EE66EE66ADBD9120E7B
:102C2000D5D953DA040EDBCFE6FF050EDBCFE6FF86
:102C3000110EE66ECFD979DAF5EC1AF0266E050E94
:102C4000E15E265084DA040EF3CFDBFF050EF4CFED
:102C5000DBFF4BDAE2EC12F057DADAEC11F0BAD91A
:102C6000120EB4D9EF68B6D90E0EEB6A0F0EEB6AEE
:102C70000A0EE15C02E2E16AE552E16ED7D1D1D9F8
:102C8000FE0EDBCF5DF245DAD880EE54000EED5437
:102C900002E3000E01D0010EC9D1C3D93ADAEE50D9
:102CA000ED1002E1000E1CD05D5137DAEF50010B40
:102CB00005E05D5132DAEF90080ED0D994EC12F0B5
:102CC000E66EA1D9E552E750EF6E23DAEE06EF5A31
:102CD0005D5151DAEE50ED1002E183EC10F0010E7F
:102CE000A5D117DAEE50ED1002E083EC10F011DA06
:102CF000EE6AED6A120095D9170EE126F6D9A1EC1D
:102D000012F002DADECFE6FFDDCFE6FF2FDAF3CFF7
:102D1000DEFFF4CFDDFF020EDBCFE6FF030E6FD93F
:102D2000ECD915DA1ADA080E245E000E255AD5D928
:102D3000DBCFE6FF070E63D9060EF3CFDBFF070EEE
:102D4000F4CFDBFF60D9060E41D9090EEECFDBFFD1
:102D50000A0EEECFDBFF0B0EEECFDBFF0C0EEECF3D
:102D6000DBFF58D90D0EFED9010E30D90E0EFAD95F
:102D7000020E2CD90F0EF6D9030E28D9100EEFCF64
:102D8000DBFF110EDB6AF36E120EF3CFDBFFF90EE1
:102D9000DBCF38F0FA0EDBCF39F0130E38C0DBFF93
:102DA000140E39C0DBFF130EDBCFE6FF140E27D95C
:102DB000130EF3CFDBFF140EF4CFDBFF0C0EE66E29
:102DC000E66AD950090FE66E000EDA20E66E7EEC58
:102DD00019F09AD9C2D9241E251E150E24C0DBFF76
:102DE000160E25C0DBFF060E39D9150E62D9070E67
:102DF00035D9160E5ED9000E31D9F90EDBCFE6FFBC
:102E0000FA0EDBCFE6FF55EC12F0E552E552150E57
:102E1000F3CFDBFF160EF4CFDBFF150EDBCF24F074
:102E2000160EDBCF25F0060EDB50241803E1070E4B
:102E3000DB50251804E083EC10F0010E28D015D9E2
:102E4000FD0EDBCFE6FFFE0EDBCFE6FFD9CFE6FFC0
:102E5000DACFE6FF25D8246E060EE15E2450E76E39
:102E6000080EE7CFDBFFDB50FF0803E183EC10F037
:102E70000DD0080EDB507FD9040EDBCFEEFF050E20
:102E8000DBCFEDFF080EDB5048D9EF80010E246E3A
:102E9000170EE15C02E2E16AE552E16E2450C6D011
:102EA000C0D8040EE126010EDB68D950020FE9D824
:102EB000020EDF5C5AE29CD80C0E40D9A4D8020E58
:102EC00085D8FDD824184DE1275025184AE190D81F
:102ED0000A0E34D998D8F3D8241840E12750251881
:102EE0003DE186D8100E72D8EECF28F0EFCF29F052
:102EF0002A6A2B6A285029102A102B102FE18AD811
:102F0000060E64D8EECF24F0EECF25F0EECF26F0FB
:102F1000EFCF27F06DD8060E59D8EE5000012418D7
:102F200008E1EE50251805E1EE50261802E1EE50BA
:102F3000271812E0F90EDBCFE9FFFA0EDBCFEAFF2C
:102F4000E868EE180BE1E868EE1808E1E868EE18AA
:102F500005E1E868EE1802E1DF5025D0010EDFCF71
:102F6000DBFFD950020F96D8A3D7010EDB50FF0824
:102F700018E0010EDB505ED8020E24C0DBFF030E0A
:102F800025C0DBFF0A0EE66EE66A6FD831D85ED840
:102F90003AD872D82DD80A0E19D824C0EEFF25C011
:102FA000EDFF010EDB50246E040EE15C02E2E16AEB
:102FB000E552E16E24503AD0160DF3CFE9FFF4CF7D
:102FC000EAFF310EE926020EEA221200E926000E7F
:102FD000EA221200080EDBCFE9FF090EDBCFEAFF81
:102FE0001200010EDBCFE9FF020EDBCFEAFF120079
:102FF000020EDBCFE9FF030EDBCFEAFF1200DBCFCF
:10300000E6FFB6EF18F0FD0EDBCFE9FFFE0EDBCFDB
:10301000EAFF1200FB0EDBCFE9FFFC0EDBCFEAFF7D
:103020001200D9CFE6FFE1CFD9FF1200E552E7CF7A
:10303000D9FF1200160D91D8310E2426020E25223A
:103040001200DECFE9FFDDCFEAFF12006ED806ECFA
:1030500021F0266E060EE15E26501200E66EE66A4C
:103060008DEC1BF0E552E5521200FB0EDBCFE6FFC4
:10307000FC0EDBCFE6FF1200EECF24F0EFCF25F001
:103080001200E96EDACFEAFF310EEE6E020EED6E3F
:10309000DF6A1200E96EDACFEAFF160EEE26000EA6
:1030A000EF22DF2A1200EECFE6FFEFCFE6FFB6EF0A
:1030B00018F0DBCFE6FFD3EC12F0E5521200EECFB2
:1030C00026F0EFCF27F026501200EF50E66EFFEC0F
:1030D00011F0E552E552E5521200040E24C0DBFF68
:1030E000050E25C0DBFF060E1200080EE66EE66A2E
:1030F000D9CFE6FFDACFE6FF1200020EF3CFDBFFF7
:10310000030EF4CFDBFF1200E552E552E552E55223
:10311000120002015D51BBEF18F04EDF150EE6EF15
:1031200017F08FDF0E0EE6EF17F0E9CF24F0EACFAD
:1031300025F0E9CFE6FFEACFE6FF120047DF3CEFDC
:1031400018F03ADF0C0E42DFEE6AED6A1200040E50
:10315000DBCFE6FF050EFFEF17F0F3CF24F0F4CF3F
:1031600025F01200EFCFDBFF0AEF18F00AEC19F0A0
:0E317000E552E552120020DF100EE6EF17F0D8
:02317E007DD9F9
:10318000FE0EDB50460802E2200E80D9FD0EDB5019
:10319000460802E2200E84D9FE0EDB50390802E216
:1031A000370E01D0300E72D9FD0EDB50390802E225
:1031B000370E01D0300E74D9DBCFE6FFFE0EDB38C0
:1031C000F00BE552E7105ED158D9FE0EDB380F0B3D
:1031D000F36EFE0EF3CFDBFFDB50090805E2FE0EB7
:1031E000DB50410FF60F03D0FE0EDB50300F4AD1FB
:1031F00044D9FE0EDB98DB9ADB9CDB9EDB50090892
:1032000005E2FE0EDB50410FF60F03D0FE0EDB5041
:10321000300F38D132D9030EE126FD0EDBCFDEFFB1
:10322000DBCFDDFF010EDB50E76E020EE7CFDBFFE9
:10323000010EDFCFDBFF020EDB50DF6EDECF24F0AE
:10324000DDCF25F024C0F3FF25C0F4FF030EE15CC1
:1032500002E2E16AE552E16E15D10FD9070EE126CF
:10326000D950FB0FE96EFF0EDA20EA6E010EEECFA9
:10327000DBFF020EEECFDBFF030EEECFDBFF040E13
:10328000EECFDBFFD950010F246E050E24C0DBFF0B
:10329000060EDACFDBFFDAD8030E16D9EF50E66E52
:1032A000D5D8030E0BD9DFCFEFFFD0D8020E0CD943
:1032B000010E00D9EF50E66EC9D8020EFFD8010EFC
:1032C000F9D8DFCFEFFF010EDBCF24F0020EDBCF0A
:1032D00025F0030EDBCF26F0040EDBCF27F024C051
:1032E00036F025C037F026C038F027C039F0070E79
:1032F000E15C02E2E16AE552E16EC4D0BED80C0E98
:10330000E126080EDB6A090EDB6A0A0EDB6A0B0E89
:10331000DB6AFB0EDBCF24F0FC0EDBCF25F0D89070
:103320002532243224C0DEFF25C0DDFFFD0EDBCFB9
:1033300038F0FE0EDBCF39F0020E38C0DBFF030E93
:1033400039C0DBFFDFCF24F0DF06010EDBCF25F035
:1033500001E2DB062450251017E0D950020FE96E78
:10336000DACFEAFFEECFF3FFEDCFF4FF020EEE2649
:10337000000EEF22F3CFE9FFF4CFEAFFEECF24F007
:10338000EFCF25F06AD8DED7FB0EDB50010B0AE049
:10339000020EDBCFE9FF030EDBCFEAFFEFCF24F015
:1033A000256A5BD8D950080FE96EDACFEAFF040E20
:1033B000EECFDBFF050EEECFDBFF060EEECFDBFF21
:1033C000070EEECFDBFFD950060FE96EDACFEAFF2A
:1033D000EECFDEFFEDCFDDFFEE50ED1027E00A0E61
:1033E000DB6A0B0EDB6A080EDBCF24F0090EDBCFA5
:1033F00025F0266A276ADECF28F0DDCF29F02A6A79
:103400002B6A28502426295025222A5026222B5068
:103410002722080E24C0DBFF090E25C0DBFF0A0EA1
:1034200026C0DBFF0B0E27C0DBFFBCD7080EDB1C62
:10343000246E090EDB1C256E24C0F3FFF46E0C0E07
:10344000E15C02E2E16AE552E16E1CD0050EDBCFE1
:10345000E9FF060EDBCFEAFF1200266A276AD95081
:10346000080FE96EDACFEAFF2450EE262550EE224F
:103470002650EE222750EE221200D9CFE6FFE1CFF0
:10348000D9FF1200E552E7CFD9FF1200246EFE0EDD
:10349000DBCFE7FF2450E75EFE0EE7CFDBFF120035
:1034A000246EFD0EDBCFE7FF2450E75EFD0EE7CF75
:1034B000DBFF1200E926000EEA221200FBDFE552D4
:1034C000E750EF6E26EF1AF0F5DFEFCFDFFF26EFC4
:0234D0001AF0F0
:0E34D20076D9160EE126140EE66EE66A79D95A
:1034E000A1EC12F05FD9020EDB50F00B400823E193
:1034F000020EDB500F0B040DF3CFFFF00001F35071
:10350000E66EE66A000EE66EE66A1FEC12F04AD935
:10351000F3CFDEFFF4CFDDFF0001FF51E66EE66A78
:10352000E9EC11F0E552E552D9CFE9FFDACFEAFF35
:10353000EE50ED1002E0000E4FD04BD905D9E55208
:10354000E552D950FD0FE96EFF0EDA20EA6EEE501B
:10355000ED100DE04CD9120EDBCFEEFF130EDBCFDA
:10356000EEFF140EDBCFEEFF150EDBCFEEFFFB0EF2
:10357000DBCFE9FFFC0E34D90E0EDBCFEEFF0F0ED2
:10358000DBCFEEFF100EDBCFEEFF110EDBCFEEFF39
:10359000F90EDBCFE9FFFA0EDBCFEAFF0B0EDBCF34
:1035A000EFFF0001FF51266E276A040EDBCF38F0D3
:1035B000050EDBCF39F02650385C246E2750395881
:1035C000256EF70EDBCFE9FFF80EDBCFEAFF24C054
:1035D000EEFF25C0EDFF010E246E160EE15C02E247
:1035E000E16AE552E16E2450F0D0EAD8140EE126EB
:1035F0000001FF6F450EDF6E010EDB6AC8D8020EB8
:1036000024C0DBFF030E25C0DBFF0201932B000E5D
:103610009423040E93C2DBFF050E94C2DBFF060E5B
:10362000DB6A070EDB6A640EF36E080EF3CFDBFF76
:10363000FC0EDB50E76E090EE7CFDBFF0A0EDB6AFC
:103640000B0EDB6A0C0E5EC2DBFF0D0E5FC2DBFFF2
:103650000E0E60C2DBFF0F0E61C2DBFFFD0EDBCF83
:10366000E9FFFE0EBDD8100EEECFDBFF110EEECF40
:10367000DBFF120EEECFDBFF130EEECFDBFFD9CF59
:10368000E6FFDACFE6FF60D8E552E55280D824C0E5
:10369000E6FF25C0E6FFE66AAAD8E9CF26F0EACF22
:1036A00027F0E9CFE6FFEACFE6FF94EC11F0286EB1
:1036B000050EE15E2850140EE66EE66AD9CFE6FFED
:1036C000DACFE6FFE2EC12F06DD8140EE66EE66A91
:1036D000000EE66EE66A31EC12F064D80A0EF3CF03
:1036E000DBFF0B0EF4CFDBFF0A0E61D8020EE66E95
:1036F000E66AD9500A0FE66E000EDA20E66EE2ECBA
:1037000012F050D8140E53D8F36AF46A140EE15C28
:1037100002E2E16AE552E16E58D052D80001FF5151
:10372000E76EFD0EDBCF24F0FE0EDBCF25F0E75079
:103730002426000E252224C0E6FF25C0E6FFE9EC82
:1037400011F0E552E55241D03BD851D8020E0BD8CA
:10375000020E1AD8040E07D8040E16D80A0E03D883
:103760000A0E4CD832D0E926000EEA22EECFE6FF50
:10377000EFCFE6FF0AEC19F0E552E552F3CF24F063
:10378000F4CF25F0F7EF1BF039D8F7EF1BF0FA0E66
:10379000DBCF24F0FB0EDBCF25F0140E2426000E29
:1037A00025221200E552E552E552E5521200E66E7E
:1037B000E66AE66AFFEC11F0E552E552E5521200C6
:1037C000D9CFE6FFE1CFD9FF1200E552E7CFD9FF0D
:1037D0001200D950020FE66E000EDA20E66E1200DB
:1037E000DBCFEAFF060EE926000EEA221200FD0EEC
:1037F000DBCFE9FFFE0EDBCFEAFF1200E926000E69
:0C380000EA22F3CFEEFF25C0EDFF12001E
:04380C0052D958D95C
:10381000A1EC12F0E552E552E552E55283EC10F0CE
:1038200040D9D9CFE9FFDACFEAFF010EEE1832E135
:10383000ED5030E1040EDB50246E256A060E24188C
:1038400029E1255027E1050EDB50266E276A040E7C
:10385000261820E127501EE1D950060FE96EDACF75
:10386000EAFF020EEE1805E1ED5003E113D9EF6A0D
:1038700013D0D950060FE96EDACFEAFF010EEE1829
:1038800006E1ED5004E106D9010EEF6E05D002D934
:10389000020EEF6E000E34D0180EDB5002015E5D9A
:1038A0002EE1190EDB505F5D2AE11A0EDB50605DE0
:1038B00026E11B0EDB50615D22E12DD9080EDBCF26
:1038C000EEFF090EDBCFEEFF0A0EDBCFEEFF0B0E95
:1038D000DBCFEEFF0C0EDBCFEEFF0D0EDBCFEEFFEE
:1038E000CDD80E0EDBCFEEFF0F0EDBCFEEFF100EAE
:1038F000DBCFEEFF110EDBCFEEFF010E01D0000E8D
:10390000246E1C0EE15C02E2E16AE552E16E245095
:10391000ECD0CFD8010EDE6EDD6A020EDB6A080E37
:10392000F36E030EF3CFDBFF060EF36E040EF3CF40
:10393000DBFFF36E050EF3CFDBFFFC0EDB040FE1C4
:10394000010EC5D8120EDB68130EDB68140EDB689F
:10395000150EDB68160EDB68170EDB6809D0020E49
:10396000B6D8D9D8120ED926B9D8B8D8180ED95E7B
:10397000080E62C2DBFF090E63C2DBFF0A0E64C2DF
:10398000DBFF0B0E65C2DBFF0C0E66C2DBFF0D0E0C
:1039900067C2DBFF0E0E5EC2DBFF0F0E5FC2DBFFF6
:1039A000100E60C2DBFF110E61C2DBFF0E0EC1D82C
:1039B000EF50E552E7180201681512E10F0EB9D871
:1039C000010EB0D869150CE1100EB3D8020EAAD8BA
:1039D0006A1506E1110EADD8030EA4D86B150DE0E3
:1039E000180E6CC2DBFF190E6DC2DBFF1A0E6EC221
:1039F000DBFF1B0E6FC2DBFF0DD040D8180EEECFE1
:103A0000DBFF190EEECFDBFF1A0EEECFDBFF1B0E36
:103A1000EECFDBFF46D81C0EE66EE66A060EE66EBB
:103A2000D950120FE66E000EDA20E66E94EC11F01B
:103A3000246E050EE15E24501C0E42D8E2EC12F01A
:103A4000E552E552E552E552DAEC11F01C0EE15C6C
:103A500002E2E16AE552E16E48D0D9CFE6FFE1CF5C
:103A6000D9FF59D84BD857D844D80ED847D80CD8F6
:103A700040D804D843D802D83CD837D04CD8060E0A
:103A8000E926000EEA22120046D8020EE926000EB0
:103A9000EA221200FB0EDBCFE9FFFC0EDBCFEAFFD0
:103AA0001200D9CFE6FFDACFE6FFD7DFE552E552C5
:103AB0001200D9CFE6FFE1CFD9FF1C0EE12612009C
:103AC000E66EE66AD9CFE6FFDACFE6FF1200F36EC4
:103AD000060EF3CFDBFF070EDB6A1200EECFDEFF30
:103AE000EECFDEFFEECFDEFF1200E552E7CFD9FFCB
:103AF0001200F3CFEEFF25C0EDFF1200EECFE6FF80
:103B0000EFCFE6FF0AEC19F0E552E552F3CF24F0CF
:103B1000F4CF25F01200FD0EDBCFE9FFFE0EDBCF68
:103B2000EAFF1200E926000EEA22EF50E552E718FC
:0A3B30001200DBCFE6FF3EEF1DF0B0
:063B3A002DD92C0EE1263E
:103B4000080EE66EE66A3FD9A1EC12F004D92A0EFF
:103B5000DB6A2B0EDB6A04D9EF50E66EE66A140EC0
:103B6000E66EE66A1FEC12F0F6D8280EF3CFDBFF04
:103B7000290EF4CFDBFF080E246EF2D82450EF5E3E
:103B8000EFD8EF50E66EE66AFB0EDBCFE6FFFC0EE9
:103B9000DBCFE6FFA1EC12F0DED8E9D805D9DFCF04
:103BA000EFFFF70EDBCFE9FFF80EDBCFEAFF040EE5
:103BB000DBCFEEFF050EDBCFEDFFF50EDBCFE9FF30
:103BC000F60EDBCFEAFF060EDBCFEEFF070EDBCFF4
:103BD000EDFF280EDBCF24F0290EDBCF25F02A0ED7
:103BE000DB50241803E12B0EDB50251802E0000EF9
:103BF00001D0010E246E2C0EE15C02E2E16AE55276
:103C0000E16E2450CDD0C7D82A0EE126B5D8280EB3
:103C100024C0DBFF290E25C0DBFF010EDB6AFC0E92
:103C2000DB50DF6E020EDB6A030EDB6AF70EDBCFC2
:103C300038F0F80EDBCF39F0040E38C0DBFF050E8C
:103C400039C0DBFFF50EDBCF38F0F60EDBCF39F0F5
:103C5000060E38C0DBFF070E39C0DBFFF90EDBCFE5
:103C6000E6FFE66AFA0EDBCFE6FFFB0EDBCFE6FFF0
:103C7000D950080FE66E000EDA20E66E06EC21F051
:103C8000246E060EE15E245072D876D824C0E6FF7A
:103C900025C0E6FF010EE66EFD0EDBCFE6FFFE0E51
:103CA000DBCFE6FFF5EC1AF0266E050EE15E26503E
:103CB0006BD889D8E2EC12F04ED866D8140EE66EB6
:103CC000E66A31EC12F047D8020EF3CFDBFF030EA9
:103CD000F4CFDBFF160EE66EE66AE66AFFEC11F043
:103CE000E552E552E552020EE66EE66AD950020F41
:103CF000E66E000EDA20E66EE2EC12F02CD8DAEC7A
:103D000011F02A0EE15C02E2E16AE552E16E48D070
:103D100042D84AD8040E0BD8040E1AD8060E07D87B
:103D2000060E16D8020E03D8020E45D839D0E92661
:103D3000000EEA22EECFE6FFEFCFE6FF0AEC19F025
:103D4000E552E552F3CF24F0F4CF25F0D4EF1EF086
:103D500032D8D4EF1EF0E552E552E552E55212009A
:103D6000F90EDBCFE9FFFA0EDBCFEAFF12002BD80A
:103D7000CFDFE552E5521200F90EDB50256A080F3D
:103D8000246E000E25221200280EDBCFE6FF290E3E
:103D9000DBCFE6FF1200D9CFE6FFE1CFD9FF12005B
:103DA000E552E7CFD9FF1200FD0EDBCFE9FFFE0E93
:103DB000DBCFEAFF1200E926000EEA22F3CFEEFF86
:103DC00025C0EDFF1200D9CFE6FFDACFE6FF1200E3
:103DD0000001F96BF86B010C0AD9120EE126000103
:103DE000F8A103D0F36AF46A95D0D9500F0FE96EA9
:103DF000DACFEAFF7B0EEE6E020EED6EFD0EDBCF2C
:103E0000E9FFFE0EDBCFEAFFEF5001E181D0DCD805
:103E100062EC21F0E552E552FD0EF3CFDBFFFE0E22
:103E2000F4CFDBFF0F0EE66EE66ADBCF24F0100E58
:103E3000DBCF25F0266A24C0E6FF25C0E6FF26C0BA
:103E4000E6FFD9CFE6FFDACFE6FF31EC21F0276EAF
:103E5000070EE15E2750DF5040E1B6D854EC21F068
:103E6000E552E552110EF3CFDBFFDB500C0805E203
:103E70000C0EF36E110EF3CFDBFF110EDBCFE6FF5E
:103E8000E66AD950030FE66E000EDA20E66E9CD883
:103E9000DDEC20F0246E060EE15E2450000913E1F3
:103EA000010EDBCFFCF0020EDBCFFDF00001F92BA1
:103EB000010EDBCF24F0020EDBCF25F024C0F3FF90
:103EC00025C0F4FF27D0D9500F0FE96EDACFEAFFF3
:103ED0000F0EEE26000EED22A5D7040EDF5C18E1D2
:103EE000D950010FE96EDACFEAFFFF0EEE1802E1BA
:103EF000FF0EED180DE0010EDBCF38F0020EDBCF28
:103F000039F00F0E38C0DBFF100E39C0DBFF8AD747
:103F1000F368F468120EE15C02E2E16AE552E16ED8
:103F20005AD00001FE6BF891F95101E0F907120037
:103F30005ED8E65254D80001FA2B000EFB23030E84
:103F4000DF5C05E14CD8FA2B000EFB2305D0040EF4
:103F5000DF5C02E1FA69FB69DF50E5523CD0000109
:103F6000F881200EF36EF46A1200D9CFE6FF010E3D
:103F700032D0FAC0F3FFFBC0F4FF120038D8020EB3
:103F8000E126FCC0FAF0FDC0FBF0DE6ADD6ADFCF9F
:103F900024F0DF2A010EDBCF25F001E3DB2AFD0E42
:103FA000DB50241803E1FE0EDB50251802E0C0DFD1
:103FB000EED7FAC0F3FFFBC0F4FF020EE15C02E2B1
:103FC000E16AE552E16E07D0FD0EDBCFE6FFFE0EA3
:103FD000DBCFE6FF1200E552E7CFD9FF1200FAC0AF
:103FE000F6FFFBC0F7FF0800F550DF6E1200D9CFD7
:083FF000E6FFE1CFD9FF12004A
:083FF8000201006BDAEC0FF08E
:104000003BEC22F030EF15F0D9CFE6FFE1CFD9FF3E
:10401000060EE126050EDB6A02010051040A01E1E9
:104020008DD0070A60E0040A4CE0050A25E0070A83
:104030001DE0050A03E0010A01E09CD0A9D825ECA7
:1040400011F0E552E552E552E552000901E192D046
:10405000A2D8040EDB5003E10201020E2BD0040EA5
:10406000DB50060868E10201050E24D03EEC22F088
:10407000000901E17FD07CD00B0EE66E020EE66EE9
:1040800087D8D9CFE6FFDACFE6FF69EC1AF0246EC5
:10409000080EE15E2450000911E07DD8040EDB0417
:1040A00003E10201030E06D0040EDB50110804E107
:1040B0000201070E006F5ED0050EDB6A83EC10F084
:1040C00057D00BC2E6FF0CC2E6FFD9CFE6FFDACF2E
:1040D000E6FF6ED87BEC16F0246E060EE15E2450EF
:1040E000000948E045D0006B280ED8800B55000E23
:1040F0000C5521E32F0EE66E020EE66E2D0EE66ED7
:10410000020EE66E0B0EE66E020EE66E0D0EE66E0B
:10411000020EE66E46D89DEC1DF0246E0A0EE15E9E
:104120002450000908E0040EDB50080804E133D8ED
:104130000201040E006F83EC10F01CD074EC10F040
:10414000000918E02FC2E6FF30C2E6FF2DC2E6FFED
:104150002EC2E6FF0BC2E6FF0D0EE66E020EE66E05
:10416000E66A26D803EC1EF0246E0A0EE15E2450A7
:104170000201006B050EDB5001E04CD7060EE15C3E
:1041800002E2E16AE552E16EE552E7CFD9FF1200A3
:1041900008D8D8EF20F0010EF36E050EF3CFDBFF49
:1041A0001200D950040FE66E000EDA20E66E1200FF
:0A41B000010EE66E020EE66E12002C
:0641BA00D9CFE6FFDACFC9
:1041C000E6FFFA0EE3CFD9FFFB0EE3CFDAFFFC0EDA
:1041D000E3CFE9FFFD0EE3CFEAFFF80EE35003E182
:1041E000F90EE35008E0F80EE30602E2F90EE306EA
:1041F000DE50EE5CF2E0F36EFF0EE3CFDAFFE55245
:10420000FF0EE3CFD9FFE552F3501200D9CFE6FFFE
:10421000DACFE6FFFA0EE3CFD9FFFB0EE3CFDAFFEA
:10422000FC0EE3CFE9FFFD0EE3CFEAFFE9CFF3FF9A
:10423000EACFF4FFF80EE35003E1F90EE35008E093
:10424000F80EE30602E2F90EE306DECFEEFFF2D748
:10425000FF0EE3CFDAFFE552FF0EE3CFD9FFE552C1
:104260001200FB0EE3CFF6FFFC0EE3CFF7FFFD0ECF
:10427000E3CFF8FFFE0EE3CFE9FFFF0EE3CFEAFF47
:10428000E9CFF3FFEACFF4FFF90EE35003E1FA0EB2
:10429000E35009E0F90EE30602E2FA0EE306090034
:1042A000F5CFEEFFF1D71200FE0EE3CFE9FFFF0ED0
:1042B000E3CFEAFFF36AF46AEE5203E0F34AF42A2A
:1042C000FBD71200FE0EE3CFE9FFFF0EE3CFEAFFBC
:1042D000E9CFF3FFEACFF4FF610EEF5C05E67B0E5A
:0E42E000EF5C02E7DF0EEF16EE52F6E1120081
:0242EE0066D890
:1042F000C26A0F0EC16E94909492949492808284BC
:1043000082808282020EE15C02E2E16AE552E16EA5
:1043100051D0D9CFE6FF4ED057D8DF6ADF5002E048
:10432000000E01D0010EE55245D00550000804E210
:104330000506055001E18284120040D8E15C02E2EA
:10434000E16AE552E16E36D0D9CFE6FF33D03CD8F2
:104350008050010BDF6EDF5002E0000E01D0010E35
:10436000E55228D031D8010EDF6EDF50E55222D061
:104370002ED8040EE126DE6ADD6A020EDB6A030E29
:10438000DB6A040EE15C02E2E16AE552E16E12D002
:1043900015D8E15C02E2E16AE552E16E0BD0120051
:1043A000D9CFE6FF07D00AD8E15C02E2E16AE55224
:1043B000E16E00D0E552E7CFD9FF120008D8020E17
:1043C000E126DE6ADD6A120002D8E6521200D9CF79
:0843D000E6FFE1CFD9FF120066
:0843D8001E0EF66E000EF76EDA
:1043E000000EF86E02010900F550826F0900F550C9
:1043F000836F03E1826701D03DD00900F5507D6FE6
:104400000900F5507E6F0900F5507F6F0900090023
:10441000F550E96E0900F550EA6E0900090009003F
:10442000F550806F0900F550816F09000900F6CF43
:1044300084F2F7CF85F2F8CF86F27DC2F6FF7EC216
:10444000F7FF7FC2F8FF0201805302E1815307E0CA
:104450000900F550EE6E8007F8E28107F9D784C2B3
:10446000F6FF85C2F7FF86C2F8FF02018207000E41
:06447000835BBFD71200C0
:0A4476000201956B1200D9CFE6FF9A
:10448000E1CFD9FF0B0EE1260201955118E1D95079
:104490000A0FE66E000EDA20E66ED9CFE6FFDACF1D
:1044A000E6FF06EC1CF0E552E552E552E552000944
:1044B00019E00A0EDB5016E00201010E956F74EC54
:1044C00010F000090DE0E66AD9CFE6FFDACFE6FF8B
:1044D00089EC1CF0E552E552E5520201956B02D0E1
:1044E000000E01D0010E246E0B0EE15C02E2E16AC7
:0E44F000E552E16E2450E552E7CFD9FF1200ED
:0244FE00A9EC27
:1045000022F0E8EC1EF004D8FCEC1FF022EF00F0E3
:104510000201C00E5E6FA80E5F6F640E606F1E0E0C
:10452000616F686969696A696B6BC00E6C6FA80E10
:104530006D6F640E6E6F1E0E6F6F626B040E636F95
:10454000A30E646F656B666B676B7691120004EF68
:0245500020F059
:0E455200790ED66EFE0ED76E070ED56ED58E84
:10456000F284F28A1200FCC136F0FDC137F0FEC1C0
:1045700038F0FFC139F01200F2A40BD0FE0ED76E56
:10458000790ED66E0101FC2B000EFD23FE23FF23C6
:04459000F29412008F
:0C45940046610B00000101000000000067
:1045A000000000000000000000000000000000000B
:0445B0000000000007
:0C45B400FF0EE3503D6E480E01D04C0E8F
:1045C000E76EE72EFED7E76AE72EFED73D2EF7D738
:0445D00000001200D5
:0C45D400000EF36E00EE00F00D0E01D89A
:1045E0001200EA6002D0EE6AFCD7F350E9601200D4
:0445F000EE6AFCD79C
:0C45F4001CEE00F02CEE00F0F86A3C9C7D
:10460000ECEC21F003EC00F047EC0AF0FBD71200D1
:020000040030CA
:0100010006F8
:0100020016E7
:0100030010EC
:0100050000FA
:010006008079
:010008000FE8
:01000900C036
:01000A000FE6
:01000B00E014
:01000C000FE4
:01000D0040B2
:00000001FF
