:020000040000FA
:040000001FD00ED02F
:0400080004EF04F00D
:040018000CEF04F0F5
:10002000A66E05A01200550EA76EAA0EA76EA68298
:100030000000A6B2FED712000A26D8B00B2A120082
:10004000A66AA968AA68A680A83C00EF04F0066A20
:100050001C0E056E0F019394000E006F080E016FC9
:10006000E81E056F000E026F070E036FFF0E186F7C
:10007000EB0E196FFF0E1A6FF80E1B6F030E706EEA
:100080009E0E716E030E726E200E736E6F6A0E0EF0
:10009000C16E939E939C818E818C609E040060AEA5
:1000A000FDD70FEE66F065500F0B096EF46EF5E0AC
:1000B00064B02BD010EE01F0EECFE6FFF42EFCD7AB
:1000C0000650EBE0010AD8A407D0A968AA68A86A7C
:1000D000040EA6DF819CFF000650020A05E10B6AB0
:1000E0000A6A0C900C6AD9D70650030A0AE1075035
:1000F0000A2606E108500B2203E10CB001D073D0B0
:1001000076D00650040AC9E176D00350F86EF00BA1
:10011000F36E0250F76EAA6E0150F66EA96E05A638
:1001200005D009500126E86A02220322300EF3604E
:1001300001D008D0F350300A01E12AD0F350F00A80
:10014000ACE132D005A405D0F6503F0B02E1940E8D
:1001500067DF05B2A2D7F650070B9FE1080EF46ED9
:10016000EE50F56E69DF0D00F42EFAD7080EF46E2E
:100170000A00ED50F42EFCD7840E52DF080EF46E08
:100180000900F550EE18D8A40C80F42EF9D785D7C5
:10019000EF50F56E51DF0C00C40E42DF0900F55040
:1001A000EE18F42EF5D779D7EF50A86E45DF040E80
:1001B00037DFA66AA680A850EE18D8A40C80A94AFA
:1001C000AA2AF42EF1D769D740B7FED7800E416F27
:1001D000080E426F000E436F040E446F448164A00A
:1001E000449140875AD7010E466F456FEDD7466B55
:1001F000010E456FE9D7020E466F010E456FE4D739
:060800000000E6EF06F027
:0408080010EF04F0F9
:0C081000A5570520020100008CEF04F049
:100820006FCF0AF06ECF0BF0E9CF05F0EACF06F0FC
:10083000E1CF07F0E2CF08F0080EFA6E0B500E0B76
:10084000F92637D012D035D034D033D002D006D0EC
:1008500030D0A49200EE24F046EF04F0A49014B23D
:100860003FD000EE24F046EF04F00F0130AB08D08B
:10087000195206E0192E04D030973F0E31173087F9
:10088000509F0001609E749E749C14D06F50F10BB9
:100890006F6E0B500E0B6F121FEE60F0E650EE6E97
:1008A0006E0EE162FBD7609E29BC12D0295201E096
:1008B0001480609EA46A6F50F10B0A106F6E05C021
:1008C000E9FF06C0EAFF07C0E1FF08C0E2FF110030
:1008D00014B2EFD70F0120B7FED720870001E9D768
:1008E0006566E7D76138E832780B1A6E6238E842FD
:1008F000070B1A10136E10EE57F0536A5380080E50
:10090000136403D0135EE12AFBD7134E02D0534683
:10091000FCD75350E712CDD7100023B21FD080A8C8
:10092000A4D00F0E80141A6E120E81141B6E1B467B
:100930001BB41B881B1C300B1A10010F216201D045
:1009400005D0216E116E106A97EC07F0239081AAF2
:100950002380A1A202D0817EA1920DD0F2A40BD05F
:1009600014A401D0817CF29414A605D0182E03D0D3
:100970000A0E186E520E81B05AD0640E156E166AA9
:10098000176A172EC1EF04F014A404D0F2A402D009
:10099000817CF294162EC1EF04F081B062D0152E46
:1009A000C1EF04F023A25AD0146A819C818EF26AAE
:1009B000010E136E010EA96E000EFCEC07F0510E35
:1009C000D1EC07F0106A116A81A0FED76DEC0BF034
:1009D00081A0FAD7020EA96E000EFCEC07F0A92A3E
:1009E000000EFCEC07F023A20ED0010EA96E000E43
:1009F000FCEC07F0146A2392819C818E216AC00E60
:100A0000F26E8DEF04F0010EA96E010EFCEC07F002
:100A10002382C00EF26E6BEF07F014A608D014A468
:100A200003D01494818C03D01484D0EC07F014A26A
:100A30001CD0A1A2FCD7B190A1923FEC0BF0000E0C
:100A4000A96E1350FCEC07F0ADEC07F0010EA96E97
:100A5000010EFCEC07F0149214845FD71482819E7F
:100A6000B3D723A2AAEC09F0D8D714B029D0A4D1C7
:100A7000DFEF05F014A872D0148AE3D014A86ED06A
:100A8000148CDFD01FEC0AF0000816E1D0EC0AF05D
:100A900065D014A463D0500E4B6E030E226EE8ECAA
:100AA00009F05CD01FEC0AF0000806E1DCEC0AF06B
:100AB00055D02B6A2C6A83D0DBEF05F0F3EF05F0FD
:100AC000900E2A5CD5E0920E2A5CD2E0980E2A5C49
:100AD000F0E09A0E2A5CEDE05C0E2A5C35E0730EC5
:100AE0002A5C3FE023A23AD0420E2A5C41E0100E7D
:100AF0002A5CE4E0530E2A5C4BE0540E2A5C4EE084
:100B0000550E2A5C52E0560E2A5C40E0D20E2A5C5A
:100B100060E0950E2A5CAEE0B20E2A5CAFE0710E8A
:100B20002A5C6DE0960E2A5C63E0570E2A5C6EE04C
:100B3000720E2A5C51E0580E2A5C04E09C0E2A5C7E
:100B4000B1E00CD042EF05F01FEC0AF0000833E1F1
:100B5000FF0EA96EFF0EFCEC07F0FF0014908DEF66
:100B600004F01FEC0AF0000826E117EC0BF0F6D7B2
:100B700014A4F4D784EC07F014941486819E0A0E12
:100B8000186E520ED1EC07F0818CE8D710EF06F00A
:100B90001FEC0AF000080FE11488E0D71FEC0AF000
:100BA000000809E11498149AD9D71FEC0AF000083C
:100BB00002E137EC0AF0D2D7020E2BEF0BF023A2A2
:100BC00005D0B6EC08F0000828E0C8D780A839D0D6
:100BD000F8D714B836D0C2D71FEC0AF00008EBE102
:100BE000A5EC0AF0BBD714A4B9D701EC0BF0B6D72B
:100BF0001FEC0AF00008DFE1F7EC09F0AFD71FECBB
:100C00000AF00008D8E104EC0AF0A8D71FEC0AF0BB
:100C10000008D1E177EC0AF0A1D7F4EC08F09ED7F8
:100C20001FEC0AF00008C7E1050EA96EF7EC07F00B
:100C300020084E6E700E4B6E040E226EE8EC09F02A
:100C40008DD723A20AD0D20E2A5C07E0950E2A5C2B
:100C500004E0B20E2A5E01E064D0B6EC08F00008B1
:100C600012E023B207D080AA5CD078EC08F000082C
:100C700029E057D014BC15D014BA52D078EC08F043
:100C8000000820E04DD023B202D080AA51D014AA8F
:100C900020D04ED03CC050F0502AA680A8CF51F0B2
:100CA00002D0506A516AD30E4B6E2BC04CF02CC050
:100CB0004DF02DC04EF02EC04FF0070E226EECEC22
:100CC00009F02ED023B211D0050EA96EA680A8047B
:100CD000376E23B20FD03744860FA96EA68073EC0F
:100CE0000AF03C50FCEC07F01CD0050EA96EA68063
:100CF000A804376E2FC03CF03C5217E03C06020EB1
:100D00003C6013D030C03EF03744860FA96E3C5093
:100D1000A92614BCBFD73E50FCEC07F002D01498B3
:100D2000149C1490FA6AAEEF05F0506A516ABBD772
:100D3000050EA96EA680A8CF39F0A8CF3AF03946A3
:100D40003946060E3926040E3926374637460A0E2E
:100D50003724A96EA680A850A906A906A906A90647
:100D6000FCEC07F0050EA9263950A962F3D73742EB
:100D70003A46860E3A26020E3A26880E3724A96E87
:100D8000A680A850A906A906FCEC07F0030EA92628
:100D90003A50A962F5D7050EA96EA680A8501A6E22
:100DA0001A04FCEC07F027EC0AF023B203D0B19050
:100DB000A192819E149AB3D723A204D014A604D082
:100DC00014B402D00FEC08F08DEF04F0F26AC26A9E
:100DD0000F0EC16E3F0E926E3B0E936E819C819EF4
:100DE0008184FF0E946E8250206ED08EE06AA66AD7
:100DF000146A196A776A6F8E030E706E9E0E716E9A
:100E0000030E726E200E736E240E606E0FEE18F0DD
:100E1000EE6A200EE962FCD70F0105970197609CEE
:100E2000609A509D509B00016F6ABD6A840ED56E1A
:100E3000456A230EA56E9F6AA26AA06A010E136E10
:100E4000F16AF06A230EA36E9E6AA16A0F01509F99
:100E50000001609E749E749CA46A236A010EA96EB0
:100E6000F7EC07F0146E000801E111D02382ADEC1D
:100E700007F027EC0AF0C60EA96EF7EC07F0126E29
:100E8000C00EF26E819E818C14908DEF04F00F0ED7
:100E900080141A6E120E81141B6E1B461BB41B8825
:100EA0001B1C300B1A10010F216E106A116E23905B
:100EB00081AA2380239297EC07F080A863EF07F0C4
:100EC00080AA37EC0AF027EC0AF0C00EF26E819C83
:100ED000818E8DEF04F0C00EF26E148252EC0AF097
:100EE0001CD500EE45F01FEE30F00F0130B7FED7F5
:100EF0000001EE50E66E530EE962FBD70F0130B7EA
:100F0000FED73087000112002BC010F02CC011F06A
:100F1000020EA96E2B50FCEC07F0A92A2C50FCEC19
:100F200007F0010EA96E090EFCEC07F012000D6E21
:100F3000DBEC07F0F00E46160E5046120F50476ECF
:100F40000F0120B7FED7216B0E50216F0F50226F7B
:100F5000B00E2113256B00011200000EA96EA680B1
:100F6000A8500D6EDBEC07F0F00E46160E50461240
:100F70000F50476E020EA96EF7EC07F0106EA92A0B
:100F8000F7EC07F0116E0F012097216B0E50216FC7
:100F90000F50226FB00E2113256B000114B6120002
:100FA000500E4B6E10C04CF011C04DF0030E226E6F
:100FB000E8EC09F012000DC00FF00F3A0F44E00BFF
:100FC0000F6E0DC00EF00E420E420E400F0B0E6E55
:100FD000120026C00FF00F3A0F40070B0F6E25C00E
:100FE0000EF00E460E460E44780B0F101200A69E11
:100FF000A69CA680A8501200A86EA69EA69CA684B9
:10100000F2CF0CF0F26A550EA76EAA0EA76EA6825A
:10101000A6B2FED7A198A6940CC0F2FF120082508F
:101020001C6E1C50206201D0120064EC0BF01C50AE
:101030008262120020181D6E1F6A1E6A1E80D890E0
:101040001D3204E21F2A1E3634E2F9D723A20DD046
:10105000239023B406D0C60EA96EF7EC07F0126EEB
:1010600023841E50121401E02380E1EC08F00008F4
:1010700027E01FC04FF04F2A900E4B6E1C501E14DD
:101080001BE023B0DCD74B804E6A10C04CF011C07F
:101090004DF0050E226E0F0E4616B00E46120A0EC9
:1010A000196EE8EC09F01F2A1E3603E264EC0BF01F
:1010B000C6D71CC020F012004B90E6D700001200EB
:1010C000060EA96ED89037463744020FA926F7ECD2
:1010D00007F04E6EA92AF7EC07F04F6E980E4B6E94
:1010E0001C501E14D2E023A001D0A9D74B80CDD72D
:1010F00023B202D080AA1200050EA96EA680A850C5
:10110000376E200E3760010C01EE00F0374637468F
:1011100037502BC0EBFF010F2CC0EBFF010F2DC090
:10112000EBFF010F2EC0EBFF060E3724A96E2B50EC
:10113000FCEC07F0A92A2C50FCEC07F0A92A2D5052
:10114000FCEC07F0A92A2E50FCEC07F0050EA96E66
:10115000A680A850010F1A6EFCEC07F023B205D050
:10116000200E1A5C02E1CD80010C000C01EE00F0B3
:10117000050EA96EA680A850156E155221E0376A9B
:10118000356AEE502B62352AEE502C62352AEE502D
:101190002D62352AEE502E62352A35660CD0374442
:1011A000860FA96EA990A680A8503C6EA92AA68099
:1011B000A8503E6E000C155203E01506372AE0D702
:1011C000010C1FC043F04386376A200E156E860E51
:1011D000A96EF7EC07F0435C06E0372AA92AA92A92
:1011E000152EF7D7010C000C000E3C5C08E0010E38
:1011F0003C5C03E03CA61200D1D0AAEF09F064ECFD
:101200000BF01F6A050E226E2A50336E920E335C6D
:1012100006E09A0E335C06E1900E336E05D0930E15
:10122000336E02D0900E336E33C04BF04E6A1FC047
:101230004FF04F2A82B04B2AE1EC08F0006E02E139
:1012400042EC0AF01F2AE8EC09F064EC0BF04E6A5D
:1012500033C04BF082B24B2A1FC04FF04F2AE1EC53
:1012600008F0006E02E142EC0AF01F2AE8EC09F0F7
:1012700064EC0BF04E6A33C04BF082B44B2A1FC0B3
:101280004FF04F2AE1EC08F0006E02E142EC0AF068
:101290001F2AE8EC09F064EC0BF04E6A33C04BF007
:1012A00082B64B2A1FC04FF04F2AE1EC08F0006EC7
:1012B00002E142EC0AF01F2AE8EC09F064EC0BF0C2
:1012C0004E6A33C04BF082B84B2A1FC04FF04F2AF2
:1012D000E1EC08F0006E02E142EC0AF01F2AE8ECB3
:1012E00009F064EC0BF04E6A33C04BF082BA4B2A23
:1012F0001FC04FF04F2AE1EC08F0006E02E142EC13
:101300000AF01F2AE8EC09F064EC0BF04E6A33C0D7
:101310004BF082BC4B2A1FC04FF04F2AE1EC08F083
:10132000006E02E142EC0AF01F2AE8EC09F064ECDE
:101330000BF04E6A33C04BF082BE4B2A1FC04FF0F9
:101340004F2AE1EC08F0006E02E142EC0AF0E8EC12
:1013500009F012002A50336E900E335C13E0980EA1
:10136000335C03E1900E336E0DD0920E335C03E1DB
:10137000930E336E07D09A0E335C02E0AEEF05F0A9
:10138000930E336E33C04BF0010E4E6E82504F6E93
:10139000050E226EE8EC09F04E9012009A0E2A5CBF
:1013A00001E012003C96010E546E3C5203E03C06F4
:1013B0005446FBD75450821403E0990E4B6E02D072
:1013C000980E4B6E2DC04EF02EC04FF0050E226EC3
:1013D00010C04CF011C04DF022504A6E0F0E461650
:1013E000B00E46120A0E196E71EC07F01200020ED2
:1013F0002D6012002D5007E0E806C60FA96E2E5092
:10140000126EFCEC07F01200020E2D6015E02D505C
:1014100013E0E806C60FA96EF7EC07F04F6E2DC07B
:101420004EF02BC04CF02CC04DF0970E4B6E050EBD
:10143000226EECEC09F012004E6A4F6AF2D710509F
:101440002B5C04E111502C5C01E1000C010C200E1E
:10145000156ED8901546154601EE00F0060EA96EE1
:10146000A680A850EE6EA92A152EFAD71200C20E39
:10147000156E040EA96E000EFCEC07F0A92A152EBD
:10148000FAD71200060EA96ED89037463744020FDD
:10149000A926F7EC07F04E6EA92AF7EC07F04B8669
:1014A0004F6E1200456A576A586A596A5A6A5B6AEF
:1014B0005C6A5D6A5E6A5F6A606B616B626B636BDC
:1014C000646BBF0E466EE00E476E400E226E3C0E01
:1014D000B36EAF0EB26EB10EB16E0A0E196EECECB9
:1014E00009F04A6A12000F0E80143C6E12001A6A4C
:1014F000050EA96EF7EC07F03B6E24E0010E526E6C
:10150000060EA96EF7EC07F04E6EA92AF7EC07F06D
:101510004F6EA92AF7EC07F0506EA92AF7EC07F0F6
:10152000516EA92AF20E4B6E080E226EE8EC09F0FD
:1015300064EC0BF0525208E01A2A3B501A5C04E0AB
:10154000522AE0D72D6A27D01200050EA96EF7ECBB
:1015500007F03B6E20E02D50E8063B641CD0E846C7
:10156000E846060FA96EF7EC07F04E6EA92AF7ECD5
:1015700007F04F6EA92AF7EC07F0506EA92AF7EC96
:1015800007F0516E2DC052F0F20E4B6E080E226E17
:10159000E8EC09F012004E6A4F6A506A516AF2D7BD
:1015A000050EA96EF7EC07F04E6E740E4B6E040E2E
:1015B000226EE8EC09F012002D5022E0E8061A6EC7
:1015C000050EA96EF7EC07F01A601AD01A50020D3A
:1015D0002E5016E0E8061B6E020E1B6011D01B5049
:1015E000F324860FA96EF7EC07F0506EB50E4B6E24
:1015F0002DC04EF02EC04FF0060E226EE8EC09F022
:101600001200EF0E4B6E080EF76E100EF66E00EE27
:101610004CF0070E156EA68E0900F5CFEEFF152EC5
:10162000FBD7A69E080E226EECEC09F012009B0E72
:101630004B6E100EF66E080EF76E2D04F626A68E73
:101640000800F5CF4FF0A69E2DC04EF0050E226E7D
:10165000E8EC09F0120037EC0BF0AEEF05F037ECD8
:101660000BF091EF06F037EC0BF090EF06F04E6EBA
:101670006F0E4B6E040E226EE8EC09F01200E1CF03
:1016800055F0E2CF56F0136A132A536A538010EED6
:1016900057F0E72804E1080E1326E12AFAD7535041
:1016A000E71403E05336132AFAD7630E13605EEC97
:1016B0000BF055C0E1FF56C0E2FF1200070E37ECF9
:1016C0000BF01368139E12000A0E166E156A152E83
:1016D00067EF0BF0162EFAD71200640E176E64EC4B
:0816E0000BF0172EFCD71200DD
:020000040030CA
:0300010006061ED2
:020005008081F8
:060008000FC00FE00F40E5
:0200000400F00A
:060000007F00000000007B
:0A0086000000000000000000000070
:100090000000000000000000000000000000000060
:1000A0000000000000000000000000000000000050
:1000B0000000000000000000000000000000000040
:1000C0000000000000000000000000000000000030
:0600D0000000000000002A
:0200FE00000000
:00000001FF
