:020000040000FA
:040000001FD00ED02F
:0400080004EF04F00D
:040018000CEF04F0F5
:10002000A66E05A01200550EA76EAA0EA76EA68298
:100030000000A6B2FED712000A26D8B00B2A120082
:10004000A66AA968AA68A680A83C00EF04F0066A20
:100050001C0E056E0F019394000E006F080E016FC9
:10006000E81E056F000E026F070E036FFF0E186F7C
:10007000EB0E196FFF0E1A6FF80E1B6F030E706EEA
:100080009E0E716E030E726E200E736E6F6A0E0EF0
:10009000C16E939E939C818E818C609E040060AEA5
:1000A000FDD70FEE66F065500F0B096EF46EF5E0AC
:1000B00064B02BD010EE01F0EECFE6FFF42EFCD7AB
:1000C0000650EBE0010AD8A407D0A968AA68A86A7C
:1000D000040EA6DF819CFF000650020A05E10B6AB0
:1000E0000A6A0C900C6AD9D70650030A0AE1075035
:1000F0000A2606E108500B2203E10CB001D073D0B0
:1001000076D00650040AC9E176D00350F86EF00BA1
:10011000F36E0250F76EAA6E0150F66EA96E05A638
:1001200005D009500126E86A02220322300EF3604E
:1001300001D008D0F350300A01E12AD0F350F00A80
:10014000ACE132D005A405D0F6503F0B02E1940E8D
:1001500067DF05B2A2D7F650070B9FE1080EF46ED9
:10016000EE50F56E69DF0D00F42EFAD7080EF46E2E
:100170000A00ED50F42EFCD7840E52DF080EF46E08
:100180000900F550EE18D8A40C80F42EF9D785D7C5
:10019000EF50F56E51DF0C00C40E42DF0900F55040
:1001A000EE18F42EF5D779D7EF50A86E45DF040E80
:1001B00037DFA66AA680A850EE18D8A40C80A94AFA
:1001C000AA2AF42EF1D769D740B7FED7800E416F27
:1001D000080E426F000E436F040E446F448164A00A
:1001E000449140875AD7010E466F456FEDD7466B55
:1001F000010E456FE9D7020E466F010E456FE4D739
:060800000000EFEF07F01D
:0408080010EF04F0F9
:0C081000A5460B200224020000EF05F0BA
:10082000FA50316E080EFA6EF2942144F92612D075
:1008300013D019D01FD023D02AD02ED035D039D004
:1008400040D044D04BD04FD056D05AD061D065D094
:100850006CD070D09EEF04F0C30ED56E0A0ED66E2B
:10086000212A9EEF04F03CB082800A0ED66E212A27
:100870009EEF04F02250D66E212A9EEF04F0829063
:100880003CB282820A0ED66E212A9EEF04F02350DB
:10089000D66E212A9EEF04F082923CB482840A0E26
:1008A000D66E212A9EEF04F02450D66E212A9EEFA8
:1008B00004F082943CB682860A0ED66E212A9EEF00
:1008C00004F02550D66E212A9EEF04F082963CB8A3
:1008D00082880A0ED66E212A9EEF04F02650D66E2C
:1008E000212A9EEF04F082983CBA828A0A0ED66EC4
:1008F000212A9EEF04F02750D66E212A9EEF04F0A5
:10090000829A3CBC828C0A0ED66E212A9EEF04F09D
:100910002850D66E212A9EEF04F0829C3CBE828E27
:100920000A0ED66E212A9EEF04F02950D66E212A97
:100930009EEF04F0829E216A9EEF04F03150FA6E21
:020940001100A4
:100A0000006ED8CF01F06FCF0AF06ECF0BF0FACFA7
:100A100003F0FA6AE9CF05F0EACF06F0E1CF07F07C
:100A2000E2CF08F00A0EFA6E0B500E0BF92637D003
:100A300012D035D034D033D002D006D030D0A492EA
:100A400000EE46F03CEF05F0A4901CB246D000EE5C
:100A500046F03CEF05F00F0130AB08D01B5206E02A
:100A60001B2E04D030973F0E31173087509F000166
:100A7000609E749E749C14D06F50F10B6F6E0B507F
:100A80000E0B6F121FEE60F0E650EE6E6E0EE1621E
:100A9000FBD7609E4BBC17D04B5201E01C80609E80
:100AA000A46A6F50F10B0A106F6E03C0FAFF05C005
:100AB000E9FF06C0EAFF07C0E1FF08C0E2FF0050FF
:100AC00001C0D8FF10001CB2EAD714A2E8D70F016A
:100AD00020B7FED720870001E2D76566E0D76138EE
:100AE000E832780B1D6E6238E842070B1D10136E5A
:100AF00010EE6FF06C6B6C81080E136403D0135E04
:100B0000E12AFBD7134E02D06C47FCD76C51E71299
:100B1000C6D7D58EF18414B207D0A1A204D0817EAD
:100B2000A192040E196E11D09EA00FD09E901CA40D
:100B300005D0192E0AD0817C040E196E1CA605D092
:100B40001A2E03D00A0E1A6E520E80B45FD0640EB5
:100B5000156E166A176A040E196E172EADEF05F0A2
:100B60001CA408D09EA006D0192E04D0817C040EAF
:100B7000196E9E90162EADEF05F080B43DD0152E67
:100B8000ADEF05F014A259D01C6A819C818EF26AE7
:100B9000010E136E010EA96E000EFCEC08F0510E52
:100BA000D1EC08F0106A116A80A4FED742EC0EF076
:100BB00080A4FAD7020EA96E000EFCEC08F0A92A58
:100BC000000EFCEC08F014A20DD0010EA96E000E70
:100BD000FCEC08F01C6A1492819C818EE00EF26E8F
:100BE00089EF05F0010EA96E010EFCEC08F01482ED
:100BF000E00EF26E6CEF08F01CA608D01CA403D027
:100C00001C94818C03D01C84D0EC08F01CA218D05A
:100C1000A1A2FCD7B190A19249EC0EF0000EA96EF2
:100C20001350FCEC08F0ACEC08F0010EA96E010EBC
:100C3000FCEC08F01C921C846CD71C82819EB4D7FB
:100C40001CA001D037D0215201E063D7D59CF2948B
:100C5000FF0ED76E070ED512010ED66E1CBE25EC08
:100C60000EF0EAEC0AF0212A89EF05F01CA88AD0E0
:100C70001C8AFCD01CA886D01C8CF8D0AAEC09F0E9
:100C8000000803E144EC0AF07DD0FBEF06F0AAEC8B
:100C900009F0000803E150EC0AF074D0FBEF06F015
:100CA00002EF07F01CA46ED079EC0AF06BD04D6A0D
:100CB0004E6AA8D0900E4C5CF3E0910E4C5CF0E0D4
:100CC000980E4C5CF4E0990E4C5CF1E0960E4C5C96
:100CD00036E05C0E4C5C37E0730E4C5C44E014A2D2
:100CE00051D0420E4C5C51E0100E4C5CDBE0530ED8
:100CF0004C5C64E0540E4C5C68E0550E4C5C6FE05C
:100D0000560E4C5C59E0D20E4C5C79E0950E4C5C72
:100D1000ADE0B20E4C5CAEE0570E4C5C12E0720ED1
:100D20004C5C7FE0580E4C5C07E09C0E4C5CAFE0E6
:100D3000710E4C5C6EE026D03EEF06F023D0E7EF5C
:100D400007F01BEF07F014A20AD0AAEC09F0000884
:100D500052E1FF0EA96EFF0EFCEC08F0FF004D50B3
:100D60004E2449E1F6D714A207D0AAEC09F00008F6
:100D700042E18FEC0AF006D04D504E243CE18FEC5E
:100D80000AF000D01C9089EF05F01CA4FBD799EC69
:100D900008F01C941C860A0E1A6E520ED1EC08F054
:100DA000818C819EEFD71CA4EDD7500E646F030E8B
:100DB000206E9BEC09F0E6D725EF07F0AAEC09F0CE
:100DC000000819E11C88818CDDD7AAEC09F0000825
:100DD00012E11C981C9A1CBEC4EC0AF0D3D7AAECF2
:100DE00009F0000808E11CA807D0DAEC09F0590E58
:100DF000D1EC08F0EFD7C6D7020EA3EF0AF01CB86B
:100E000035D0C0D714A2BED76FEC09F000081AE0A5
:100E1000B9D7AAEC09F00008EEE16EEC0EF0C2EFD3
:100E200006F0AAEC09F00008E6E11AEC0AF0AAD7ED
:100E3000030EA3EF0AF0AAEC09F00008DCE1ECECE9
:100E400009F0A0D772EC08F09DD7AAEC09F00008D1
:100E5000D2E1050EA96EF7EC08F02008676F700E5E
:100E6000646F040E206E9BEC09F08CD714A20CD09A
:100E7000D20E4C5C09E0950E4C5C06E0B20E4C5E66
:100E800003E0010EA7EF0AF06FEC09F05D6E0008B9
:100E90000EE014A2C2EF06F01CBC16D01CBA50D053
:100EA00030EC09F0000822E0040EABEF0AF014A2C7
:100EB000C2EF06F01CAA21D04BD05AC069F0692BB2
:100EC000A680A8CF6AF003D0050EABEF0AF0D30ED0
:100ED000646F4DC065F04EC066F04FC067F050C003
:100EE00068F0070E206E9FEC09F02AD014B209D0EA
:100EF000050EA96EA680A804566E14B208D020EF85
:100F000006F0050EA96EF7EC08F0E806566E51C023
:100F10005AF05A521AE05A06020E5A6016D052C0BF
:100F20005CF05644860FA96E5A50A9261CBCC5D742
:100F30005C50FCEC08F0590ED1EC08F002D01C9883
:100F40001C9C1C90FA6AC2EF06F0060EABEF0AF08A
:100F5000050EA96EA680A8CF58F0A8CF59F0584624
:100F60005846060E5826040E5826564656460A0E71
:100F70005624A96EA680A850A906A906A906A90606
:100F8000FCEC08F0050EA9265850A962F3D756428A
:100F90005946860E5926020E5926880E5624A96EE9
:100FA000A680A850A906A906FCEC08F0030EA92605
:100FB0005950A962F5D7050EA96EA680A8501D6EDE
:100FC0001D04FCEC08F0B2EC09F01C9AB9D7AAECAD
:100FD00009F0000802E180EC0EF0C2EF06F0F26AC0
:100FE000C26A0F0EC16E070E926E3B0E936E819C0D
:100FF000819E8184000E946E826AD08EE06AA66A19
:101000001C6A1B6A776A6F8E030E706E9E0E716E7D
:10101000030E726E200E736E240E606E0F01240E8E
:10102000506F016B056B00010FEE18F0EE6A200E99
:10103000E962FCD76F6ABD6AB10ECD6E000ECF6E4D
:10104000430ED56E5E6A000EA56E9F6AA26AA06A04
:10105000826A326A336A346A356A366A376A2C6A57
:101060002D6A3D6A3E6A010E136EF16AF06A230E24
:10107000A36E9E6AA16A0F01509F0001609E749E3C
:10108000749CA46A216AC1EC09F0B2EC09F0C60EA6
:10109000A96EF7EC08F03F6E146A010EA96EF7EC2A
:1010A00008F01C6E000801E10CD01482ACEC08F0D2
:1010B000B2EC09F0E00EF26E819E818C1C9089EFFB
:1010C00005F01492106A116AB2EC09F0E00EF26EAB
:1010D000819C818E89EF05F0E00EF26E1C820FEC90
:1010E00009F017D55A1C3E165B6E5A502D125C142F
:1010F0005A1A4CB001D05A1E5B502C165B1C5A1465
:101100002C125C1A5A505C142C12120000EE5EF085
:101110001FEE30F00F0130B7FED70001EE50E66E43
:101120006C0EE962FBD70F0130B7FED730870001A4
:1011300012004DC010F04EC011F0020EA96E4D50BD
:10114000FCEC08F0A92A4E50FCEC08F0010EA96E48
:10115000080EFCEC08F01200000EA96EA680A85044
:101160000D6EDBEC08F0F00E5F160E505F120F50A4
:10117000606F020EA96EF7EC08F0106EA92AF7EC6A
:1011800008F0116E0F0120B7FED7216B0E50216FB2
:101190000F50226FB00E2113256B00011CB61200F8
:1011A000500E646F10C065F011C066F0030E206E23
:1011B0009BEC09F012000DC00FF00F3A0F44E00B4A
:1011C0000F6E0DC00EF00E420E420E400F0B0E6E53
:1011D000120048C00FF00F3A0F40070B0F6E47C0C8
:1011E0000EF00E460E460E44780B0F101200A69E0F
:1011F000A69CA680A8501200A86EA69EA69CA684B7
:10120000F2CF0CF0F26A550EA76EAA0EA76EA68258
:10121000A6B2FED7A198A6940CC0F2FF12005E6A97
:101220006F6B706B716B726B736B746B756B766BD2
:10123000776B786B796B7A6B7B6B7C6BBF0E5F6EB9
:10124000E00E606F400E206E3C0EB36EAF0EB26EBD
:10125000B10EB16E0A0E1B6E9FEC09F0636B1200AB
:1012600014A2C2EF06F01CBA1200050EA96EF7EC2C
:1012700008F0566E200E5660010C01EE00F0564646
:10128000564656504DC0EBFF010F4EC0EBFF010F0D
:101290004FC0EBFF010F50C0EBFF060E5624A96EA6
:1012A0004D50FCEC08F0A92A4E50FCEC08F0A92A9D
:1012B0004F50FCEC08F0A92A5050FCEC08F0050E49
:1012C000A96EF7EC08F0010F1D6EFCEC08F014B2EB
:1012D00005D0200E1D5C02E1CD80010C000C01EE5A
:1012E00000F0050EA96EF7EC08F0156E155222E01D
:1012F000566A556AEE504D62552AEE504E62552A96
:10130000EE504F62552AEE505062552A55660DD068
:101310005644860FA96EA990F7EC08F05A6EA92AD8
:10132000F7EC08F0A8505C6E000C155203E01506AF
:10133000562ADFD7010C10C065F011C066F02050AE
:10134000636F0F0E5F16B00E5F120A0E1B6E86ECF7
:1013500008F0120010504D5C04E111504E5C01E1A8
:10136000000C010C200E156ED8901546154601EEA6
:1013700000F0060EA96EA680A850EE6EA92A152EC2
:10138000FAD7200E156E02EE00F0CA0EA96EA680E6
:10139000A850EE6EA92A152EFAD7040E156E00EE8F
:1013A00042F0C60EA96EA680A850EE6EA92A152E90
:1013B000FAD71200820E156E040EA96E000EFCEC18
:1013C00008F0A92A152EFAD7800E156E01EE00F04E
:1013D000EE6A152EFDD712001D6A050EA96EF7ECF8
:1013E00008F0126E24E0010E6B6F060EA96EF7EC8A
:1013F00008F0676FA92AF7EC08F0686FA92AF7ECE4
:1014000008F0696FA92AF7EC08F06A6FA92AF20EB2
:10141000646F080E206E9BEC09F039EC0EF06B53F4
:1014200008E01D2A12501D5C04E06B2BE0D74F6AC8
:1014300027D01200050EA96EF7EC08F0126E20E01E
:101440004F50E80612641CD0E846E846060FA96E25
:10145000F7EC08F0676FA92AF7EC08F0686FA92A83
:10146000F7EC08F0696FA92AF7EC08F06A6F4FC033
:101470006BF0F20E646F080E206E9BEC09F0120008
:10148000070EAFEC0AF01200050EA96EF7EC08F09B
:10149000676F740E646F040E206E9BEC09F01200EF
:1014A0004F5023E0E8061D6E050EA96EF7EC08F01C
:1014B0001D601BD01D50020D505017E0E8061E6E37
:1014C000020E1E6012D01E50F324860FA96EF7EC98
:1014D00008F0696FB50E646F4FC067F050C068F0D8
:1014E000060E206E9BEC09F01200080EAFEC0AF01D
:1014F0001200EF0E646F100EF66E080EF76E00EE1F
:1015000065F0070E156EA68E0900F5CFEEFF152EBD
:10151000FBD7A69E080E206E9FEC09F012009B0ED2
:10152000646F100EF66E080EF76E4F04F626A68E48
:101530000800F5CF68F0A69E4FC067F0050E206E3C
:101540009BEC09F01200AFEC0AF0C2EF06F0AFEC32
:101550000AF0A1EF07F0AFEC0AF0A0EF07F0676F19
:101560006F0E646F040E206E9BEC09F01200080EE3
:10157000156E02EE01F010EE22F0EECFE6FF030E44
:10158000E926152EFAD7120022EE00F0200E156E75
:10159000CA0EA96EDE50FCEC08F0A92A152EFAD767
:1015A00020EE42F0040E156EC60EA96EDE50FCEC65
:1015B00008F0A92A152EFAD71C9E590ED1EC08F076
:1015C0001200000FF66E300EF76EA68E0900F55071
:1015D000A69E120022EE00F02DA0F5EF0AF02D904D
:1015E0003C803D903E903C0E346E3EB048EF0BF098
:1015F0002CA021EF0BF0030EDB50E1EC0AF0156E8E
:10160000D8A406EF0BF0010EDB50226E010EDBCFEB
:1016100030F02250305CD8B447EF0BF0D8A019EF6F
:101620000BF0152E16EF0BF048EF0BF0222A06EF09
:101630000BF0152E1EEF0BF048EF0BF0220606EF15
:101640000BF0020EDB50E1EC0AF0156ED8A42CEF83
:101650000BF0000EDBCF22F0000EDBCF30F022507B
:10166000305CD8B447EF0BF0D8A03FEF0BF0152E4D
:101670003CEF0BF048EF0BF0222A2CEF0BF0152E6D
:1016800044EF0BF048EF0BF022062CEF0BF03D80FF
:101690002DA251EF0BF02D923C823D923E923C0EDA
:1016A000356E3EB2A4EF0BF02CA27DEF0BF0070ECF
:1016B000DB50E1EC0AF0156ED8A462EF0BF0050EDA
:1016C000DBCF23F0050EDBCF30F02350305CD8B4F5
:1016D000A3EF0BF0D8A075EF0BF0152E72EF0BF007
:1016E000A4EF0BF0232A62EF0BF0152E7AEF0BF02C
:1016F000A4EF0BF0230662EF0BF0060EDB50E1ECDB
:101700000AF0156ED8A488EF0BF0040EDBCF23F09F
:10171000040EDBCF30F02350305CD8B4A3EF0BF0D5
:10172000D8A09BEF0BF0152E98EF0BF0A4EF0BF069
:10173000232A88EF0BF0152EA0EF0BF0A4EF0BF08F
:10174000230688EF0BF03D822DA4ADEF0BF02D9416
:101750003C843D943E943C0E366E3EB400EF0CF05B
:101760002CA4D9EF0BF00B0EDB50E1EC0AF0156E58
:10177000D8A4BEEF0BF0090EDBCF24F0090EDBCFAF
:1017800030F02450305CD8B4FFEF0BF0D8A0D1EF8C
:101790000BF0152ECEEF0BF000EF0CF0242ABEEF6D
:1017A0000BF0152ED6EF0BF000EF0CF02406BEEF79
:1017B0000BF00A0EDB50E1EC0AF0156ED8A4E4EF52
:1017C0000BF0080EDBCF24F0080EDBCF30F02450F6
:1017D000305CD8B4FFEF0BF0D8A0F7EF0BF0152E6C
:1017E000F4EF0BF000EF0CF0242AE4EF0BF0152ED1
:1017F000FCEF0BF000EF0CF02406E4EF0BF03D845F
:101800002DA609EF0CF02D963C863D963E963C0E9B
:10181000376E3EB65CEF0CF02CA635EF0CF00F0ED9
:10182000DB50E1EC0AF0156ED8A41AEF0CF00D0EA7
:10183000DBCF25F00D0EDBCF30F02550305CD8B477
:101840005BEF0CF0D8A02DEF0CF0152E2AEF0CF06A
:101850005CEF0CF0252A1AEF0CF0152E32EF0CF08D
:101860005CEF0CF025061AEF0CF00E0EDB50E1ECED
:101870000AF0156ED8A440EF0CF00C0EDBCF25F06B
:101880000C0EDBCF30F02550305CD8B45BEF0CF0A1
:10189000D8A053EF0CF0152E50EF0CF05CEF0CF0CD
:1018A000252A40EF0CF0152E58EF0CF05CEF0CF0F1
:1018B000250640EF0CF03D862DA865EF0CF02D9825
:1018C0003C883D983E983C0E386E3EB8B8EF0CF020
:1018D0002CA891EF0CF0130EDB50E1EC0AF0156E22
:1018E000D8A476EF0CF0110EDB50266E110EDBCF74
:1018F00030F02650305CD8B4B7EF0CF0D8A089EFA8
:101900000CF0152E86EF0CF0B8EF0CF0262A76EFCF
:101910000CF0152E8EEF0CF0B8EF0CF0260676EFDB
:101920000CF0120EDB50E1EC0AF0156ED8A49CEF1F
:101930000CF0100EDBCF26F0100EDBCF30F026506F
:10194000305CD8B4B7EF0CF0D8A0AFEF0CF0152E88
:10195000ACEF0CF0B8EF0CF0262A9CEF0CF0152E33
:10196000B4EF0CF0B8EF0CF026069CEF0CF03D88BD
:101970002DAAC1EF0CF02D9A3C8A3D9A3E9A3C0E5E
:10198000396E3EBA14EF0DF02CAAEDEF0CF0170EE5
:10199000DB50E1EC0AF0156ED8A4D2EF0CF0150E76
:1019A000DB50276E150EDBCF30F02750305CD8B4FB
:1019B00013EF0DF0D8A0E5EF0CF0152EE2EF0CF0D0
:1019C00014EF0DF0272AD2EF0CF0152EEAEF0CF0F1
:1019D00014EF0DF02706D2EF0CF0160EDB50E1EC01
:1019E0000AF0156ED8A4F8EF0CF0140EDBCF27F038
:1019F000140EDBCF30F02750305CD8B413EF0DF06D
:101A0000D8A00BEF0DF0152E08EF0DF014EF0DF030
:101A1000272AF8EF0CF0152E10EF0DF014EF0DF053
:101A20002706F8EF0CF03D8A2DAC1DEF0DF02D9C34
:101A30003C8C3D9C3E9C3C0E3A6E3EBC70EF0DF0E3
:101A40002CAC49EF0DF01B0EDB50E1EC0AF0156EEB
:101A5000D8A42EEF0DF0190EDB50286E190EDBCF37
:101A600030F02850305CD8B46FEF0DF0D8A041EFC3
:101A70000DF0152E3EEF0DF070EF0DF0282A2EEF31
:101A80000DF0152E46EF0DF070EF0DF028062EEF3D
:101A90000DF01A0EDB50E1EC0AF0156ED8A454EFED
:101AA0000DF0180EDBCF28F0180EDBCF30F02850E9
:101AB000305CD8B46FEF0DF0D8A067EF0DF0152EA5
:101AC00064EF0DF070EF0DF0282A54EF0DF0152E95
:101AD0006CEF0DF070EF0DF0280654EF0DF03D8C1B
:101AE0002DAE79EF0DF02D9E3C8E3D9E3E9E3C0E20
:101AF0003B6E3EBECCEF0DF02CAEA5EF0DF01F0EF1
:101B0000DB50E1EC0AF0156ED8A48AEF0DF01D0E43
:101B1000DB50296E1D0EDBCF30F02950305CD8B47D
:101B2000CBEF0DF0D8A09DEF0DF0152E9AEF0DF034
:101B3000CCEF0DF0292A8AEF0DF0152EA2EF0DF053
:101B4000CCEF0DF029068AEF0DF01E0EDB50E1EC14
:101B50000AF0156ED8A4B0EF0DF01C0EDBCF29F003
:101B60001C0EDBCF30F02950305CD8B4CBEF0DF039
:101B7000D8A0C3EF0DF0152EC0EF0DF0CCEF0DF097
:101B8000292AB0EF0DF0152EC8EF0DF0CCEF0DF0B7
:101B90002906B0EF0DF03D8E3DA0D7EF0DF03C8053
:101BA000342ED7EF0DF03D903FB03C903E803DA2EB
:101BB000E2EF0DF03C82352EE2EF0DF03D923FB2A8
:101BC0003C923E823DA4EDEF0DF03C84362EEDEFCD
:101BD0000DF03D943FB43C943E843DA6F8EF0DF0EB
:101BE0003C86372EF8EF0DF03D963FB63C963E868C
:101BF0003DA803EF0EF03C88382E03EF0EF03D9821
:101C00003FB83C983E883DAA0EEF0EF03C8A392E34
:101C10000EEF0EF03D9A3FBA3C9A3E8A3DAC19EF6A
:101C20000EF03C8C3A2E19EF0EF03D9C3FBC3C9CD4
:101C30003E8C3DAE24EF0EF03C8E3B2E24EF0EF09A
:101C40003D9E3FBE3C9E3E8E1200436601D0120078
:101C500043C01DF01D9E416A41801D4E02D0414689
:101C6000FCD741C02DF041C02CF043BE2C6A436A22
:101C700012000A0E166E186A182E3CEF0EF0162E81
:101C8000FAD71200640E176E39EC0EF0172EFCD73F
:101C90001200E1CF6DF0E2CF6EF0136A132A6C6B85
:101CA0006C8110EE6FF0E72804E1080E1326E12A9C
:101CB000FAD76C51E71403E06C37132AFAD7630E96
:101CC000136068EC0EF06DC0E1FF6EC0E2FF120021
:101CD000070EAFEC0AF01368139E120014A2120054
:101CE000C60E4F24A96EA906F7EC08F0686F4FC026
:101CF00067F0970E646F050E206E9BEC09F01200E2
:101D00001CB804D0020EAFEC0AF012001C8E4F502B
:101D100004081CE222EE00F0050E4F5C50C0DBFF11
:101D20002B6EE842E842070B406A4080E85001E130
:101D300003D04046E806FAD72BB2120040502D6E71
:101D40002C6E3E6E3E1E4FB02C6A120020EE42F00A
:0C1D50004F0450C0DBFF42C03FF0120007
:08300000000B0907050403029F
:020000040030CA
:0300010006061ED2
:020005008081F8
:060008000FC00FE00F40E5
:0200000400F00A
:060000007F00000000007B
:0A0086000000000000000000000070
:100090000000000000000000000000000000000060
:1000A0000000000000000000000000000000000050
:1000B0000000000000000000000000000000000040
:1000C000000000000000FF0000007F7F00007F7F35
:1000D00000007F7F00007F7F00007F7F00007F7F28
:0A00E00000007F7F00007F7F00001A
:0200FE00000000
:00000001FF
