:020000040000FA
:0600000000001FEF01F0FB
:0400080010EF00F005
:0400180065EF00F0A0
:100020006FCF0CF06ECF0DF0FACF03F0FA6AE9CF84
:1000300005F0EACF06F0E1CF07F0E2CF08F00D506F
:100040000E0BF92631D010D02FD02ED02DD002D0CB
:1000500006D02AD0A49200EE60F046EF00F0A49003
:1000600000EE60F046EF00F00F0130AB08D0145204
:1000700006E0142E04D030973F0E311730870F0161
:10008000509F0001609E749E749C0FD06F50F10BC6
:100090006F6E0D500E0B6F121FEE60F0E650EE6E9D
:1000A0006E0EE162FBD71180609EA46A6F50F10B67
:1000B0000C106F6E03C0FAFF05C0E9FF06C0EAFF2F
:1000C00007C0E1FF08C0E2FF11001000A4B003D098
:1000D00081A05CD0FBD780700FEE61F011EE00F0D4
:1000E0003A0EE66E62B603D0530EE66E02D0580E9C
:1000F000E66EEE508DEC01F07EC0E6FF7FC0E6FFBD
:10010000EE508DEC01F07EC0E6FF7FC0E6FF62B6E8
:1001100003D0E92AE92A0ED0EE508DEC01F07EC022
:10012000E6FF7FC0E6FFEE508DEC01F07EC0E6FFFB
:100130007FC0E6FFEECF89F089BD03D04E0EE66E9C
:1001400003D0520EE66E899D896701D009D0EE502A
:100150008DEC01F07EC0E6FF7FC0E6FF892FF7D768
:100160003B0EE66EE150136E11EE00F08188000E3A
:10017000946E81B2FED78188E6CF82FF8198132EDC
:10018000FAD7FF0E946EA490609EA0D7866BFF0EE8
:10019000946E818A819A3A0E825C4EE1818A0000D7
:1001A000819A530E825C04E0580E825C03E044D0D6
:1001B000869701D08687886B20EE18F0818A000030
:1001C000819A3B0E825C04E082CFDEFF818AF8D701
:1001D00082CFDEFF818A20EE18F010EE6FF0DECFC6
:1001E0007CF0DECF7DF0A1EC01F0E66E4E0EDF5C20
:1001F00005E0520EDF5C01E0F2D78685D92AE12ABC
:1002000086B702D0E12AE12A3B0EDF5C09E0DECFAF
:100210007CF0DECF7DF0A1EC01F0E66E882BF4D708
:10022000885186B54009736F080E86B77013866BC8
:100230000A0E146E7AEC01F0818A66EF00F0F26A21
:10024000C26A0F0EC16E200E926E0B0E936E816A03
:1002500081848188818AFF0E946ED08EE06AA66ABE
:10026000116A146A776A6F8E030E706E9E0E716E3D
:10027000030E726E200E736E040E606E0FEE18F099
:10028000EE6A200EE962FCD7880E6F6E0F01030E36
:10029000406F306F416B426B456B05870197609CE7
:1002A000609A509D509B00016F6A030E6E6F230E83
:1002B000A56E9F6AA26AA06AF16AF06A716B726B9E
:1002C0009E6AA16A0F01509F0001609E749E749CFB
:1002D000A46A000EF26E800E126E819A0000818A6E
:1002E000122EFBD7819C818E66EF00F00F014087B4
:1002F000000112000F0130B7FED7000100EE6EF0D2
:100300001FEE30F0EE50E66E7C0EE962FBD70F0177
:1003100030B7FED7308700011200816F81390F0B93
:10032000300F7E6F390E7E6502D0070E7E270F0ECE
:100330008115300F7F6F390E7F6502D0070E7F2742
:100340001200300E7C5F090E7C6502D0070E7C5FC8
:100350007C51826F823B300E7D5F090E7D6502D03D
:0A036000070E7D5F7D51821112002F
:020000040030CA
:0300010006061ED2
:020005008081F8
:060008000FC00FE00F40E5
:00000001FF
