:020000040000FA
:060000009CEF0CF0120061
:020006001200E6
:060008001CEF00F01200E5
:02000E000000F0
:0100100000EF
:020011000000ED
:0100130000EC
:0600180028EF0BF01200BE
:02001E000200DE
:1000200013000000FE0100000100000011000000AC
:08003000FC01000002000000C9
:08003800DACFE4FFE2CFDAFFAA
:10004000E9CFE4FFEACFE4FFF3CFE4FFF4CFE4FF2E
:10005000E65227DB030EE126F2A484D0F294830E4D
:10006000D66E0101FE71FE51E8B08082E8A0809258
:10007000FE51E8B08282E8A08292FE5173E1DF6A0D
:10008000020EDF5C6FE23FDBEF5064E028DB57DB02
:10009000F80BE842E842E842FEDA010EEFCFDBFF60
:1000A000DF500EE180961FDBE4DA04E0E8427F0BCC
:1000B000E706FCE1E8B08088E8B010D080980ED068
:1000C000DF040CE182940FDBD4DA04E0E8427F0B1A
:1000D000E706FCE1E8B08286E8A0829608DBEFCF75
:1000E0004CF0080E4C5C20E25ADB020EEFCFDBFF37
:1000F000DF500CE147DB04E0E8427F0BE706FCE160
:10010000E8B08080E8B00ED080900CD0DF040AE127
:1001100039DB04E0E8427F0BE706FCE1E8B08280CF
:10012000E8A08290E4DAEF2AE2DAEF50080818E15A
:10013000DADAEF2ADCDAEF6A32DBEF5006E0D3DA04
:10014000EFCF4EF0380E4E5C0BE3CDDAEF6ADBDA20
:10015000EF6A06D0DF5001E18086DF0401E182848E
:10016000DF2A8ED7030EE15C02E2E16AE552AADAE9
:10017000E552E5CFF4FFE5CFF3FFE5CFEAFFE5CFAA
:10018000E9FFE5CFDAFF1100929092929296929851
:10019000949094929494949680868098809082848F
:1001A0008296829012007DDAE652DF6A020EDF5CF0
:1001B00001E3DDD094DAEF6A8EDA390EBDDA010E92
:1001C00035DA1D0EB9DA020E31DA500EB5DA030E49
:1001D0002DDA6C0EEF6E1FDAEF500F0B700FE66E1C
:1001E0007ADA040E23DA73DA76DA050E1FDA380EBD
:1001F000A3DA060E1BDA0C0E9FDA070E17DA010ED1
:10020000BEDA010E13DAFC0E97DA080E0FDA060ECC
:1002100093DA090E0BDA020E8FDA0A0E07DA430EB2
:100220008BDA0B0EB4DA0C0E01DA700E85DA0D0ED5
:10023000FDD9790E81DA0E0EAEDA0F0EF7D9690EFE
:100240009EDA020EF3D9F70E77DA100EEFD9670EA9
:1002500073DA110EEBD9680E6FDA120EE7D9740E4D
:100260006BDA130EE3D9900E67DA140EDFD9520E53
:1002700063DA150E8CDA160ED9D9620E5DDA170E16
:10028000D5D9200E7CDA030ED1D9EF6824DA180E06
:10029000CDD9560E51DA190EC9D9650E4DDA1A0E9E
:1002A0007ADA1B0EC3D9730E47DA1C0EBFD96C0E57
:1002B00043DA1D0EBBD9750E3FDA1E0EB7D9690E93
:1002C0003BDA1F0EB3D9730E5ADA040EAFD9FE0E05
:1002D00033DA200EABD9A00E2FDA210EA7D9520E99
:1002E0002BDA220E54DA230EA1D9630E25DA240E5E
:1002F00052DA250E9BD9610E1FDA260E97D9690EA8
:100300001BDA270E93D96C0E3ADA050E8FD9EF68F7
:10031000E2D9280E8BD92E0E0FDA290E87D96E0E50
:100320000BDA2A0E83D9650E07DA2B0E7FD9740EED
:1003300003DA2C0E7BD92C0EFFD92D0E77D94D0E5A
:10034000FBD92E0E73D9450EF7D92F0E6FD9520E49
:1003500016DA060E6BD9010EEFD9300E67D9470EAB
:10036000EBD9310E63D9EF6A01DADF2A1FD7E552E4
:10037000E552E7CFD9FF120012001200120091D906
:10038000020EE126DF6A020EDF5C15E2BCD9EF6ADD
:100390000ADA010EDB6A070E8ED903E2A0D9B7D9BB
:1003A000FAD7010EDB6A380E86D903E294D9AFD9A9
:1003B000FAD7DF2AE8D7E8DE020EE15C02E2E16A62
:1003C000E55262EF03F06DD9180EE126FC0EDB500A
:1003D000030BDF6EDF6A020EDF5C01E315D11BD970
:1003E000EE52EECF48F0EFCF49F0FD0EDB5048184B
:1003F00001E008D1FE0EDB50491801E003D1FC0EEC
:10040000DB380F0BE76E010EE7CFDBFFDB50040D8F
:10041000F3501BD9020EE7CFDBFF61D9020EDB5090
:1004200009D9030EEFCFDBFF010EDB5005E153D9F5
:10043000010EA5D9FE0EEF6EFB0EDB507C081CE111
:10044000FFD834D9040EE7CFDBFF0AD9FED8050E5A
:100450006DD9060E00D9060EDB5002E006D9FEE18A
:1004600080D9050E4CD9EF16040EDB50800FE66ED6
:1004700032D9F6D858D915D0F3D8E7D8070E56D9BF
:10048000080EE9D8080EDB5002E0EFD8FEE173D980
:10049000070E35D9EF121FD9E3D8CCD8FB0EDBCF2E
:1004A000EFFFFA0EDB507C081BE1DAD8FFD8090E0B
:1004B00022D9020FCAD80A0E1ED9020F070BE76E07
:1004C0000B0EC9D80B0EDB5002E0CFD8FEE149D9A4
:1004D0000A0E15D9EF16090E39D9020F24D917D0F3
:1004E000AFD8020FB2D80C0E06D9020F070BE76E79
:1004F0000D0EB1D80D0EDB5002E0B7D8FEE13BD9AE
:100500000C0E2AD9020F96D8FA0EDBCFEFFFF90EA8
:10051000DB507C081CE194D8020FC8D80E0EEBD833
:10052000030F93D80F0EE7D8030F070BE76E100EDB
:1005300092D8100EDB5002E098D8FEE112D90F0ECF
:10054000DED8EF160E0E02D9030FEDD817D078D8EB
:10055000030F7BD8110ECFD8030F070BE76E120ED7
:100560007AD8120EDB5002E080D8FEE104D9110ED9
:10057000F3D8030F5FD8F90EDBCFEFFFF80EDB5097
:100580007C081CE15DD8030F91D8130EB4D8040F7A
:100590005CD8140EB0D8040F070BE76E150E5BD8AD
:1005A000150EDB5002E061D8FEE1DBD8140EA7D8AF
:1005B000EF16130ECBD8040FB6D817D041D8040FBE
:1005C00044D8160E98D8040F070BE76E170E43D8C1
:1005D000170EDB5002E049D8FEE1CDD8160EBCD88C
:1005E000040F28D8F80EDBCFEFFFFB0EDB5009E03D
:1005F000FA0EDB5006E0F90EDB5003E0F80EDB509C
:1006000001E1B4D8DF2AE7D6180EE15C02E2E16A24
:10061000E55262EF03F0DF50450DF3CFE9FFF4CF71
:10062000EAFF600EE926000EEA221200E926000E1B
:10063000EA221200E924E96E000EEA20EA6E1200B6
:10064000010EDB50040DF3501200F80BE842E842B3
:10065000E842E76E1200E7CFDBFF010EF36E1200F7
:10066000010EDB50040DF3281200D890F336E80693
:100670001200EF50070B4C6E010EDB504CC0E7FF31
:10068000E7521200EF504D5C4C6E020EDB504CC036
:10069000E7FFE75212004C24E96E000E4D20EA6E8F
:1006A0001200D9CFE6FFE1CFD9FF1200F00BE83AF4
:1006B000100FE76E1200F36E010EDBCFF4FFF35064
:1006C000F45C1200E16EE552E7CFD9FF1200E5526B
:1006D000E750EF6E12009FDF0D0E16EF03F09BDF69
:1006E000060E16EF03F097DF040E16EF03F093DF0C
:1006F000050E16EF03F0E7CFDBFF20EF03F0DB5032
:1007000099DF4A50120087DF030E16EF03F0E9CF9E
:1007100048F0EACF49F0010EDB500F018BDFEF6AA2
:10072000010EDB2A120086DF67EF03F0E7CFDBFF65
:1007300097DF070BE76E1200EF6E6BEF03F0E9CF68
:100740004CF0EACF4DF0CFDFEF501200DB50800FBE
:10075000E66EC1DF20EF03F0D2DFEF12BCDF20EF47
:1007600003F0F350F31C4A6E6FEF03F01CD8CBDF9D
:10077000010EEF6E1200F3504A6E6FEF03F0EF6E52
:100780006FEF03F0070E4D6EB2DF42EF03F04EDF66
:100790006F0E9CEF03F04ADF720E9CEF03F09BDFBD
:1007A000CEDF4BEF03F09FDFEF6AA1DFEF6A1200AD
:1007B000D9CFE6FFE1CFD9FF040EE126DE52010ECC
:1007C000DD6E020EDB6AD1EC09F01C6A1D6A246A38
:1007D000256A1F6A206A010EFCD81B6EADD8BFECDB
:1007E00001F086D8020EF5D8176E186A186E176ACF
:1007F000030EEFD8486E496AE85017264950182270
:100800001750181005E00001171C05E1181C03E142
:10081000080E176E186A040EDCD8196EE85003E053
:10082000FF0E195C02E11750196EB9D8B2EC09F04D
:10083000D3EC00F0818A030EDB6A010EDB7048EC1A
:1008400005F000090AE1818C140E1C6EBBEC06F069
:10085000E76E030EE7CFDBFFF2D7245012E0010E64
:10086000DB500FE02550E66EE66A94EC08F0E552A6
:10087000E552000906E0252A020E255C02E3256AFE
:10088000246A29EC06F0B0EC0AF0000909E0020E37
:10089000DB5006E1010EF36E020EF3CFDBFFCBD788
:1008A000B0EC0AF00009C7E1020EDB50C4E0020E12
:1008B000DB6A1F5002E01F6ABED70101520EF16FC2
:1008C00018C0F3F117C048F018C049F00001496A98
:1008D00017C0F4F10101020EF26FF00EE66E010E88
:1008E000E66E6EEC05F0E552E552010E1F6EA3D7E1
:1008F000060E266EF40E356E010E366E320E396E11
:100900003A6A040E3B6E3C6AD56AD596D590D5926C
:10091000D584D58CD76A830ED66ED58EF28AF184B3
:10092000200ECA6ECA84CA90CA82CC6A320ECB6EBE
:100930009D82F28C9F921200D9CFE6FFE1CFD9FFC2
:10094000020EE126DE6ADD6AF26AA66AA56AA26A7A
:100950009F6AA36AA386A06A9D6AF06AF16AF26A36
:10096000A46AA16A9E6A48EC05F0000906E1FAC192
:10097000E9FFFBC1EAFFEF6AF6D7D08EF28EF28C68
:10098000F28EE66A38EC0AF0E552020EE15C02E211
:10099000E16AE552E16EE552E7CFD9FF1200276A1E
:1009A0001DD8B009286E070E1914200DF350296EBA
:1009B00015D870090F01416F070E1914200DF3CFE0
:1009C00042FF010E456F020E466FF28EF28CF5EF7C
:1009D00004F0E66E39EC09F0E5521200780E1914B5
:1009E000E840E840E8401F0B1200ADD9020EE126B6
:1009F000DE6ADD6A800E6F6E6EAEFED7B00E776E69
:100A00000D01F86B606A030E706E9E0E716E030E20
:100A1000726E200E736E010ED46FD56BD86B0F0102
:100A2000186B080E196F1A6B1B6B1C6B1D6F1E6BFE
:100A30001F6B800E016F0D01E06BE16BE26BE36BEE
:100A4000E46BE56BE66BE76BF06BF16BF26BF36BF2
:100A5000FA6BFC6B606A0F01506B0E01206B306B00
:100A6000406B506B606B706B6F6ADE6ADD6A4ED9EB
:100A700001E66ED907E234D9EF6ADF2A010EF7E307
:100A8000DB2AF5D7020EE15C02E2E16AE55256D1BB
:100A9000070E6F14010A07E0010A0BE10101600E65
:100AA000FA6F0F0E04D00101500EFA6F0F0EFB6F9C
:100AB0000CD0020E6F5C070B100DF3500101FA6FA2
:100AC000FB6B200EFA270E0EFB23FAC1E9FFFBC1D8
:100AD000EAFFEF50800B01E0000C010C34D9040E4A
:100AE000E126DE6ADD6A020EDB6A030EDB6ADE6A7D
:100AF000DD6A0CD901E62CD93FE2F2D8EF5037E19C
:100B000010D9E66EEDD8EE52E552E750EF6E05D9FA
:100B1000EF50E66EE5D8020E2AD9E552E750EF6EA7
:100B2000020EDB6A030EDB6A020EDBCF48F0030E17
:100B3000DBCF49F0D890495004E6070E485C000E20
:100B4000495811E2DFD8F1D8EF50E66EC9D8030E4C
:100B50000ED9EBD8E552E750EF6E020EDB2A030EFA
:100B6000E3E3DB2AE1D7BCD8010EEF6E06D0DF2A23
:100B7000010EBFE3DB2ABDD7000E486E040EE15C18
:100B800002E2E16AE552E16E4850E552E7CFD9FF53
:100B90001200D9D8040EE126C0D8EF282C6E0F0E13
:100BA0002816B00E2812BDD82D6EACD8EF502E6E80
:100BB000A9D8010ED2D82F6EA5D8020ECED8306E8D
:100BC000A1D8030ECAD8316E9DD8040EC6D8326E95
:100BD00099D8050EC2D8336E95D8060EBED8346E9D
:100BE0000A0E1A6E818C140E1C6EDF6AD950010F2A
:100BF000E96EDACFEAFF300EEE6E0F0EED6E030EE9
:100C0000DB6A0E0EF36E030EDBCFF4FFF350F45CE1
:100C100018E2DF50DF2AEA6A270FE96E000EEA22A7
:100C2000EF50E66E010EDBCFE9FFDB2A020EDBCFD1
:100C3000EAFF01E3DB2AE552E750EF6E030EDB2A01
:100C4000E0D70F013087040EE15C02E2E16AE55271
:100C500075D079D8020EE1260F0130B73BD0DE6A9D
:100C6000DD6A54D801E674D80BE23AD8EF50020896
:100C700002E136D8EF6ADF2A010EF3E3DB2AF1D76F
:100C8000DE6ADD6A43D801E663D824E229D8EF049E
:100C90001CE126D8020EEF6EDECF48F0DDCF49F022
:100CA0000A0E4902F3CF49F04802F3CF48F0F4505E
:100CB0004926000E4826010E492248C0E6FF49C0D9
:100CC000E6FF67DFE552E55205D0DF2A010EDAE3E1
:100CD000DB2AD8D7020EE15C02E2E16AE5522ED0AF
:100CE000DECFE9FFDDCFEAFF0A0EEA02F3CFEAFF2B
:100CF000E902F3CFE9FFF450EA26000EE926010EDF
:100D0000EA2212002DD8030EB7EF06F0DECF48F02E
:100D1000DDCF49F0D8904950120022D8020EB7EF2B
:100D200006F01ED8EE52EF501200020EDB50E924FE
:100D3000E96E030EDB50EA20EA6E1200E16EE55226
:100D4000E7CFD9FF1200D9CFE6FFE1CFD9FF1200DC
:100D5000180E485C000E4958120009D8EF501200D6
:100D6000FD0EDBCFE9FFFE0EDBCFEAFF1200E92626
:060D7000000EEA22120051
:0A0D76005EDA050EE126DF6A11DAED
:100D8000060EEB50570A01E181D1850A01E13ED1FF
:100D9000860A01E136D1070A01E12ED1C50A01E137
:100DA000F5D0E70A01E1B7D0870A01E186D0E60A6B
:100DB0004BE0520A2BE0310A1CE07E0A01E06BD1C5
:100DC0000101B60EE6D902E019DAFEE13CDAF80ECE
:100DD000F66E180EF76E0800F5CFF5F1FA0EF66E06
:100DE000180EF76E0800F5CFF6F11BC0F7F1050EEF
:100DF000C9D013DA010EF31801E04DD1495001E0DA
:100E00004AD133DAE66EE66A56D93DD11F5001E188
:100E100042D11FDA466E080EEB50476E4650496AC3
:100E200046C049F0486A475000014824176E000E3A
:100E30004620186E4650E66E020EE5D94750E66E23
:100E4000030EE1D91F6A27D11F5001E124D101010E
:100E5000EF0EF16FF80EF66E180EF76E0800F5CF74
:100E6000F3F1F90EF66E180EF76E0800F5CFF4F1F7
:100E7000FA0EF66E180EF76E0800F5CFF5F1FB0EC0
:100E8000F66E180EF76E0800F5CFF6F1FC0EF66E52
:100E9000180EF76E0800F5CFF7F1FD0EF66E180E7E
:100EA000F76E0800F5CFF8F1FE0EF66E180EF76E2D
:100EB0000800F5CFF9F1070E65D0CBD94B6A4B6E20
:100EC0004A6A080EEB5000014A24486E000E4B207F
:100ED000496E010E48C0DBFF020E49C0DBFF0D0E5C
:100EE000EB50E66E0C0EEB50E66E0B0EEB50E66E22
:100EF0000A0EEB50E66E090EEB50E66E010EDBCFEC
:100F0000E6FF020EDBCFE6FFE3EC01F0486E070ED2
:100F1000E15E4850C0D07DD901E1BDD0A6D9E76ED1
:100F2000030EE7CFDBFFDB0408E197D902E066D9C7
:100F3000FEE155D91BC0F6F124D0030EDB500208A8
:100F400008E18BD902E05AD9FEE149D919C0F6F17E
:100F500018D0030EDB50030808E17FD902E04ED918
:100F6000FEE13DD960C0F6F10CD0030EDB50040861
:100F700001E091D072D902E041D9FEE130D9A5C09B
:100F8000F6F1040E31D9010EDF6E85D046D9F3504B
:100F9000F41001E180D069D9E76E040EE7CFDBFFE2
:100FA000DB0406E15ED91B6EE850E66E010E13D03D
:100FB000040EDB50020806E154D9196EE850E66EC3
:100FC000040E09D0040EDB50030809E14AD90001E0
:100FD000606FE66E090EE66E42EC09F054D0040E26
:100FE000DB50040858E13DD90001A56FE66E0A0EFA
:100FF0000AD9D3EC00F04FD00CD94DE0010E206E91
:101000004AD007D948E0206A819E45D0205043E06D
:1010100020D9496A496E486A080EEB5000014824FD
:10102000426E000E4920436E090EEB50496A496E2C
:10103000486A0A0EEB504824446E000E4920456E63
:101040000B0EEB50406E0C0EEB50416E020E405CEE
:1010500022E24050450DF3CFE9FFF4CFEAFF600EE6
:10106000E926000EEA22EE5244C0EEFF45C0EDFF35
:1010700044C0E6FF45C0E6FF40504024050FE66E41
:1010800092EC09F0E552E552E55205D0C2D803E0F2
:10109000010E246E256A85D8EF6A165002E0166AA2
:1010A000A380DF50486E050EE15C02E2E16AE55282
:1010B000E16E4850C4D0BED8B6D8080E485C000EC9
:1010C00049581BE201019B0E64D802E097D8FEE16B
:1010D000BAD8FD0EDBCFF5F1DBCFF6FFFE0EDBCF8E
:1010E000F7FFF606000EF75AF80EF626180EF7224E
:1010F0000800F5CFF6F1040E77D8A1D0AAD84B6E30
:101100004A6A080EEB504A24486E000E4B20496E86
:101110001750481806E11850491803E1010EF36E04
:1011200001D0F36AF46A120085D8245030E07BD8ED
:10113000D890495004E6020E485C000E495827E258
:101140000101F20E26D802E059D8FEE17CD818C081
:10115000F5F10001496A17C0F6F128D849C0F7F146
:1011600025D80D6A010E0E6E48C008F049C009F07E
:10117000C4EC0BF004C048F005C049F004C0F8F11D
:10118000FD0EDBCFF9F10101070E2ED801D0000EC4
:1011900056D0F16F17C048F018C049F0080E0F0B79
:1011A0001200FAC1E9FFFBC1EAFF1200FD0EDBCF1E
:1011B000E9FFFE0EDBCFEAFF450EEA02F3CFEAFFBE
:1011C000E902F3CFE9FFF450EA26600EE926000EAB
:1011D000EA22EE52EECF48F0EFCF49F0120033D8BA
:1011E000030EDBCFF5F11200F26FF00EE66E010E8A
:1011F000E66E6EEC05F0E552E5521200D8904932E9
:101200004832E8061200E66E42EC09F0E552E5527B
:10121000120074DFF350F410120070DFF3CF48F0C7
:10122000F4CF49F01200FD0EDBCF48F0FE0EDBCF0D
:1012300049F01200D9CFE6FFE1CFD9FF1200E55205
:10124000E7CFD9FF120048500101F36F1750F46F38
:101250001200A7DF070EEB5012000101970EC9EF35
:1012600008F09FDF0A0EEB5012009BDF090EEB50D7
:0212700012006A
:0E127200EED8FE0EDB50A96EA69EA69CA680AE
:10128000A850EBD0E5D8F29EA69EA69CA684FE0EA2
:10129000DB50A96EFD0EDB50A86E550EA76EAA0E90
:1012A000A76EA682A1A8FED7A198F28ED6D0D0D8DC
:1012B000030EE126FE0EDB50DF6EDF50DF2AE66E06
:1012C000D8DFE552E66ED950010FE96EDACFEAFFBA
:1012D000E552E750EE6EED6ADFCFE6FFCADFE5527A
:1012E0004A6E4B6E4A6A010EDB504A10486E020E7F
:1012F000DB504B10496E010E48C0DBFF020E49C0A7
:10130000DBFF010EDBCF48F0020EDBCF49F048C017
:10131000F3FF49C0F4FF030EE15C02E2E16AE5522B
:10132000E16E9BD095D8E652FE0EDB50DF6EFC0ED0
:10133000DBCFE6FFDF50DF2AE66EA4DFE552E552A1
:10134000FC0EDBCF48F0FD0EDBCF49F049C048F082
:10135000496A4850E66EDFCFE6FF94DFE552E5527A
:10136000E5527BD075D8020EE126DF6A0A0EDF5CFB
:1013700011E2010EDB6ADB50486E496A493404E22F
:101380004850F508000E495403E3010EDB2AF3D759
:10139000DF2AECD7020EE15C02E2E16AE552E16E7F
:1013A0005CD056D8E652DF6A640EDF5C03E2DADF17
:1013B000DF2AFAD7E55251D04BD8030EE126DF6A77
:1013C000FC0EDB50DF5C35E2DF503AD8400B04E026
:1013D000DF5036D8C90F03D0DF5032D8D00FE76EB8
:1013E000010EE7CFDBFFDF282BD8400B04E0DF281E
:1013F00027D8C90F03D0DF2823D8D00FE76E020EFD
:10140000E7CFDBFFDBCFE6FF010EDB38F00BE55269
:10141000E724E66EDF50FE0BE842E76EFA0EDBCF04
:10142000E9FFFB0E1ED8E552E750EF6E020EDF26F5
:10143000C7D7030EE15C02E2E16AE552E16E0DD02E
:10144000E76EFD0EDBCFE9FFFE0E0BD8EF5012006A
:10145000D9CFE6FFE1CFD9FF1200E552E7CFD9FFA0
:101460001200DBCFEAFFE750E926000EEA22120065
:10147000D9D8C26A0F0EC16E939C939E939A9284A0
:10148000819C819E819A6CD8000906E1E66A39EC5C
:1014900009F0E552FF082DE1E66AE66AD0D8010EB0
:1014A0001B6EE850E66E010EE66EC9D8DE6ADD6A94
:1014B000CBD804E6020E485C000E49581AE2ADD8BB
:1014C000010E4826000E492248C0E6FF49C0E6FF4B
:1014D00093D892EC09F0E552E552E552090EE66E1A
:1014E0009CD84824E66EABD8DF2A010EE1E3DB2A64
:1014F000DFD7DE6ADD6AA8D804E6020E485C000E7B
:1015000049581FE28AD8090E4824E66E39EC09F0E2
:10151000E552E66E5FD8E552E750EF6E6DD857ECB6
:1015200009F0E552F3CF48F0F4CF49F053D8EE522A
:1015300048C0EEFF49C0EDFFDF2A010EDCE3DB2AE5
:10154000DAD7020EE15C02E2E16AE552E16E73D0A5
:101550001C50000804E21C061C5001E1819C120092
:10156000D9CFE6FFE1CFD9FFE6528050040B01E06E
:10157000010EDF6EDF5002E0000E01D0010EE552D9
:101580005AD0D9CFE6FF000E56D04CD8DE6ADD6ABD
:101590005BD804E6040E485C000E495805E2DF2AD9
:1015A000010EF6E3DB2AF4D7020EE15C02E2E16A07
:1015B000E552E16E40D01F5002E1205008E00101E9
:1015C000FC51E8B0818EE8A0819EFC711200819EE2
:1015D00012001200DECFE9FFDDCFEAFF450EEA027E
:1015E000F3CFEAFFE902F3CFE9FFF450EA26600EF9
:1015F000E926000EEA221200020E086E096ADECF0A
:101600000DF0DDCF0EF0EAEC0BF006C04AF007C09B
:101610004BF0050E0624E66E1200DECF48F0DDCF5B
:1016200049F01200D9CFE6FFE1CFD9FF020EE12643
:10163000DE6ADD6A1200E552E7CFD9FF120042EC04
:1016400009F0E552E5521200E8DFD8904950120047
:10165000D8CFE4FFE0CFE4FFE46EDACFE4FFE2CFDF
:10166000DAFFE9CFE4FFEACFE4FFF6CFE4FFF7CFFC
:10167000E4FFF5CFE4FFF3CFE4FFF4CFE4FFFACFCC
:10168000E4FF00EE00F0140EE80403E3EECFE4FF05
:10169000FBD700EE48F0040EE80403E3EECFE4FFCE
:1016A000FBD7E6529EA230D09E92CC6A3B06000E3B
:1016B0003C5A3B503C1005E1050E3B6E3C6AA8ECE1
:1016C0000AF03906000E3A5A39503A1006E1320E45
:1016D000396E3A6A145001E014063706000E385A83
:1016E0003750381005E1C80E376E386AE9EC0AF059
:1016F0003506000E365A3550361006E1F40E356EBA
:10170000010E366EDBEC0AF0A4AA15D0A49A0F01E4
:1017100030AB0CD01A5004E1010E156E309706D094
:101720001A0604E130973F0E2816308730A903D0FF
:10173000010E156E3097E55200EE4BF0040EE804F2
:1017400003E3E5CFEDFFFBD700EE13F0140EE80442
:1017500003E3E5CFEDFFFBD7E5CFFAFFE5CFF4FFDD
:10176000E5CFF3FFE5CFF5FFE5CFF7FFE5CFF6FFD8
:10177000E5CFEAFFE5CFE9FFE5CFDAFFE550E5CFBA
:08178000E0FFE5CFD8FF1000E7
:08178800006A0EAECDEF0BF07C
:101790000D6C0E1EE86A0E22001E09AED5EF0BF08E
:1017A000086C091EE86A0922001E66EC0CF009BEEE
:1017B000E5EF0BF000AE000C086C091EE86A092288
:1017C000046C051EE86A0522000C00BEDCEF0BF07D
:1017D0000188FF0C09C013F008C012F008500D0278
:1017E000F4CF07F0F3CF06F009500E02F4CF09F062
:1017F000F3CF08F00D02F3500726F4500822E86AF0
:10180000092212500E02F3500726F4500822E86A0B
:1018100009220EAE10EF0CF01250085E1350095A58
:0E18200013AE000C0D50085E0E50095A000C5D
:02182E001E0E8C
:10183000F66E000EF76E000EF86E00010900F5500E
:10184000EF6F0900F550F06F03E1EF6701D03DD075
:101850000900F550EA6F0900F550EB6F0900F550EB
:10186000EC6F09000900F550E96E0900F550EA6EC9
:10187000090009000900F550ED6F0900F550EE6F01
:1018800009000900F6CFF1F0F7CFF2F0F8CFF3F04E
:10189000EAC0F6FFEBC0F7FFECC0F8FF0001ED5324
:1018A00002E1EE5307E00900F550EE6EED07F8E2B5
:1018B000EE07F9D7F1C0F6FFF2C0F7FFF3C0F8FF6B
:0C18C0000001EF07000EF05BBFD7120024
:0418CC00056A046A3B
:1018D000100EE76ED89008360936043605360D50DE
:1018E000045C0E50055805E30D50045E0E50055A79
:0818F000082AE72EF0D71200D0
:0818F800466108020002010034
:1019000000000000000000000000000000000000D7
:081910000000000000000000CF
:08191800000EF36E00EE00F07A
:10192000030E01D81200EA6002D0EE6AFCD7F35031
:08193000E9601200EE6AFCD729
:0819380012EE00F022EE00F0B7
:10194000F86A019C17EC0CF003EC00F0D8EC03F003
:04195000FBD71200AF
:020000040030CA
:0100010006F8
:0100020016E7
:0100030010EC
:0100050000FA
:010006008178
:010008000FE8
:01000900C036
:01000A000FE6
:01000B00E014
:01000C000FE4
:01000D0040B2
:00000001FF
