:1000000000008A15A12D7029F000030E831203133E
:10001000A0000A08A1008A010408A2008C1CB428D0
:100020008C10361D5328B61A1D28361B5328B61BB4
:10003000532847185328361E53288A014A08820736
:100040002A283C283C283C283C283C283C283C28A2
:100050003C2843288B1836288614903038078400B3
:1000600083170008C800B616CA0A53280E30440287
:1000700003185328C40A5328C80C031C86140318F9
:100080008610CA0A53288610CA01361B4E28FA3039
:10009000C3003617B6123611C7155328B80A3808E8
:1000A000603A0319B801C3080319AD28C30BAD2882
:1000B000471C6028471086101430C3003617AD283F
:1000C000361FA82836134408A3000310A30DA30D60
:1000D0008A01230882071430C3000000A6281330C9
:1000E000C3000000A6281230C3000000A62811306B
:1000F000C3000000A6281030C3000000A6280F305F
:10010000C3000000A6280E30C3000000A6280D3052
:10011000C3000000A6280C30C3000000A6280B3046
:10012000C3000000A6280A30C3000000A62809303A
:10013000C3000000A6280830C3000000A62807302E
:10014000C3000000A6280630C3000000B617AD2883
:10015000B61FAD28B613361A851506184715B50B08
:10016000B428A730B50036140B1EC9288B1CC9282B
:100170000B12C13081000B118B161430C3003617DF
:10018000B61FC928B613361DC9280E304402031CF9
:10019000C40A8B1E34290B1D34294E3081070B11E4
:1001A0008A014B088207DD28E628E628E628E628AB
:1001B000E628E628E628E628F928061830298511D9
:1001C0001430C3000130C600CB0A3429B61EEC2817
:1001D0008618EC28061C232903100618031403189C
:1001E000F5281430C300C60AF628C601C90CCB0A8C
:1001F0003429061C1C29C71C0329C7100E304602CF
:10020000031C14292B29C01B09295F304002031845
:10021000142910303B078400831749088000BB0A6B
:100220003B08603A0319BB01B61E3029BD0B3029CB
:10023000C401B61236113029B61A2329C714143056
:10024000C300C60A342986141030C3004714B612FE
:100250003611C715CA01CC0F3029CD0A0319CE0AB1
:100260008B128B100B16CB01B61D48290C1E48298A
:1002700005194829103039078400831700089900B0
:10028000B90A3908603A0319B901BE030319B61156
:100290008C1E6729981C4F29181218166729181DDB
:1002A00056291A08031D6729B6146729BF1B5C2944
:1002B0005F303F020318672990303A0784008317A4
:1002C0001A088000BA0A3A08603A0319BA012208EB
:1002D000840021088A00200E8300F00E700E0900B1
:1002E0008312031378298A15A0258A118312031318
:1002F00083160323252333238B1712153619C5299B
:10030000C71D8529C7113C08B80038083A02A40067
:10031000A41F8C296030A4072408BF00A408031977
:10032000C529A41B99294D302402031C9929851441
:100330009F29A41B9E2948302402031C851090305D
:10034000380784008317801FC2299030A500380821
:10035000A6002408A70060306322BD003D080319F1
:10036000C529FF3A031DB6295822C5299030380700
:10037000840083170008813A031947163808BC0027
:100380003615C5295822A40B9F29B619002A390809
:100390003B02A400A41FCE296030A4072408C0009B
:1003A000A4080319002A1030390784008317801F1E
:1003B000FD291030A5003908A6002408A7006030E8
:1003C0006322BE003E080319002AFF3A031DEF29ED
:1003D0004D22CF0F002AD00F002AD10A002A103058
:1003E0003907840083170008813A031DFB29471E43
:1003F000FB294712CE22B615002A4D22A40BD32981
:10040000B61C1A2AB6108B13861083132030840072
:100410008001841780018413840A841F082A831BA7
:10042000142A83171030072A36168B128B100B16DE
:100430008B178510361C7E2936104719322A361E36
:100440003B2AC10A41080A3A031D3B2A36128B1285
:100450000B128515CB01CC0F302ACD0A0319CE0A19
:10046000C7103B2A4711C101361A3B2AC208031D97
:100470003B2A0130C200C20803197E29C20A420881
:100480001A3A031D7E29C2018B1336168B128B106C
:1004900085150B168B1785107E29103039078400BF
:1004A00083178001B90A3908603A0319B9010800B5
:1004B00090303807840083178001B80A3808603A02
:1004C0000319B8010800A80026082507840083172F
:1004D0000008AB002B1F8A2AAB1E872A27030319AB
:1004E000912A2608AA00AA0A2A0828060319AA019E
:1004F0002A082507840083170008A9000430290270
:10050000031C862A31302902031C912AFF3406304D
:10051000A900912AAB1E8F2A0430A900912A02302B
:10052000A900AA0126082507840083170008AA0647
:10053000A60A260828060319A6012903AB00AB0862
:100540000319BB2AA703A71BA72AA708031900346E
:100550002608250784008317801BFF3426082507FB
:10056000840083170008AA06A60A2608280603198D
:10057000A601AB039F2A2A0FBF2A29080800FF34CF
:10058000A60010303B078400831726088000C506AC
:10059000BB0A3B08603A0319BB010800C501E530FE
:1005A000C0221030C0225030C0225030C022013052
:1005B000C022A501D11BA514D01B2515CF1BA51545
:1005C0002508C0222030C0227F305105C0227F3054
:1005D0005005C0227F304F05C022A501CE1BA514B7
:1005E000CD1B2515CC1BA5152508C0224030C022E7
:1005F0007F304E05C0227F304D05C0227F304C0534
:10060000C0224509C02A831320308400800184174A
:1006100080018413840A841F062B831B122B8317EB
:100620001030052B9B010A3083128500F5308316AC
:100630008500203083128600DD308316860081130A
:1006400001138B100B120B170800181519309900A5
:1006500018128312981783160C128C128312181614
:1006600083169816080081126400F03081054E3020
:10067000831281008B127130920091010530831634
:10068000920083128C1083168C14A7308312B5004D
:02069000080060
:101B4000A02D60278A110A12032800000400080053
:101B5000AD012C082D020318B62D6E308F000C102D
:101B600010140C1CB12D1010AD0AA92D0800AB01EA
:101B70002A082B020318C62D85110230AC00A825B7
:101B800085150830AC00A825AB0AB82D2830AC006C
:101B9000A825B72D8313203084008001841780018D
:101BA0008413840A841FCD2D831BD92D83171030F5
:101BB000CC2D83178501F5308316850020308312E4
:101BC0008600DD308316860018151930990018122A
:101BD0008312981718163030900008008C1EEE2DD6
:101BE000981CF52D18121816EE2D181DF92D1A082F
:101BF000EE2D1A080800EE25E53A031D342EEE25D9
:101C0000103A031D342EEE257F3A031D342EEE25A7
:101C10007F3A031D342EEE257F3A031D342E90307B
:101C2000840085110230AB00EE25AA008000840AF2
:101C3000AC0104302C020318262EEE258000031080
:101C4000AA0C03188017840AAC0A192EAB0B142EA9
:101C5000EE25851590308400001F342E831603175F
:101C60001508800003140800031008000330B300B7
:101C7000831603178C17203083120313B100213011
:101C80003002031C4A2E831603178C130430831270
:101C90000313B1002F0803178D0003133008031737
:101CA0008F0083160C158C1F5E2E0C1655308D0080
:101CB000AA308D008C14000000000C1283178C1FBA
:101CC000642EA0308400662E9030840083120313AB
:101CD000B201310832020318852E000803178C0068
:101CE000840A00088E00840A553083168D00AA30BD
:101CF0008D008C14000000008C1B802E8C187E2E12
:101D000083128D0A0313B20A692E831603170C116E
:101D1000831203132F0803178D00A03084000313D0
:101D20003414B201310832020318B32E831603179C
:101D30000C140000000083120C080006031DAC2EDA
:101D4000840A0E0800060319A92E83168C1BAC2EDC
:101D50008312840A8D0AB02E831203133410B32E1B
:101D60000313B20A922E341CB82EC71603140800AF
:101D7000B30B4A2E03100800831603178C17E030AC
:101D8000831203132F0503178D0003133008031765
:101D90008F00A03084000313B101203031020318FA
:101DA000E12E831603170C140000000083120C08A8
:101DB0008000840A0E088000840A8D0A0313B10A89
:101DC000CD2E08001F302F05B1000310B10DA0303B
:101DD0003107B3009130B400B1010830310203186B
:101DE000012F3108043A0319B40A340884000008AA
:101DF000B2003308840032088000B40AB30AB10A82
:101E0000ED2E031408002B08AD00E0302A05AC00CD
:101E100021302B020318592FAC08031D152F2D0854
:101E2000203A031D152F031408000D302B02031C4C
:101E3000212F031D1F2F81302A02031C212F031085
:101E400008002B08031D372F04302A020318372FF0
:101E5000A030AF000D30B000BC26A430AF000D3074
:101E6000B000E226A030AF000D30B000362EC71E05
:101E7000432F2C08D2002D08D3005208AF0053087E
:101E8000B000BC26C7122C085206031D502F2D0887
:101E90005306031D502F2A08AF002B08B000E22E76
:101EA0005208AF005308B00036260318082F03105D
:101EB00008002A08AF002B08B000362E03140800D3
:101EC00083120313A91083169B0181138312061A30
:101ED0000800CA25C7162914FB2583120313031C07
:101EE000EA2F90308400F03000050319812F103A5A
:101EF0000319C72F303A0319D22F603A0319E22F82
:101F0000EA2F840A0008573A0319892F0130AA00E2
:101F1000B725840A0008023A0319912F0130AA005C
:101F2000B725840A0008A500840A0008A600840AD0
:101F3000840A001CAC2F8018A52F2508093A031924
:101F4000AC2F0230AA00B725AC2F0A302502031CA3
:101F5000AC2F0230AA00B725A63003178D000D3034
:101F60008F0083168C170C1400000000001DC32F77
:101F700083120313260803170C02031CC32F03301C
:101F80000313AA00B72583120313A914EA2F840AA6
:101F9000840A0008A800840A0008A7000310A80CFF
:101FA000A70CEA2F2708AA002808AB000327031C68
:101FB000DE2F0430A7070318A80AEA2F0530AA006D
:101FC000B725EA2FC71AE92F5208AF005308B0000F
:101FD0003626291029186C2F900198018C01061EB5
:041FE000EF2F0800D7
:084000000200000004000000B2
:02400E00722F0F
:02401000FC3F73
:00000001FF
