:020000040000FA
:06000000F4EF0CF0120009
:020006001200E6
:0600080068EF07F0120092
:02000E000000F0
:0100100000EF
:020011000000ED
:0100130000EC
:06001800E3EF07F0120007
:02001E000300DD
:1000200013000000FE01000001000000041A00009F
:10003000600000003100000011000000FC01000021
:0400400002000000BA
:0C004400D9CFE6FFE1CFD9FF030EE12683
:10005000010EDF6EDB6AA3EC08F0086A096A0F6A1A
:100060000A6A106A116A0B6A0C6A010E1AD9076EC5
:10007000ACD8020E16D9036E046A046E036A030E2E
:1000800010D93D6E3E6AE85003263E5004220350CC
:10009000041005E00001031C05E1041C03E1700EDF
:1000A000036E046A060EFDD8056EE85003E0FF0EED
:1000B000055C02E10350056EDAD884EC08F008EC28
:1000C0000AF084EC08F0040EECD80D6E0E6A0E6E89
:1000D0000D6A050EE6D83D6E3E6AE8500D263E508C
:1000E0000E220D500E1005E000010D1C06E10E1C45
:1000F00004E1670E0D6E120E0E6E808A020EDB6A30
:10010000DF70B0EC01F000090AE18086140E086E81
:1001100023EC03F0E76E020EE7CFDBFFF2D70F50C0
:10012000E66E0A50E66EB2EC09F0E552E5520009BF
:1001300006E00A2A040E0A5C02E30A6A0F6ADF502C
:100140000FE01150E66EE66A00EC06F0E552E5526B
:10015000000906E0112A100E115C02E3116A106A10
:1001600091EC02F0A5EC09F0000907E0010EDB506C
:1001700004E1DE52010EDD6EC1D7A5EC09F00009E5
:10018000BDE1010EDB50BAE0010EDB6A0B5002E06C
:100190000B6AB4D70101520EF16F04C0F3F103C032
:1001A0003DF004C03EF000013E6A03C0F4F10101DD
:1001B000020EF26FF00EE66E010EE66ED6EC01F066
:1001C000E552E552010E0B6E99D7D9CFE6FFE1CF8C
:1001D000D9FF020EE126DE6ADD6AF26AA66AA56A26
:1001E000A26A9F6AA36AA386A06A9D6AF06AF16AFE
:1001F000F26AA46AA16A9E6A440ED56ED66AD76A6C
:10020000F28AD58EF184200ECA6ECA84CA90CA8240
:10021000CC6A960ECB6E9D82F28C9F82B0EC01F080
:10022000000906E1FAC1E9FFFBC1EAFFEF6AF6D770
:10023000060E126ED00E216E070E226EC80E236EB1
:10024000246A100E080E256E266AD08EF28EF28C6D
:10025000F28EE66AB7EC08F0E552020EE15C02E2CB
:10026000E16AE552E16EE552E7CFD9FF1200136A69
:100270001DD8B009146E070E0514200DF350156E2D
:1002800015D870090F01416F070E0514200DF3CF2B
:1002900042FF010E456F020E466FF28EF28C5DEF4B
:1002A00001F0E66E0BEC08F0E5521200780E051432
:1002B000E840E840E8401F0B1200ADD9020EE126ED
:1002C000DE6ADD6A800E6F6E6EAEFED7B00E776EA0
:1002D0000D01F86B606A070E706E9E0E716E030E54
:1002E000726E200E736E010ED46FD56BD86B0F013A
:1002F000186B080E196F1A6B1B6B1C6B1D6F1E6B36
:100300001F6B800E016F0D01E06BE16BE26BE36B25
:10031000E46BE56BE66BE76BF06BF16BF26BF36B29
:10032000FA6BFC6B606A0F01506B0E01206B306B37
:10033000406B506B606B706B6F6ADE6ADD6A4ED922
:1003400001E66ED907E234D9EF6ADF2A010EF7E33E
:10035000DB2AF5D7020EE15C02E2E16AE55256D1F2
:10036000070E6F14010A07E0010A0BE10101600E9C
:10037000FA6F0F0E04D00101500EFA6F0F0EFB6FD3
:100380000CD0020E6F5C070B100DF3500101FA6FD9
:10039000FB6B200EFA270E0EFB23FAC1E9FFFBC10F
:1003A000EAFFEF50800B01E0000C010C34D9040E81
:1003B000E126DE6ADD6A020EDB6A030EDB6ADE6AB4
:1003C000DD6A0CD901E62CD93FE2F2D8EF5037E1D3
:1003D00010D9E66EEDD8EE52E552E750EF6E05D932
:1003E000EF50E66EE5D8020E2AD9E552E750EF6EDF
:1003F000020EDB6A030EDB6A020EDBCF3DF0030E5A
:10040000DBCF3EF0D8903E5004E6070E3D5C000E78
:100410003E5811E2DFD8F1D8EF50E66EC9D8030E8E
:100420000ED9EBD8E552E750EF6E020EDB2A030E31
:10043000E3E3DB2AE1D7BCD8010EEF6E06D0DF2A5A
:10044000010EBFE3DB2ABDD7000E3D6E040EE15C5A
:1004500002E2E16AE552E16E3D50E552E7CFD9FF95
:100460001200D9D8040EE126C0D8EF28186E0F0E5E
:100470001416B00E1412BDD8196EACD8EF501A6E07
:10048000A9D8010ED2D81B6EA5D8020ECED81C6EEC
:10049000A1D8030ECAD81D6E9DD8040EC6D81E6EF4
:1004A00099D8050EC2D81F6E95D8060EBED8206EFC
:1004B0000A0E066E8086140E086EDF6AD950010F90
:1004C000E96EDACFEAFF300EEE6E0F0EED6E030E20
:1004D000DB6A0E0EF36E030EDBCFF4FFF350F45C19
:1004E00018E2DF50DF2AEA6A130FE96E000EEA22F3
:1004F000EF50E66E010EDBCFE9FFDB2A020EDBCF09
:10050000EAFF01E3DB2AE552E750EF6E030EDB2A38
:10051000E0D70F013087040EE15C02E2E16AE552A8
:1005200075D079D8020EE1260F0130B73BD0DE6AD4
:10053000DD6A54D801E674D80BE23AD8EF500208CD
:1005400002E136D8EF6ADF2A010EF3E3DB2AF1D7A6
:10055000DE6ADD6A43D801E663D824E229D8EF04D5
:100560001CE126D8020EEF6EDECF3DF0DDCF3EF06F
:100570000A0E3E02F3CF3EF03D02F3CF3DF0F450C1
:100580003E26000E3D26010E3E223DC0E6FF3EC047
:10059000E6FF67DFE552E55205D0DF2A010EDAE318
:1005A000DB2AD8D7020EE15C02E2E16AE5522ED0E6
:1005B000DECFE9FFDDCFEAFF0A0EEA02F3CFEAFF62
:1005C000E902F3CFE9FFF450EA26000EE926010E16
:1005D000EA2212002DD8030E1FEF03F0DECF3DF00C
:1005E000DDCF3EF0D8903E50120022D8020E1FEF11
:1005F00003F01ED8EE52EF501200020EDB50E92439
:10060000E96E030EDB50EA20EA6E1200E16EE5525D
:10061000E7CFD9FF1200D9CFE6FFE1CFD9FF120013
:10062000180E3D5C000E3E58120009D8EF50120023
:10063000FD0EDBCFE9FFFE0EDBCFEAFF1200E9265D
:10064000000EEA2212001AEC07F0190EE126DF6A0A
:1006500023EC07F0060EEB50570A01E170D2850A31
:1006600001E1F3D1860A01E1EAD1070A01E1E1D112
:10067000C50A01E153D1E70A01E1F2D0790A01E1AB
:1006800071D2180A01E1B4D0520A01E18AD0310ACC
:1006900001E178D07E0A5DE09C0A3BE0080A39E07F
:1006A000090A1EE0080A1CE0020A01E05BD2CBDB6B
:1006B0003BDB010E3DC0DBFF020E3EC0DBFF010E47
:1006C000DB500D1801E04ED2020EDB500E1801E097
:1006D00049D20F5001E046D20A6A010E0F6E42D293
:1006E0001ADB030E3DC0DBFF040EDDDB050E3DC053
:1006F000DBFF060E3EC0DBFF010EE66E050EDBCF14
:10070000E6FF060EDBCFE6FF030EDBCFE6FF040EAF
:1007100017D001DB070E3DC0DBFF080EC4DB090E5E
:100720003DC0DBFF0A0E3EC0DBFFE66A090EDBCFF1
:10073000E6FF0A0EDBCFE6FF070EDBCFE6FF080E73
:10074000DBCFE6FF1EEC0AF03D6E050EE15E3D508C
:1007500009D20101B60ED7DA02E003DBFEE18DDB40
:10076000A80EF66E190EF76E0800F5CFF5F1AA0E79
:10077000F66E190EF76E0800F5CFF6F107C0F7F127
:10078000050EEDD14ADB010EF31801E0EBD13E502E
:1007900001E0E8D158DB090EEB50E66EE66AF2D9CB
:1007A000CBD10B5001E1DED18FDBE76E0B0EE7CF33
:1007B000DBFF080EEB50E76E0C0EE7CFDBFF0B0EF6
:1007C000DB503E6A3E6E3D6A0C0EDB5000013D245C
:1007D000036E000E3E20046E0B0EDBCFE6FF020E12
:1007E000D6DA0C0EDBCFE6FF030ED1DA0B6ABAD1F4
:1007F0000B5001E1B7D10101EF0EF16FA80EF66EBB
:10080000190EF76E0800F5CFF3F1A90EF66E190E6A
:10081000F76E0800F5CFF4F1AA0EF66E190EF76E1A
:100820000800F5CFF5F1AB0EF66E190EF76E080065
:10083000F5CFF6F1AC0EF66E190EF76E0800F5CF97
:10084000F7F1AD0EF66E190EF76E0800F5CFF8F160
:10085000AE0EF66E190EF76E0800F5CFF9F17ED1E7
:10086000C6DA01E17FD1CCDA0D0EE7CFDBFFDB0486
:1008700008E11DDB02E075DAFEE16EDA07C0F6F191
:100880004BD00D0EDB50020808E111DB02E069DA03
:10089000FEE162DA05C0F6F13FD00D0EDB50020832
:1008A00001E360D1130EF36E0D0EA5DA01E35AD108
:1008B0000D0EB9DA0E0EE7CFDBFF0D0EDB50FD0F8C
:1008C000030BE76E0F0EE7CFDBFFF1DA02E049DA48
:1008D000FEE142DA0F0EDB5004E10E0EDB50BCDA13
:1008E00018D00F0EDB0404E10E0EF7D9EE5212D031
:1008F0000F0EDB50020804E10E0EEFD9020E07D0F6
:100900000F0EDB50030808E10E0EE7D9030EE926AF
:10091000000EEA22EFCFF6F1040E21D17EDAF35079
:10092000F41001E11FD16CDA100EE7CFDBFFDB041E
:1009300006E1D7D9076EE850E66E010EFAD0100E28
:10094000DB50020806E1CDD9056EE850E66E060ED2
:10095000F0D0100EDB50020801E304D1130EF36E49
:10096000100E49DA01E3FED0100E5DDA110EE7CF6A
:10097000DBFF100EDB50FD0F030BE76E120EE7CF0F
:10098000DBFFDB5004E197DA99DA080FD2D0120EC0
:10099000DB0418E1A6D93D6E320E3D5C13E3A1D90C
:1009A0003E6E3F6A3F3404E23E50FA08000E3F5468
:1009B00009E381DAEE5282DA0C0FE9D9110E8DD9F2
:1009C000EE5220D0120EDB50020823E18AD93D6E90
:1009D000320E3D5C1EE385D93E6E3F6A3F3404E231
:1009E0003E50FA08000E3F5414E365DA020ED5D9E2
:1009F0002FDADB50100FCBD9110E6FD9020EE9267A
:100A0000000EEA22EF50E66E110E67D9050EC5D929
:100A1000A9D0120EDB50030801E0A4D062D964080B
:100A200001E2A0D048DA030EB8D912DADB50140F75
:100A300080D0DDD901E196D0010E0C6E93D0D7D9CC
:100A400001E190D00C6A80988DD00C5001E18AD0E1
:100A500062D9130E3DC0DBFF140E25DA150E3DC022
:100A6000DBFF160E3EC0DBFF0B0EEB50E76E170EE2
:100A7000E7CFDBFF0C0EEB50E76E180EE7CFDBFF86
:100A8000040EF36E170EB7D924E2170E26D9060E00
:100A9000E926000EEA22130EDBCFEEFF140EDBCFA9
:100AA000EDFF170E1AD9080E86D9130EDBCFE6FF1D
:100AB000140EDBCFE6FF170EDB50E8242C0FE66E9A
:100AC00064EC08F0E552E552E55288D9E824240F99
:100AD00014D0170EDB50030815E2080EF36E170E44
:100AE0008AD910E2170EDB50FC0FB6D9EA220A0EA3
:100AF00062D974D9FC0FE8241C0FE66E64EC08F090
:100B0000E5521AD0170EDB5008082CE1150EDBCF8A
:100B10000DF0160EDBCF0EF0DBCFE6FF040E37D95B
:100B2000150EDBCF3DF0160E00013E6A3D50E66E1D
:100B3000050EE66E14EC08F0E552E55213D057D9D5
:100B400011E0010E106E116AA7D902E00AD9FEE188
:100B500017D95BD90DC0F8F1100EF96F070E06D941
:100B6000010EDF6E70D9EF6A025002E0026AA380C4
:100B7000DF503D6E190EE15C02E2E16AE552E16E82
:100B80003D505DD157D910D9080E3D5C000E3E583E
:100B900024E201019B0EB7D802E0E3D8FEE13D500C
:100BA0000101F36F03C03DF004C03EF03E6A035004
:100BB000F46FFD0EDBCFF5F1DBCFF6FFFE0EDBCFE2
:100BC000F7FFF606000EF75AA80EF626190EF722C2
:100BD0000800F5CFF6F1040EC9D831D175D9406EB1
:100BE0003F6A080EEB5052D903503D1806E10450FD
:100BF0003E1803E1010EF36E01D0F36AF46A1200AD
:100C000019D9105068E0D0D8D8903E5004E6040EB0
:100C10003D5C000E3E5818E23FD902E0A2D8FEE14A
:100C2000AFD83ED9060E89D83EC0F5F139D9060EA7
:100C300084D8CBD82DC0F6F133D9080E7ED83EC06B
:100C4000F7F12ED9080E26D0AFD83E342AE23D5017
:100C50000308000E3E5425E2FD0EDBCF3FF0FE0EF2
:100C6000DBCF40F0D890405004E6080E3F5C000E09
:100C7000405817E211D902E074D8FEE181D804C0CF
:100C8000F5F100013E6A03C0F6F1EFD856D83EC038
:100C9000F7F1EBD852D899D82DC03DF02EC03EF0D8
:100CA00011D0D950FD0FE96EFF0EDA20EA6E080E62
:100CB000EE1811E1ED500FE1EFD802E052D8FEE15D
:100CC0005FD8A3D83DC0F8F1FD0EDBCFF9F10101EB
:100CD000070E4CD801D0010EB2D0DB50BDD8EA22AD
:100CE0001200B1D80A0EEB5012000C0EEA02F3CF3C
:100CF000EAFFE902F3CFE9FFF450EA26910EE92674
:100D0000000EEA221200F16F03C03DF004C03EF075
:100D1000080E0F0B1200D8D8406A406E3F6A080ECA
:100D2000EB50000146EF07F0090EEB50406A406EB1
:100D30003F6A0A0EEB5046EF07F0E926000EEA2262
:100D4000EECF3DF0EFCF3EF01200FD0EDBCFE9FF1E
:100D5000FE0EDBCFEAFF120090D80D0EDBCFF5F1CF
:100D60001200D8903E323D32E8061200F26FF00ECB
:100D7000E66E010EE66ED6EC01F0E552E552120089
:100D80003D500101F36F3E6A0350F46F1200E66EAE
:100D900014EC08F0E552E5521200E926000EEA22B2
:100DA000E552E750EF6E1200FD0EDBCF3DF0FE0E78
:100DB000DBCF3EF01200E926000EEA22150EDBCF53
:100DC000EEFF160EDBCFEDFF1200366A010E376E16
:100DD0003DC031F03EC032F01CEF0CF0150EDBCF01
:100DE000E6FF160EDBCFE6FF170EDB501200F6DE35
:100DF000F350F4101200DBCFF4FFF350F45C120058
:100E000022D8090EEB50E76E1200F56BF66B0EC0A0
:100E1000F7F10DC03DF03E6A1200E0DEF3CF3DF089
:100E2000F4CF3EF01200DB50FD0FFC0BE842E8422D
:100E3000E76E1200D9CFE6FFE1CFD9FF1200E552ED
:100E4000E7CFD9FF1200FAC1E9FFFBC1EAFF1200A8
:100E500048DFE66E110E12000C0DF3CFE9FFF4CF60
:100E6000EAFF910EE926000E12006FDF040EE95E24
:100E7000000EEA5A3ADF0A0E12003D500101F36FEC
:100E800003C03DF03E6A0350F46F12003F243D6EF4
:100E9000000E40203E6E12000101F20E83EF06F0BC
:100EA00054DF75EF06F03EC0DBFF94EF06F0010162
:100EB000970E83EF06F0CCDF6DEF06F0E552E750BA
:100EC000EF6EC6DFDB501200BEDF070EEB501200E4
:100ED000DACFE4FFE2CFDAFFE9CFE4FFEACFE4FFC5
:100EE000F6CFE4FFF7CFE4FFF5CFE4FFF3CFE4FF65
:100EF000F4CFE4FFFACFE4FF00EE29F0140EE8048B
:100F000003E3EECFE4FFFBD700EE3DF0060EE8046E
:100F100003E3EECFE4FFFBD7E6529EA204D0CA94CF
:100F20009E92C4EC0BF0F2A42AD0F2941250D66E2A
:100F30002506000E265A2550261007E1050E256EBF
:100F4000266A99EC09F0A5EC0BF02306000E245A52
:100F50002350241008E1320E236E246AA1EC09F01C
:100F6000005001E000062106000E225A21502210F6
:100F700006E1F40E216E010E226E0FEC0AF0E5522E
:100F800000EE42F0060EE80403E3E5CFEDFFFBD7E9
:100F900000EE3CF0140EE80403E3E5CFEDFFFBD7D1
:100FA000E5CFFAFFE5CFF4FFE5CFF3FFE5CFF5FF9F
:100FB000E5CFF7FFE5CFF6FFE5CFEAFFE5CFE9FFA5
:100FC000E5CFDAFF1100D8CFE4FFE0CFE4FFE46E15
:100FD000DACFE4FFE652A4AA14D00F0130AB0CD054
:100FE000065004E1010E016E309706D0060604E1BA
:100FF00030973F0E1416308730A903D0010E016ED2
:101000003097A46AE552E5CFDAFFE550E5CFE0FF7F
:10101000E5CFD8FF1000A2D8FE0EDB50A96EA69E29
:10102000A69CA680A8509FD099D8F29EA69EA69C6A
:10103000A684FE0EDB50A96EFD0EDB50A86E550E89
:10104000A76EAA0EA76EA682A1A8FED7A198F28EBF
:101050008AD084D8030EE126FE0EDB50DF6EDF500F
:10106000DF2AE66ED8DFE552E66ED950010FE96E51
:10107000DACFEAFFE552E750EE6EED6ADFCFE6FF2A
:10108000CADFE5523F6E406E3F6A010EDB503F10F3
:101090003D6E020EDB5040103E6E010E3DC0DBFF88
:1010A000020E3EC0DBFF010EDBCF3DF0020EDBCFB8
:1010B0003EF03DC0F3FF3EC0F4FF030EE15C02E2F0
:1010C000E16AE552E16E4FD049D8E652FE0EDB50A0
:1010D000DF6EFC0EDBCFE6FFDF50DF2AE66EA4DF1B
:1010E000E552E552FC0EDBCF3DF0FD0EDBCF3EF0CE
:1010F0003EC03DF03E6A3D50E66EDFCFE6FF94DF36
:10110000E552E552E5522FD029D8020EE126DF6ADA
:101110000A0EDF5C11E2010EDB6ADB503D6E3E6AB7
:101120003E3404E23D50F508000E3E5403E3010E48
:10113000DB2AF3D7DF2AECD7020EE15C02E2E16A98
:10114000E552E16E10D00AD8E652DF6A640EDF5C29
:1011500003E2DADFDF2AFAD7E55205D0D9CFE6FF7E
:0E116000E1CFD9FF1200E552E7CFD9FF120010
:02116E00E8D9BE
:10117000C26A0F0EC16E948094829484948694887F
:10118000948A948C948E9282929492969298929A47
:101190009290939093929398939A8094809680984B
:1011A000809A8090819081928198819ACED800090E
:1011B00004E1E66AE8D9FF0855E1E66AE66A14EC5C
:1011C00008F0E552E552DE6ADD6A20DA01E6D6D99A
:1011D00049E2E66A95D9080EA4D9640EE66E90D964
:1011E0000C0E9FD9C80EE66E8BD9100E9AD9320E0E
:1011F000E66E86D9140E95D9960E1ADADECF3FF038
:10120000DDCF40F0D8903F364036D8903F3640365C
:10121000DE503F243D6EDD504020E7D91C0EA3D99F
:10122000000EE66EE66A020E63D92FC03DF030C0B4
:101230003EF02C0E98D9DECF3FF0DDCF40F0010E0E
:101240003F26000E4022040E53D93F502F243D6EFE
:1012500040503020CAD9240E86D9DF2A010EB5E3CA
:10126000DB2AB3D7DE6ADD6AD1D901E687D94EE23F
:1012700047D9080EA9D9CED90C0EA6D9EE52CAD993
:10128000100EA2D9CFD9C6D9140E9ED9030E50D9AB
:10129000C1D9180E99D9C9D993D9020E29D977D9AC
:1012A0001C0E98D90A0EACD92C0E94D9060EA8D9CA
:1012B000240E90D9080E3CD96FD908D9EE5271D9B5
:1012C00001E274D904E302D9EE5275D904E2FED8E2
:1012D000EE52640EEF6EBCD964D901E267D903E324
:1012E000B7D969D903E2B4D9C80EEF6EB4D959D9C8
:1012F00001E25CD903E3AFD95ED903E2ACD9960E23
:10130000EF6EDF2A010EB0E3DB2AAED7020EE15CFE
:1013100002E2E16AE552E16E0FD1D9CFE6FF0CD1CE
:101320002AD9DF6ADF5002E0000E01D0010EE5523B
:1013300003D10850000804E20806085001E1809635
:1013400012001200D9CFE6FFF7D015D98050020B5A
:1013500001E0010EDF6EDF5002E0000E01D0010E51
:10136000E552EAD008D9010EDF6EFD0EDB5037E002
:10137000CCD85BD9EFCF3DF0C8D854D9EF503D5C05
:1013800002E1980E01D0990E0101F16F03C03DF00A
:1013900004C03EF0080E0F0B05E0D8903E323D32FF
:1013A000E806FBE13D500101F36F3E6A0350F46F24
:1013B00034D931500101F56F30D92DC03DF02EC028
:1013C0003EF02D500101F66F040EF26FF00EE66E46
:1013D000010EE66ED6EC01F0E552E552DF6EDF500D
:1013E000E552AAD0ADD8DE6ADD6A10D901E6C6D8CA
:1013F00008E231D9EF501CD9DF2A010EF6E3DB2ACF
:10140000F4D7020EE15C02E2E16AE552E16E94D0AB
:1014100097D8E15C02E2E16AE552E16E8DD00B50B3
:1014200002E10C5007E000019051E8B08088E8A08C
:10143000809890711200D9CFE6FF7ED004D9030EB8
:10144000E126DE6ADD6ADE6ADD6AE0D801E696D86A
:1014500036E23CD8080EF1D8FB0EDB503D182AE1ED
:10146000FC0EDB503E1826E1020EDB6A07B20BD001
:101470002DD8060EE2D8FD0EDB503D1809E1FE0E18
:10148000DB503E1805E1010EF36E020EF3CFDBFFD9
:10149000020EDB500FE0FA0EDB5002E0D9D802D08A
:1014A00015D8EE52EF50E66E11D8050E41D8E55230
:1014B000E750EF6EDF2A010EC8E3DB2AC6D7030E22
:1014C000E15C02E2E16AE552E16E36D0DECFE9FF8F
:1014D000DDCFEAFF0C0EEA02F3CFEAFFE902F3CF19
:1014E000E9FFF450EA26910EE926000EEA221200E6
:1014F000316E326ADECF36F0DDCF37F042EF0CF0DE
:10150000DECF3DF0DDCF3EF01200FE0EDB500C0DC5
:10151000F3CFE9FFF4CFEAFF910EE926000EEA22AD
:1015200012003D24E66E14EC08F0E552E55212007C
:10153000E926000EEA221200E552E7CFD9FF120099
:1015400082D8020EE126DE6ADD6A1200EECF3DF09F
:10155000EFCF3EF0366A010E376E3DC031F03EC02F
:1015600032F01CEF0CF02F24E66E64EC08F0E5522C
:10157000E552E552120067D8E6521200040E3D5CB7
:10158000000E3E5812000BEC08F0E55212002FC07E
:101590003FF030C040F012003DC0EEFF3EC0EDFF16
:1015A0001200EF503D6E3E6A3E3412003D50FA0884
:1015B000000E3E541200EFCF3FF0320E3F5C12009F
:1015C000E552E750EF6E12003D24E66EDCDFE66E7A
:1015D00066EF0AF02F24E66E29EC08F0E552F3CF0F
:1015E0003DF0F4CF3EF066EF0AF03E6E3DC0E6FF00
:1015F000E66E020E7DDF2FC041F030C042F01200D7
:1016000097DFCADF020E74DFC7EF0AF079DFD890E8
:101610003E501200D5DF80EF0AF077DF0A0E88DF38
:10162000A6EF0AF0020E98EF0AF0040E98EF0AF007
:10163000E66E66DF180E91EF0AF07ADFEECF3DF02E
:10164000EFCF3EF01200D9CFE6FFE1CFD9FF120075
:0C1650003DDF12EF0BF03ADF15EF0BF05E
:04165C00D9CFE6FFFD
:10166000E1CFD9FF01019ED8EF50020B36E1FE0E0B
:10167000DB5002E0980E01D0990E0101F16F03C01A
:101680003DF004C03EF0080E0F0B05E0D8903E324E
:101690003D32E806FBE13D500101F36F00013E6A77
:1016A00003500101F46F01017DD88AD83150010146
:1016B000F56F010177D884D82DC03DF02EC03EF0E3
:1016C0002D500101F66F040EF26FF00EE66E010E62
:1016D000E66ED6EC01F0E552E552E552E7CFD9FFD0
:1016E000120001019DD8D8803D5409E285D8EF262B
:1016F0009DD83D5C11E388D8010EE66E0BD090D8E2
:101700003D5C0AE279D8EF5E91D8D8803D5404E37D
:101710007BD8E66AA3DFE552010164D8EFCF3DF044
:10172000320E3D5C03E25ED8320EEF6E5BD8EF50B6
:101730003D6E3E6A3E3408E23D50FA08000E3E54CB
:1017400003E250D8FA0EEF6E12000101FD511BE1C9
:10175000010EFD6FC6DFCC6A0101FC5103E15CD8CC
:10176000818010D0FC0503E157D881820BD0020E96
:10177000FC5D03E151D8818805D0030EFC5D02E1D8
:101780004BD8818ACA8412000101FD510AE0819080
:1017900081928198819AFC2BFC51030801E2FC6B39
:1017A000FD6B1200FC510C0DF3CFE9FFF4CFEAFF03
:1017B000910EE926000EEA221200040EF8EF0BF05B
:1017C0000A0E16D8EECF3DF0EFCF3EF0366A010E8E
:1017D000376E3DC031F03EC032F01CEF0CF0050E0C
:1017E000F8EF0BF0DFDFDDEF0BF0DCDFEFEF0BF0FE
:1017F000E926000EEA221200D5DF030EF9DFEFCF53
:101800003DF0F0DF3D501200F0DFEF50E66EEADF12
:10181000E552E750EF6E1200E5DFEF04CB6E1200E9
:10182000E4DFEFCF3DF0DEDFEF501200DBDFEFCF84
:081830003DF0DBDFEF50120078
:08183800296A37AE25EF0CF020
:10184000366C371EE86A3722291E32AE2DEF0CF0B7
:10185000316C321EE86A3222291EBEEC0CF032BE18
:101860003DEF0CF029AE000C316C321EE86A3222DA
:101870002D6C2E1EE86A2E22000C29BE34EF0CF0CF
:101880002A88FF0C32C03CF031C03BF031503602A8
:10189000F4CF30F0F3CF2FF032503702F4CF32F0E4
:1018A000F3CF31F03602F3503026F4503122E86A9B
:1018B00032223B503702F3503026F4503122E86A8E
:1018C000322237AE68EF0CF03B50315E3C50325A5A
:0E18D0003CAE000C3650315E3750325A000CE0
:0218DE001E0EDC
:1018E000F66E000EF76E000EF86E00010900F5505E
:1018F000C66F0900F550C76F03E1C66701D03DD040
:101900000900F550C16F0900F550C26F0900F5508C
:10191000C36F09000900F550E96E0900F550EA6E41
:10192000090009000900F550C46F0900F550C56FA2
:1019300009000900F6CFC8F0F7CFC9F0F8CFCAF018
:10194000C1C0F6FFC2C0F7FFC3C0F8FF0001C45317
:1019500002E1C55307E00900F550EE6EC407F8E256
:10196000C507F9D7C8C0F6FFC9C0F7FFCAC0F8FF5E
:0C1970000001C607000EC75BBFD71200C5
:04197C002E6A2D6A38
:10198000100EE76ED890313632362D362E36365060
:101990002D5C37502E5805E336502D5E37502E5AA9
:0819A000312AE72EF0D71200F6
:0819A800466106080020010061
:1019B0000000000000000000000000000000000027
:0819C00000000000000000001F
:0819C800000EF36E00EE00F0CA
:1019D000030E01D81200EA6002D0EE6AFCD7F35081
:0819E000E9601200EE6AFCD779
:0819E80012EE00F022EE00F007
:1019F000F86A2A9C6FEC0CF003EC00F022EC00F08B
:041A0000FBD71200FE
:0C1A04003F065B4F666D7D077F6FC0F9E9
:101A1000A4B0999282F8809000012002104004083E
:101A2000FFFEDFFDEFBFFBF740BF76793873898695
:051A3000C78C0000005E
:020000040030CA
:0100010006F8
:0100020016E7
:0100030010EC
:0100050000FA
:010006008079
:010008000FE8
:01000900C036
:01000A000FE6
:01000B00E014
:01000C000FE4
:01000D0040B2
:00000001FF
