:020000040000FA
:040000001FD00ED02F
:0400080004EF01F010
:040018000CEF01F0F8
:10002000A66E05A01200550EA76EAA0EA76EA68298
:100030000000A6B2FED712000A26D8B00B2A120082
:10004000A66AA968AA68A680A83C00EF01F0066A23
:100050001C0E056E0F019394000E006F080E016FC9
:10006000E81E056F000E026F070E036FFF0E186F7C
:10007000EB0E196FFF0E1A6FF80E1B6F070E706EE6
:100080009E0E716E030E726E200E736E6F6A939ADF
:100090009494949682848286819A609E60AEFED704
:1000A000818A0FEE66F065500F0B096EF46EF4E076
:1000B00064B02AD010EE01F0EECFE6FFF42EFCD7AC
:1000C0000650EAE0010AD8A406D0A968AA68A86A7E
:1000D000040EA6DFFF000650020A05E10B6A0A6A59
:1000E0000C900C6AD9D70650030A0AE107500A2679
:1000F00006E108500B2203E10CB001D073D076D09A
:100100000650040AC9E176D00350F86EF00BF36E86
:100110000250F76EAA6E0150F66EA96E05A605D0C4
:1001200009500126E86A02220322300EF36001D052
:1001300008D0F350300A01E12AD0F350F00AACE1C4
:1001400032D005A405D0F6503F0B02E1940E68DFD3
:1001500005B2A2D7F650070B9FE1080EF46EEE50E1
:10016000F56E6ADF0D00F42EFAD7080EF46E0A0061
:10017000ED50F42EFCD7840E53DF080EF46E090008
:10018000F550EE18D8A40C80F42EF9D785D7EF508F
:10019000F56E52DF0C00C40E43DF0900F550EE1877
:1001A000F42EF5D779D7EF50A86E46DF040E38DF6E
:1001B000A66AA680A850EE18D8A40C80A94AAA2A3C
:1001C000F42EF1D769D740B7FED7800E416F080EE5
:1001D000426F000E436F040E446F448164A044914B
:1001E00040875AD7010E466F456FEDD7466B010E1B
:0E01F000456FE9D7020E466F010E456FE4D74A
:08020000000077EF02F012008C
:0602080092EF02F012006B
:06021800A2EF17F0120036
:06022A00D9CFE6FFE1CF91
:10023000D9FF120EE126DE52010EDD6E020EDB6AE0
:100240009EEC16F0046A056A066A076A0D6A086A77
:100250000E6A0F6A096A0A6A0401E16BE26BE369DC
:10026000030EE46FE56B040EE66FE76B080EE86FB4
:10027000010EE66E06EC16F0E552036E02D98BEC29
:100280000AF0DBD8020E27D9F3CF00F0F4CF01F04B
:10029000F350F41005E00001001C05E1011C03E12E
:1002A000380E006E016A060EE66E06EC16F0E55298
:1002B000026EE85003E0FF0E025C02E10050026EA5
:1002C00008D97FEC16F0040E06D9F3CF0BF0F4CF6B
:1002D0000CF0F350F41005E000010B1C06E10C1CBF
:1002E00004E1670E0B6E120E0C6E070EF4D8F3CFFE
:1002F000E1F4F4CFE2F40401F350F41004E0E11D62
:1003000004E1E21D02E1E16BE26B090EE4D8F3CFF8
:10031000E3F4F4CFE4F40401F350F41004E0E31D3B
:1003200005E1E41D03E1E369030EE46F0B0ED3D88E
:10033000F3CFE5F4F4CFE6F40401F350F41004E055
:10034000E51D05E1E61D03E1E56B040EE66F0D0E0C
:10035000C2D8F3CFE7F4F4CFE8F40401F350F4107B
:1003600004E0E71D05E1E81D03E1E76B080EE86F17
:100370008284010EDB70DB5002E0829401D0828423
:10038000AFD8C9EC14F0E552E552000906E0A8D850
:1003900098EC0FF0E552E552F3D7C8EC09F00009EC
:1003A000FCE1010EDB500FE00F50E66EE66A49EC0F
:1003B00013F0E552E552000906E00F2A050E0F5C26
:1003C00002E30F6A0E6AF7EC0CF07AEC17F0000902
:1003D00009E0020EDB5006E1010EF36E020EF3CFD0
:1003E000DBFFC7D77AEC17F00009C3E1020EDB5040
:1003F000C0E0020EDB6A095002E0096ABAD7520E69
:10040000F36E090EF3CFDBFF0A0E01C0DBFF00C065
:1004100042F001C043F00001436A0B0E00C0DBFF55
:10042000030EF36E080EF3CFDBFF5AD8AFEC14F0D7
:10043000E552E552010E096E9CD7060E106EF40EC1
:100440002F6E010E306E320E336E346A040E356E2E
:10045000366AD56AD596D590D592D594D58CD76A7B
:10046000B00ED66ED58EF28AF184200ECA6ECA8482
:10047000CA90CA82CC6A640ECB6E9D82F28C9F9227
:100480001200D9CFE6FFE1CFD9FF020EE126DE6AE6
:10049000DD6AF26AA66AA56AA26A9F6AA36AA06A6E
:1004A0009D6AF06AF16AF26AA46AA16A9E6AD08EB5
:1004B000F28EF28CF28EE66A05EC17F0E552020E2F
:1004C000E15C02E2E16AE552E16EE552E7CFD9FF75
:1004D0001200FEEF13F0E66E24EC16F0E552120067
:1004E000D950030FE66E000EDA20E66E12001CEE05
:1004F00000F02CEE00F0F86A129C30EC18F006ECDC
:0A05000019F015EC01F0FBD7120012
:06050A00020010320000A7
:10051000FC020000040000000E320000FD0100009B
:0405200002000000D5
:0C052400DACFE4FFE2CFDAFFE9CFE4FF1A
:10053000EACFE4FFF3CFE4FFF4CFE4FFE65278EC38
:100540000DF0020EE126F2A401D18250800B01E0F1
:10055000010EDF6EF294C50ED66E2A2A2A500208CA
:1005600007E22A6A80822E50000802E22E06829C50
:100570002E50000801E2EAD0280407E0225005E1ED
:10058000DF5003E12B6A010E11D022504FE022040C
:1005900004E1DF5040E1020E09D0020E225C02E1CC
:1005A000040E04D0040E225C03E1080E226E3ED03D
:1005B000080E225C3BE1080E275C2FE1DF0422E1FC
:1005C0002650236E245002E0010E2C6E010E246E84
:1005D00000016A51EA6A600FE96E000EEA2226C045
:1005E000EFFF010E6AC0E7FFE75204E0E846FE0BAA
:1005F000E706FCE1000168136A2B6A51070809E26B
:100600006A6B07D00001EB6B2D6A010E256E2C6A18
:10061000246A266A276A226A09D0020E226E269070
:100620002642DF50800DF3502612272A2A5001E07F
:100630008CD0285003E1828C246A296ADF043AE1D5
:10064000020E285C37E12B2A280408E129501408FF
:1006500005E2286A010E096E82862CD0140ED8801D
:100660002954060FD8802B5425E2010EDB6AA2EC38
:100670000EF011E2010E25EC0DF0EF0409E1010E80
:1006800025EC0DF0020EEF6E010EDBCFEBF003D088
:10069000010EDB2AECD7A2EC0EF00BE2292A010EA8
:1006A000286E0001EE6BEF6BF06F8288140E066E01
:1006B00001D0286A280449E1DF500001F05D0CE018
:1006C000140E2E6E010EF06FEE6BEF6B020E286EA5
:1006D000010E096E828634D0EF5102E1F06B2FD00B
:1006E000090EEF5D11E1010EF06FEF6BEE2B8AEC5E
:1006F0000DF0110E2BEC0DF0EF50EE5D21E18AECC8
:100700000DF0EF6A286A1CD0EF054C6E8AEC0DF0F4
:10071000EE52E9CF4AF0EACF4BF0EE51E924E96E10
:10072000000EEA20EA6EEF504CC0E7FFE75204E00B
:10073000E8427F0BE706FCE1010B0001F06FEF2BB5
:10074000F051E8B0828CE8A0829C8092020EE15CBD
:1007500002E2E16AE552E16EE552E7CFD9FFE552E8
:10076000E5CFF4FFE5CFF3FFE5CFEAFFE5CFE9FF03
:10077000E5CFDAFF110078EC0DF0DCEC0DF0070EA0
:10078000CBC0DBFF080ECCC0DBFF090ECDC0DBFF0A
:100790000A0ECEC0DBFF0B0ECFC0DBFF0C0ED0C0AD
:1007A000DBFF0D0ED1C0DBFF9FEC0DF002E2E16A32
:1007B000E552E16E7DEF0DF078EC0DF0DCEC0DF024
:1007C00023EC0EF0070E36EC0FF0010E2BEC0DF0C3
:1007D000080E36EC0FF08FEC0FF0090E36EC0FF030
:1007E00092EC0FF00A0E36EC0FF0040E2BEC0DF02D
:1007F0000B0E36EC0FF0050E2BEC0DF00C0E36EC5C
:100800000FF0060E2BEC0DF00D0EEFCFDBFF9FEC83
:100810000DF002E2E16AE552E16E7DEF0DF078EC59
:100820000DF0030EE126DF68010EDB6A020EDB6AC3
:10083000010EDBCF42F0020EDBCF43F0FE0E2BECBD
:100840000EF0EF04000143AE02D0D89003D0425C1A
:10085000000E43580DE2FE0E25EC0DF0C2EC0DF03B
:10086000EF50DF1A010EDB2A020EE2E3DB2AE0D7AB
:10087000FE0E25EC0DF0C2EC0DF0DFCFEFFF030E06
:10088000E15C02E2E16AE552E16E7DEF0DF078ECA9
:100890000DF0FE0E2BEC0EF0040EEF6E23EC0EF0BE
:1008A000B40EEF6EFD0EDB5061EC0FF0A7EC0EF016
:1008B000FC0EDB5061EC0FF0020E08EC0FF092EF33
:1008C0000EF078EC0DF0FE0E2BEC0EF00E0EEF6E2F
:1008D00023EC0EF0E70EEF6E23EC0EF0AAEC0EF018
:1008E00023EC0EF08FEC0FF0FD0EDBCFEFFF23ECCF
:1008F0000EF092EC0FF0030EEF6EFC0EDB5009E1F0
:10090000FD0E36EC0DF0000ED880EE54000EED54C6
:1009100006E223EC0EF092EC0FF0330EEF6EFD0EBC
:100920007BEC0EF065EC0FF0040E32EC0EF0FD0ED9
:100930002FEC0EF0EF5061EC0FF0050E08EC0FF00D
:10094000FD0E2FEC0EF0EF50800B02E0000E01D0F8
:10095000200EE66E23EC0EF0060E08EC0FF0FD0EF6
:1009600027EC0EF0EF50010B02E0010E01D0000E5B
:10097000F9EC0EF0020B02E0020E01D0000EF9ECD1
:100980000EF0040B02E0040E01D0000EF9EC0EF0A4
:10099000080B02E0040E01D0000EF9EC0EF0100B73
:1009A00002E0100E01D0000E426E23EC0EF05AEC65
:1009B0000EF023EC0EF0070E2BEC0DF0050EEF6E93
:1009C00023EC0EF0080E95EC0FF0FD0E7BEC0EF014
:1009D000070E0F0B05E0D89043324232E806FBE1E8
:1009E00065EC0FF0090E32EC0EF023EC0EF06EEC1D
:1009F0000EF0EF6AFD0E27EC0EF0BDEC0EF0010BD1
:100A000002E0010E01D0000E00EC0FF0020B02E03C
:100A1000020E01D0000E00EC0FF0040B02E0040EF9
:100A200001D0000E00EC0FF0080B02E0080E01D020
:100A3000000E7FEC0FF0FD0E36EC0DF0B8EC0DF073
:100A400065EC0FF00B0E32EC0EF0FD0E36EC0DF0F7
:100A5000B8EC0DF0070E08EC0EF0FDE123EC0EF003
:100A60000C0E32EC0EF092EF0EF078EC0DF0310E31
:100A7000E126828A140E076E0001CB51D00A01E1F3
:100A8000CDD3340A01E175D3540A01E129D30C0A0C
:100A900001E126D30E0A01E1E9D2080A01E144D2BC
:100AA000180A01E1F9D1030A01E1A0D1010A01E12B
:100AB00089D11F0A01E127D1500A12E0080A02E198
:100AC000A3EF09F0650A06E0010A02E0A3EF09F0CE
:100AD000090E01D0080E81EC0DF0010E9EEF09F019
:100AE0000F0ECDC0DBFFDB502FE068EC0FF02CE2E7
:100AF00076EC0FF029E0D751E66EE2EC0EF0E5520D
:100B0000E750EE6EED6AE2EC0EF0070ED890EE368E
:100B1000ED36E806FBE10001D651426E436AE2EC95
:100B20000EF04250EE264350ED220E0EDB6A72ECC0
:100B30000DF002E3A3EF09F036EC0EF002E17F0EB8
:100B4000CED00E0EDB2AF3D70F0EDB507C0801E06F
:100B5000CBD0220ECEC0DBFF230ED0C0DBFF240E95
:100B6000D1C0DBFF250ED3C0DBFF260ED4C0DBFFD8
:100B7000270ED5C0DBFF230EDB507F0B446E456A8A
:100B8000240EDB507F0BE4EC0DF0280E42C0DBFF9F
:100B9000290E43C0DBFF270EDB507F0B426E250E74
:100BA000DB50020B400DF3504210E76E210EE7CFF1
:100BB000DBFF260EDB507F0B456E466A250EDB50B1
:100BC000010B446E250EDB50300BE840E840E84056
:100BD0001F0B4410800DF3504524426EF450462004
:100BE000436E010E4226000E43221F0E42C0DBFF61
:100BF000200E43C0DBFF220EDBAC5DD0DBA451D066
:100C0000D8EC0DF0F3CFDBFF2A0EDB6A200EF36E7B
:100C10002A0E57EC0DF02EE22A0E56EC0EF027E0CD
:100C20002A0E7BEC0EF0280EDB50421820E1290E34
:100C3000DB5043181CE12A0EDB500DEC0EF0820E47
:100C400081EC0DF0050E8DEC0DF02A0E28EC0DF068
:100C50001BEC0EF05CEC0DF0210EDB50E76E1A0E73
:100C6000E7CFDBFF86EC0DF0E552E55203D02A0E0C
:100C7000DB2ACCD70F0EDB50200827E10E0EDB6AF3
:100C8000DBCFF4FFE850F45C20E236EC0EF006E136
:100C9000E66AEF0EF4EC0DF0E55215D00E0EDB2AED
:100CA000EFD7A20E81EC0DF0060E71EC0EF0210EC6
:100CB000D2EC0DF006D0840E81EC0DF0050E71EC37
:100CC0000EF086EC0DF0E552E5520E0EDB6A72EC8A
:100CD0000DF001E338D336EC0EF003E1010EE66EC1
:100CE0000DD00E0EDB2AF3D70E0EDB6A72EC0DF080
:100CF00001E329D336EC0EF003E1E66AEF0EAFD143
:100D00000E0EDB2AF3D77F0ECBEC0EF07F0ECD1547
:100D1000DE6EDD6A92EC0DF0BDEC0DF0FDE14FEC06
:100D20000DF0D8EC0DF0F3CFDBFF2B0EDB6A200EBD
:100D3000F36E2B0E57EC0DF017E22B0E56EC0EF067
:100D400010E02B0E7BEC0EF0040EDB50421809E194
:100D5000050EDB50431805E12B0EDB500DEC0EF0B9
:100D600003D02B0EDB2AE3D70F0EDB5020081CE14B
:100D7000400E81EC0DF0030E8DEC0DF0050EDB50F6
:100D8000E76E170E99EC0EF0180E42C0DBFF7FECF9
:100D90000EF07F0ED880EE54000EED5401E3D0D259
:100DA000170EDB8CDB8ECCD20E0EDB6A72EC0DF0F4
:100DB00001E3C9D236EC0EF002E1E66ADAD00E0E9B
:100DC000DB2AF4D769EC0EF001E3BDD276EC0FF02C
:100DD00001E1B9D2800E6BEC0FF04250EF167F0E9E
:100DE000CD156BEC0FF017EC0FF09BD069EC0EF00B
:100DF00001E3A9D276EC0FF001E1A5D20F0E2FECA2
:100E00000EF0EF9E200ECD1502E0000E01D0800EF8
:100E10006BEC0FF04250EF12010ECD1502E0010E07
:100E200001D0000EE66E0F0E27EC0EF0AFEC0DF0C9
:100E3000020ECD1502E0020E01D0000E85EC0FF07F
:100E4000040ECD1502E0040E01D0000E85EC0FF06B
:100E5000080ECD1502E0080E01D0000E85EC0FF053
:100E6000100ECD1502E0100E01D0000E0BEC0FF0AD
:100E700017EC0FF0EFCFDBFF86EC0DF0E552E552FB
:100E800057EC0FF0010EF36E180EF3CFDBFF0F0ED1
:100E900028EC0DF0040E42D069EC0EF001E353D2C1
:100EA00076EC0FF001E14FD2010ECD1502E0010EFC
:100EB00001D0000EE66E0F0E27EC0EF0A7EC0EF040
:100EC000020ECD1502E0020E01D0000E0BEC0FF069
:100ED000010E6FEC0FF0040ECD1502E0040E01D0F0
:100EE000000E0BEC0FF0010E6FEC0FF0080ECD159D
:100EF00002E0080E01D0000E0BEC0FF0010E2BECFF
:100F00000DF089EC0EF057EC0FF0020EF36E180E98
:100F1000F3CFDBFF0F0E27EC0EF0010E2BEC0DF0E4
:100F2000190EEFCFDBFF0CD2CC51000829E2CD51D6
:100F3000000826E2CD51CC5D23E17F0ECC150DECEF
:100F40000EF068EC0FF001E3FED176EC0FF001E15A
:100F5000FAD1E2EC0EF0010EEE6EED6A0E0EDB6AD7
:100F600072EC0DF001E3EFD136EC0EF006E1010E6C
:100F7000E66E0F0EDBCFE6FF25D00E0EDB2AF0D794
:100F8000CC51000832E2CD5130E17F0ECC15040186
:100F9000E06F200EE05D1DE2E05142EC0EF0EF50FC
:100FA000FF0817E0E2EC0EF0EE6AED6A0E0EDB6A67
:100FB00072EC0DF001E3C7D136EC0EF007E1E66A02
:100FC000E0C4E6FF0E0E12EC0EF04BD00E0EDB2A44
:100FD000EFD70E0EDB6A72EC0DF001E3B4D136EC04
:100FE0000EF03BE00E0EDB2AF6D7CC5101E0ABD180
:100FF000CD5101E0A8D1FF0E0401E05D25E0E051F4
:10100000E96EEA6AD890E936EA366B0EE926000EF8
:10101000EA22010EEE6EED6A0E0EDB6A72EC0DF046
:1010200010E236EC0EF00AE1E66AE0C4E6FF0E0ECE
:1010300012EC0EF0E552E552E55203D00E0EDB2A1B
:10104000EDD70401E0697FD10E0EDB6A72EC0DF082
:1010500001E379D136EC0EF006E1E66ABA0EF4EC63
:101060000DF0E5526ED10E0EDB2AF0D75DEC0EF0DE
:10107000BDEC0DF0FDE14FEC0DF0040EDBCF44F0C4
:10108000050EDBCF45F0010ED89044364536E80614
:10109000FBE1010E4426000E4522200E0001CD1575
:1010A000466E476A050ED89047324632E804FBE1A7
:1010B000FAEC0DF0D1EC0EF0100E0001CD15E83871
:1010C0000F0BE66ED9500A0F3AEC0DF0D9500A0F0B
:1010D000E96EDACFEAFFEE50ED1040E1990E41D013
:1010E0005DEC0EF0BDEC0DF0FDE14FEC0DF07FEC92
:1010F0000EF0F90EEE1819E1030EED1816E1040ECC
:10110000031413E0040EDBCF42F0050EDBCF43F0F7
:101110000B50421802E10C50431802E0000E01D0BF
:10112000010E9A0E81EC0DF020D07FEC0EF0010E36
:10113000D890EE36ED36E806FBE1200E0001CD1525
:10114000E00BE838E840426E436A7FEC0EF0425014
:10115000EE264350ED22100ECD1502E0980E01D080
:10116000990EE76E160EE7CFDBFF42EC0DF0050E91
:10117000E5D07F0ECF15E66ED950040F3AEC0DF096
:101180007F0ED115E66ED950060F3AEC0DF07F0EAA
:10119000D015E66ED950080F3AEC0DF0080EDBCFF3
:1011A00044F0090EDBCF45F0070EBDEC0DF0FDE17C
:1011B000060EDB504424426E070EDB504520436E82
:1011C0000A0E42C0DBFF0B0E43C0DBFF200E000106
:1011D000CE1502E0010E01D0000EE76E0C0EE7CF37
:1011E000DBFFF00E81EC0DF042EC0DF00B0ED2ECBB
:1011F0000DF00A0EDBCF42F00B0E436A1C0E42C00C
:10120000DBFF0C0EDBCFE6FF400E0001CD1502E048
:10121000020E01D0000EE552E7248BD0600ECC15F3
:10122000E76E0D0EE7CFDBFFDB50200804E00D0E6C
:10123000DB5001E088D0CD51DE6EDD6A1F0ECBECB5
:101240000EF092EC0DF0BDEC0DF0FDE14FEC0DF069
:10125000200E0001CC1502E0010E01D0000EE76E59
:101260002E0EE7CFDBFF040EDB2A050E01E3DB2A9F
:101270007D0ECE5D07E1CF51E66ED9502F0F3AECCF
:101280000DF00CD0CF51446E456ACE51E4EC0DF018
:101290002F0E42C0DBFF300E43C0DBFF0F0ECD151B
:1012A00002E1410E29D00F0ECD15020802E1420ED7
:1012B00023D00F0ECD15040802E1430E1DD00F0EF2
:1012C000CD15060802E1440E17D00F0ECD15080803
:1012D00002E1450E11D00F0ECD150A0802E1460EAF
:1012E0000BD00F0ECD150C0802E1470E05D00F0EE6
:1012F000CD150E0805E1480EF36E2C0EF3CFDBFF83
:101300000D0EDB50200802E1F00E01D0F10EE76E69
:10131000160EE7CFDBFFB6DB300ED2EC0DF02F0E52
:10132000DBCF42F0300E436A1C0E42C0DBFF2C0EB6
:10133000DB50E76E1D0EE7CFDBFF080E8DEC0DF0E6
:10134000E5DBE552E552310EE15C02E2E16AE5528D
:10135000E16ED3D3CDDBFE0EDB50E00802E1FE0EE2
:1013600016D0FE0EDB50F00BE00A0EE0200A0AE079
:10137000600A06E0100A04E0300A08E1020E07D015
:10138000040E05D0060E03D0FF0E01D0000EB5D31B
:10139000AFDB020EE126010E69C0E7FFE75204E071
:1013A000E846FE0BE706FCE10001681501E187D085
:1013B0006951EA6A600FE96E000EEA22EFCFDFFFA3
:1013C000010E69C0E7FFE75204E0E846FE0BE706BE
:1013D000FCE1E81C00016817692B6951070801E26C
:1013E000696B0001ED6BEB513EE1DFBE07D0DFCF53
:1013F000CBF0CC6B990EECEC0DF030D0E00EDF5C56
:1014000002E1FE0E15D0F00EDF14800802E1020E9C
:101410000FD0F00EDF14A00804E0F00EDF14B008C7
:1014200002E1040E05D0F00EDF14C00803E1060E41
:10143000EC6F07D0F00EDF14E00802E1EC6901D098
:10144000EC6BEC5103E0FE0EEC5D0BE1DFCFCBF07B
:10145000ECC0CCF0AA0EC0DB2C6A256ABBEC03F012
:101460002CD0010E2D6EFF0EEC5D05E1EB0503E1C6
:101470007F0EDF14EC6F200EEB5D11E2EB51EA6A98
:10148000CB0FE96E000EEA22DFCFEFFFEB2BEC5122
:10149000EB5D13E1EB6B2D6A35EC05F00ED0CC0E55
:1014A000CC6FECC0CDF0EBC0CEF0CF6BD06BD16B7E
:1014B000BBEC03F00001EB6B2D6A010E16D02D5032
:1014C00013E1285011E122500FE1010EDB6AA2EC7A
:1014D0000EF00AE2010EB9DAEF0403E1020E286E03
:1014E00003D0010EDB2AF3D7000E426E020EE15C40
:1014F00002E2E16AE552E16E4250FFD20001EB5197
:10150000000803E3FF0EEB5D05E1ED2BED516408F0
:1015100001E2EB6B1200ECDAE652DF6A0E0EDF5CE2
:1015200005E2DF50B9DBEF6ADF2AF8D7DF6A200E69
:10153000DF5C0CE2D1DAEF68EA6ADF34C3EC0EF06C
:10154000EE6AED6ADF50CBDADF2AF1D70401E069F9
:10155000226A236A246A0001686B696B6A6B266AD7
:10156000276A0001EB6BED6B2A6A2C6A256A2D6AEB
:10157000286A2E6AE552C1D2BBDA0C0EE126020EB1
:10158000DB6A030EDB6A040EDB6A030EDB6A0E0EF7
:10159000BFEC0EF007E2030E58DAEF5003E0030E43
:1015A000DB2AF5D70E0EEBDB02E3828605D2020EB4
:1015B000285C02E02B6A296AB2DB900A01E1A2D121
:1015C000010A01E19FD1090A01E19CD1010A01E16F
:1015D00099D1560A01E156D14A0A01E1CBD01F0A3E
:1015E00001E1AED0900A01E1A8D0EB0A3BE0C50AC8
:1015F00018E0470A0DE06B0A07E0010A01E0DCD1C0
:101600002AEC0FF0830E7CD12AEC0FF0820E78D1F9
:10161000E66A3F0EE66E030EDBCFE6FF47EC04F012
:1016200088D0010EF36E040EF3CFDBFF200EF36EB5
:10163000040E3DDA01E3C0D1040E4BEC0FF00FE1D4
:10164000040EDBCFE0F479EC0FF0BA0E5CEC0FF097
:10165000030EDBCFEFFFF9D9EE52020E11D1040ECB
:10166000DB2AE4D77CDBEF50436E426A42C0DEFFE8
:10167000DD6E4BDBDBDAD9CFE9FFDACFEAFFEE52E2
:101680003F0EED16200EF36E020EF3CFDBFF010EC0
:10169000F36E030EF3CFDBFF200E71DB09E2030EC6
:1016A0004BEC0FF002E1ADDA03D0030EDB2AF4D7E6
:1016B000020EDB50200818E1010EF36E030EF3CF8B
:1016C000DBFF200E5CDB10E2030EF0DA0AE199DAB0
:1016D000D1DAE66E020EBCD942DA020EDB50FFD937
:1016E00003D0030EDB2AEDD7200EF36E020EDFD9F6
:1016F00001E362D1020EACD9EE52DECFEEFFDDCFB8
:10170000EDFFB8DAE66E020EAADA29DAA8D90B0ED6
:10171000A7DB25DAA4D90C0EA3DB19DBA0D90D0EAB
:101720009FDB020E75DBE66A020EDBCFE6FF030EDF
:1017300079DAE552E552E5523FD18CDB850EE0D0F7
:10174000E4DAEF50436E96DB0B50DF1801E034D142
:101750000C50DE52DD1801E02FD1040E031401E11C
:101760002BD1C7DBB00EA8DB790EEF6E68DAD7DBC2
:10177000070EC6D0F4DA050EEFCFDBFFC6DA060E91
:10178000EFCFDBFF050EDB50456E446A060EDB50E3
:1017900000014424426E000E4520436E070E42C0F5
:1017A000DBFF080E43C0DBFFB4DB090EEFCFDBFF2E
:1017B00078DBE70E66DB7C0EEF6E41DAB3DB230EDF
:1017C000EF6E3DDA040E21DB050E1FDB060E1DDB7E
:1017D000070EABDB070EDBCF44F0080EDBCF45F086
:1017E000000E4416030E4516040E0F0B05E0D890AC
:1017F00045324432E806FBE1800EE76E070EDBCF90
:1018000046F0080EE7504616476A070E0F0B05E034
:10181000D89047324632E806FBE1ECD9090EDB509E
:10182000800B486E496A800E1E6E1F6A48C019F010
:1018300049C01AF0AAEC18F019C048F01AC049F0D3
:10184000D8904836493642504824E66EF8D9080EFA
:10185000DFDA7F0EE76E070EDBCF42F0080EE750AF
:101860004216436AECD9090EFDD9090EDB507F0BF5
:10187000E66EE5D933DA73D9E2D90B0EC6DA0C0E6F
:1018800054DB94D00EDBEF0EFCDA7B0EEF6E41DB07
:10189000EF50E66ED4D9030EBBDAD1D9040E8EDA3E
:1018A000CED9050E8BDA3C0E446EE4D9445C426E10
:1018B000436AFF0ED8804256000E43562DDB060EBB
:1018C000D1D9BDD9070E31DB180E446E48DAEF507E
:1018D000445C426E436A000ED8804256010E435665
:1018E0001BDB080EBFD9ABD9090E8FDAF7D9700E02
:1018F000EF6EA5D90B0E62DAA2D90C0EACD8700E21
:10190000EF6E54D002DAEF50B5DA14D90401E15188
:10191000425CE25143581FE3DECF44F0DDCF45F097
:1019200004014450E35D4550E45915E303D9000137
:10193000010E42160A0E49DAB00E71DA69D9FEE1DB
:101940007FDA02E0000E01D0100EA1DA0A0EDB50A1
:1019500029E1000E2AD0020E03142EE0EBD8040178
:10196000E551425CE651435827E3DECF44F0DDCF3A
:1019700045F004014450E75D4550E8591DE3DAD8CD
:101980000001010E42160B0E20DAB20E48DA40D9E1
:10199000FEE156DA02E0000E01D0100E78DA0B0EEE
:1019A000DB5002E0200E01D0000E71DA030EF4D8F5
:1019B000030E4BD8010EEF6E0C0EE15C02E2E16A01
:1019C000E552E16E9AD094D8E652DF6A200EDF5CD1
:1019D0000CE282D8EF50FF0803E1DF5080D803D03B
:1019E000DF50C5D9EF2ADF2AF1D7E55286D080D85B
:1019F000100EE126DF6A200EDF5C20E26DD8EF508A
:101A0000FF081AE0DF50B3D9EF50140815E2DF5099
:101A100066D8230EF36E070EF3CFDBFF5DD8080EFA
:101A2000EFCFDBFF020EF36E060EF3CFDBFFD950D4
:101A3000010FBED9E552E552DF2ADDD7100EE15C79
:101A400002E2E16AE552E16E58D0DB504CEF0EF055
:101A5000DB5042EF0EF0E926000EEA221200FD0EE6
:101A6000DBCFE9FFFE0EDBCFEAFF1200EA6ADB34D0
:101A7000C3EF0EF0E96EDACFEAFFE552E750EE6E03
:101A8000ED6A1200170EDB6A180EDB6A050EDB50DA
:101A9000E76E190E4ED91A0E42C0DBFF1200DE505F
:101AA0004424426EDD504520436ED1EF0EF0DBCF73
:101AB000F4FFF350F45C1200200EDB50E76E180EBA
:101AC000E7CFDBFF1F0EDBCF42F0200E0001436AA1
:101AD000190E42C0DBFF1200DF5042EF0EF047D973
:101AE000EF6A1200F36EDBCFF4FFE850F45C1200F3
:101AF000D9CFE6FFE1CFD9FF1200E552E7CFD9FFFA
:101B00001200F36E160EF3CFDBFF1200D950100F48
:101B1000D8EF0EF0EB514CEF0EF0F36E150EF3CF45
:101B2000DBFF1200020EDBCF44F0030EDBCF45F0EB
:101B3000070E1200DECF42F0DDCF43F01200080E98
:101B4000F36E050EF3CFDBFFD9CFE6FFDACFE6FF6A
:101B5000AFEC14F0E552E5520F0EE15C1200E552D5
:101B6000E750EF6E12007F0E4216000E4316120071
:101B7000EECF42F0EFCF43F01200D8904436453616
:101B8000E8041200EE52010EDB50E924E96E020E69
:101B9000DB50EA20EA6E1200DBCFE6FF0FEC04F028
:101BA000E5521200DB50E76E1B0EE7CFDBFF1200A1
:101BB000200EF36E0F0E12000F0EE126EA0EF36EEA
:101BC000060EF3CFDBFF1200800DF3504424426E6B
:101BD000F4504520436E1200CD6F2CC0CEF025C0CE
:101BE000CFF0D06BD16B1200E66E0E0EDBCFE6FFAE
:101BF00047EF04F044504624426E45504720436E60
:101C00001200030EDB50E76E020EE7CFDBFF12007F
:101C1000D89043324232E8041200E76E0F0EE7CF4D
:101C2000DBFF1200DBCFE6FF61EF04F0EF50DE26B2
:101C3000000EDD221200170EEFCFDBFF1200030EA5
:101C400004DFEE521200FE0E00DFEE52120000DF43
:101C5000040E2BEF0DF0F9DE110E2BEF0DF0F8DE78
:101C600092EF0FF0F8DE42C0EFFF12000E0EEDDE35
:101C7000EF501200F4DE070E36D14FDF0F0EE8DE14
:101C80001BEF0EF0070DF3CFE9FFF4CFEAFF000ED4
:101C9000E926040EEA221200120DF3CFE9FFF4CF79
:101CA000EAFF000EE926010EEA221200D1DEEF5013
:101CB000FF081200060E6FEF0FF07F0ECC15DE6EE0
:101CC000DD6A0F0ECD15E66ED950020FD3DE92EF0E
:101CD0000DF00F0ECCC0DBFF68EF0FF00A0E2BEFFC
:101CE0000DF01BDF170EDB6AE7DE020EF36E1A0E35
:101CF000F3CFDBFF1200ACDEEE52B8EF0DF0D9509F
:101D0000040FE96EDACFEAFF1200A9DE090E2BEF0D
:101D10000DF04250EF120F0EDB506FEF0DF09FDE13
:101D2000060EE1D0FE0E38DFFE0E8FDE010EEF6EE6
:101D3000E4D6E7CFDBFF040EDBCF42F0050E000157
:101D4000436A12000E0EF36E010E57EF0DF0010EF6
:101D500008EF0FF0010E7FDE0E0EEF6E12007FDE39
:101D6000080E2BEF0DF0DBD84250EF261200EA6A86
:101D7000AB0FE96E000EEA221200010EB4D0F36E32
:101D8000030E57EF0DF0FE0BEA36E96E6B0EE926F7
:101D9000000EEA221200CC15E66ED950020F3AEF7F
:101DA0000DF0040E42C0DBFF050E43C0DBFF120046
:101DB000E66E000EDA20E66EAFEF14F04CDE7F0E1A
:101DC000EF6E12000F0E36EF0DF042C0DBFF020E79
:101DD000426E436A1E6E43C01FF0DECF19F0DDCFA6
:101DE0001AF0D0EC18F019C0DEFF1AC0DDFF79EF51
:101DF0000FF0426E28DF5EDFFD0E29DFEF5012008C
:101E00007ED8FD0E24DFBDEF0EF08FD81FEF0EF051
:101E100022DEAFEF0DF0426E0F0E27EF0EF0EF6EE9
:101E200089DE7AD8010E1EDF85DE070E120071DF13
:101E3000470E67DE030E21DF0F0E11DF180E1200B2
:101E40000F0E4216000E4316FADE020E0BDF67DF9E
:101E5000010B1200030EFFDE020EEF6E1FEF0EF0FD
:101E6000FADDEF50E66E020E27EF0EF0EFCFDBFF4C
:101E700023EF0EF0426A42C0DEFFDD6E4AD816EF55
:101E80000EF0EF6EDCDE66DFDADE8FEF0FF0426E13
:101E9000D6DEB3EF0EF0DCDDEFCF42F0EBDE425CDE
:101EA0001200030ED8DE0E0EEF6E1FEF0EF0600E66
:101EB00028DE040E3DEF0EF0EF6EC1DE010E2BEFBB
:101EC0000DF07F0BE66E23EF0EF04DDE23EF0EF0EC
:101ED0006FDE57EF0DF0426E0F0E2FEF0EF0BBDDF1
:101EE0004250EF121200B7DDEF5012000F0E56EF06
:101EF0000EF0030EB0DE040EEF6E1FEF0EF0426E1A
:101F0000A2DEECDE4250EF12120085DF4250EF12EB
:101F10001200A5DD6EEF0EF026DE1FEF0EF0020EB2
:101F20002BEF0DF0030E2BEF0DF095DDEF6A120095
:101F3000D9CFE6FFE1CFD9FF120EE126DF6A03B069
:101F40000AD0FD0EDBCFE6FFFE0EDBCFE6FFBCECDA
:101F50000AF0E552E552FD0EDBCFE9FFFE0EDBCFC6
:101F6000EAFF060EE926000EEA22EF50570A01E1C9
:101F700014D3850A01E157D2860A01E141D2070A4A
:101F800001E12BD2C50A01E1DAD1E70A01E142D130
:101F90002D0A01E124D14C0A01E1D0D0520A01E11D
:101FA00099D0310A74E07E0A30E0970A01E009D343
:101FB000FD0EDBCFE9FFFE0EDBCFEAFF090EE926BF
:101FC000000EEA22EF50426E436A42C043F0426A7A
:101FD000FD0EDBCFE9FFFE0EDBCFEAFF0A0EE9269E
:101FE000000EEA22EF50000142243E6E000E432014
:101FF0003F6E3E500B1802E13F500C1805E10D50AA
:1020000003E1086A010E0D6EDDD2B60EF36E070E07
:10201000F3CFDBFF00C042F001C043F0080E0F0B0E
:1020200005E0D89043324232E806FBE1FF0E42164B
:10203000000E4316080E42C0DBFF0050E76E090E8B
:10204000E7CFDBFFCC0EF66E310EF76E08000A0EFE
:10205000F5CFDBFFCE0EF66E310EF76E08000B0EDD
:10206000F5CFDBFF0C0E03C0DBFF060EF36E060E92
:10207000F3CFDBFFD950010FE66E000EDA20E66EDB
:10208000AFEC14F0E552E552010EDF6E9BD2FD0E6F
:10209000DBCFE6FFFE0EDBCFE6FFD6DAE552E552F8
:1020A000F3CF42F0F4CF43F0010E421801E1435068
:1020B00010E1FD0EDBCFE9FFFE0EDBCFEAFF090EDC
:1020C000E926000EEA22EF50E66EE66A89DAE5526A
:1020D000E55278D2095031E0FD0EDBCFE9FFFE0E6C
:1020E000DBCFEAFF070EE926000EEA22EF50406E32
:1020F000FD0EDBCFE9FFFE0EDBCFEAFF080EE9267F
:10210000000EEA22EF50416E4050426E436A42C0D8
:1021100043F0426A415000014224006E000E432009
:10212000016E00C0E6FF01C0E6FF020EE66E5FEC46
:1021300016F0E552E552E552096A44D209504EE0E4
:10214000EF0EF36E070EF3CFDBFFCC0EF66E310E03
:10215000F76E0800080EF5CFDBFFCD0EF66E310EE0
:10216000F76E0800090EF5CFDBFFCE0EF66E310ECE
:10217000F76E08000A0EF5CFDBFFCF0EF66E310EBC
:10218000F76E08000B0EF5CFDBFFD00EF66E310EAA
:10219000F76E08000C0EF5CFDBFFD10EF66E310E98
:1021A000F76E08000D0EF5CFDBFFD20EF66E310E86
:1021B000F76E08000E0EF5CFDBFF080EF36E060E6D
:1021C000F3CFDBFFD950010FE66E000EDA20E66E8A
:1021D000AFEC14F0E552E552010EDF6EF3D1FD0EC7
:1021E000DBCFE6FFFE0EDBCFE6FF2EDAE552E5524F
:1021F000F3CF42F0F4CF43F0010E421801E1435017
:1022000008E1E668FF0EE66E0FEC16F0E552E552C7
:10221000FF00D8D1FD0EDBCFE6FFFE0EDBCFE6FFE1
:1022200013DAE552E552F3CF42F0F4CF43F04250D7
:10223000431001E183D0FD0EDBCFE9FFFE0EDBCFC3
:10224000EAFF090EE926000EEA22100EEFCFDBFFAF
:10225000100EDB0438E1970EF36E070EF3CFDBFFB1
:1022600000C042F001C043F0080E0F0B05E0D8900B
:1022700043324232E806FBE1FF0E4216000E4316DF
:10228000080E42C0DBFF0050E76E090EE7CFDBFF10
:10229000100EDB50E76E0A0EE7CFDBFF0B0E03C01C
:1022A000DBFF050EF36E060EF3CFDBFFD950010FF7
:1022B000E66E000EDA20E66EAFEC14F0E552E55261
:1022C000010EDF6E3BD0100EDB50020837E1970E97
:1022D000F36E070EF3CFDBFF00C042F001C043F006
:1022E000080E0F0B05E0D89043324232E806FBE1BE
:1022F000FF0E4216000E4316080E42C0DBFF0050D0
:10230000E76E090EE7CFDBFF100EDB50E76E0A0E1B
:10231000E7CFDBFF0B0E02C0DBFF050EF36E060EF0
:10232000F3CFDBFFD950010FE66E000EDA20E66E28
:10233000AFEC14F0E552E552010EDF6E43D1FD0E15
:10234000DBCFE6FFFE0EDBCFE6FF7ED9E552E5529E
:10235000F3CF42F0F4CF43F0425043103DE0FD0E86
:10236000DBCFE9FFFE0EDBCFEAFF090EE926000E08
:10237000EA22110EEFCFDBFF110EDB0415E1FD0E9B
:10238000DBCFE9FFFE0EDBCFEAFF0A0EE926000EE7
:10239000EA22EF50036E0350E66E010EE66E0FEC7C
:1023A00016F0E552E55218D0110EDB50020814E188
:1023B000FD0EDBCFE9FFFE0EDBCFEAFF0A0EE926BA
:1023C000000EEA22EF50026E0250E66E060EE66E36
:1023D0000FEC16F0E552E552F5D0FD0EDBCFE6FF2F
:1023E000FE0EDBCFE6FF30D9E552E552F3CF42F0E7
:1023F000F4CF43F04250431002E0010E0A6EE2D0E7
:10240000FD0EDBCFE6FFFE0EDBCFE6FF1DD9E5526A
:10241000E552F3CF42F0F4CF43F04250431002E0D4
:102420000A6A8296CFD00A5001E1B6D0FD0EDBCF0A
:10243000E9FFFE0EDBCFEAFF070EE926000EEA22D7
:10244000EF50426E436A42C043F0426AFD0EDBCF5A
:10245000E9FFFE0EDBCFEAFF080EE926000EEA22B6
:10246000EF50000142243C6E000E43203D6EFD0EF5
:10247000DBCFE9FFFE0EDBCFEAFF090EE926000EF7
:10248000EA22EF50426E436A42C043F0426AFD0EB8
:10249000DBCFE9FFFE0EDBCFEAFF0A0EE926000ED6
:1024A000EA22EF50000142243E6E000E43203F6EB0
:1024B000FD0EDBCFE9FFFE0EDBCFEAFF0B0EE926B8
:1024C000000EEA22EF503A6EFD0EDBCFE9FFFE0E62
:1024D000DBCFEAFF0C0EE926000EEA22EF503B6E3E
:1024E0003A5010E13EC00BF03FC00CF03EC0E6FF9A
:1024F0003FC0E6FF040EE66E5FEC16F0E552E552D3
:10250000E5524AD03A0410E13EC0E1F43FC0E2F4A3
:102510003EC0E6FF3FC0E6FF070EE66E5FEC16F03A
:10252000E552E552E55238D0020E3A5C10E13EC069
:10253000E3F43FC0E4F43EC0E6FF3FC0E6FF090E0F
:10254000E66E5FEC16F0E552E552E55225D0030E3B
:102550003A5C10E13EC0E5F43FC0E6F43EC0E6FF61
:102560003FC0E6FF0B0EE66E5FEC16F0E552E5525B
:10257000E55212D0040E3A5C0FE13EC0E7F43FC0D2
:10258000E8F43EC0E6FF3FC0E6FF0D0EE66E5FECEE
:1025900016F0E552E552E55215D0FD0EDBCFE6FF11
:1025A000FE0EDBCFE6FF50D8E552E552F3CF42F006
:1025B000F4CF43F04250431003E0010E0E6E0F6A59
:1025C00001D000D0DF5000D0426E120EE15C02E27A
:1025D000E16AE552E16E4250E552E7CFD9FF1200C1
:1025E000EBD8FD0EDBCF42F0FE0EDBCF43F0080E42
:1025F000425C000E435821E29B0EBED802E0CED8CA
:10260000FEE1ECD8FD0EDB50E76E090EE7CFDBFFF5
:10261000FD0EDBCFF6FFFE0EDBCFF7FFF606000E5A
:10262000F75ACC0EF626310EF72208000A0EF5CF27
:10263000DBFF050EF36EDB6EB6D80F0EE15C02E237
:10264000E16AE552E16EC6D0D9CFE6FFE1CFD9FF0E
:10265000BAD8070EE926000EEA22EFCF44F044C0B4
:1026600045F0446AB0D8080EE926000EEA22EF5081
:102670004424426E000E4520436E0050421806E18D
:102680000150431803E1010EF36E01D0F36AF46ABE
:10269000A1D092D80E505FE07AD8EE50ED100AE14A
:1026A000AAD802E07BD8FEE160D80CC0DBFF0BC0EB
:1026B00042F03FD06CD8010EEE180CE1ED500AE16B
:1026C0009AD802E06BD8FEE150D8E2C4DBFFE1C447
:1026D00042F02FD05CD8020EEE180CE1ED500AE16A
:1026E0008AD802E05BD8FEE140D8E4C4DBFFE3C453
:1026F00042F01FD04CD8030EEE180CE1ED500AE169
:102700007AD802E04BD8FEE130D8E6C4DBFFE5C45E
:1027100042F00FD03CD8040EEE181DE1ED501BE145
:102720006AD802E03BD8FEE120D8E8C4DBFFE7C46A
:1027300042F00001436A0C0E42C0DBFFFD0EDB508D
:10274000E76E0D0EE7CFDBFF080EF36E050EF3CF3D
:10275000DBFF29D801D0010E426E0F0EE15C02E2D0
:10276000E16AE552E16E425035D038D8090EDB6A95
:102770000A0EDB6A0B0E1200F36E060EF3CFDBFFC0
:1027800000C042F001C043F0080E0F0B1200D950F8
:10279000FD0FE96EFF0EDA20EA6E1200D890433288
:1027A0004232E8061200D9CFE6FFDACFE6FFAFECFF
:1027B00014F0E552E5521200D9CFE6FFE1CFD9FF80
:1027C0000F0EE1261200FD0EDBCFE9FFFE0EDBCF80
:1027D000EAFF1200E552E7CFD9FF1200FF0E4216C2
:1027E000000E4316070E42C0DBFF0050E76E080ED6
:0C27F000E7CFDBFF1200F20EBCEF13F08D
:0427FC00800E6F6E6E
:102800006EAEFED7070E706E9E0E716E030E726E68
:10281000200E736E900E776E0D01F86B0F01016B39
:10282000080E196F186B1D6B1C6B1B6B1A6B1F6BE3
:102830001E6B0D01010ED46FD56BE06BE16BE26B8B
:10284000E36BE46BE56BE66BE76B606A0F01506B63
:102850000E01206B306B406B506B606B706B0D0129
:10286000FA6BFC6B6F6AA3801200BED90B0EE126D7
:10287000D950050FE96EDACFEAFF400EEE6E0F0E6B
:10288000ED6ED950070FE96EDACFEAFF300EEE6E2B
:102890000F0EED6ED950090FE96EDACFEAFF200E68
:1028A000EE6E0F0EED6E02500240E840E8401F0B46
:1028B000E66E3AD9010E73D90250200DF350E66E40
:1028C00033D9020E6CD9DF6A030EDF5C40E2D950C7
:1028D000050F426EDF50020D4250F324E96EDA50CC
:1028E000F420EA6E010EEECFDBFF020EEDCFDBFF30
:1028F000010EDBCF19F0020EDBCF1AF0030E19C068
:10290000DBFF040E1AC0DBFF010EDBCFE9FF020E76
:10291000DBCFEAFFEF50080B18E106D9EF6A04D9C4
:10292000F1D802D9F8D8010EDBCFE6FF020EDBCFDB
:10293000E6FF17D93BD9EF50040B02E137D9EF86F8
:102940008188140E046E010E03D0DF2ABDD7000E5D
:10295000426E0B0EE15C02E2E16AE55214D144D909
:102960000F0EE126FD0EDBCFE6FFFE0EDBCFE6FF0E
:102970007CDFE552E552000904E174A4F3D7000EB0
:1029800001D0010E426E0F0EE15C02E2E16AE552F7
:10299000FAD0FCD8A39074AE0ED0EAD874BC749C64
:1029A0001BD9C2D826D9A4BEA49EF4D8EF9E818A92
:1029B000140E056E1ED00201FE51FF5D0CE0FF51AA
:1029C0001BD9A0D8FF51FF2B17D90AD90201FF5DEF
:1029D00010E3FF6B0ED0FC51FD5D0EE0FD510FD9F1
:1029E00091D8FD51FD2B0BD9FBD80201FD5D01E310
:1029F000FD6BA380010E02D0A380000E426E020E7A
:102A0000E15C02E2E16AE552BED0C0D874AE33D0D8
:102A1000AFD874BC749CE0D80201FC51F0D8E9D85E
:102A2000A4BEA49EB7D8EF9E0201FC2B120EFC5D43
:102A300001E3FC6BFD51FC5D1AE1FC5103E1110E59
:102A4000FC6F01D0FC07C8D8FE51D6D8D2D80201FD
:102A5000FE2B120EFE5D01E3FE6BFF51FE5D07E1F2
:102A6000FE5103E1110EFE6F06D0FE0704D0818AED
:102A7000140E056ECBD7020EE15C02E2E16AE5526C
:102A8000E16EC0D083D8FE0EDB50060A24E0030AB4
:102A90001EE0010A18E0070A12E0010A0CE0030A2E
:102AA00006E0010A1CE1600EDE6E0F0E1BD0500E18
:102AB000DE6E0F0E17D0200EDE6E0E0E13D0300E0F
:102AC000DE6E0E0E0FD0400EDE6E0E0E0BD0500ED0
:102AD000DE6E0E0E07D0600EDE6E0E0E03D0700E90
:102AE000DE6E0E0EDD6EDECF42F0DDCF43F042C073
:102AF000F3FF43C0F4FF020EE15C02E2E16AE5523B
:102B0000E16E80D0050EE926000EEA22EF50060F96
:102B1000E66EE66A1200E9CF42F0EACF43F0E9CF71
:102B2000E6FFEACFE6FF1200FD0EDBCFE9FFFE0E67
:102B3000DBCFEAFF12000E0DF3CFE9FFF4CFEAFF7F
:102B40001200E9CF44F0EACF45F0E9CFE6FFEACF43
:102B5000E6FF7FEC18F0466E060EE15E4650120E60
:102B600012007FEC18F0446E060EE15E4450120035
:102B7000070E6F14E66E86DFE552F3CFDEFFF4CF6B
:102B8000DDFFA4921200E16E42503CD02DD8020E1F
:102B9000E1261200DECFE9FFDDCFEAFF1200E926D1
:102BA000000EEA22E552E750EF6E1200030EDBCF73
:102BB000E9FF040EDBCFEAFF1200DECFE6FFDDCF38
:102BC000E6FF1200000EE926020EEA221200000EB5
:102BD000E926030EEA221200DDDF94DFDDEF15F0B7
:102BE0009ADFA2DFA1EF15F0D9CFE6FFE1CFD9FF41
:102BF000120091DFB1EF15F09EDFE2EF15F09BDFE1
:0C2C0000E7EF15F0E552E7CFD9FF120016
:042C0C00EED8FE0EF2
:102C1000DB50A96EA69EA69CA680A850EBD0E5D856
:102C2000F29EA69EA69CA684FE0EDB50A96EFD0E0B
:102C3000DB50A86E550EA76EAA0EA76EA682A1A89D
:102C4000FED7A198F28ED6D0D0D8030EE126FE0E84
:102C5000DB50DF6EDF50DF2AE66ED8DFE552E66E2E
:102C6000D950010FE96EDACFEAFFE552E750EE6E78
:102C7000ED6ADFCFE6FFCADFE552446E456E446A77
:102C8000010EDB504410426E020EDB504510436EC5
:102C9000010E42C0DBFF020E43C0DBFF010EDBCFA3
:102CA00042F0020EDBCF43F042C0F3FF43C0F4FF1B
:102CB000030EE15C02E2E16AE552E16E9BD095D839
:102CC000E652FE0EDB50DF6EFC0EDBCFE6FFDF5080
:102CD000DF2AE66EA4DFE552E552FC0EDBCF42F0C0
:102CE000FD0EDBCF43F043C042F0436A4250E66E34
:102CF000DFCFE6FF94DFE552E552E5527BD075D891
:102D0000020EE126DF6A0A0EDF5C11E2010EDB6AC9
:102D1000DB50426E436A433404E24250F508000E31
:102D2000435403E3010EDB2AF3D7DF2AECD7020E6C
:102D3000E15C02E2E16AE552E16E5CD056D8E6520F
:102D4000DF6A640EDF5C03E2DADFDF2AFAD7E552DE
:102D500051D04BD8030EE126DF6AFC0EDB50DF5C5E
:102D600035E2DF503AD8400B04E0DF5036D8C90FC7
:102D700003D0DF5032D8D00FE76E010EE7CFDBFF74
:102D8000DF282BD8400B04E0DF2827D8C90F03D059
:102D9000DF2823D8D00FE76E020EE7CFDBFFDBCFB3
:102DA000E6FF010EDB38F00BE552E724E66EDF505C
:102DB000FE0BE842E76EFA0EDBCFE9FFFB0E1ED8F2
:102DC000E552E750EF6E020EDF26C7D7030EE15C37
:102DD00002E2E16AE552E16E0DD0E76EFD0EDBCF57
:102DE000E9FFFE0E0BD8EF501200D9CFE6FFE1CF7E
:102DF000D9FF1200E552E7CFD9FF1200DBCFEAFF7F
:0A2E0000E750E926000EEA22120056
:062E0A00D9CFE6FFE1CF85
:102E1000D9FF020EE126DE6ADD6AC26A0F0EC16EBC
:102E20009398939A94969494928092929498949A68
:102E3000949C948E94828198819A8298829A8294AA
:102E40008296829C809256D8000906E1E66A06ECDA
:102E500016F0E552FF0827E1E66AE66A0FEC16F085
:102E6000E552E552E66A010EE66E0FEC16F0E55209
:102E7000E552670EE66E120EE66E040E5CD8000E8A
:102E8000E66EE66A070E57D8E668030EE66E090E90
:102E900052D8E66A040EE66E0B0E4DD8E66A080EAE
:102EA000E66E0D0E48D8020EE15C02E2E16AE552E0
:102EB000E16EE552E7CFD9FF12000550000804E2A9
:102EC0000506055001E1819A0450000804E2040659
:102ED000045001E181980650000804E206060650FD
:102EE00001E182980750000804E20706075001E15B
:102EF000829A1200D9CFE6FFE1CFD9FFE652805087
:102F0000010BDF6EDF5002E0000E01D0010EE55232
:102F1000E552E7CFD9FF1200095002E10A5008E05C
:102F20000101FD51E8B08286E8A08296FD71120091
:102F3000829612001200E66E5FEC16F0E552E55242
:042F4000E552120044
:0C2F4400D8CFE4FFE0CFE4FFE46EDACF6A
:102F5000E4FFE2CFDAFFE9CFE4FFEACFE4FFF6CF08
:102F6000E4FFF7CFE4FFF5CFE4FFF3CFE4FFF4CFC6
:102F7000E4FFFACFE4FF00EE11F0100EE80403E3E3
:102F8000EECFE4FFFBD700EE42F0080EE80403E3C7
:102F9000EECFE4FFFBD7E6529EA231D09E92CC6AE0
:102FA0007EEC0AF03506000E365A3550361005E133
:102FB000050E356E366A5DEC17F03306000E345A96
:102FC0003350341003E1320E336E346A3106000E92
:102FD000325A3150321005E1C80E316E326A9AEC25
:102FE00017F02F06000E305A2F50301008E1F40E63
:102FF0002F6E010E306E8CEC17F0E3EC0CF0A4A0F9
:1030000005D0A490A39005EC15F0A380A46AE55226
:1030100000EE49F0080EE80403E3E5CFEDFFFBD72F
:1030200000EE20F0100EE80403E3E5CFEDFFFBD740
:10303000E5CFFAFFE5CFF4FFE5CFF3FFE5CFF5FFEE
:10304000E5CFF7FFE5CFF6FFE5CFEAFFE5CFE9FFF4
:10305000E5CFDAFFE550E5CFE0FFE5CFD8FF100080
:103060000A0EF66E050EF76E000EF86E00010900EE
:10307000F550F66F0900F550F76F03E1F66701D0E0
:103080003DD00900F550F16F0900F550F26F0900CD
:10309000F550F36F09000900F550E96E0900F5508D
:1030A000EA6E090009000900F550F46F0900F550B7
:1030B000F56F09000900F6CFF8F0F7CFF9F0F8CF77
:1030C000FAF0F1C0F6FFF2C0F7FFF3C0F8FF00011D
:1030D000F45302E1F55307E00900F550EE6EF407F2
:1030E000F8E2F507F9D7F8C0F6FFF9C0F7FFFAC024
:0E30F000F8FF0001F607000EF75BBFD71200D5
:0230FE00D9CF28
:10310000E6FFDACFE6FFFA0EE3CFD9FFFB0EE3CFFF
:10311000DAFFFC0EE3CFE9FFFD0EE3CFEAFFE9CFD4
:10312000F3FFEACFF4FFF80EE35003E1F90EE350AA
:1031300008E0F80EE30602E2F90EE306DECFEEFF4A
:10314000F2D7FF0EE3CFDAFFE552FF0EE3CFD9FF50
:04315000E552120032
:0C315400116A1FAEB3EF18F01E6C1F1EB6
:10316000E86A1F22111E1AAEBBEF18F0196C1A1E66
:10317000E86A1A22111ED0EC18F01ABECBEF18F034
:1031800011AE000C196C1A1EE86A1A22156C161E74
:10319000E86A1622000C11BEC2EF18F01288FF0C6C
:1031A000166A156A100EE76ED89019361A3615365B
:1031B00016361E50155C1F50165805E31E50155E3E
:0C31C0001F50165A192AE72EF0D71200F3
:0431CC00466138051B
:1031D00000020200000000000000000000000000EB
:0C31E000000000000000000000000000E3
:0431EC00000EF36E70
:1031F00000EE00F00D0E01D81200EA6002D0EE6A77
:0C320000FCD7F350E9601200EE6AFCD726
:02320C001200AE
:02320E000000BE
:0432100000000000BA
:020000040030CA
:0100010006F8
:0100020016E7
:0100030010EC
:0100050000FA
:010006008178
:010008000FE8
:01000900C036
:01000A000FE6
:01000B00E014
:01000C000FE4
:01000D0040B2
:0200000400F00A
:0103FF0000FD
:00000001FF
