:020000040000FA
:0600000010EF0AF01200EF
:020006001200E6
:0600080004EF03F01200FA
:02000E000000F0
:0100100000EF
:020011000000ED
:0600180075EF08F0120074
:02001E000100DF
:0C00200011000000FD01000002000000C3
:04002C00D9CFE6FF43
:10003000E1CFD9FF040EE126DE52010EDD6E020E85
:10004000DB6A0EEC08F0086A096A0A6A0B6A0C6A35
:10005000126A0D6A136A146A0E6A0F6A010E02D9D7
:10006000076EB3D8B6EC04F08CD8020EFBD8036E42
:10007000046A046E036A030EF5D8416E426AE850C2
:100080000326425004220350041005E00001031C23
:1000900005E1041C03E1380E036E046A060EE2D883
:1000A000056EE85003E0FF0E055C02E10350056EAB
:1000B000BFD8EFEC07F0040ED5D8106E116A116EA0
:1000C000106A050ECFD8416E426AE85010264250A1
:1000D00011221050111005E00001101C06E1111C46
:1000E00004E1670E106E120E116E8284030EDB6A3D
:1000F000010EDB7091EC01F000090AE1818A140E17
:10010000096E80EC05F0E76E030EE7CFDBFFF2D758
:100110005FEC04F072EC02F066EC09F0000909E013
:10012000020EDB5006E1010EF36E020EF3CFDBFF91
:10013000DDD766EC09F00009D9E1020EDB50D6E00C
:10014000020EDB6A0E5002E00E6AD0D70201520E98
:10015000F16F04C0F3F203C041F004C042F00001AB
:10016000426A03C0F4F20201020EF26FF00EE66E74
:10017000020EE66EB7EC01F0E552E552010E0E6E8E
:10018000B5D7060E156EF40E2E6E010E2F6E320EC2
:10019000326E336A040E346E356AD56AD596D590C0
:1001A000D592D594D58CD76AB00ED66ED58EF28AFC
:1001B000F184200ECA6ECA84CA90CA82CC6A640EC8
:1001C000CB6E9D82F28C9F921200D9CFE6FFE1CFD9
:1001D000D9FF020EE126DE6ADD6AF26AA66AA56A26
:1001E000A26A9F6AA36AA386A06A9D6AF06AF16AFE
:1001F000F26AA46AA16A9E6A91EC01F0000906E124
:10020000FAC2E9FFFBC2EAFFEF6AF6D7D08EF28EA0
:10021000F28CF28EE66A13EC09F0E552020EE15C14
:1002200002E2E16AE552E16EE552E7CFD9FF120042
:10023000166A1DD8B009176E070E0514200DF3506D
:10024000186E15D870090F01416F070E0514200DA7
:10025000F3CF42FF010E456F020E466FF28EF28C15
:100260003EEF01F0E66E76EC07F0E5521200780EF4
:100270000514E840E840E8401F0B1200ADD9020E1B
:10028000E126DE6ADD6A800E6F6E6EAEFED7B00EBE
:10029000776E0D01F86B606A070E706E9E0E716EC0
:1002A000030E726E200E736E010ED46FD56BD86B79
:1002B0000F01186B080E196F1A6B1B6B1C6B1D6FEF
:1002C0001E6B1F6B800E016F0D01E06BE16BE26B2B
:1002D000E36BE46BE56BE66BE76BF06BF16BF26B7A
:1002E000F36BFA6BFC6B606A0F01506B0E01206BB5
:1002F000306B406B506B606B706B6F6ADE6ADD6AEF
:100300004ED901E66ED907E234D9EF6ADF2A010E31
:10031000F7E3DB2AF5D7020EE15C02E2E16AE5527F
:1003200056D1070E6F14010A07E0010A0BE1020122
:10033000600EFA6F0F0E04D00201500EFA6F0F0E0E
:10034000FB6F0CD0020E6F5C070B100DF350020117
:10035000FA6FFB6B200EFA270E0EFB23FAC2E9FFA1
:10036000FBC2EAFFEF50800B01E0000C010C34D916
:10037000040EE126DE6ADD6A020EDB6A030EDB6A2A
:10038000DE6ADD6A0CD901E62CD93FE2F2D8EF50E3
:1003900037E110D9E66EEDD8EE52E552E750EF6E38
:1003A00005D9EF50E66EE5D8020E2AD9E552E7509E
:1003B000EF6E020EDB6A030EDB6A020EDBCF41F04A
:1003C000030EDBCF42F0D890425004E6070E415CAA
:1003D000000E425811E2DFD8F1D8EF50E66EC9D8CE
:1003E000030E0ED9EBD8E552E750EF6E020EDB2A72
:1003F000030EE3E3DB2AE1D7BCD8010EEF6E06D093
:10040000DF2A010EBFE3DB2ABDD7000E416E040ECA
:10041000E15C02E2E16AE552E16E4150E552E7CF6C
:10042000D9FF1200D9D8040EE126C0D8EF281B6EE0
:100430000F0E1716B00E1712BDD81C6EACD8EF50A9
:100440001D6EA9D8010ED2D81E6EA5D8020ECED828
:100450001F6EA1D8030ECAD8206E9DD8040EC6D830
:10046000216E99D8050EC2D8226E95D8060EBED838
:10047000236E0A0E066E8188140E086EDF6AD9504C
:10048000010FE96EDACFEAFF300EEE6E0F0EED6E61
:10049000030EDB6A0E0EF36E030EDBCFF4FFF35098
:1004A000F45C18E2DF50DF2AEA6A160FE96E000EEC
:1004B000EA22EF50E66E010EDBCFE9FFDB2A020EE7
:1004C000DBCFEAFF01E3DB2AE552E750EF6E030ED4
:1004D000DB2AE0D70F013087040EE15C02E2E16A1B
:1004E000E55275D079D8020EE1260F0130B73BD026
:1004F000DE6ADD6A54D801E674D80BE23AD8EF50D0
:10050000020802E136D8EF6ADF2A010EF3E3DB2AA4
:10051000F1D7DE6ADD6A43D801E663D824E229D840
:10052000EF041CE126D8020EEF6EDECF41F0DDCFE6
:1005300042F00A0E4202F3CF42F04102F3CF41F003
:10054000F4504226000E4126020E422241C0E6FF30
:1005500042C0E6FF67DFE552E55205D0DF2A010E13
:10056000DAE3DB2AD8D7020EE15C02E2E16AE55267
:100570002ED0DECFE9FFDDCFEAFF0A0EEA02F3CF8D
:10058000EAFFE902F3CFE9FFF450EA26000EE9267C
:10059000020EEA2212002DD8030E00EF03F0DECF88
:1005A00041F0DDCF42F0D8904250120022D8020E26
:1005B00000EF03F01ED8EE52EF501200020EDB5097
:1005C000E924E96E030EDB50EA20EA6E1200E16EC8
:1005D000E552E7CFD9FF1200D9CFE6FFE1CFD9FF2F
:1005E0001200180E415C000E4258120009D8EF505C
:1005F0001200FD0EDBCFE9FFFE0EDBCFEAFF12009B
:08060000E926000EEA221200B7
:08060800DACFE4FFE2CFDAFFD4
:10061000E9CFE4FFEACFE4FFF3CFE4FFF4CFE4FF58
:10062000E6522EDA020EE126F2A4C5D08250800BEB
:1006300001E0010EDF6EF294C20ED66E80822C2A8B
:100640002C50020801E22C6A2A0407E0255005E13B
:10065000DF5003E12D6A010E11D025502DE0250455
:1006600004E1DF501EE1020E09D0020E255C02E11A
:10067000040E04D0040E255C03E1080E256E1CD088
:10068000080E255C19E1080E295C0DE1DF0405E187
:100690002850266E010E276E02D00001B06B286A2A
:1006A000296A256A09D0020E256E28902842DF505B
:1006B000800DF3502812292A2C5001E07BD02A50BB
:1006C00001E1829CDF0436E1020E2A5C33E12D2A2F
:1006D0002A0406E12B50140803E22A6A82862AD0F3
:1006E000140ED8802B54060FD8802D5423E2010E0F
:1006F000DB6ADDD911E2010EDB50AFD9EF0409E16D
:10070000010EDB50AAD9020EEF6E010EDBCFB0F066
:1007100003D0010EDB2AEDD7CAD90BE22B2A010E3A
:100720002A6E0001B36BB46BB56F8288140E0A6E2B
:1007300001D02A6A2A043EE1DF500001B55D06E0DF
:10074000B36BB46B020E2A6E82862ED0B45102E1D6
:10075000B56B29D0090EB45D0BE1010EB56FB46B1A
:10076000B32BB051C9D9EF50B35D1EE12A6A1CD03A
:10077000B405476EB05171D9EE52E9CF45F0EACFDA
:1007800046F0B351E924E96E000EEA20EA6EEF501C
:1007900047C0E7FFE75204E0E8427F0BE706FCE1D1
:1007A000010B0001B56FB42B010EB519E8B0828CB6
:1007B000E8A0829C8092020EE15C02E2E16AE552CE
:1007C000E16EE552E7CFD9FFE552E5CFF4FFE5CF83
:1007D000F3FFE5CFEAFFE5CFE9FFE5CFDAFF110050
:1007E0000201F00EF16F90C0F3F291C0F4F292C0EA
:1007F000F5F293C0F6F294C0F7F295C0F8F296C005
:10080000F9F2070EF26F37EF05F03AD90201F00E58
:10081000F16F55D9EFCFF3F252D9010E3AD9EFCF9C
:10082000F4F24DD9020E35D9EFCFF5F248D9030EC7
:1008300030D9EFCFF6F243D9040E2BD9EFCFF7F230
:100840003ED9050E26D9EFCFF8F239D9060E21D9B7
:10085000EFCFF9F2070EF26F0AD917D1828A140E80
:100860000B6E00019051820A06E0010A01E01200BD
:100870000201090E02D00201080EF16FF26B37EF90
:1008800005F0FED8FE0EDB50E00802E1FE0E16D0A9
:10089000FE0EDB50F00BE00A0EE0200A0AE0600AD0
:1008A00006E0100A04E0300A08E1020E07D0040E48
:1008B00005D0060E03D0FF0E01D0000EE6D0E0D822
:1008C000E652275044E02650DF6E276A0001B26BE3
:1008D000B05122E1000EDF143AE1200EE66EE66A26
:1008E000E66A900EE66E000EE66ED6EC09F0416EFA
:1008F000050EE15E4150DFCFE6FFC3DFE5520001A8
:10090000B16FE85003E0FE0EB15D06E1DFCF90F07D
:10091000B1C091F065DF1BD0FF0EB15D05E1B00500
:1009200003E17F0EDF14B16F200EB05D0FE2B05116
:10093000EA6A900FE96E000EEA22DFCFEFFFB02BDC
:10094000B151B05D04E1B06B89DF01D0B06BE5520D
:100950009CD00001B051000803E3FF0EB05D05E13B
:10096000B22BB251640801E2B06B120089D8E65292
:10097000DF6A0E0EDF5C05E2DF506FD8EF6ADF2A18
:10098000F8D7256A266A276A286A296A0001B06BA7
:10099000B26B2C6A2A6AE55278D072D8030EE1262F
:1009A000DF68010EDB6A020EDB6A010EDBCF41F06D
:1009B000020EDBCF42F0FE0EDB509ED8EF040001AA
:1009C00042AE02D0D89003D0415C000E425809E2FA
:1009D0008ED8EF50DF1A010EDB2A020EE6E3DB2A87
:1009E000E4D785D8DFCFEFFF030EE15C02E2E16AD6
:1009F000E552E16E4AD044D8E652DF6ADF6A0E0E55
:100A0000DF5C06E2DF5029D8EF5002E0DF2AF7D79B
:100A10000E0EDF5C02E382861ED0020E2A5C02E02C
:100A20002D6A2B6AFAC2E9FFFBC2EAFF060EEB5001
:100A3000080A07E0010A0FE147D8830E4DD807E105
:100A400004D042D8820E48D802E1020E2A6EDFCFCF
:100A5000E6FFDBDEE552E55218D0120DF3CFE9FFD9
:100A6000F4CFEAFF000EE926010EEA221200F00E92
:100A7000E66E020EE66EB7EC01F0E552E5521200AA
:100A8000D9CFE6FFE1CFD9FF1200E552E7CFD9FF7A
:100A90001200E926000EEA221200EE52010EDB508F
:100AA000E924E96E020EDB50EA20EA6E12000E0E17
:100AB000F36E010EDBCFF4FFF350F45C1200FE0E78
:100AC000DB50CBDFEE521200DF5016D8020EEF6E75
:100AD000DF50C3DFEE521200EF6EDFCFE6FF5DDFC7
:100AE000E552DF50BADF010EEF6E2A501200FE0E03
:100AF000DB50B3DF4DEF05F0B0DF110E49EF05F02D
:100B0000D9CFE6FFE1CFD9FF030EE126DF6AFBEC88
:100B100004F0D6D9060EEB50570A01E11CD1850A24
:100B200001E10FD1860A01E107D1070A01E1FFD0F7
:100B3000C50A01E1DED0E70A01E1B2D0610A01E1B4
:100B400077D0520A4EE0310A3FE07E0A24E09C0A48
:100B500020E0080A1EE0090A1CE0080A1AE0020A5E
:100B600001E018D190D9B1D9000141243D6E000EA9
:100B700042203E6E3D50101801E00CD13E5011183D
:100B800001E008D1125001E005D10D6A010E126E8C
:100B900001D157D9FFD00201B60E6DD902E07DD93F
:100BA000FEE175D9E00EF66E130EF76E0800F5CF74
:100BB000F5F2E20EF66E130EF76E0800F5CFF6F2C0
:100BC00007C0F7F2050EE3D087D9010EF31801E054
:100BD000E1D0425001E0DED056D9E66EE66AEDD8AB
:100BE000A3D00E5001E1D6D07DD93F6E080EEB5058
:100BF000406E3F50416E426A3FC042F0416A4050F1
:100C000000014124036E000E3F20046E3F50E66E4B
:100C1000020EE66E7FEC07F0E552E5524050E66EBC
:100C2000030EE66E7FEC07F0E552E5520E6AB2D095
:100C30000E5001E1AFD00201EF0EF16FE00EF66E43
:100C4000130EF76E0800F5CFF3F2E10EF66E130EF9
:100C5000F76E0800F5CFF4F2E20EF66E130EF76EA3
:100C60000800F5CFF5F2E30EF66E130EF76E0800EE
:100C7000F5CFF6F2E40EF66E130EF76E0800F5CF20
:100C8000F7F2E50EF66E130EF76E0800F5CFF8F2E8
:100C9000E60EF66E130EF76E0800F5CFF9F276D079
:100CA000E6D801E177D0EFD8E76E010EE7CFDBFFA2
:100CB000DB040DE10201970EDED802E0EED8FEE182
:100CC000E6D8010EDBCFF5F207C0F6F210D0010E28
:100CD000DB5002085FE10201970ECDD802E0DDD8BB
:100CE000FEE1D5D8010EDBCFF5F205C0F6F2040E19
:100CF0004ED0BDD84FE0C7D8E76E020EE7CFDBFF7E
:100D0000DB0406E1D9D8076EE850E66E010E09D083
:100D1000020EDB5002083EE1CFD8056EE850E66EC9
:100D2000060EE66E7FEC07F0E552E55233D09FD811
:100D300031E0010E0F6E2ED09AD82CE00F6A829609
:100D400029D00F5027E07DD80B0EEB50396E0C0EDA
:100D5000EB503A6E1FD08BD81DE0010E136E146A53
:100D60000201F20E88D802E098D8FEE190D8F56B27
:100D7000F66B11C0F7F210C041F011C042F0000153
:100D8000426A10C0F8F20201100EF96F070E8AD8FD
:100D9000010EDF6E95D8EF6A025002E0026AA3806E
:100DA000DF50416E030EE15C02E2E16AE552E16E62
:100DB0004150E552E7CFD9FF1200D9CFE6FFE1CF8E
:100DC000D9FFFD0EDBCF41F0FE0EDBCF42F0080E67
:100DD000415C000E42581BE202019B0E4CD802E01F
:100DE0005CD8FEE154D8FD0EDBCFF5F2DBCFF6FF89
:100DF000FE0EDBCFF7FFF606000EF75AE00EF626E2
:100E0000130EF7220800F5CFF6F2040E4BD8E55288
:100E1000E7CFD9FF120066D8446E436A080EEB5044
:100E20004324416E000E4420426E0350411806E1F7
:100E30000450421803E1010EF36E01D0F36AF46A24
:100E4000120050D8416E426A426E416A080EEB5061
:100E5000000141243B6E000E42203C6E090EEB5017
:100E600034D841243D6E000E42203E6E120034D82C
:100E7000F350F4101200F16F03C041F004C042F0CF
:100E8000080E0F0B12001CD8090EEB501200415037
:100E90000201F36F0350F46F1200D89042324132D6
:100EA000E8061200F26FF00EE66E020EE66EB7EC88
:100EB00001F0E552E552120003D80A0EEB50120081
:100EC000FAC2E9FFFBC2EAFF1200416E426A426EBB
:100ED000416A0A0EEB5012009EDFF3CF41F0F4CFCF
:0C0EE00042F01200EDDF070EEB50120094
:040EEC00EED8FE0E30
:100EF000DB50A96EA69EA69CA680A850EBD0E5D894
:100F0000F29EA69EA69CA684FE0EDB50A96EFD0E48
:100F1000DB50A86E550EA76EAA0EA76EA682A1A8DA
:100F2000FED7A198F28ED6D0D0D8030EE126FE0EC1
:100F3000DB50DF6EDF50DF2AE66ED8DFE552E66E6B
:100F4000D950010FE96EDACFEAFFE552E750EE6EB5
:100F5000ED6ADFCFE6FFCADFE552436E446E436AB7
:100F6000010EDB504310416E020EDB504410426E06
:100F7000010E41C0DBFF020E42C0DBFF010EDBCFE2
:100F800041F0020EDBCF42F041C0F3FF42C0F4FF5C
:100F9000030EE15C02E2E16AE552E16E9BD095D876
:100FA000E652FE0EDB50DF6EFC0EDBCFE6FFDF50BD
:100FB000DF2AE66EA4DFE552E552FC0EDBCF41F0FE
:100FC000FD0EDBCF42F042C041F0426A4150E66E76
:100FD000DFCFE6FF94DFE552E552E5527BD075D8CE
:100FE000020EE126DF6A0A0EDF5C11E2010EDB6A07
:100FF000DB50416E426A423404E24150F508000E73
:10100000425403E3010EDB2AF3D7DF2AECD7020EAA
:10101000E15C02E2E16AE552E16E5CD056D8E6524C
:10102000DF6A640EDF5C03E2DADFDF2AFAD7E5521B
:1010300051D04BD8030EE126DF6AFC0EDB50DF5C9B
:1010400035E2DF503AD8400B04E0DF5036D8C90F04
:1010500003D0DF5032D8D00FE76E010EE7CFDBFFB1
:10106000DF282BD8400B04E0DF2827D8C90F03D096
:10107000DF2823D8D00FE76E020EE7CFDBFFDBCFF0
:10108000E6FF010EDB38F00BE552E724E66EDF5099
:10109000FE0BE842E76EFA0EDBCFE9FFFB0E1ED82F
:1010A000E552E750EF6E020EDF26C7D7030EE15C74
:1010B00002E2E16AE552E16E0DD0E76EFD0EDBCF94
:1010C000E9FFFE0E0BD8EF501200D9CFE6FFE1CFBB
:1010D000D9FF1200E552E7CFD9FF1200DBCFEAFFBC
:0A10E000E750E926000EEA22120094
:0610EA00D8CFE4FFE0CFC7
:1010F000E4FFE46EDACFE4FFE2CFDAFFE9CFE4FF0A
:10110000EACFE4FFF6CFE4FFF7CFE4FFF5CFE4FF4B
:10111000F3CFE4FFF4CFE4FFFACFE4FF00EE48F0B2
:10112000020EE80403E3EECFE4FFFBD700EE41F04C
:10113000040EE80403E3EECFE4FFFBD7E6529EA2E1
:1011400032D09E92CC6AA9EC04F03406000E355AD7
:101150003450351005E1050E346E356A49EC09F05E
:101160003206000E335A3250331006E1320E326E20
:10117000336A005001E000063006000E315A30504C
:10118000311005E1C80E306E316A86EC09F02E068A
:10119000000E2F5A2E502F1006E1F40E2E6E010E67
:1011A0002F6E78EC09F0A4AA15D0A49A0F0130ABE9
:1011B0000CD0065004E1010E016E309706D00606F1
:1011C00004E130973F0E1716308730A903D0010E87
:1011D000016E3097E55200EE44F0040EE80403E39C
:1011E000E5CFEDFFFBD700EE49F0020EE80403E384
:1011F000E5CFEDFFFBD7E5CFFAFFE5CFF4FFE5CF75
:10120000F3FFE5CFF5FFE5CFF7FFE5CFF6FFE5CF3D
:10121000EAFFE5CFE9FFE5CFDAFFE550E5CFE0FFF4
:06122000E5CFD8FF10002D
:0A122600D9CFE6FFE1CFD9FF020E99
:10123000E126DE6ADD6AC26A0F0EC16E9398939A48
:1012400094969494928092929498949A949C948E6A
:101250008198819A8298829A82948296829C8092C6
:1012600035D8000906E1E66A76EC07F0E552FF089A
:1012700006E1E66AE66A7FEC07F0E552E552020E07
:10128000E15C02E2E16AE552E16EE552E7CFD9FFA7
:1012900012000950000804E20906095001E1819A90
:1012A0000850000804E20806085001E181980A503D
:1012B000000804E20A060A5001E182980B50000877
:1012C00004E20B060B5001E1829A1200D9CFE6FF2F
:1012D000E1CFD9FFE6528050010BDF6EDF5002E014
:1012E000000E01D0010EE552E552E7CFD9FF120002
:1012F0000E5002E10F5008E00101FD51E8B0828676
:0E130000E8A08296FD71120082961200120083
:02130E001E0EB1
:10131000F66E000EF76E000EF86E00010900F55033
:10132000BB6F0900F550BC6F03E1BB6701D03DD036
:101330000900F550B66F0900F550B76F0900F55078
:10134000B86F09000900F550E96E0900F550EA6E22
:10135000090009000900F550B96F0900F550BA6F8E
:1013600009000900F6CFBDF0F7CFBEF0F8CFBFF00F
:10137000B6C0F6FFB7C0F7FFB8C0F8FF0001B95319
:1013800002E1BA5307E00900F550EE6EB907F8E242
:10139000BA07F9D7BDC0F6FFBEC0F7FFBFC0F8FF60
:0C13A0000001BB07000EBC5BBFD71200B1
:0413AC00FE0EE3CF7F
:1013B000E9FFFF0EE3CFEAFFE9CFF3FFEACFF4FF47
:1013C000FB0EE35003E1FC0EE35009E0FB0EE306E5
:1013D00002E2FC0EE306FD0EE350EE6EF1D71200C2
:1013E00046613810001B01000000000000000000F2
:1013F00000000000000000000000000000000000ED
:10140000000EF36E00EE00F00D0E01D81200EA603F
:1014100002D0EE6AFCD7F350E9601200EE6AFCD706
:101420001CEE00F02CEE00F0F86A499C87EC09F005
:0C14300003EC00F016EC00F0FBD71200FB
:020000040030CA
:0100010006F8
:0100020016E7
:0100030010EC
:0100050000FA
:010006008178
:010008000FE8
:01000900C036
:01000A000FE6
:01000B00E014
:01000C000FE4
:01000D0040B2
:00000001FF
