:020000040000FA
:060000005BEF08F01200A6
:020006001200E6
:06000800FDEF05F01200FF
:02000E000000F0
:0100100000EF
:020011000000ED
:06001800DDEF06F012000E
:02001E000100DF
:0C00200011000000FC01000002000000C4
:04002C00D9CFE6FF43
:10003000E1CFD9FF040EE126DE52010EDD6E020E85
:10004000DB6A96EC05F0086A096A0A6A0B6A0C6AB0
:10005000126A0D6A136A146A0E6A0F6A010E02D9D7
:10006000076EB3D8C9EC06F08CD8020EFBD8036E2D
:10007000046A046E036A030EF5D83D6E3E6AE850CA
:1000800003263E5004220350041005E00001031C27
:1000900005E1041C03E1380E036E046A060EE2D883
:1000A000056EE85003E0FF0E055C02E10350056EAB
:1000B000BFD877EC05F0040ED5D8106E116A116E1A
:1000C000106A050ECFD83D6E3E6AE85010263E50AD
:1000D00011221050111005E00001101C06E1111C46
:1000E00004E1670E106E120E116E8284030EDB6A3D
:1000F000010EDB7091EC01F000090AE1818A140E17
:10010000096E04EC03F0E76E030EE7CFDBFFF2D7D6
:100110007DEC06F072EC02F0CBEC07F0000909E090
:10012000020EDB5006E1010EF36E020EF3CFDBFF91
:10013000DDD7CBEC07F00009D9E1020EDB50D6E0A9
:10014000020EDB6A0E5002E00E6AD0D70101520E99
:10015000F16F04C0F3F103C03DF004C03EF00001B4
:100160003E6A03C0F4F10101020EF26FF00EE66E7A
:10017000010EE66EB7EC01F0E552E552010E0E6E8F
:10018000B5D7060E156EF40E246E010E256E320ED6
:10019000286E296A040E2A6E2B6AD56AD596D590E8
:1001A000D592D594D58CD76AB00ED66ED58EF28AFC
:1001B000F184200ECA6ECA84CA90CA82CC6A640EC8
:1001C000CB6E9D82F28C9F921200D9CFE6FFE1CFD9
:1001D000D9FF020EE126DE6ADD6AF26AA66AA56A26
:1001E000A26A9F6AA36AA386A06A9D6AF06AF16AFE
:1001F000F26AA46AA16A9E6A91EC01F0000906E124
:10020000FAC1E9FFFBC1EAFFEF6AF6D7D08EF28EA2
:10021000F28CF28EE66A7BEC07F0E552020EE15CAE
:1002200002E2E16AE552E16EE552E7CFD9FF120042
:10023000166A1DD8B009176E070E0514200DF3506D
:10024000186E15D870090F01416F070E0514200DA7
:10025000F3CF42FF010E456F020E466FF28EF28C15
:100260003EEF01F0E66EFEEC04F0E5521200780E6F
:100270000514E840E840E8401F0B1200ADD9020E1B
:10028000E126DE6ADD6A800E6F6E6EAEFED7B00EBE
:10029000776E0D01F86B606A070E706E9E0E716EC0
:1002A000030E726E200E736E010ED46FD56BD86B79
:1002B0000F01186B080E196F1A6B1B6B1C6B1D6FEF
:1002C0001E6B1F6B800E016F0D01E06BE16BE26B2B
:1002D000E36BE46BE56BE66BE76BF06BF16BF26B7A
:1002E000F36BFA6BFC6B606A0F01506B0E01206BB5
:1002F000306B406B506B606B706B6F6ADE6ADD6AEF
:100300004ED901E66ED907E234D9EF6ADF2A010E31
:10031000F7E3DB2AF5D7020EE15C02E2E16AE5527F
:1003200056D1070E6F14010A07E0010A0BE1010123
:10033000600EFA6F0F0E04D00101500EFA6F0F0E0F
:10034000FB6F0CD0020E6F5C070B100DF350010118
:10035000FA6FFB6B200EFA270E0EFB23FAC1E9FFA2
:10036000FBC1EAFFEF50800B01E0000C010C34D917
:10037000040EE126DE6ADD6A020EDB6A030EDB6A2A
:10038000DE6ADD6A0CD901E62CD93FE2F2D8EF50E3
:1003900037E110D9E66EEDD8EE52E552E750EF6E38
:1003A00005D9EF50E66EE5D8020E2AD9E552E7509E
:1003B000EF6E020EDB6A030EDB6A020EDBCF3DF04E
:1003C000030EDBCF3EF0D8903E5004E6070E3D5CB6
:1003D000000E3E5811E2DFD8F1D8EF50E66EC9D8D2
:1003E000030E0ED9EBD8E552E750EF6E020EDB2A72
:1003F000030EE3E3DB2AE1D7BCD8010EEF6E06D093
:10040000DF2A010EBFE3DB2ABDD7000E3D6E040ECE
:10041000E15C02E2E16AE552E16E3D50E552E7CF70
:10042000D9FF1200D9D8040EE126C0D8EF281B6EE0
:100430000F0E1716B00E1712BDD81C6EACD8EF50A9
:100440001D6EA9D8010ED2D81E6EA5D8020ECED828
:100450001F6EA1D8030ECAD8206E9DD8040EC6D830
:10046000216E99D8050EC2D8226E95D8060EBED838
:10047000236E0A0E066E8188140E086EDF6AD9504C
:10048000010FE96EDACFEAFF300EEE6E0F0EED6E61
:10049000030EDB6A0E0EF36E030EDBCFF4FFF35098
:1004A000F45C18E2DF50DF2AEA6A160FE96E000EEC
:1004B000EA22EF50E66E010EDBCFE9FFDB2A020EE7
:1004C000DBCFEAFF01E3DB2AE552E750EF6E030ED4
:1004D000DB2AE0D70F013087040EE15C02E2E16A1B
:1004E000E55275D079D8020EE1260F0130B73BD026
:1004F000DE6ADD6A54D801E674D80BE23AD8EF50D0
:10050000020802E136D8EF6ADF2A010EF3E3DB2AA4
:10051000F1D7DE6ADD6A43D801E663D824E229D840
:10052000EF041CE126D8020EEF6EDECF3DF0DDCFEA
:100530003EF00A0E3E02F3CF3EF03D02F3CF3DF017
:10054000F4503E26000E3D26010E3E223DC0E6FF41
:100550003EC0E6FF67DFE552E55205D0DF2A010E17
:10056000DAE3DB2AD8D7020EE15C02E2E16AE55267
:100570002ED0DECFE9FFDDCFEAFF0A0EEA02F3CF8D
:10058000EAFFE902F3CFE9FFF450EA26000EE9267C
:10059000010EEA2212002DD8030E00EF03F0DECF89
:1005A0003DF0DDCF3EF0D8903E50120022D8020E32
:1005B00000EF03F01ED8EE52EF501200020EDB5097
:1005C000E924E96E030EDB50EA20EA6E1200E16EC8
:1005D000E552E7CFD9FF1200D9CFE6FFE1CFD9FF2F
:1005E0001200180E3D5C000E3E58120009D8EF5064
:1005F0001200FD0EDBCFE9FFFE0EDBCFEAFF12009B
:08060000E926000EEA221200B7
:08060800D9CFE6FFE1CFD9FFD5
:10061000040EE126DF6ADED9060EEB50570A01E12F
:1006200029D1850A01E11CD1860A01E114D1070A0A
:1006300001E10CD1C50A01E1E9D0E70A01E1BED030
:10064000790A01E1ABD0180A01E170D0520A48E002
:10065000310A39E07E0A1EE09C0A1AE0080A18E016
:10066000090A16E0080A14E0020A01E01ED18BD93B
:10067000B6D93350101801E018D13450111801E0E8
:1006800014D1125001E011D10D6A010E126E0DD17C
:1006900063D90BD10101B60E6ED902E07ED9FEE11D
:1006A00076D9760EF66E100EF76E0800F5CFF5F1DE
:1006B000780EF66E100EF76E0800F5CFF6F107C053
:1006C000F7F1050EEFD07CD9010EF31801E0EDD063
:1006D0003E5001E0EAD057D9E66EE66AF9D8B3D0C9
:1006E0000E5001E1E2D086D9356E080EEB50366E21
:1006F00035503E6A35C03EF03D6A365000013D241B
:10070000036E000E3520046E3550E66E020EE66E66
:1007100007EC05F0E552E5523650E66E030EE66E44
:1007200007EC05F0E552E5520E6ABFD00E5001E12C
:10073000BCD00101EF0EF16F760EF66E100EF76E63
:100740000800F5CFF3F1770EF66E100EF76E080085
:10075000F5CFF4F1780EF66E100EF76E0800F5CFB7
:10076000F5F1790EF66E100EF76E0800F5CFF6F182
:100770007A0EF66E100EF76E0800F5CFF7F17B0ECD
:10078000F66E100EF76E0800F5CFF8F17C0EF66EDF
:10079000100EF76E0800F5CFF9F183D007A085D0D1
:1007A000010EDB6A080EF36E010EDBCFF4FFF3508F
:1007B000F45C01E37AD0010EDB2AF4D7FDD875E0B2
:1007C000E2D8E76E020EE7CFDBFFDB040DE10101AB
:1007D000970ED1D802E0E1D8FEE1D9D8020EDBCFE6
:1007E000F5F107C0F6F110D0020EDB5002085DE112
:1007F0000101970EC0D802E0D0D8FEE1C8D8020EA1
:10080000DBCFF5F105C0F6F1040E4CD0D9D8F3508A
:10081000F4104BE0B8D8E76E030EE7CFDBFFDB0444
:1008200006E1D4D8076EE850E66E010E09D0030E3B
:10083000DB5002083AE1CAD8056EE850E66E060EB3
:10084000E66E07EC05F0E552E5522FD0B5D82DE065
:10085000010E0F6E2AD0B0D828E00F6A829625D0FC
:100860000F5023E079D80B0EEB502F6E0C0EEB508F
:10087000306E1BD0A1D819E0010E136E146A01016D
:10088000F20E79D802E089D8FEE181D8F56BF66BDB
:1008900011C0F7F110C03DF03E6A10C0F8F1100E23
:1008A000F96F070E7FD8010EDF6E94D8EF6A025001
:1008B00002E0026AA380DF503D6E040EE15C02E2BA
:1008C000E16AE552E16E3D50E552E7CFD9FF1200F3
:1008D000D9CFE6FFE1CFD9FFFD0EDBCF3DF0FE0E15
:1008E000DBCF3EF0080E3D5C000E3E581BE20101DE
:1008F0009B0E41D802E051D8FEE149D8FD0EDBCF76
:10090000F5F1DBCFF6FFFE0EDBCFF7FFF606000EAC
:10091000F75A760EF626100EF7220800F5CFF6F1FC
:10092000040E40D8E552E7CFD9FF120063D8406EDD
:100930003F6A080EEB503F243D6E000E40203E6E95
:1009400003503D1806E104503E1803E1010EF36E1A
:1009500001D0F36AF46A12004DD83E6A3E6E3D6AD9
:10096000080EEB503D24316E000E3E20326E090E13
:10097000EB50EFEF04F0F16F03C03DF004C03EF028
:10098000080E0F0B120026D8090EEB5012003D5036
:100990000101F36F0350F46F1200D8903E323D32E4
:1009A000E8061200F26FF00EE66E010EE66EB7EC8E
:1009B00001F0E552E5521200B9DFF350F4101200D5
:1009C000B5DFF3CF3DF0F4CF3EF0120003D80A0EAE
:1009D000EB501200FAC1E9FFFBC1EAFF12003E6AC8
:1009E0003E6E3D6A0A0EEB503D24336E000E3E20F3
:0C09F000346E1200EFDF070EEB50120017
:0409FC00EED8FE0E25
:100A0000DB50A96EA69EA69CA680A850EBD0E5D888
:100A1000F29EA69EA69CA684FE0EDB50A96EFD0E3D
:100A2000DB50A86E550EA76EAA0EA76EA682A1A8CF
:100A3000FED7A198F28ED6D0D0D8030EE126FE0EB6
:100A4000DB50DF6EDF50DF2AE66ED8DFE552E66E60
:100A5000D950010FE96EDACFEAFFE552E750EE6EAA
:100A6000ED6ADFCFE6FFCADFE5523F6E406E3F6AB8
:100A7000010EDB503F103D6E020EDB5040103E6E0B
:100A8000010E3DC0DBFF020E3EC0DBFF010EDBCFDF
:100A90003DF0020EDBCF3EF03DC0F3FF3EC0F4FF61
:100AA000030EE15C02E2E16AE552E16E9BD095D86B
:100AB000E652FE0EDB50DF6EFC0EDBCFE6FFDF50B2
:100AC000DF2AE66EA4DFE552E552FC0EDBCF3DF0F7
:100AD000FD0EDBCF3EF03EC03DF03E6A3D50E66E7F
:100AE000DFCFE6FF94DFE552E552E5527BD075D8C3
:100AF000020EE126DF6A0A0EDF5C11E2010EDB6AFC
:100B0000DB503D6E3E6A3E3404E23D50F508000E77
:100B10003E5403E3010EDB2AF3D7DF2AECD7020EA3
:100B2000E15C02E2E16AE552E16E5CD056D8E65241
:100B3000DF6A640EDF5C03E2DADFDF2AFAD7E55210
:100B400051D04BD8030EE126DF6AFC0EDB50DF5C90
:100B500035E2DF503AD8400B04E0DF5036D8C90FF9
:100B600003D0DF5032D8D00FE76E010EE7CFDBFFA6
:100B7000DF282BD8400B04E0DF2827D8C90F03D08B
:100B8000DF2823D8D00FE76E020EE7CFDBFFDBCFE5
:100B9000E6FF010EDB38F00BE552E724E66EDF508E
:100BA000FE0BE842E76EFA0EDBCFE9FFFB0E1ED824
:100BB000E552E750EF6E020EDF26C7D7030EE15C69
:100BC00002E2E16AE552E16E0DD0E76EFD0EDBCF89
:100BD000E9FFFE0E0BD8EF501200D9CFE6FFE1CFB0
:100BE000D9FF1200E552E7CFD9FF1200DBCFEAFFB1
:0A0BF000E750E926000EEA22120089
:060BFA00DACFE4FFE2CFB8
:100C0000DAFFE652CFD8F2A438D08250800B01E050
:100C1000010EDF6EF294BC0ED66E8288385004E16D
:100C2000DF5002E1010E11D0385026E0380404E113
:100C3000DF5019E1020E09D0020E385C02E1040E09
:100C400004D0040E385C03E1080E386E15D0080E8F
:100C5000385C12E1080E3C5C08E13B50396E010E35
:100C60003A6E3B6A3C6A386A07D0020E386E3B9097
:100C70003B42DF503B123C2A82989AD8E552E5CF9E
:100C8000DAFF11000001C051820A06E0010A01E00A
:100C900012000101090E02D00101080EF16FF26B82
:100CA000F00EE66E010EE66EB7EC01F0E552E5528D
:100CB0001200D9CFE6FFE1CFD9FFFE0EDB50E008EE
:100CC00002E1000E16D0FE0EDB50F00BE00A0EE043
:100CD000200A0AE0600A06E0100A04E0300A08E18F
:100CE000020E07D0040E05D0060E03D0FF0E01D071
:100CF000000EE552E7CFD9FF120054D83A5030E049
:100D00003950DF6E3A6A0001E26BE0510EE1000EED
:100D1000DF1426E1828A140E0B6EDFCFE6FFC9DFF7
:100D2000E5520001E16FE8501BE0FF0EE15D05E1D7
:100D3000E00503E17F0EDF14E16F200EE05D0FE2BE
:100D4000E051EA6AC00FE96E000EEA22DFCFEFFF42
:100D5000E02BE151E05D04E1E06B94DF01D0E06B5A
:100D6000D8EF06F00001E051000803E3FF0EE05D5C
:100D700005E1E22BE251640801E2E06B120012D8B7
:100D8000FC0EDB50DF5C02E1010E01D0000ED8EF5B
:100D900006F0386A396A3A6A3B6A3C6A0001E06BDD
:100DA000E26B1200D9CFE6FFE1CFD9FFE652120085
:0A0DB000E552E552E7CFD9FF12002B
:060DBA00D8CFE4FFE0CFFA
:100DC000E4FFE46EDACFE4FFE2CFDAFFE9CFE4FF3D
:100DD000EACFE4FFF6CFE4FFF7CFE4FFF5CFE4FF7F
:100DE000F3CFE4FFF4CFE4FFFACFE4FF00EE41F0ED
:100DF000020EE80403E3EECFE4FFFBD700EE3DF084
:100E0000040EE80403E3EECFE4FFFBD7E6529EA214
:100E100032D09E92CC6AB2EC06F02A06000E2B5A13
:100E20002A502B1005E1050E2A6E2B6AAEEC07F056
:100E30002806000E295A2850291006E1320E286E85
:100E4000296A005001E000062606000E275A2650A7
:100E5000271005E1C80E266E276AEBEC07F0240682
:100E6000000E255A2450251006E1F40E246E010EC2
:100E7000256EDDEC07F0A4AA15D0A49A0F0130ABC3
:100E80000CD0065004E1010E016E309706D0060624
:100E900004E130973F0E1716308730A903D0010EBA
:100EA000016E3097E55200EE40F0040EE80403E3D3
:100EB000E5CFEDFFFBD700EE42F0020EE80403E3BE
:100EC000E5CFEDFFFBD7E5CFFAFFE5CFF4FFE5CFA8
:100ED000F3FFE5CFF5FFE5CFF7FFE5CFF6FFE5CF71
:100EE000EAFFE5CFE9FFE5CFDAFFE550E5CFE0FF28
:060EF000E5CFD8FF100061
:0A0EF600D9CFE6FFE1CFD9FF020ECD
:100F0000E126DE6ADD6AC26A0F0EC16E9398939A7B
:100F10009496949492809498949A949C948E8198A8
:100F2000819A8298829A8294829635D8000906E145
:100F3000E66AFEEC04F0E552FF0806E1E66AE66ABE
:100F400007EC05F0E552E552020EE15C02E2E16ACF
:100F5000E552E16EE552E7CFD9FF120009500008D3
:100F600004E20906095001E1819A0850000804E2F0
:100F70000806085001E181980A50000804E20A06B8
:100F80000A5001E182980B50000804E20B060B5056
:100F900001E1829A1200D9CFE6FFE1CFD9FFE652F4
:100FA0008050010BDF6EDF5002E0000E01D0010E19
:100FB000E552E552E7CFD9FF12000E5002E10F5083
:100FC00008E00101FC51E8B08286E8A08296FC713D
:080FD0001200829612001200CB
:080FD8001E0EF66E000EF76E0E
:100FE000000EF86E00010900F550E86F0900F55099
:100FF000E96F03E1E86701D03DD00900F550E36FE8
:101000000900F550E46F0900F550E56F090009008B
:10101000F550E96E0900F550EA6E09000900090073
:10102000F550E66F0900F550E76F09000900F6CFAB
:10103000EAF0F7CFEBF0F8CFECF0E3C0F6FFE4C056
:10104000F7FFE5C0F8FF0001E65302E1E75307E0D0
:101050000900F550EE6EE607F8E2E707F9D7EAC0B7
:10106000F6FFEBC0F7FFECC0F8FF0001E807000E49
:06107000E95BBFD712008E
:0A10760046613810001B0100000065
:101080000000000000000000000000000000000060
:061090000000000000005A
:0A109600000EF36E00EE00F00D0EE8
:1010A00001D81200EA6002D0EE6AFCD7F350E96082
:0610B0001200EE6AFCD7FD
:0A10B6001CEE00F02CEE00F0F86ACA
:1010C000429CECEC07F003EC00F016EC00F0FBD7D0
:0210D00012000C
:020000040030CA
:0100010006F8
:0100020016E7
:0100030010EC
:0100050000FA
:010006008178
:010008000FE8
:01000900C036
:01000A000FE6
:01000B00E014
:01000C000FE4
:01000D0040B2
:00000001FF
